{
	"BContract.sol": {
		"TokenTransfer": {
			"abi": [
				{
					"inputs": [
						{
							"internalType": "address",
							"name": "_tokenContract",
							"type": "address"
						}
					],
					"stateMutability": "nonpayable",
					"type": "constructor"
				},
				{
					"inputs": [],
					"name": "tokenContract",
					"outputs": [
						{
							"internalType": "contract ERC20",
							"name": "",
							"type": "address"
						}
					],
					"stateMutability": "view",
					"type": "function"
				},
				{
					"inputs": [
						{
							"internalType": "address",
							"name": "_recipient",
							"type": "address"
						},
						{
							"internalType": "uint256",
							"name": "_amount",
							"type": "uint256"
						}
					],
					"name": "transferTokens",
					"outputs": [],
					"stateMutability": "nonpayable",
					"type": "function"
				}
			],
			"devdoc": {
				"kind": "dev",
				"methods": {},
				"version": 1
			},
			"evm": {
				"assembly": "    /* \"BContract.sol\":650:980  contract TokenTransfer {... */\n  mstore(0x40, 0x80)\n    /* \"BContract.sol\":715:807  constructor(address _tokenContract) {... */\n  callvalue\n  dup1\n  iszero\n  tag_1\n  jumpi\n  0x00\n  dup1\n  revert\ntag_1:\n  pop\n  mload(0x40)\n  sub(codesize, bytecodeSize)\n  dup1\n  bytecodeSize\n  dup4\n  codecopy\n  dup2\n  dup2\n  add\n  0x40\n  mstore\n  dup2\n  add\n  swap1\n  tag_2\n  swap2\n  swap1\n  tag_3\n  jump\t// in\ntag_2:\n    /* \"BContract.sol\":784:798  _tokenContract */\n  dup1\n    /* \"BContract.sol\":762:775  tokenContract */\n  0x00\n  dup1\n    /* \"BContract.sol\":762:799  tokenContract = ERC20(_tokenContract) */\n  0x0100\n  exp\n  dup2\n  sload\n  dup2\n  0xffffffffffffffffffffffffffffffffffffffff\n  mul\n  not\n  and\n  swap1\n  dup4\n  0xffffffffffffffffffffffffffffffffffffffff\n  and\n  mul\n  or\n  swap1\n  sstore\n  pop\n    /* \"BContract.sol\":715:807  constructor(address _tokenContract) {... */\n  pop\n    /* \"BContract.sol\":650:980  contract TokenTransfer {... */\n  jump(tag_6)\n    /* \"#utility.yul\":88:205   */\ntag_8:\n    /* \"#utility.yul\":197:198   */\n  0x00\n    /* \"#utility.yul\":194:195   */\n  dup1\n    /* \"#utility.yul\":187:199   */\n  revert\n    /* \"#utility.yul\":334:460   */\ntag_10:\n    /* \"#utility.yul\":371:378   */\n  0x00\n    /* \"#utility.yul\":411:453   */\n  0xffffffffffffffffffffffffffffffffffffffff\n    /* \"#utility.yul\":404:409   */\n  dup3\n    /* \"#utility.yul\":400:454   */\n  and\n    /* \"#utility.yul\":389:454   */\n  swap1\n  pop\n    /* \"#utility.yul\":334:460   */\n  swap2\n  swap1\n  pop\n  jump\t// out\n    /* \"#utility.yul\":466:562   */\ntag_11:\n    /* \"#utility.yul\":503:510   */\n  0x00\n    /* \"#utility.yul\":532:556   */\n  tag_20\n    /* \"#utility.yul\":550:555   */\n  dup3\n    /* \"#utility.yul\":532:556   */\n  tag_10\n  jump\t// in\ntag_20:\n    /* \"#utility.yul\":521:556   */\n  swap1\n  pop\n    /* \"#utility.yul\":466:562   */\n  swap2\n  swap1\n  pop\n  jump\t// out\n    /* \"#utility.yul\":568:690   */\ntag_12:\n    /* \"#utility.yul\":641:665   */\n  tag_22\n    /* \"#utility.yul\":659:664   */\n  dup2\n    /* \"#utility.yul\":641:665   */\n  tag_11\n  jump\t// in\ntag_22:\n    /* \"#utility.yul\":634:639   */\n  dup2\n    /* \"#utility.yul\":631:666   */\n  eq\n    /* \"#utility.yul\":621:684   */\n  tag_23\n  jumpi\n    /* \"#utility.yul\":680:681   */\n  0x00\n    /* \"#utility.yul\":677:678   */\n  dup1\n    /* \"#utility.yul\":670:682   */\n  revert\n    /* \"#utility.yul\":621:684   */\ntag_23:\n    /* \"#utility.yul\":568:690   */\n  pop\n  jump\t// out\n    /* \"#utility.yul\":696:839   */\ntag_13:\n    /* \"#utility.yul\":753:758   */\n  0x00\n    /* \"#utility.yul\":784:790   */\n  dup2\n    /* \"#utility.yul\":778:791   */\n  mload\n    /* \"#utility.yul\":769:791   */\n  swap1\n  pop\n    /* \"#utility.yul\":800:833   */\n  tag_25\n    /* \"#utility.yul\":827:832   */\n  dup2\n    /* \"#utility.yul\":800:833   */\n  tag_12\n  jump\t// in\ntag_25:\n    /* \"#utility.yul\":696:839   */\n  swap3\n  swap2\n  pop\n  pop\n  jump\t// out\n    /* \"#utility.yul\":845:1196   */\ntag_3:\n    /* \"#utility.yul\":915:921   */\n  0x00\n    /* \"#utility.yul\":964:966   */\n  0x20\n    /* \"#utility.yul\":952:961   */\n  dup3\n    /* \"#utility.yul\":943:950   */\n  dup5\n    /* \"#utility.yul\":939:962   */\n  sub\n    /* \"#utility.yul\":935:967   */\n  slt\n    /* \"#utility.yul\":932:1051   */\n  iszero\n  tag_27\n  jumpi\n    /* \"#utility.yul\":970:1049   */\n  tag_28\n  tag_8\n  jump\t// in\ntag_28:\n    /* \"#utility.yul\":932:1051   */\ntag_27:\n    /* \"#utility.yul\":1090:1091   */\n  0x00\n    /* \"#utility.yul\":1115:1179   */\n  tag_29\n    /* \"#utility.yul\":1171:1178   */\n  dup5\n    /* \"#utility.yul\":1162:1168   */\n  dup3\n    /* \"#utility.yul\":1151:1160   */\n  dup6\n    /* \"#utility.yul\":1147:1169   */\n  add\n    /* \"#utility.yul\":1115:1179   */\n  tag_13\n  jump\t// in\ntag_29:\n    /* \"#utility.yul\":1105:1179   */\n  swap2\n  pop\n    /* \"#utility.yul\":1061:1189   */\n  pop\n    /* \"#utility.yul\":845:1196   */\n  swap3\n  swap2\n  pop\n  pop\n  jump\t// out\n    /* \"BContract.sol\":650:980  contract TokenTransfer {... */\ntag_6:\n  dataSize(sub_0)\n  dup1\n  dataOffset(sub_0)\n  0x00\n  codecopy\n  0x00\n  return\nstop\n\nsub_0: assembly {\n        /* \"BContract.sol\":650:980  contract TokenTransfer {... */\n      mstore(0x40, 0x80)\n      callvalue\n      dup1\n      iszero\n      tag_1\n      jumpi\n      0x00\n      dup1\n      revert\n    tag_1:\n      pop\n      jumpi(tag_2, lt(calldatasize, 0x04))\n      shr(0xe0, calldataload(0x00))\n      dup1\n      0x55a373d6\n      eq\n      tag_3\n      jumpi\n      dup1\n      0xbec3fa17\n      eq\n      tag_4\n      jumpi\n    tag_2:\n      0x00\n      dup1\n      revert\n        /* \"BContract.sol\":680:706  ERC20 public tokenContract */\n    tag_3:\n      tag_5\n      tag_6\n      jump\t// in\n    tag_5:\n      mload(0x40)\n      tag_7\n      swap2\n      swap1\n      tag_8\n      jump\t// in\n    tag_7:\n      mload(0x40)\n      dup1\n      swap2\n      sub\n      swap1\n      return\n        /* \"BContract.sol\":813:977  function transferTokens(address _recipient, uint256 _amount) public {... */\n    tag_4:\n      tag_9\n      0x04\n      dup1\n      calldatasize\n      sub\n      dup2\n      add\n      swap1\n      tag_10\n      swap2\n      swap1\n      tag_11\n      jump\t// in\n    tag_10:\n      tag_12\n      jump\t// in\n    tag_9:\n      stop\n        /* \"BContract.sol\":680:706  ERC20 public tokenContract */\n    tag_6:\n      0x00\n      dup1\n      sload\n      swap1\n      0x0100\n      exp\n      swap1\n      div\n      0xffffffffffffffffffffffffffffffffffffffff\n      and\n      dup2\n      jump\t// out\n        /* \"BContract.sol\":813:977  function transferTokens(address _recipient, uint256 _amount) public {... */\n    tag_12:\n        /* \"BContract.sol\":900:913  tokenContract */\n      0x00\n      dup1\n      sload\n      swap1\n      0x0100\n      exp\n      swap1\n      div\n      0xffffffffffffffffffffffffffffffffffffffff\n      and\n        /* \"BContract.sol\":900:922  tokenContract.transfer */\n      0xffffffffffffffffffffffffffffffffffffffff\n      and\n      0xa9059cbb\n        /* \"BContract.sol\":923:933  _recipient */\n      dup4\n        /* \"BContract.sol\":935:942  _amount */\n      dup4\n        /* \"BContract.sol\":900:943  tokenContract.transfer(_recipient, _amount) */\n      mload(0x40)\n      dup4\n      0xffffffff\n      and\n      0xe0\n      shl\n      dup2\n      mstore\n      0x04\n      add\n      tag_14\n      swap3\n      swap2\n      swap1\n      tag_15\n      jump\t// in\n    tag_14:\n      0x20\n      mload(0x40)\n      dup1\n      dup4\n      sub\n      dup2\n      0x00\n      dup8\n      gas\n      call\n      iszero\n      dup1\n      iszero\n      tag_17\n      jumpi\n      returndatasize\n      0x00\n      dup1\n      returndatacopy\n      revert(0x00, returndatasize)\n    tag_17:\n      pop\n      pop\n      pop\n      pop\n      mload(0x40)\n      returndatasize\n      not(0x1f)\n      0x1f\n      dup3\n      add\n      and\n      dup3\n      add\n      dup1\n      0x40\n      mstore\n      pop\n      dup2\n      add\n      swap1\n      tag_18\n      swap2\n      swap1\n      tag_19\n      jump\t// in\n    tag_18:\n        /* \"BContract.sol\":892:969  require(tokenContract.transfer(_recipient, _amount), \"Token transfer failed\") */\n      tag_20\n      jumpi\n      mload(0x40)\n      0x08c379a000000000000000000000000000000000000000000000000000000000\n      dup2\n      mstore\n      0x04\n      add\n      tag_21\n      swap1\n      tag_22\n      jump\t// in\n    tag_21:\n      mload(0x40)\n      dup1\n      swap2\n      sub\n      swap1\n      revert\n    tag_20:\n        /* \"BContract.sol\":813:977  function transferTokens(address _recipient, uint256 _amount) public {... */\n      pop\n      pop\n      jump\t// out\n        /* \"#utility.yul\":7:133   */\n    tag_23:\n        /* \"#utility.yul\":44:51   */\n      0x00\n        /* \"#utility.yul\":84:126   */\n      0xffffffffffffffffffffffffffffffffffffffff\n        /* \"#utility.yul\":77:82   */\n      dup3\n        /* \"#utility.yul\":73:127   */\n      and\n        /* \"#utility.yul\":62:127   */\n      swap1\n      pop\n        /* \"#utility.yul\":7:133   */\n      swap2\n      swap1\n      pop\n      jump\t// out\n        /* \"#utility.yul\":139:199   */\n    tag_24:\n        /* \"#utility.yul\":167:170   */\n      0x00\n        /* \"#utility.yul\":188:193   */\n      dup2\n        /* \"#utility.yul\":181:193   */\n      swap1\n      pop\n        /* \"#utility.yul\":139:199   */\n      swap2\n      swap1\n      pop\n      jump\t// out\n        /* \"#utility.yul\":205:347   */\n    tag_25:\n        /* \"#utility.yul\":255:264   */\n      0x00\n        /* \"#utility.yul\":288:341   */\n      tag_50\n        /* \"#utility.yul\":306:340   */\n      tag_51\n        /* \"#utility.yul\":315:339   */\n      tag_52\n        /* \"#utility.yul\":333:338   */\n      dup5\n        /* \"#utility.yul\":315:339   */\n      tag_23\n      jump\t// in\n    tag_52:\n        /* \"#utility.yul\":306:340   */\n      tag_24\n      jump\t// in\n    tag_51:\n        /* \"#utility.yul\":288:341   */\n      tag_23\n      jump\t// in\n    tag_50:\n        /* \"#utility.yul\":275:341   */\n      swap1\n      pop\n        /* \"#utility.yul\":205:347   */\n      swap2\n      swap1\n      pop\n      jump\t// out\n        /* \"#utility.yul\":353:479   */\n    tag_26:\n        /* \"#utility.yul\":403:412   */\n      0x00\n        /* \"#utility.yul\":436:473   */\n      tag_54\n        /* \"#utility.yul\":467:472   */\n      dup3\n        /* \"#utility.yul\":436:473   */\n      tag_25\n      jump\t// in\n    tag_54:\n        /* \"#utility.yul\":423:473   */\n      swap1\n      pop\n        /* \"#utility.yul\":353:479   */\n      swap2\n      swap1\n      pop\n      jump\t// out\n        /* \"#utility.yul\":485:623   */\n    tag_27:\n        /* \"#utility.yul\":547:556   */\n      0x00\n        /* \"#utility.yul\":580:617   */\n      tag_56\n        /* \"#utility.yul\":611:616   */\n      dup3\n        /* \"#utility.yul\":580:617   */\n      tag_26\n      jump\t// in\n    tag_56:\n        /* \"#utility.yul\":567:617   */\n      swap1\n      pop\n        /* \"#utility.yul\":485:623   */\n      swap2\n      swap1\n      pop\n      jump\t// out\n        /* \"#utility.yul\":629:784   */\n    tag_28:\n        /* \"#utility.yul\":728:777   */\n      tag_58\n        /* \"#utility.yul\":771:776   */\n      dup2\n        /* \"#utility.yul\":728:777   */\n      tag_27\n      jump\t// in\n    tag_58:\n        /* \"#utility.yul\":723:726   */\n      dup3\n        /* \"#utility.yul\":716:778   */\n      mstore\n        /* \"#utility.yul\":629:784   */\n      pop\n      pop\n      jump\t// out\n        /* \"#utility.yul\":790:1036   */\n    tag_8:\n        /* \"#utility.yul\":895:899   */\n      0x00\n        /* \"#utility.yul\":933:935   */\n      0x20\n        /* \"#utility.yul\":922:931   */\n      dup3\n        /* \"#utility.yul\":918:936   */\n      add\n        /* \"#utility.yul\":910:936   */\n      swap1\n      pop\n        /* \"#utility.yul\":946:1029   */\n      tag_60\n        /* \"#utility.yul\":1026:1027   */\n      0x00\n        /* \"#utility.yul\":1015:1024   */\n      dup4\n        /* \"#utility.yul\":1011:1028   */\n      add\n        /* \"#utility.yul\":1002:1008   */\n      dup5\n        /* \"#utility.yul\":946:1029   */\n      tag_28\n      jump\t// in\n    tag_60:\n        /* \"#utility.yul\":790:1036   */\n      swap3\n      swap2\n      pop\n      pop\n      jump\t// out\n        /* \"#utility.yul\":1123:1240   */\n    tag_30:\n        /* \"#utility.yul\":1232:1233   */\n      0x00\n        /* \"#utility.yul\":1229:1230   */\n      dup1\n        /* \"#utility.yul\":1222:1234   */\n      revert\n        /* \"#utility.yul\":1369:1465   */\n    tag_32:\n        /* \"#utility.yul\":1406:1413   */\n      0x00\n        /* \"#utility.yul\":1435:1459   */\n      tag_65\n        /* \"#utility.yul\":1453:1458   */\n      dup3\n        /* \"#utility.yul\":1435:1459   */\n      tag_23\n      jump\t// in\n    tag_65:\n        /* \"#utility.yul\":1424:1459   */\n      swap1\n      pop\n        /* \"#utility.yul\":1369:1465   */\n      swap2\n      swap1\n      pop\n      jump\t// out\n        /* \"#utility.yul\":1471:1593   */\n    tag_33:\n        /* \"#utility.yul\":1544:1568   */\n      tag_67\n        /* \"#utility.yul\":1562:1567   */\n      dup2\n        /* \"#utility.yul\":1544:1568   */\n      tag_32\n      jump\t// in\n    tag_67:\n        /* \"#utility.yul\":1537:1542   */\n      dup2\n        /* \"#utility.yul\":1534:1569   */\n      eq\n        /* \"#utility.yul\":1524:1587   */\n      tag_68\n      jumpi\n        /* \"#utility.yul\":1583:1584   */\n      0x00\n        /* \"#utility.yul\":1580:1581   */\n      dup1\n        /* \"#utility.yul\":1573:1585   */\n      revert\n        /* \"#utility.yul\":1524:1587   */\n    tag_68:\n        /* \"#utility.yul\":1471:1593   */\n      pop\n      jump\t// out\n        /* \"#utility.yul\":1599:1738   */\n    tag_34:\n        /* \"#utility.yul\":1645:1650   */\n      0x00\n        /* \"#utility.yul\":1683:1689   */\n      dup2\n        /* \"#utility.yul\":1670:1690   */\n      calldataload\n        /* \"#utility.yul\":1661:1690   */\n      swap1\n      pop\n        /* \"#utility.yul\":1699:1732   */\n      tag_70\n        /* \"#utility.yul\":1726:1731   */\n      dup2\n        /* \"#utility.yul\":1699:1732   */\n      tag_33\n      jump\t// in\n    tag_70:\n        /* \"#utility.yul\":1599:1738   */\n      swap3\n      swap2\n      pop\n      pop\n      jump\t// out\n        /* \"#utility.yul\":1744:1821   */\n    tag_35:\n        /* \"#utility.yul\":1781:1788   */\n      0x00\n        /* \"#utility.yul\":1810:1815   */\n      dup2\n        /* \"#utility.yul\":1799:1815   */\n      swap1\n      pop\n        /* \"#utility.yul\":1744:1821   */\n      swap2\n      swap1\n      pop\n      jump\t// out\n        /* \"#utility.yul\":1827:1949   */\n    tag_36:\n        /* \"#utility.yul\":1900:1924   */\n      tag_73\n        /* \"#utility.yul\":1918:1923   */\n      dup2\n        /* \"#utility.yul\":1900:1924   */\n      tag_35\n      jump\t// in\n    tag_73:\n        /* \"#utility.yul\":1893:1898   */\n      dup2\n        /* \"#utility.yul\":1890:1925   */\n      eq\n        /* \"#utility.yul\":1880:1943   */\n      tag_74\n      jumpi\n        /* \"#utility.yul\":1939:1940   */\n      0x00\n        /* \"#utility.yul\":1936:1937   */\n      dup1\n        /* \"#utility.yul\":1929:1941   */\n      revert\n        /* \"#utility.yul\":1880:1943   */\n    tag_74:\n        /* \"#utility.yul\":1827:1949   */\n      pop\n      jump\t// out\n        /* \"#utility.yul\":1955:2094   */\n    tag_37:\n        /* \"#utility.yul\":2001:2006   */\n      0x00\n        /* \"#utility.yul\":2039:2045   */\n      dup2\n        /* \"#utility.yul\":2026:2046   */\n      calldataload\n        /* \"#utility.yul\":2017:2046   */\n      swap1\n      pop\n        /* \"#utility.yul\":2055:2088   */\n      tag_76\n        /* \"#utility.yul\":2082:2087   */\n      dup2\n        /* \"#utility.yul\":2055:2088   */\n      tag_36\n      jump\t// in\n    tag_76:\n        /* \"#utility.yul\":1955:2094   */\n      swap3\n      swap2\n      pop\n      pop\n      jump\t// out\n        /* \"#utility.yul\":2100:2574   */\n    tag_11:\n        /* \"#utility.yul\":2168:2174   */\n      0x00\n        /* \"#utility.yul\":2176:2182   */\n      dup1\n        /* \"#utility.yul\":2225:2227   */\n      0x40\n        /* \"#utility.yul\":2213:2222   */\n      dup4\n        /* \"#utility.yul\":2204:2211   */\n      dup6\n        /* \"#utility.yul\":2200:2223   */\n      sub\n        /* \"#utility.yul\":2196:2228   */\n      slt\n        /* \"#utility.yul\":2193:2312   */\n      iszero\n      tag_78\n      jumpi\n        /* \"#utility.yul\":2231:2310   */\n      tag_79\n      tag_30\n      jump\t// in\n    tag_79:\n        /* \"#utility.yul\":2193:2312   */\n    tag_78:\n        /* \"#utility.yul\":2351:2352   */\n      0x00\n        /* \"#utility.yul\":2376:2429   */\n      tag_80\n        /* \"#utility.yul\":2421:2428   */\n      dup6\n        /* \"#utility.yul\":2412:2418   */\n      dup3\n        /* \"#utility.yul\":2401:2410   */\n      dup7\n        /* \"#utility.yul\":2397:2419   */\n      add\n        /* \"#utility.yul\":2376:2429   */\n      tag_34\n      jump\t// in\n    tag_80:\n        /* \"#utility.yul\":2366:2429   */\n      swap3\n      pop\n        /* \"#utility.yul\":2322:2439   */\n      pop\n        /* \"#utility.yul\":2478:2480   */\n      0x20\n        /* \"#utility.yul\":2504:2557   */\n      tag_81\n        /* \"#utility.yul\":2549:2556   */\n      dup6\n        /* \"#utility.yul\":2540:2546   */\n      dup3\n        /* \"#utility.yul\":2529:2538   */\n      dup7\n        /* \"#utility.yul\":2525:2547   */\n      add\n        /* \"#utility.yul\":2504:2557   */\n      tag_37\n      jump\t// in\n    tag_81:\n        /* \"#utility.yul\":2494:2557   */\n      swap2\n      pop\n        /* \"#utility.yul\":2449:2567   */\n      pop\n        /* \"#utility.yul\":2100:2574   */\n      swap3\n      pop\n      swap3\n      swap1\n      pop\n      jump\t// out\n        /* \"#utility.yul\":2580:2698   */\n    tag_38:\n        /* \"#utility.yul\":2667:2691   */\n      tag_83\n        /* \"#utility.yul\":2685:2690   */\n      dup2\n        /* \"#utility.yul\":2667:2691   */\n      tag_32\n      jump\t// in\n    tag_83:\n        /* \"#utility.yul\":2662:2665   */\n      dup3\n        /* \"#utility.yul\":2655:2692   */\n      mstore\n        /* \"#utility.yul\":2580:2698   */\n      pop\n      pop\n      jump\t// out\n        /* \"#utility.yul\":2704:2822   */\n    tag_39:\n        /* \"#utility.yul\":2791:2815   */\n      tag_85\n        /* \"#utility.yul\":2809:2814   */\n      dup2\n        /* \"#utility.yul\":2791:2815   */\n      tag_35\n      jump\t// in\n    tag_85:\n        /* \"#utility.yul\":2786:2789   */\n      dup3\n        /* \"#utility.yul\":2779:2816   */\n      mstore\n        /* \"#utility.yul\":2704:2822   */\n      pop\n      pop\n      jump\t// out\n        /* \"#utility.yul\":2828:3160   */\n    tag_15:\n        /* \"#utility.yul\":2949:2953   */\n      0x00\n        /* \"#utility.yul\":2987:2989   */\n      0x40\n        /* \"#utility.yul\":2976:2985   */\n      dup3\n        /* \"#utility.yul\":2972:2990   */\n      add\n        /* \"#utility.yul\":2964:2990   */\n      swap1\n      pop\n        /* \"#utility.yul\":3000:3071   */\n      tag_87\n        /* \"#utility.yul\":3068:3069   */\n      0x00\n        /* \"#utility.yul\":3057:3066   */\n      dup4\n        /* \"#utility.yul\":3053:3070   */\n      add\n        /* \"#utility.yul\":3044:3050   */\n      dup6\n        /* \"#utility.yul\":3000:3071   */\n      tag_38\n      jump\t// in\n    tag_87:\n        /* \"#utility.yul\":3081:3153   */\n      tag_88\n        /* \"#utility.yul\":3149:3151   */\n      0x20\n        /* \"#utility.yul\":3138:3147   */\n      dup4\n        /* \"#utility.yul\":3134:3152   */\n      add\n        /* \"#utility.yul\":3125:3131   */\n      dup5\n        /* \"#utility.yul\":3081:3153   */\n      tag_39\n      jump\t// in\n    tag_88:\n        /* \"#utility.yul\":2828:3160   */\n      swap4\n      swap3\n      pop\n      pop\n      pop\n      jump\t// out\n        /* \"#utility.yul\":3166:3256   */\n    tag_40:\n        /* \"#utility.yul\":3200:3207   */\n      0x00\n        /* \"#utility.yul\":3243:3248   */\n      dup2\n        /* \"#utility.yul\":3236:3249   */\n      iszero\n        /* \"#utility.yul\":3229:3250   */\n      iszero\n        /* \"#utility.yul\":3218:3250   */\n      swap1\n      pop\n        /* \"#utility.yul\":3166:3256   */\n      swap2\n      swap1\n      pop\n      jump\t// out\n        /* \"#utility.yul\":3262:3378   */\n    tag_41:\n        /* \"#utility.yul\":3332:3353   */\n      tag_91\n        /* \"#utility.yul\":3347:3352   */\n      dup2\n        /* \"#utility.yul\":3332:3353   */\n      tag_40\n      jump\t// in\n    tag_91:\n        /* \"#utility.yul\":3325:3330   */\n      dup2\n        /* \"#utility.yul\":3322:3354   */\n      eq\n        /* \"#utility.yul\":3312:3372   */\n      tag_92\n      jumpi\n        /* \"#utility.yul\":3368:3369   */\n      0x00\n        /* \"#utility.yul\":3365:3366   */\n      dup1\n        /* \"#utility.yul\":3358:3370   */\n      revert\n        /* \"#utility.yul\":3312:3372   */\n    tag_92:\n        /* \"#utility.yul\":3262:3378   */\n      pop\n      jump\t// out\n        /* \"#utility.yul\":3384:3521   */\n    tag_42:\n        /* \"#utility.yul\":3438:3443   */\n      0x00\n        /* \"#utility.yul\":3469:3475   */\n      dup2\n        /* \"#utility.yul\":3463:3476   */\n      mload\n        /* \"#utility.yul\":3454:3476   */\n      swap1\n      pop\n        /* \"#utility.yul\":3485:3515   */\n      tag_94\n        /* \"#utility.yul\":3509:3514   */\n      dup2\n        /* \"#utility.yul\":3485:3515   */\n      tag_41\n      jump\t// in\n    tag_94:\n        /* \"#utility.yul\":3384:3521   */\n      swap3\n      swap2\n      pop\n      pop\n      jump\t// out\n        /* \"#utility.yul\":3527:3872   */\n    tag_19:\n        /* \"#utility.yul\":3594:3600   */\n      0x00\n        /* \"#utility.yul\":3643:3645   */\n      0x20\n        /* \"#utility.yul\":3631:3640   */\n      dup3\n        /* \"#utility.yul\":3622:3629   */\n      dup5\n        /* \"#utility.yul\":3618:3641   */\n      sub\n        /* \"#utility.yul\":3614:3646   */\n      slt\n        /* \"#utility.yul\":3611:3730   */\n      iszero\n      tag_96\n      jumpi\n        /* \"#utility.yul\":3649:3728   */\n      tag_97\n      tag_30\n      jump\t// in\n    tag_97:\n        /* \"#utility.yul\":3611:3730   */\n    tag_96:\n        /* \"#utility.yul\":3769:3770   */\n      0x00\n        /* \"#utility.yul\":3794:3855   */\n      tag_98\n        /* \"#utility.yul\":3847:3854   */\n      dup5\n        /* \"#utility.yul\":3838:3844   */\n      dup3\n        /* \"#utility.yul\":3827:3836   */\n      dup6\n        /* \"#utility.yul\":3823:3845   */\n      add\n        /* \"#utility.yul\":3794:3855   */\n      tag_42\n      jump\t// in\n    tag_98:\n        /* \"#utility.yul\":3784:3855   */\n      swap2\n      pop\n        /* \"#utility.yul\":3740:3865   */\n      pop\n        /* \"#utility.yul\":3527:3872   */\n      swap3\n      swap2\n      pop\n      pop\n      jump\t// out\n        /* \"#utility.yul\":3878:4047   */\n    tag_43:\n        /* \"#utility.yul\":3962:3973   */\n      0x00\n        /* \"#utility.yul\":3996:4002   */\n      dup3\n        /* \"#utility.yul\":3991:3994   */\n      dup3\n        /* \"#utility.yul\":3984:4003   */\n      mstore\n        /* \"#utility.yul\":4036:4040   */\n      0x20\n        /* \"#utility.yul\":4031:4034   */\n      dup3\n        /* \"#utility.yul\":4027:4041   */\n      add\n        /* \"#utility.yul\":4012:4041   */\n      swap1\n      pop\n        /* \"#utility.yul\":3878:4047   */\n      swap3\n      swap2\n      pop\n      pop\n      jump\t// out\n        /* \"#utility.yul\":4053:4224   */\n    tag_44:\n        /* \"#utility.yul\":4193:4216   */\n      0x546f6b656e207472616e73666572206661696c65640000000000000000000000\n        /* \"#utility.yul\":4189:4190   */\n      0x00\n        /* \"#utility.yul\":4181:4187   */\n      dup3\n        /* \"#utility.yul\":4177:4191   */\n      add\n        /* \"#utility.yul\":4170:4217   */\n      mstore\n        /* \"#utility.yul\":4053:4224   */\n      pop\n      jump\t// out\n        /* \"#utility.yul\":4230:4596   */\n    tag_45:\n        /* \"#utility.yul\":4372:4375   */\n      0x00\n        /* \"#utility.yul\":4393:4460   */\n      tag_102\n        /* \"#utility.yul\":4457:4459   */\n      0x15\n        /* \"#utility.yul\":4452:4455   */\n      dup4\n        /* \"#utility.yul\":4393:4460   */\n      tag_43\n      jump\t// in\n    tag_102:\n        /* \"#utility.yul\":4386:4460   */\n      swap2\n      pop\n        /* \"#utility.yul\":4469:4562   */\n      tag_103\n        /* \"#utility.yul\":4558:4561   */\n      dup3\n        /* \"#utility.yul\":4469:4562   */\n      tag_44\n      jump\t// in\n    tag_103:\n        /* \"#utility.yul\":4587:4589   */\n      0x20\n        /* \"#utility.yul\":4582:4585   */\n      dup3\n        /* \"#utility.yul\":4578:4590   */\n      add\n        /* \"#utility.yul\":4571:4590   */\n      swap1\n      pop\n        /* \"#utility.yul\":4230:4596   */\n      swap2\n      swap1\n      pop\n      jump\t// out\n        /* \"#utility.yul\":4602:5021   */\n    tag_22:\n        /* \"#utility.yul\":4768:4772   */\n      0x00\n        /* \"#utility.yul\":4806:4808   */\n      0x20\n        /* \"#utility.yul\":4795:4804   */\n      dup3\n        /* \"#utility.yul\":4791:4809   */\n      add\n        /* \"#utility.yul\":4783:4809   */\n      swap1\n      pop\n        /* \"#utility.yul\":4855:4864   */\n      dup2\n        /* \"#utility.yul\":4849:4853   */\n      dup2\n        /* \"#utility.yul\":4845:4865   */\n      sub\n        /* \"#utility.yul\":4841:4842   */\n      0x00\n        /* \"#utility.yul\":4830:4839   */\n      dup4\n        /* \"#utility.yul\":4826:4843   */\n      add\n        /* \"#utility.yul\":4819:4866   */\n      mstore\n        /* \"#utility.yul\":4883:5014   */\n      tag_105\n        /* \"#utility.yul\":5009:5013   */\n      dup2\n        /* \"#utility.yul\":4883:5014   */\n      tag_45\n      jump\t// in\n    tag_105:\n        /* \"#utility.yul\":4875:5014   */\n      swap1\n      pop\n        /* \"#utility.yul\":4602:5021   */\n      swap2\n      swap1\n      pop\n      jump\t// out\n\n    auxdata: 0xa2646970667358221220d121d961169d75f66e61038f22211cee95cab458d498eb63827906101de6bc4f64736f6c63430008120033\n}\n",
				"bytecode": {
					"linkReferences": {},
					"object": "608060405234801561001057600080fd5b50604051610543380380610543833981810160405281019061003291906100db565b806000806101000a81548173ffffffffffffffffffffffffffffffffffffffff021916908373ffffffffffffffffffffffffffffffffffffffff16021790555050610108565b600080fd5b600073ffffffffffffffffffffffffffffffffffffffff82169050919050565b60006100a88261007d565b9050919050565b6100b88161009d565b81146100c357600080fd5b50565b6000815190506100d5816100af565b92915050565b6000602082840312156100f1576100f0610078565b5b60006100ff848285016100c6565b91505092915050565b61042c806101176000396000f3fe608060405234801561001057600080fd5b50600436106100365760003560e01c806355a373d61461003b578063bec3fa1714610059575b600080fd5b610043610075565b60405161005091906101f9565b60405180910390f35b610073600480360381019061006e919061028d565b610099565b005b60008054906101000a900473ffffffffffffffffffffffffffffffffffffffff1681565b60008054906101000a900473ffffffffffffffffffffffffffffffffffffffff1673ffffffffffffffffffffffffffffffffffffffff1663a9059cbb83836040518363ffffffff1660e01b81526004016100f49291906102eb565b6020604051808303816000875af1158015610113573d6000803e3d6000fd5b505050506040513d601f19601f82011682018060405250810190610137919061034c565b610176576040517f08c379a000000000000000000000000000000000000000000000000000000000815260040161016d906103d6565b60405180910390fd5b5050565b600073ffffffffffffffffffffffffffffffffffffffff82169050919050565b6000819050919050565b60006101bf6101ba6101b58461017a565b61019a565b61017a565b9050919050565b60006101d1826101a4565b9050919050565b60006101e3826101c6565b9050919050565b6101f3816101d8565b82525050565b600060208201905061020e60008301846101ea565b92915050565b600080fd5b60006102248261017a565b9050919050565b61023481610219565b811461023f57600080fd5b50565b6000813590506102518161022b565b92915050565b6000819050919050565b61026a81610257565b811461027557600080fd5b50565b60008135905061028781610261565b92915050565b600080604083850312156102a4576102a3610214565b5b60006102b285828601610242565b92505060206102c385828601610278565b9150509250929050565b6102d681610219565b82525050565b6102e581610257565b82525050565b600060408201905061030060008301856102cd565b61030d60208301846102dc565b9392505050565b60008115159050919050565b61032981610314565b811461033457600080fd5b50565b60008151905061034681610320565b92915050565b60006020828403121561036257610361610214565b5b600061037084828501610337565b91505092915050565b600082825260208201905092915050565b7f546f6b656e207472616e73666572206661696c65640000000000000000000000600082015250565b60006103c0601583610379565b91506103cb8261038a565b602082019050919050565b600060208201905081810360008301526103ef816103b3565b905091905056fea2646970667358221220d121d961169d75f66e61038f22211cee95cab458d498eb63827906101de6bc4f64736f6c63430008120033",
					"opcodes": "PUSH1 0x80 PUSH1 0x40 MSTORE CALLVALUE DUP1 ISZERO PUSH2 0x10 JUMPI PUSH1 0x0 DUP1 REVERT JUMPDEST POP PUSH1 0x40 MLOAD PUSH2 0x543 CODESIZE SUB DUP1 PUSH2 0x543 DUP4 CODECOPY DUP2 DUP2 ADD PUSH1 0x40 MSTORE DUP2 ADD SWAP1 PUSH2 0x32 SWAP2 SWAP1 PUSH2 0xDB JUMP JUMPDEST DUP1 PUSH1 0x0 DUP1 PUSH2 0x100 EXP DUP2 SLOAD DUP2 PUSH20 0xFFFFFFFFFFFFFFFFFFFFFFFFFFFFFFFFFFFFFFFF MUL NOT AND SWAP1 DUP4 PUSH20 0xFFFFFFFFFFFFFFFFFFFFFFFFFFFFFFFFFFFFFFFF AND MUL OR SWAP1 SSTORE POP POP PUSH2 0x108 JUMP JUMPDEST PUSH1 0x0 DUP1 REVERT JUMPDEST PUSH1 0x0 PUSH20 0xFFFFFFFFFFFFFFFFFFFFFFFFFFFFFFFFFFFFFFFF DUP3 AND SWAP1 POP SWAP2 SWAP1 POP JUMP JUMPDEST PUSH1 0x0 PUSH2 0xA8 DUP3 PUSH2 0x7D JUMP JUMPDEST SWAP1 POP SWAP2 SWAP1 POP JUMP JUMPDEST PUSH2 0xB8 DUP2 PUSH2 0x9D JUMP JUMPDEST DUP2 EQ PUSH2 0xC3 JUMPI PUSH1 0x0 DUP1 REVERT JUMPDEST POP JUMP JUMPDEST PUSH1 0x0 DUP2 MLOAD SWAP1 POP PUSH2 0xD5 DUP2 PUSH2 0xAF JUMP JUMPDEST SWAP3 SWAP2 POP POP JUMP JUMPDEST PUSH1 0x0 PUSH1 0x20 DUP3 DUP5 SUB SLT ISZERO PUSH2 0xF1 JUMPI PUSH2 0xF0 PUSH2 0x78 JUMP JUMPDEST JUMPDEST PUSH1 0x0 PUSH2 0xFF DUP5 DUP3 DUP6 ADD PUSH2 0xC6 JUMP JUMPDEST SWAP2 POP POP SWAP3 SWAP2 POP POP JUMP JUMPDEST PUSH2 0x42C DUP1 PUSH2 0x117 PUSH1 0x0 CODECOPY PUSH1 0x0 RETURN INVALID PUSH1 0x80 PUSH1 0x40 MSTORE CALLVALUE DUP1 ISZERO PUSH2 0x10 JUMPI PUSH1 0x0 DUP1 REVERT JUMPDEST POP PUSH1 0x4 CALLDATASIZE LT PUSH2 0x36 JUMPI PUSH1 0x0 CALLDATALOAD PUSH1 0xE0 SHR DUP1 PUSH4 0x55A373D6 EQ PUSH2 0x3B JUMPI DUP1 PUSH4 0xBEC3FA17 EQ PUSH2 0x59 JUMPI JUMPDEST PUSH1 0x0 DUP1 REVERT JUMPDEST PUSH2 0x43 PUSH2 0x75 JUMP JUMPDEST PUSH1 0x40 MLOAD PUSH2 0x50 SWAP2 SWAP1 PUSH2 0x1F9 JUMP JUMPDEST PUSH1 0x40 MLOAD DUP1 SWAP2 SUB SWAP1 RETURN JUMPDEST PUSH2 0x73 PUSH1 0x4 DUP1 CALLDATASIZE SUB DUP2 ADD SWAP1 PUSH2 0x6E SWAP2 SWAP1 PUSH2 0x28D JUMP JUMPDEST PUSH2 0x99 JUMP JUMPDEST STOP JUMPDEST PUSH1 0x0 DUP1 SLOAD SWAP1 PUSH2 0x100 EXP SWAP1 DIV PUSH20 0xFFFFFFFFFFFFFFFFFFFFFFFFFFFFFFFFFFFFFFFF AND DUP2 JUMP JUMPDEST PUSH1 0x0 DUP1 SLOAD SWAP1 PUSH2 0x100 EXP SWAP1 DIV PUSH20 0xFFFFFFFFFFFFFFFFFFFFFFFFFFFFFFFFFFFFFFFF AND PUSH20 0xFFFFFFFFFFFFFFFFFFFFFFFFFFFFFFFFFFFFFFFF AND PUSH4 0xA9059CBB DUP4 DUP4 PUSH1 0x40 MLOAD DUP4 PUSH4 0xFFFFFFFF AND PUSH1 0xE0 SHL DUP2 MSTORE PUSH1 0x4 ADD PUSH2 0xF4 SWAP3 SWAP2 SWAP1 PUSH2 0x2EB JUMP JUMPDEST PUSH1 0x20 PUSH1 0x40 MLOAD DUP1 DUP4 SUB DUP2 PUSH1 0x0 DUP8 GAS CALL ISZERO DUP1 ISZERO PUSH2 0x113 JUMPI RETURNDATASIZE PUSH1 0x0 DUP1 RETURNDATACOPY RETURNDATASIZE PUSH1 0x0 REVERT JUMPDEST POP POP POP POP PUSH1 0x40 MLOAD RETURNDATASIZE PUSH1 0x1F NOT PUSH1 0x1F DUP3 ADD AND DUP3 ADD DUP1 PUSH1 0x40 MSTORE POP DUP2 ADD SWAP1 PUSH2 0x137 SWAP2 SWAP1 PUSH2 0x34C JUMP JUMPDEST PUSH2 0x176 JUMPI PUSH1 0x40 MLOAD PUSH32 0x8C379A000000000000000000000000000000000000000000000000000000000 DUP2 MSTORE PUSH1 0x4 ADD PUSH2 0x16D SWAP1 PUSH2 0x3D6 JUMP JUMPDEST PUSH1 0x40 MLOAD DUP1 SWAP2 SUB SWAP1 REVERT JUMPDEST POP POP JUMP JUMPDEST PUSH1 0x0 PUSH20 0xFFFFFFFFFFFFFFFFFFFFFFFFFFFFFFFFFFFFFFFF DUP3 AND SWAP1 POP SWAP2 SWAP1 POP JUMP JUMPDEST PUSH1 0x0 DUP2 SWAP1 POP SWAP2 SWAP1 POP JUMP JUMPDEST PUSH1 0x0 PUSH2 0x1BF PUSH2 0x1BA PUSH2 0x1B5 DUP5 PUSH2 0x17A JUMP JUMPDEST PUSH2 0x19A JUMP JUMPDEST PUSH2 0x17A JUMP JUMPDEST SWAP1 POP SWAP2 SWAP1 POP JUMP JUMPDEST PUSH1 0x0 PUSH2 0x1D1 DUP3 PUSH2 0x1A4 JUMP JUMPDEST SWAP1 POP SWAP2 SWAP1 POP JUMP JUMPDEST PUSH1 0x0 PUSH2 0x1E3 DUP3 PUSH2 0x1C6 JUMP JUMPDEST SWAP1 POP SWAP2 SWAP1 POP JUMP JUMPDEST PUSH2 0x1F3 DUP2 PUSH2 0x1D8 JUMP JUMPDEST DUP3 MSTORE POP POP JUMP JUMPDEST PUSH1 0x0 PUSH1 0x20 DUP3 ADD SWAP1 POP PUSH2 0x20E PUSH1 0x0 DUP4 ADD DUP5 PUSH2 0x1EA JUMP JUMPDEST SWAP3 SWAP2 POP POP JUMP JUMPDEST PUSH1 0x0 DUP1 REVERT JUMPDEST PUSH1 0x0 PUSH2 0x224 DUP3 PUSH2 0x17A JUMP JUMPDEST SWAP1 POP SWAP2 SWAP1 POP JUMP JUMPDEST PUSH2 0x234 DUP2 PUSH2 0x219 JUMP JUMPDEST DUP2 EQ PUSH2 0x23F JUMPI PUSH1 0x0 DUP1 REVERT JUMPDEST POP JUMP JUMPDEST PUSH1 0x0 DUP2 CALLDATALOAD SWAP1 POP PUSH2 0x251 DUP2 PUSH2 0x22B JUMP JUMPDEST SWAP3 SWAP2 POP POP JUMP JUMPDEST PUSH1 0x0 DUP2 SWAP1 POP SWAP2 SWAP1 POP JUMP JUMPDEST PUSH2 0x26A DUP2 PUSH2 0x257 JUMP JUMPDEST DUP2 EQ PUSH2 0x275 JUMPI PUSH1 0x0 DUP1 REVERT JUMPDEST POP JUMP JUMPDEST PUSH1 0x0 DUP2 CALLDATALOAD SWAP1 POP PUSH2 0x287 DUP2 PUSH2 0x261 JUMP JUMPDEST SWAP3 SWAP2 POP POP JUMP JUMPDEST PUSH1 0x0 DUP1 PUSH1 0x40 DUP4 DUP6 SUB SLT ISZERO PUSH2 0x2A4 JUMPI PUSH2 0x2A3 PUSH2 0x214 JUMP JUMPDEST JUMPDEST PUSH1 0x0 PUSH2 0x2B2 DUP6 DUP3 DUP7 ADD PUSH2 0x242 JUMP JUMPDEST SWAP3 POP POP PUSH1 0x20 PUSH2 0x2C3 DUP6 DUP3 DUP7 ADD PUSH2 0x278 JUMP JUMPDEST SWAP2 POP POP SWAP3 POP SWAP3 SWAP1 POP JUMP JUMPDEST PUSH2 0x2D6 DUP2 PUSH2 0x219 JUMP JUMPDEST DUP3 MSTORE POP POP JUMP JUMPDEST PUSH2 0x2E5 DUP2 PUSH2 0x257 JUMP JUMPDEST DUP3 MSTORE POP POP JUMP JUMPDEST PUSH1 0x0 PUSH1 0x40 DUP3 ADD SWAP1 POP PUSH2 0x300 PUSH1 0x0 DUP4 ADD DUP6 PUSH2 0x2CD JUMP JUMPDEST PUSH2 0x30D PUSH1 0x20 DUP4 ADD DUP5 PUSH2 0x2DC JUMP JUMPDEST SWAP4 SWAP3 POP POP POP JUMP JUMPDEST PUSH1 0x0 DUP2 ISZERO ISZERO SWAP1 POP SWAP2 SWAP1 POP JUMP JUMPDEST PUSH2 0x329 DUP2 PUSH2 0x314 JUMP JUMPDEST DUP2 EQ PUSH2 0x334 JUMPI PUSH1 0x0 DUP1 REVERT JUMPDEST POP JUMP JUMPDEST PUSH1 0x0 DUP2 MLOAD SWAP1 POP PUSH2 0x346 DUP2 PUSH2 0x320 JUMP JUMPDEST SWAP3 SWAP2 POP POP JUMP JUMPDEST PUSH1 0x0 PUSH1 0x20 DUP3 DUP5 SUB SLT ISZERO PUSH2 0x362 JUMPI PUSH2 0x361 PUSH2 0x214 JUMP JUMPDEST JUMPDEST PUSH1 0x0 PUSH2 0x370 DUP5 DUP3 DUP6 ADD PUSH2 0x337 JUMP JUMPDEST SWAP2 POP POP SWAP3 SWAP2 POP POP JUMP JUMPDEST PUSH1 0x0 DUP3 DUP3 MSTORE PUSH1 0x20 DUP3 ADD SWAP1 POP SWAP3 SWAP2 POP POP JUMP JUMPDEST PUSH32 0x546F6B656E207472616E73666572206661696C65640000000000000000000000 PUSH1 0x0 DUP3 ADD MSTORE POP JUMP JUMPDEST PUSH1 0x0 PUSH2 0x3C0 PUSH1 0x15 DUP4 PUSH2 0x379 JUMP JUMPDEST SWAP2 POP PUSH2 0x3CB DUP3 PUSH2 0x38A JUMP JUMPDEST PUSH1 0x20 DUP3 ADD SWAP1 POP SWAP2 SWAP1 POP JUMP JUMPDEST PUSH1 0x0 PUSH1 0x20 DUP3 ADD SWAP1 POP DUP2 DUP2 SUB PUSH1 0x0 DUP4 ADD MSTORE PUSH2 0x3EF DUP2 PUSH2 0x3B3 JUMP JUMPDEST SWAP1 POP SWAP2 SWAP1 POP JUMP INVALID LOG2 PUSH5 0x6970667358 0x22 SLT KECCAK256 0xD1 0x21 0xD9 PUSH2 0x169D PUSH22 0xF66E61038F22211CEE95CAB458D498EB63827906101D 0xE6 0xBC 0x4F PUSH5 0x736F6C6343 STOP ADDMOD SLT STOP CALLER "
				},
				"gasEstimates": {
					"creation": {
						"codeDepositCost": "213600",
						"executionCost": "infinite",
						"totalCost": "infinite"
					},
					"external": {
						"tokenContract()": "infinite",
						"transferTokens(address,uint256)": "infinite"
					}
				},
				"methodIdentifiers": {
					"tokenContract()": "55a373d6",
					"transferTokens(address,uint256)": "bec3fa17"
				}
			},
			"storageLayout": {
				"storage": [
					{
						"astId": 14,
						"contract": "BContract.sol:TokenTransfer",
						"label": "tokenContract",
						"offset": 0,
						"slot": "0",
						"type": "t_contract(ERC20)11"
					}
				],
				"types": {
					"t_contract(ERC20)11": {
						"encoding": "inplace",
						"label": "contract ERC20",
						"numberOfBytes": "20"
					}
				}
			},
			"userdoc": {
				"kind": "user",
				"methods": {},
				"version": 1
			}
		}
	}
}