{
	"Contract.sol": {
		"B": {
			"abi": [
				{
					"inputs": [
						{
							"internalType": "contract IERC20",
							"name": "tokenA",
							"type": "address"
						},
						{
							"internalType": "address",
							"name": "_to",
							"type": "address"
						},
						{
							"internalType": "uint256",
							"name": "_amount",
							"type": "uint256"
						}
					],
					"name": "transferTokenBalance",
					"outputs": [],
					"stateMutability": "nonpayable",
					"type": "function"
				}
			],
			"devdoc": {
				"kind": "dev",
				"methods": {},
				"version": 1
			},
			"evm": {
				"assembly": "    /* \"Contract.sol\":264:512  contract B  {  ... */\n  mstore(0x40, 0x80)\n  callvalue\n  dup1\n  iszero\n  tag_1\n  jumpi\n  0x00\n  dup1\n  revert\ntag_1:\n  pop\n  dataSize(sub_0)\n  dup1\n  dataOffset(sub_0)\n  0x00\n  codecopy\n  0x00\n  return\nstop\n\nsub_0: assembly {\n        /* \"Contract.sol\":264:512  contract B  {  ... */\n      mstore(0x40, 0x80)\n      callvalue\n      dup1\n      iszero\n      tag_1\n      jumpi\n      0x00\n      dup1\n      revert\n    tag_1:\n      pop\n      jumpi(tag_2, lt(calldatasize, 0x04))\n      shr(0xe0, calldataload(0x00))\n      dup1\n      0x11a1d03b\n      eq\n      tag_3\n      jumpi\n    tag_2:\n      0x00\n      dup1\n      revert\n        /* \"Contract.sol\":281:509  function transferTokenBalance( IERC20 tokenA ,address _to,  uint256 _amount) external {... */\n    tag_3:\n      tag_4\n      0x04\n      dup1\n      calldatasize\n      sub\n      dup2\n      add\n      swap1\n      tag_5\n      swap2\n      swap1\n      tag_6\n      jump\t// in\n    tag_5:\n      tag_7\n      jump\t// in\n    tag_4:\n      stop\n    tag_7:\n        /* \"Contract.sol\":413:420  _amount */\n      dup1\n        /* \"Contract.sol\":382:388  tokenA */\n      dup4\n        /* \"Contract.sol\":382:398  tokenA.balanceOf */\n      0xffffffffffffffffffffffffffffffffffffffff\n      and\n      0x70a08231\n        /* \"Contract.sol\":399:408  tx.origin */\n      origin\n        /* \"Contract.sol\":382:409  tokenA.balanceOf(tx.origin) */\n      mload(0x40)\n      dup3\n      0xffffffff\n      and\n      0xe0\n      shl\n      dup2\n      mstore\n      0x04\n      add\n      tag_9\n      swap2\n      swap1\n      tag_10\n      jump\t// in\n    tag_9:\n      0x20\n      mload(0x40)\n      dup1\n      dup4\n      sub\n      dup2\n      dup7\n      gas\n      staticcall\n      iszero\n      dup1\n      iszero\n      tag_12\n      jumpi\n      returndatasize\n      0x00\n      dup1\n      returndatacopy\n      revert(0x00, returndatasize)\n    tag_12:\n      pop\n      pop\n      pop\n      pop\n      mload(0x40)\n      returndatasize\n      not(0x1f)\n      0x1f\n      dup3\n      add\n      and\n      dup3\n      add\n      dup1\n      0x40\n      mstore\n      pop\n      dup2\n      add\n      swap1\n      tag_13\n      swap2\n      swap1\n      tag_14\n      jump\t// in\n    tag_13:\n        /* \"Contract.sol\":382:420  tokenA.balanceOf(tx.origin) >= _amount */\n      lt\n      iszero\n        /* \"Contract.sol\":374:445  require(tokenA.balanceOf(tx.origin) >= _amount, \"Insufficient balance\") */\n      tag_15\n      jumpi\n      mload(0x40)\n      0x08c379a000000000000000000000000000000000000000000000000000000000\n      dup2\n      mstore\n      0x04\n      add\n      tag_16\n      swap1\n      tag_17\n      jump\t// in\n    tag_16:\n      mload(0x40)\n      dup1\n      swap2\n      sub\n      swap1\n      revert\n    tag_15:\n        /* \"Contract.sol\":452:458  tokenA */\n      dup3\n        /* \"Contract.sol\":452:471  tokenA.transferFrom */\n      0xffffffffffffffffffffffffffffffffffffffff\n      and\n      0x23b872dd\n        /* \"Contract.sol\":473:482  tx.origin */\n      origin\n        /* \"Contract.sol\":485:488  _to */\n      dup5\n        /* \"Contract.sol\":490:497  _amount */\n      dup5\n        /* \"Contract.sol\":452:498  tokenA.transferFrom( tx.origin , _to, _amount) */\n      mload(0x40)\n      dup5\n      0xffffffff\n      and\n      0xe0\n      shl\n      dup2\n      mstore\n      0x04\n      add\n      tag_18\n      swap4\n      swap3\n      swap2\n      swap1\n      tag_19\n      jump\t// in\n    tag_18:\n      0x20\n      mload(0x40)\n      dup1\n      dup4\n      sub\n      dup2\n      0x00\n      dup8\n      gas\n      call\n      iszero\n      dup1\n      iszero\n      tag_21\n      jumpi\n      returndatasize\n      0x00\n      dup1\n      returndatacopy\n      revert(0x00, returndatasize)\n    tag_21:\n      pop\n      pop\n      pop\n      pop\n      mload(0x40)\n      returndatasize\n      not(0x1f)\n      0x1f\n      dup3\n      add\n      and\n      dup3\n      add\n      dup1\n      0x40\n      mstore\n      pop\n      dup2\n      add\n      swap1\n      tag_22\n      swap2\n      swap1\n      tag_23\n      jump\t// in\n    tag_22:\n      pop\n        /* \"Contract.sol\":281:509  function transferTokenBalance( IERC20 tokenA ,address _to,  uint256 _amount) external {... */\n      pop\n      pop\n      pop\n      jump\t// out\n        /* \"#utility.yul\":88:205   */\n    tag_25:\n        /* \"#utility.yul\":197:198   */\n      0x00\n        /* \"#utility.yul\":194:195   */\n      dup1\n        /* \"#utility.yul\":187:199   */\n      revert\n        /* \"#utility.yul\":334:460   */\n    tag_27:\n        /* \"#utility.yul\":371:378   */\n      0x00\n        /* \"#utility.yul\":411:453   */\n      0xffffffffffffffffffffffffffffffffffffffff\n        /* \"#utility.yul\":404:409   */\n      dup3\n        /* \"#utility.yul\":400:454   */\n      and\n        /* \"#utility.yul\":389:454   */\n      swap1\n      pop\n        /* \"#utility.yul\":334:460   */\n      swap2\n      swap1\n      pop\n      jump\t// out\n        /* \"#utility.yul\":466:562   */\n    tag_28:\n        /* \"#utility.yul\":503:510   */\n      0x00\n        /* \"#utility.yul\":532:556   */\n      tag_52\n        /* \"#utility.yul\":550:555   */\n      dup3\n        /* \"#utility.yul\":532:556   */\n      tag_27\n      jump\t// in\n    tag_52:\n        /* \"#utility.yul\":521:556   */\n      swap1\n      pop\n        /* \"#utility.yul\":466:562   */\n      swap2\n      swap1\n      pop\n      jump\t// out\n        /* \"#utility.yul\":568:677   */\n    tag_29:\n        /* \"#utility.yul\":618:625   */\n      0x00\n        /* \"#utility.yul\":647:671   */\n      tag_54\n        /* \"#utility.yul\":665:670   */\n      dup3\n        /* \"#utility.yul\":647:671   */\n      tag_28\n      jump\t// in\n    tag_54:\n        /* \"#utility.yul\":636:671   */\n      swap1\n      pop\n        /* \"#utility.yul\":568:677   */\n      swap2\n      swap1\n      pop\n      jump\t// out\n        /* \"#utility.yul\":683:831   */\n    tag_30:\n        /* \"#utility.yul\":769:806   */\n      tag_56\n        /* \"#utility.yul\":800:805   */\n      dup2\n        /* \"#utility.yul\":769:806   */\n      tag_29\n      jump\t// in\n    tag_56:\n        /* \"#utility.yul\":762:767   */\n      dup2\n        /* \"#utility.yul\":759:807   */\n      eq\n        /* \"#utility.yul\":749:825   */\n      tag_57\n      jumpi\n        /* \"#utility.yul\":821:822   */\n      0x00\n        /* \"#utility.yul\":818:819   */\n      dup1\n        /* \"#utility.yul\":811:823   */\n      revert\n        /* \"#utility.yul\":749:825   */\n    tag_57:\n        /* \"#utility.yul\":683:831   */\n      pop\n      jump\t// out\n        /* \"#utility.yul\":837:1002   */\n    tag_31:\n        /* \"#utility.yul\":896:901   */\n      0x00\n        /* \"#utility.yul\":934:940   */\n      dup2\n        /* \"#utility.yul\":921:941   */\n      calldataload\n        /* \"#utility.yul\":912:941   */\n      swap1\n      pop\n        /* \"#utility.yul\":950:996   */\n      tag_59\n        /* \"#utility.yul\":990:995   */\n      dup2\n        /* \"#utility.yul\":950:996   */\n      tag_30\n      jump\t// in\n    tag_59:\n        /* \"#utility.yul\":837:1002   */\n      swap3\n      swap2\n      pop\n      pop\n      jump\t// out\n        /* \"#utility.yul\":1008:1130   */\n    tag_32:\n        /* \"#utility.yul\":1081:1105   */\n      tag_61\n        /* \"#utility.yul\":1099:1104   */\n      dup2\n        /* \"#utility.yul\":1081:1105   */\n      tag_28\n      jump\t// in\n    tag_61:\n        /* \"#utility.yul\":1074:1079   */\n      dup2\n        /* \"#utility.yul\":1071:1106   */\n      eq\n        /* \"#utility.yul\":1061:1124   */\n      tag_62\n      jumpi\n        /* \"#utility.yul\":1120:1121   */\n      0x00\n        /* \"#utility.yul\":1117:1118   */\n      dup1\n        /* \"#utility.yul\":1110:1122   */\n      revert\n        /* \"#utility.yul\":1061:1124   */\n    tag_62:\n        /* \"#utility.yul\":1008:1130   */\n      pop\n      jump\t// out\n        /* \"#utility.yul\":1136:1275   */\n    tag_33:\n        /* \"#utility.yul\":1182:1187   */\n      0x00\n        /* \"#utility.yul\":1220:1226   */\n      dup2\n        /* \"#utility.yul\":1207:1227   */\n      calldataload\n        /* \"#utility.yul\":1198:1227   */\n      swap1\n      pop\n        /* \"#utility.yul\":1236:1269   */\n      tag_64\n        /* \"#utility.yul\":1263:1268   */\n      dup2\n        /* \"#utility.yul\":1236:1269   */\n      tag_32\n      jump\t// in\n    tag_64:\n        /* \"#utility.yul\":1136:1275   */\n      swap3\n      swap2\n      pop\n      pop\n      jump\t// out\n        /* \"#utility.yul\":1281:1358   */\n    tag_34:\n        /* \"#utility.yul\":1318:1325   */\n      0x00\n        /* \"#utility.yul\":1347:1352   */\n      dup2\n        /* \"#utility.yul\":1336:1352   */\n      swap1\n      pop\n        /* \"#utility.yul\":1281:1358   */\n      swap2\n      swap1\n      pop\n      jump\t// out\n        /* \"#utility.yul\":1364:1486   */\n    tag_35:\n        /* \"#utility.yul\":1437:1461   */\n      tag_67\n        /* \"#utility.yul\":1455:1460   */\n      dup2\n        /* \"#utility.yul\":1437:1461   */\n      tag_34\n      jump\t// in\n    tag_67:\n        /* \"#utility.yul\":1430:1435   */\n      dup2\n        /* \"#utility.yul\":1427:1462   */\n      eq\n        /* \"#utility.yul\":1417:1480   */\n      tag_68\n      jumpi\n        /* \"#utility.yul\":1476:1477   */\n      0x00\n        /* \"#utility.yul\":1473:1474   */\n      dup1\n        /* \"#utility.yul\":1466:1478   */\n      revert\n        /* \"#utility.yul\":1417:1480   */\n    tag_68:\n        /* \"#utility.yul\":1364:1486   */\n      pop\n      jump\t// out\n        /* \"#utility.yul\":1492:1631   */\n    tag_36:\n        /* \"#utility.yul\":1538:1543   */\n      0x00\n        /* \"#utility.yul\":1576:1582   */\n      dup2\n        /* \"#utility.yul\":1563:1583   */\n      calldataload\n        /* \"#utility.yul\":1554:1583   */\n      swap1\n      pop\n        /* \"#utility.yul\":1592:1625   */\n      tag_70\n        /* \"#utility.yul\":1619:1624   */\n      dup2\n        /* \"#utility.yul\":1592:1625   */\n      tag_35\n      jump\t// in\n    tag_70:\n        /* \"#utility.yul\":1492:1631   */\n      swap3\n      swap2\n      pop\n      pop\n      jump\t// out\n        /* \"#utility.yul\":1637:2282   */\n    tag_6:\n        /* \"#utility.yul\":1727:1733   */\n      0x00\n        /* \"#utility.yul\":1735:1741   */\n      dup1\n        /* \"#utility.yul\":1743:1749   */\n      0x00\n        /* \"#utility.yul\":1792:1794   */\n      0x60\n        /* \"#utility.yul\":1780:1789   */\n      dup5\n        /* \"#utility.yul\":1771:1778   */\n      dup7\n        /* \"#utility.yul\":1767:1790   */\n      sub\n        /* \"#utility.yul\":1763:1795   */\n      slt\n        /* \"#utility.yul\":1760:1879   */\n      iszero\n      tag_72\n      jumpi\n        /* \"#utility.yul\":1798:1877   */\n      tag_73\n      tag_25\n      jump\t// in\n    tag_73:\n        /* \"#utility.yul\":1760:1879   */\n    tag_72:\n        /* \"#utility.yul\":1918:1919   */\n      0x00\n        /* \"#utility.yul\":1943:2009   */\n      tag_74\n        /* \"#utility.yul\":2001:2008   */\n      dup7\n        /* \"#utility.yul\":1992:1998   */\n      dup3\n        /* \"#utility.yul\":1981:1990   */\n      dup8\n        /* \"#utility.yul\":1977:1999   */\n      add\n        /* \"#utility.yul\":1943:2009   */\n      tag_31\n      jump\t// in\n    tag_74:\n        /* \"#utility.yul\":1933:2009   */\n      swap4\n      pop\n        /* \"#utility.yul\":1889:2019   */\n      pop\n        /* \"#utility.yul\":2058:2060   */\n      0x20\n        /* \"#utility.yul\":2084:2137   */\n      tag_75\n        /* \"#utility.yul\":2129:2136   */\n      dup7\n        /* \"#utility.yul\":2120:2126   */\n      dup3\n        /* \"#utility.yul\":2109:2118   */\n      dup8\n        /* \"#utility.yul\":2105:2127   */\n      add\n        /* \"#utility.yul\":2084:2137   */\n      tag_33\n      jump\t// in\n    tag_75:\n        /* \"#utility.yul\":2074:2137   */\n      swap3\n      pop\n        /* \"#utility.yul\":2029:2147   */\n      pop\n        /* \"#utility.yul\":2186:2188   */\n      0x40\n        /* \"#utility.yul\":2212:2265   */\n      tag_76\n        /* \"#utility.yul\":2257:2264   */\n      dup7\n        /* \"#utility.yul\":2248:2254   */\n      dup3\n        /* \"#utility.yul\":2237:2246   */\n      dup8\n        /* \"#utility.yul\":2233:2255   */\n      add\n        /* \"#utility.yul\":2212:2265   */\n      tag_36\n      jump\t// in\n    tag_76:\n        /* \"#utility.yul\":2202:2265   */\n      swap2\n      pop\n        /* \"#utility.yul\":2157:2275   */\n      pop\n        /* \"#utility.yul\":1637:2282   */\n      swap3\n      pop\n      swap3\n      pop\n      swap3\n      jump\t// out\n        /* \"#utility.yul\":2288:2406   */\n    tag_37:\n        /* \"#utility.yul\":2375:2399   */\n      tag_78\n        /* \"#utility.yul\":2393:2398   */\n      dup2\n        /* \"#utility.yul\":2375:2399   */\n      tag_28\n      jump\t// in\n    tag_78:\n        /* \"#utility.yul\":2370:2373   */\n      dup3\n        /* \"#utility.yul\":2363:2400   */\n      mstore\n        /* \"#utility.yul\":2288:2406   */\n      pop\n      pop\n      jump\t// out\n        /* \"#utility.yul\":2412:2634   */\n    tag_10:\n        /* \"#utility.yul\":2505:2509   */\n      0x00\n        /* \"#utility.yul\":2543:2545   */\n      0x20\n        /* \"#utility.yul\":2532:2541   */\n      dup3\n        /* \"#utility.yul\":2528:2546   */\n      add\n        /* \"#utility.yul\":2520:2546   */\n      swap1\n      pop\n        /* \"#utility.yul\":2556:2627   */\n      tag_80\n        /* \"#utility.yul\":2624:2625   */\n      0x00\n        /* \"#utility.yul\":2613:2622   */\n      dup4\n        /* \"#utility.yul\":2609:2626   */\n      add\n        /* \"#utility.yul\":2600:2606   */\n      dup5\n        /* \"#utility.yul\":2556:2627   */\n      tag_37\n      jump\t// in\n    tag_80:\n        /* \"#utility.yul\":2412:2634   */\n      swap3\n      swap2\n      pop\n      pop\n      jump\t// out\n        /* \"#utility.yul\":2640:2783   */\n    tag_38:\n        /* \"#utility.yul\":2697:2702   */\n      0x00\n        /* \"#utility.yul\":2728:2734   */\n      dup2\n        /* \"#utility.yul\":2722:2735   */\n      mload\n        /* \"#utility.yul\":2713:2735   */\n      swap1\n      pop\n        /* \"#utility.yul\":2744:2777   */\n      tag_82\n        /* \"#utility.yul\":2771:2776   */\n      dup2\n        /* \"#utility.yul\":2744:2777   */\n      tag_35\n      jump\t// in\n    tag_82:\n        /* \"#utility.yul\":2640:2783   */\n      swap3\n      swap2\n      pop\n      pop\n      jump\t// out\n        /* \"#utility.yul\":2789:3140   */\n    tag_14:\n        /* \"#utility.yul\":2859:2865   */\n      0x00\n        /* \"#utility.yul\":2908:2910   */\n      0x20\n        /* \"#utility.yul\":2896:2905   */\n      dup3\n        /* \"#utility.yul\":2887:2894   */\n      dup5\n        /* \"#utility.yul\":2883:2906   */\n      sub\n        /* \"#utility.yul\":2879:2911   */\n      slt\n        /* \"#utility.yul\":2876:2995   */\n      iszero\n      tag_84\n      jumpi\n        /* \"#utility.yul\":2914:2993   */\n      tag_85\n      tag_25\n      jump\t// in\n    tag_85:\n        /* \"#utility.yul\":2876:2995   */\n    tag_84:\n        /* \"#utility.yul\":3034:3035   */\n      0x00\n        /* \"#utility.yul\":3059:3123   */\n      tag_86\n        /* \"#utility.yul\":3115:3122   */\n      dup5\n        /* \"#utility.yul\":3106:3112   */\n      dup3\n        /* \"#utility.yul\":3095:3104   */\n      dup6\n        /* \"#utility.yul\":3091:3113   */\n      add\n        /* \"#utility.yul\":3059:3123   */\n      tag_38\n      jump\t// in\n    tag_86:\n        /* \"#utility.yul\":3049:3123   */\n      swap2\n      pop\n        /* \"#utility.yul\":3005:3133   */\n      pop\n        /* \"#utility.yul\":2789:3140   */\n      swap3\n      swap2\n      pop\n      pop\n      jump\t// out\n        /* \"#utility.yul\":3146:3315   */\n    tag_39:\n        /* \"#utility.yul\":3230:3241   */\n      0x00\n        /* \"#utility.yul\":3264:3270   */\n      dup3\n        /* \"#utility.yul\":3259:3262   */\n      dup3\n        /* \"#utility.yul\":3252:3271   */\n      mstore\n        /* \"#utility.yul\":3304:3308   */\n      0x20\n        /* \"#utility.yul\":3299:3302   */\n      dup3\n        /* \"#utility.yul\":3295:3309   */\n      add\n        /* \"#utility.yul\":3280:3309   */\n      swap1\n      pop\n        /* \"#utility.yul\":3146:3315   */\n      swap3\n      swap2\n      pop\n      pop\n      jump\t// out\n        /* \"#utility.yul\":3321:3491   */\n    tag_40:\n        /* \"#utility.yul\":3461:3483   */\n      0x496e73756666696369656e742062616c616e6365000000000000000000000000\n        /* \"#utility.yul\":3457:3458   */\n      0x00\n        /* \"#utility.yul\":3449:3455   */\n      dup3\n        /* \"#utility.yul\":3445:3459   */\n      add\n        /* \"#utility.yul\":3438:3484   */\n      mstore\n        /* \"#utility.yul\":3321:3491   */\n      pop\n      jump\t// out\n        /* \"#utility.yul\":3497:3863   */\n    tag_41:\n        /* \"#utility.yul\":3639:3642   */\n      0x00\n        /* \"#utility.yul\":3660:3727   */\n      tag_90\n        /* \"#utility.yul\":3724:3726   */\n      0x14\n        /* \"#utility.yul\":3719:3722   */\n      dup4\n        /* \"#utility.yul\":3660:3727   */\n      tag_39\n      jump\t// in\n    tag_90:\n        /* \"#utility.yul\":3653:3727   */\n      swap2\n      pop\n        /* \"#utility.yul\":3736:3829   */\n      tag_91\n        /* \"#utility.yul\":3825:3828   */\n      dup3\n        /* \"#utility.yul\":3736:3829   */\n      tag_40\n      jump\t// in\n    tag_91:\n        /* \"#utility.yul\":3854:3856   */\n      0x20\n        /* \"#utility.yul\":3849:3852   */\n      dup3\n        /* \"#utility.yul\":3845:3857   */\n      add\n        /* \"#utility.yul\":3838:3857   */\n      swap1\n      pop\n        /* \"#utility.yul\":3497:3863   */\n      swap2\n      swap1\n      pop\n      jump\t// out\n        /* \"#utility.yul\":3869:4288   */\n    tag_17:\n        /* \"#utility.yul\":4035:4039   */\n      0x00\n        /* \"#utility.yul\":4073:4075   */\n      0x20\n        /* \"#utility.yul\":4062:4071   */\n      dup3\n        /* \"#utility.yul\":4058:4076   */\n      add\n        /* \"#utility.yul\":4050:4076   */\n      swap1\n      pop\n        /* \"#utility.yul\":4122:4131   */\n      dup2\n        /* \"#utility.yul\":4116:4120   */\n      dup2\n        /* \"#utility.yul\":4112:4132   */\n      sub\n        /* \"#utility.yul\":4108:4109   */\n      0x00\n        /* \"#utility.yul\":4097:4106   */\n      dup4\n        /* \"#utility.yul\":4093:4110   */\n      add\n        /* \"#utility.yul\":4086:4133   */\n      mstore\n        /* \"#utility.yul\":4150:4281   */\n      tag_93\n        /* \"#utility.yul\":4276:4280   */\n      dup2\n        /* \"#utility.yul\":4150:4281   */\n      tag_41\n      jump\t// in\n    tag_93:\n        /* \"#utility.yul\":4142:4281   */\n      swap1\n      pop\n        /* \"#utility.yul\":3869:4288   */\n      swap2\n      swap1\n      pop\n      jump\t// out\n        /* \"#utility.yul\":4294:4412   */\n    tag_42:\n        /* \"#utility.yul\":4381:4405   */\n      tag_95\n        /* \"#utility.yul\":4399:4404   */\n      dup2\n        /* \"#utility.yul\":4381:4405   */\n      tag_34\n      jump\t// in\n    tag_95:\n        /* \"#utility.yul\":4376:4379   */\n      dup3\n        /* \"#utility.yul\":4369:4406   */\n      mstore\n        /* \"#utility.yul\":4294:4412   */\n      pop\n      pop\n      jump\t// out\n        /* \"#utility.yul\":4418:4860   */\n    tag_19:\n        /* \"#utility.yul\":4567:4571   */\n      0x00\n        /* \"#utility.yul\":4605:4607   */\n      0x60\n        /* \"#utility.yul\":4594:4603   */\n      dup3\n        /* \"#utility.yul\":4590:4608   */\n      add\n        /* \"#utility.yul\":4582:4608   */\n      swap1\n      pop\n        /* \"#utility.yul\":4618:4689   */\n      tag_97\n        /* \"#utility.yul\":4686:4687   */\n      0x00\n        /* \"#utility.yul\":4675:4684   */\n      dup4\n        /* \"#utility.yul\":4671:4688   */\n      add\n        /* \"#utility.yul\":4662:4668   */\n      dup7\n        /* \"#utility.yul\":4618:4689   */\n      tag_37\n      jump\t// in\n    tag_97:\n        /* \"#utility.yul\":4699:4771   */\n      tag_98\n        /* \"#utility.yul\":4767:4769   */\n      0x20\n        /* \"#utility.yul\":4756:4765   */\n      dup4\n        /* \"#utility.yul\":4752:4770   */\n      add\n        /* \"#utility.yul\":4743:4749   */\n      dup6\n        /* \"#utility.yul\":4699:4771   */\n      tag_37\n      jump\t// in\n    tag_98:\n        /* \"#utility.yul\":4781:4853   */\n      tag_99\n        /* \"#utility.yul\":4849:4851   */\n      0x40\n        /* \"#utility.yul\":4838:4847   */\n      dup4\n        /* \"#utility.yul\":4834:4852   */\n      add\n        /* \"#utility.yul\":4825:4831   */\n      dup5\n        /* \"#utility.yul\":4781:4853   */\n      tag_42\n      jump\t// in\n    tag_99:\n        /* \"#utility.yul\":4418:4860   */\n      swap5\n      swap4\n      pop\n      pop\n      pop\n      pop\n      jump\t// out\n        /* \"#utility.yul\":4866:4956   */\n    tag_43:\n        /* \"#utility.yul\":4900:4907   */\n      0x00\n        /* \"#utility.yul\":4943:4948   */\n      dup2\n        /* \"#utility.yul\":4936:4949   */\n      iszero\n        /* \"#utility.yul\":4929:4950   */\n      iszero\n        /* \"#utility.yul\":4918:4950   */\n      swap1\n      pop\n        /* \"#utility.yul\":4866:4956   */\n      swap2\n      swap1\n      pop\n      jump\t// out\n        /* \"#utility.yul\":4962:5078   */\n    tag_44:\n        /* \"#utility.yul\":5032:5053   */\n      tag_102\n        /* \"#utility.yul\":5047:5052   */\n      dup2\n        /* \"#utility.yul\":5032:5053   */\n      tag_43\n      jump\t// in\n    tag_102:\n        /* \"#utility.yul\":5025:5030   */\n      dup2\n        /* \"#utility.yul\":5022:5054   */\n      eq\n        /* \"#utility.yul\":5012:5072   */\n      tag_103\n      jumpi\n        /* \"#utility.yul\":5068:5069   */\n      0x00\n        /* \"#utility.yul\":5065:5066   */\n      dup1\n        /* \"#utility.yul\":5058:5070   */\n      revert\n        /* \"#utility.yul\":5012:5072   */\n    tag_103:\n        /* \"#utility.yul\":4962:5078   */\n      pop\n      jump\t// out\n        /* \"#utility.yul\":5084:5221   */\n    tag_45:\n        /* \"#utility.yul\":5138:5143   */\n      0x00\n        /* \"#utility.yul\":5169:5175   */\n      dup2\n        /* \"#utility.yul\":5163:5176   */\n      mload\n        /* \"#utility.yul\":5154:5176   */\n      swap1\n      pop\n        /* \"#utility.yul\":5185:5215   */\n      tag_105\n        /* \"#utility.yul\":5209:5214   */\n      dup2\n        /* \"#utility.yul\":5185:5215   */\n      tag_44\n      jump\t// in\n    tag_105:\n        /* \"#utility.yul\":5084:5221   */\n      swap3\n      swap2\n      pop\n      pop\n      jump\t// out\n        /* \"#utility.yul\":5227:5572   */\n    tag_23:\n        /* \"#utility.yul\":5294:5300   */\n      0x00\n        /* \"#utility.yul\":5343:5345   */\n      0x20\n        /* \"#utility.yul\":5331:5340   */\n      dup3\n        /* \"#utility.yul\":5322:5329   */\n      dup5\n        /* \"#utility.yul\":5318:5341   */\n      sub\n        /* \"#utility.yul\":5314:5346   */\n      slt\n        /* \"#utility.yul\":5311:5430   */\n      iszero\n      tag_107\n      jumpi\n        /* \"#utility.yul\":5349:5428   */\n      tag_108\n      tag_25\n      jump\t// in\n    tag_108:\n        /* \"#utility.yul\":5311:5430   */\n    tag_107:\n        /* \"#utility.yul\":5469:5470   */\n      0x00\n        /* \"#utility.yul\":5494:5555   */\n      tag_109\n        /* \"#utility.yul\":5547:5554   */\n      dup5\n        /* \"#utility.yul\":5538:5544   */\n      dup3\n        /* \"#utility.yul\":5527:5536   */\n      dup6\n        /* \"#utility.yul\":5523:5545   */\n      add\n        /* \"#utility.yul\":5494:5555   */\n      tag_45\n      jump\t// in\n    tag_109:\n        /* \"#utility.yul\":5484:5555   */\n      swap2\n      pop\n        /* \"#utility.yul\":5440:5565   */\n      pop\n        /* \"#utility.yul\":5227:5572   */\n      swap3\n      swap2\n      pop\n      pop\n      jump\t// out\n\n    auxdata: 0xa264697066735822122057f186f26f44ab7fbf570fb8d097939b8ad477aed6029498d9806b4a17a12af664736f6c63430008120033\n}\n",
				"bytecode": {
					"linkReferences": {},
					"object": "608060405234801561001057600080fd5b50610482806100206000396000f3fe608060405234801561001057600080fd5b506004361061002b5760003560e01c806311a1d03b14610030575b600080fd5b61004a60048036038101906100459190610265565b61004c565b005b808373ffffffffffffffffffffffffffffffffffffffff166370a08231326040518263ffffffff1660e01b815260040161008691906102c7565b602060405180830381865afa1580156100a3573d6000803e3d6000fd5b505050506040513d601f19601f820116820180604052508101906100c791906102f7565b1015610108576040517f08c379a00000000000000000000000000000000000000000000000000000000081526004016100ff90610381565b60405180910390fd5b8273ffffffffffffffffffffffffffffffffffffffff166323b872dd3284846040518463ffffffff1660e01b8152600401610145939291906103b0565b6020604051808303816000875af1158015610164573d6000803e3d6000fd5b505050506040513d601f19601f82011682018060405250810190610188919061041f565b50505050565b600080fd5b600073ffffffffffffffffffffffffffffffffffffffff82169050919050565b60006101be82610193565b9050919050565b60006101d0826101b3565b9050919050565b6101e0816101c5565b81146101eb57600080fd5b50565b6000813590506101fd816101d7565b92915050565b61020c816101b3565b811461021757600080fd5b50565b60008135905061022981610203565b92915050565b6000819050919050565b6102428161022f565b811461024d57600080fd5b50565b60008135905061025f81610239565b92915050565b60008060006060848603121561027e5761027d61018e565b5b600061028c868287016101ee565b935050602061029d8682870161021a565b92505060406102ae86828701610250565b9150509250925092565b6102c1816101b3565b82525050565b60006020820190506102dc60008301846102b8565b92915050565b6000815190506102f181610239565b92915050565b60006020828403121561030d5761030c61018e565b5b600061031b848285016102e2565b91505092915050565b600082825260208201905092915050565b7f496e73756666696369656e742062616c616e6365000000000000000000000000600082015250565b600061036b601483610324565b915061037682610335565b602082019050919050565b6000602082019050818103600083015261039a8161035e565b9050919050565b6103aa8161022f565b82525050565b60006060820190506103c560008301866102b8565b6103d260208301856102b8565b6103df60408301846103a1565b949350505050565b60008115159050919050565b6103fc816103e7565b811461040757600080fd5b50565b600081519050610419816103f3565b92915050565b6000602082840312156104355761043461018e565b5b60006104438482850161040a565b9150509291505056fea264697066735822122057f186f26f44ab7fbf570fb8d097939b8ad477aed6029498d9806b4a17a12af664736f6c63430008120033",
					"opcodes": "PUSH1 0x80 PUSH1 0x40 MSTORE CALLVALUE DUP1 ISZERO PUSH2 0x10 JUMPI PUSH1 0x0 DUP1 REVERT JUMPDEST POP PUSH2 0x482 DUP1 PUSH2 0x20 PUSH1 0x0 CODECOPY PUSH1 0x0 RETURN INVALID PUSH1 0x80 PUSH1 0x40 MSTORE CALLVALUE DUP1 ISZERO PUSH2 0x10 JUMPI PUSH1 0x0 DUP1 REVERT JUMPDEST POP PUSH1 0x4 CALLDATASIZE LT PUSH2 0x2B JUMPI PUSH1 0x0 CALLDATALOAD PUSH1 0xE0 SHR DUP1 PUSH4 0x11A1D03B EQ PUSH2 0x30 JUMPI JUMPDEST PUSH1 0x0 DUP1 REVERT JUMPDEST PUSH2 0x4A PUSH1 0x4 DUP1 CALLDATASIZE SUB DUP2 ADD SWAP1 PUSH2 0x45 SWAP2 SWAP1 PUSH2 0x265 JUMP JUMPDEST PUSH2 0x4C JUMP JUMPDEST STOP JUMPDEST DUP1 DUP4 PUSH20 0xFFFFFFFFFFFFFFFFFFFFFFFFFFFFFFFFFFFFFFFF AND PUSH4 0x70A08231 ORIGIN PUSH1 0x40 MLOAD DUP3 PUSH4 0xFFFFFFFF AND PUSH1 0xE0 SHL DUP2 MSTORE PUSH1 0x4 ADD PUSH2 0x86 SWAP2 SWAP1 PUSH2 0x2C7 JUMP JUMPDEST PUSH1 0x20 PUSH1 0x40 MLOAD DUP1 DUP4 SUB DUP2 DUP7 GAS STATICCALL ISZERO DUP1 ISZERO PUSH2 0xA3 JUMPI RETURNDATASIZE PUSH1 0x0 DUP1 RETURNDATACOPY RETURNDATASIZE PUSH1 0x0 REVERT JUMPDEST POP POP POP POP PUSH1 0x40 MLOAD RETURNDATASIZE PUSH1 0x1F NOT PUSH1 0x1F DUP3 ADD AND DUP3 ADD DUP1 PUSH1 0x40 MSTORE POP DUP2 ADD SWAP1 PUSH2 0xC7 SWAP2 SWAP1 PUSH2 0x2F7 JUMP JUMPDEST LT ISZERO PUSH2 0x108 JUMPI PUSH1 0x40 MLOAD PUSH32 0x8C379A000000000000000000000000000000000000000000000000000000000 DUP2 MSTORE PUSH1 0x4 ADD PUSH2 0xFF SWAP1 PUSH2 0x381 JUMP JUMPDEST PUSH1 0x40 MLOAD DUP1 SWAP2 SUB SWAP1 REVERT JUMPDEST DUP3 PUSH20 0xFFFFFFFFFFFFFFFFFFFFFFFFFFFFFFFFFFFFFFFF AND PUSH4 0x23B872DD ORIGIN DUP5 DUP5 PUSH1 0x40 MLOAD DUP5 PUSH4 0xFFFFFFFF AND PUSH1 0xE0 SHL DUP2 MSTORE PUSH1 0x4 ADD PUSH2 0x145 SWAP4 SWAP3 SWAP2 SWAP1 PUSH2 0x3B0 JUMP JUMPDEST PUSH1 0x20 PUSH1 0x40 MLOAD DUP1 DUP4 SUB DUP2 PUSH1 0x0 DUP8 GAS CALL ISZERO DUP1 ISZERO PUSH2 0x164 JUMPI RETURNDATASIZE PUSH1 0x0 DUP1 RETURNDATACOPY RETURNDATASIZE PUSH1 0x0 REVERT JUMPDEST POP POP POP POP PUSH1 0x40 MLOAD RETURNDATASIZE PUSH1 0x1F NOT PUSH1 0x1F DUP3 ADD AND DUP3 ADD DUP1 PUSH1 0x40 MSTORE POP DUP2 ADD SWAP1 PUSH2 0x188 SWAP2 SWAP1 PUSH2 0x41F JUMP JUMPDEST POP POP POP POP JUMP JUMPDEST PUSH1 0x0 DUP1 REVERT JUMPDEST PUSH1 0x0 PUSH20 0xFFFFFFFFFFFFFFFFFFFFFFFFFFFFFFFFFFFFFFFF DUP3 AND SWAP1 POP SWAP2 SWAP1 POP JUMP JUMPDEST PUSH1 0x0 PUSH2 0x1BE DUP3 PUSH2 0x193 JUMP JUMPDEST SWAP1 POP SWAP2 SWAP1 POP JUMP JUMPDEST PUSH1 0x0 PUSH2 0x1D0 DUP3 PUSH2 0x1B3 JUMP JUMPDEST SWAP1 POP SWAP2 SWAP1 POP JUMP JUMPDEST PUSH2 0x1E0 DUP2 PUSH2 0x1C5 JUMP JUMPDEST DUP2 EQ PUSH2 0x1EB JUMPI PUSH1 0x0 DUP1 REVERT JUMPDEST POP JUMP JUMPDEST PUSH1 0x0 DUP2 CALLDATALOAD SWAP1 POP PUSH2 0x1FD DUP2 PUSH2 0x1D7 JUMP JUMPDEST SWAP3 SWAP2 POP POP JUMP JUMPDEST PUSH2 0x20C DUP2 PUSH2 0x1B3 JUMP JUMPDEST DUP2 EQ PUSH2 0x217 JUMPI PUSH1 0x0 DUP1 REVERT JUMPDEST POP JUMP JUMPDEST PUSH1 0x0 DUP2 CALLDATALOAD SWAP1 POP PUSH2 0x229 DUP2 PUSH2 0x203 JUMP JUMPDEST SWAP3 SWAP2 POP POP JUMP JUMPDEST PUSH1 0x0 DUP2 SWAP1 POP SWAP2 SWAP1 POP JUMP JUMPDEST PUSH2 0x242 DUP2 PUSH2 0x22F JUMP JUMPDEST DUP2 EQ PUSH2 0x24D JUMPI PUSH1 0x0 DUP1 REVERT JUMPDEST POP JUMP JUMPDEST PUSH1 0x0 DUP2 CALLDATALOAD SWAP1 POP PUSH2 0x25F DUP2 PUSH2 0x239 JUMP JUMPDEST SWAP3 SWAP2 POP POP JUMP JUMPDEST PUSH1 0x0 DUP1 PUSH1 0x0 PUSH1 0x60 DUP5 DUP7 SUB SLT ISZERO PUSH2 0x27E JUMPI PUSH2 0x27D PUSH2 0x18E JUMP JUMPDEST JUMPDEST PUSH1 0x0 PUSH2 0x28C DUP7 DUP3 DUP8 ADD PUSH2 0x1EE JUMP JUMPDEST SWAP4 POP POP PUSH1 0x20 PUSH2 0x29D DUP7 DUP3 DUP8 ADD PUSH2 0x21A JUMP JUMPDEST SWAP3 POP POP PUSH1 0x40 PUSH2 0x2AE DUP7 DUP3 DUP8 ADD PUSH2 0x250 JUMP JUMPDEST SWAP2 POP POP SWAP3 POP SWAP3 POP SWAP3 JUMP JUMPDEST PUSH2 0x2C1 DUP2 PUSH2 0x1B3 JUMP JUMPDEST DUP3 MSTORE POP POP JUMP JUMPDEST PUSH1 0x0 PUSH1 0x20 DUP3 ADD SWAP1 POP PUSH2 0x2DC PUSH1 0x0 DUP4 ADD DUP5 PUSH2 0x2B8 JUMP JUMPDEST SWAP3 SWAP2 POP POP JUMP JUMPDEST PUSH1 0x0 DUP2 MLOAD SWAP1 POP PUSH2 0x2F1 DUP2 PUSH2 0x239 JUMP JUMPDEST SWAP3 SWAP2 POP POP JUMP JUMPDEST PUSH1 0x0 PUSH1 0x20 DUP3 DUP5 SUB SLT ISZERO PUSH2 0x30D JUMPI PUSH2 0x30C PUSH2 0x18E JUMP JUMPDEST JUMPDEST PUSH1 0x0 PUSH2 0x31B DUP5 DUP3 DUP6 ADD PUSH2 0x2E2 JUMP JUMPDEST SWAP2 POP POP SWAP3 SWAP2 POP POP JUMP JUMPDEST PUSH1 0x0 DUP3 DUP3 MSTORE PUSH1 0x20 DUP3 ADD SWAP1 POP SWAP3 SWAP2 POP POP JUMP JUMPDEST PUSH32 0x496E73756666696369656E742062616C616E6365000000000000000000000000 PUSH1 0x0 DUP3 ADD MSTORE POP JUMP JUMPDEST PUSH1 0x0 PUSH2 0x36B PUSH1 0x14 DUP4 PUSH2 0x324 JUMP JUMPDEST SWAP2 POP PUSH2 0x376 DUP3 PUSH2 0x335 JUMP JUMPDEST PUSH1 0x20 DUP3 ADD SWAP1 POP SWAP2 SWAP1 POP JUMP JUMPDEST PUSH1 0x0 PUSH1 0x20 DUP3 ADD SWAP1 POP DUP2 DUP2 SUB PUSH1 0x0 DUP4 ADD MSTORE PUSH2 0x39A DUP2 PUSH2 0x35E JUMP JUMPDEST SWAP1 POP SWAP2 SWAP1 POP JUMP JUMPDEST PUSH2 0x3AA DUP2 PUSH2 0x22F JUMP JUMPDEST DUP3 MSTORE POP POP JUMP JUMPDEST PUSH1 0x0 PUSH1 0x60 DUP3 ADD SWAP1 POP PUSH2 0x3C5 PUSH1 0x0 DUP4 ADD DUP7 PUSH2 0x2B8 JUMP JUMPDEST PUSH2 0x3D2 PUSH1 0x20 DUP4 ADD DUP6 PUSH2 0x2B8 JUMP JUMPDEST PUSH2 0x3DF PUSH1 0x40 DUP4 ADD DUP5 PUSH2 0x3A1 JUMP JUMPDEST SWAP5 SWAP4 POP POP POP POP JUMP JUMPDEST PUSH1 0x0 DUP2 ISZERO ISZERO SWAP1 POP SWAP2 SWAP1 POP JUMP JUMPDEST PUSH2 0x3FC DUP2 PUSH2 0x3E7 JUMP JUMPDEST DUP2 EQ PUSH2 0x407 JUMPI PUSH1 0x0 DUP1 REVERT JUMPDEST POP JUMP JUMPDEST PUSH1 0x0 DUP2 MLOAD SWAP1 POP PUSH2 0x419 DUP2 PUSH2 0x3F3 JUMP JUMPDEST SWAP3 SWAP2 POP POP JUMP JUMPDEST PUSH1 0x0 PUSH1 0x20 DUP3 DUP5 SUB SLT ISZERO PUSH2 0x435 JUMPI PUSH2 0x434 PUSH2 0x18E JUMP JUMPDEST JUMPDEST PUSH1 0x0 PUSH2 0x443 DUP5 DUP3 DUP6 ADD PUSH2 0x40A JUMP JUMPDEST SWAP2 POP POP SWAP3 SWAP2 POP POP JUMP INVALID LOG2 PUSH5 0x6970667358 0x22 SLT KECCAK256 JUMPI CALL DUP7 CALLCODE PUSH16 0x44AB7FBF570FB8D097939B8AD477AED6 MUL SWAP5 SWAP9 0xD9 DUP1 PUSH12 0x4A17A12AF664736F6C634300 ADDMOD SLT STOP CALLER "
				},
				"gasEstimates": {
					"creation": {
						"codeDepositCost": "230800",
						"executionCost": "275",
						"totalCost": "231075"
					},
					"external": {
						"transferTokenBalance(address,address,uint256)": "infinite"
					}
				},
				"methodIdentifiers": {
					"transferTokenBalance(address,address,uint256)": "11a1d03b"
				}
			},
			"storageLayout": {
				"storage": [],
				"types": null
			},
			"userdoc": {
				"kind": "user",
				"methods": {},
				"version": 1
			}
		}
	}
}