{
	"Bhai_Muzammel.sol": {
		"USDCBuyer": {
			"abi": [
				{
					"inputs": [
						{
							"internalType": "address",
							"name": "_usdtAddress",
							"type": "address"
						},
						{
							"internalType": "address",
							"name": "_usdcAddress",
							"type": "address"
						}
					],
					"stateMutability": "nonpayable",
					"type": "constructor"
				},
				{
					"inputs": [
						{
							"internalType": "uint256",
							"name": "_usdtAmount",
							"type": "uint256"
						}
					],
					"name": "buyUSDC",
					"outputs": [],
					"stateMutability": "nonpayable",
					"type": "function"
				},
				{
					"inputs": [],
					"name": "owner",
					"outputs": [
						{
							"internalType": "address",
							"name": "",
							"type": "address"
						}
					],
					"stateMutability": "view",
					"type": "function"
				},
				{
					"inputs": [
						{
							"internalType": "uint256",
							"name": "_usdcAmount",
							"type": "uint256"
						}
					],
					"name": "sellUSDC",
					"outputs": [],
					"stateMutability": "nonpayable",
					"type": "function"
				},
				{
					"inputs": [],
					"name": "usdc",
					"outputs": [
						{
							"internalType": "contract IERC20",
							"name": "",
							"type": "address"
						}
					],
					"stateMutability": "view",
					"type": "function"
				},
				{
					"inputs": [],
					"name": "usdt",
					"outputs": [
						{
							"internalType": "contract IERC20",
							"name": "",
							"type": "address"
						}
					],
					"stateMutability": "view",
					"type": "function"
				}
			],
			"devdoc": {
				"kind": "dev",
				"methods": {},
				"version": 1
			},
			"evm": {
				"assembly": "    /* \"Bhai_Muzammel.sol\":2830:3794  contract USDCBuyer {... */\n  mstore(0x40, 0x80)\n    /* \"Bhai_Muzammel.sol\":2937:3108  constructor(address _usdtAddress, address _usdcAddress) {... */\n  callvalue\n  dup1\n  iszero\n  tag_1\n  jumpi\n  0x00\n  dup1\n  revert\ntag_1:\n  pop\n  mload(0x40)\n  sub(codesize, bytecodeSize)\n  dup1\n  bytecodeSize\n  dup4\n  codecopy\n  dup2\n  dup2\n  add\n  0x40\n  mstore\n  dup2\n  add\n  swap1\n  tag_2\n  swap2\n  swap1\n  tag_3\n  jump\t// in\ntag_2:\n    /* \"Bhai_Muzammel.sol\":3012:3022  msg.sender */\n  caller\n    /* \"Bhai_Muzammel.sol\":3004:3009  owner */\n  0x02\n  0x00\n    /* \"Bhai_Muzammel.sol\":3004:3022  owner = msg.sender */\n  0x0100\n  exp\n  dup2\n  sload\n  dup2\n  0xffffffffffffffffffffffffffffffffffffffff\n  mul\n  not\n  and\n  swap1\n  dup4\n  0xffffffffffffffffffffffffffffffffffffffff\n  and\n  mul\n  or\n  swap1\n  sstore\n  pop\n    /* \"Bhai_Muzammel.sol\":3047:3059  _usdtAddress */\n  dup2\n    /* \"Bhai_Muzammel.sol\":3033:3037  usdt */\n  0x00\n  dup1\n    /* \"Bhai_Muzammel.sol\":3033:3060  usdt = IERC20(_usdtAddress) */\n  0x0100\n  exp\n  dup2\n  sload\n  dup2\n  0xffffffffffffffffffffffffffffffffffffffff\n  mul\n  not\n  and\n  swap1\n  dup4\n  0xffffffffffffffffffffffffffffffffffffffff\n  and\n  mul\n  or\n  swap1\n  sstore\n  pop\n    /* \"Bhai_Muzammel.sol\":3085:3097  _usdcAddress */\n  dup1\n    /* \"Bhai_Muzammel.sol\":3071:3075  usdc */\n  0x01\n  0x00\n    /* \"Bhai_Muzammel.sol\":3071:3098  usdc = IERC20(_usdcAddress) */\n  0x0100\n  exp\n  dup2\n  sload\n  dup2\n  0xffffffffffffffffffffffffffffffffffffffff\n  mul\n  not\n  and\n  swap1\n  dup4\n  0xffffffffffffffffffffffffffffffffffffffff\n  and\n  mul\n  or\n  swap1\n  sstore\n  pop\n    /* \"Bhai_Muzammel.sol\":2937:3108  constructor(address _usdtAddress, address _usdcAddress) {... */\n  pop\n  pop\n    /* \"Bhai_Muzammel.sol\":2830:3794  contract USDCBuyer {... */\n  jump(tag_6)\n    /* \"#utility.yul\":88:205   */\ntag_8:\n    /* \"#utility.yul\":197:198   */\n  0x00\n    /* \"#utility.yul\":194:195   */\n  dup1\n    /* \"#utility.yul\":187:199   */\n  revert\n    /* \"#utility.yul\":334:460   */\ntag_10:\n    /* \"#utility.yul\":371:378   */\n  0x00\n    /* \"#utility.yul\":411:453   */\n  0xffffffffffffffffffffffffffffffffffffffff\n    /* \"#utility.yul\":404:409   */\n  dup3\n    /* \"#utility.yul\":400:454   */\n  and\n    /* \"#utility.yul\":389:454   */\n  swap1\n  pop\n    /* \"#utility.yul\":334:460   */\n  swap2\n  swap1\n  pop\n  jump\t// out\n    /* \"#utility.yul\":466:562   */\ntag_11:\n    /* \"#utility.yul\":503:510   */\n  0x00\n    /* \"#utility.yul\":532:556   */\n  tag_20\n    /* \"#utility.yul\":550:555   */\n  dup3\n    /* \"#utility.yul\":532:556   */\n  tag_10\n  jump\t// in\ntag_20:\n    /* \"#utility.yul\":521:556   */\n  swap1\n  pop\n    /* \"#utility.yul\":466:562   */\n  swap2\n  swap1\n  pop\n  jump\t// out\n    /* \"#utility.yul\":568:690   */\ntag_12:\n    /* \"#utility.yul\":641:665   */\n  tag_22\n    /* \"#utility.yul\":659:664   */\n  dup2\n    /* \"#utility.yul\":641:665   */\n  tag_11\n  jump\t// in\ntag_22:\n    /* \"#utility.yul\":634:639   */\n  dup2\n    /* \"#utility.yul\":631:666   */\n  eq\n    /* \"#utility.yul\":621:684   */\n  tag_23\n  jumpi\n    /* \"#utility.yul\":680:681   */\n  0x00\n    /* \"#utility.yul\":677:678   */\n  dup1\n    /* \"#utility.yul\":670:682   */\n  revert\n    /* \"#utility.yul\":621:684   */\ntag_23:\n    /* \"#utility.yul\":568:690   */\n  pop\n  jump\t// out\n    /* \"#utility.yul\":696:839   */\ntag_13:\n    /* \"#utility.yul\":753:758   */\n  0x00\n    /* \"#utility.yul\":784:790   */\n  dup2\n    /* \"#utility.yul\":778:791   */\n  mload\n    /* \"#utility.yul\":769:791   */\n  swap1\n  pop\n    /* \"#utility.yul\":800:833   */\n  tag_25\n    /* \"#utility.yul\":827:832   */\n  dup2\n    /* \"#utility.yul\":800:833   */\n  tag_12\n  jump\t// in\ntag_25:\n    /* \"#utility.yul\":696:839   */\n  swap3\n  swap2\n  pop\n  pop\n  jump\t// out\n    /* \"#utility.yul\":845:1352   */\ntag_3:\n    /* \"#utility.yul\":924:930   */\n  0x00\n    /* \"#utility.yul\":932:938   */\n  dup1\n    /* \"#utility.yul\":981:983   */\n  0x40\n    /* \"#utility.yul\":969:978   */\n  dup4\n    /* \"#utility.yul\":960:967   */\n  dup6\n    /* \"#utility.yul\":956:979   */\n  sub\n    /* \"#utility.yul\":952:984   */\n  slt\n    /* \"#utility.yul\":949:1068   */\n  iszero\n  tag_27\n  jumpi\n    /* \"#utility.yul\":987:1066   */\n  tag_28\n  tag_8\n  jump\t// in\ntag_28:\n    /* \"#utility.yul\":949:1068   */\ntag_27:\n    /* \"#utility.yul\":1107:1108   */\n  0x00\n    /* \"#utility.yul\":1132:1196   */\n  tag_29\n    /* \"#utility.yul\":1188:1195   */\n  dup6\n    /* \"#utility.yul\":1179:1185   */\n  dup3\n    /* \"#utility.yul\":1168:1177   */\n  dup7\n    /* \"#utility.yul\":1164:1186   */\n  add\n    /* \"#utility.yul\":1132:1196   */\n  tag_13\n  jump\t// in\ntag_29:\n    /* \"#utility.yul\":1122:1196   */\n  swap3\n  pop\n    /* \"#utility.yul\":1078:1206   */\n  pop\n    /* \"#utility.yul\":1245:1247   */\n  0x20\n    /* \"#utility.yul\":1271:1335   */\n  tag_30\n    /* \"#utility.yul\":1327:1334   */\n  dup6\n    /* \"#utility.yul\":1318:1324   */\n  dup3\n    /* \"#utility.yul\":1307:1316   */\n  dup7\n    /* \"#utility.yul\":1303:1325   */\n  add\n    /* \"#utility.yul\":1271:1335   */\n  tag_13\n  jump\t// in\ntag_30:\n    /* \"#utility.yul\":1261:1335   */\n  swap2\n  pop\n    /* \"#utility.yul\":1216:1345   */\n  pop\n    /* \"#utility.yul\":845:1352   */\n  swap3\n  pop\n  swap3\n  swap1\n  pop\n  jump\t// out\n    /* \"Bhai_Muzammel.sol\":2830:3794  contract USDCBuyer {... */\ntag_6:\n  dataSize(sub_0)\n  dup1\n  dataOffset(sub_0)\n  0x00\n  codecopy\n  0x00\n  return\nstop\n\nsub_0: assembly {\n        /* \"Bhai_Muzammel.sol\":2830:3794  contract USDCBuyer {... */\n      mstore(0x40, 0x80)\n      callvalue\n      dup1\n      iszero\n      tag_1\n      jumpi\n      0x00\n      dup1\n      revert\n    tag_1:\n      pop\n      jumpi(tag_2, lt(calldatasize, 0x04))\n      shr(0xe0, calldataload(0x00))\n      dup1\n      0x2f48ab7d\n      eq\n      tag_3\n      jumpi\n      dup1\n      0x3e413bee\n      eq\n      tag_4\n      jumpi\n      dup1\n      0x86bd35ce\n      eq\n      tag_5\n      jumpi\n      dup1\n      0x8da5cb5b\n      eq\n      tag_6\n      jumpi\n      dup1\n      0xfc60273c\n      eq\n      tag_7\n      jumpi\n    tag_2:\n      0x00\n      dup1\n      revert\n        /* \"Bhai_Muzammel.sol\":2856:2874  IERC20 public usdt */\n    tag_3:\n      tag_8\n      tag_9\n      jump\t// in\n    tag_8:\n      mload(0x40)\n      tag_10\n      swap2\n      swap1\n      tag_11\n      jump\t// in\n    tag_10:\n      mload(0x40)\n      dup1\n      swap2\n      sub\n      swap1\n      return\n        /* \"Bhai_Muzammel.sol\":2881:2899  IERC20 public usdc */\n    tag_4:\n      tag_12\n      tag_13\n      jump\t// in\n    tag_12:\n      mload(0x40)\n      tag_14\n      swap2\n      swap1\n      tag_11\n      jump\t// in\n    tag_14:\n      mload(0x40)\n      dup1\n      swap2\n      sub\n      swap1\n      return\n        /* \"Bhai_Muzammel.sol\":3466:3791  function sellUSDC(uint256 _usdcAmount) public {... */\n    tag_5:\n      tag_15\n      0x04\n      dup1\n      calldatasize\n      sub\n      dup2\n      add\n      swap1\n      tag_16\n      swap2\n      swap1\n      tag_17\n      jump\t// in\n    tag_16:\n      tag_18\n      jump\t// in\n    tag_15:\n      stop\n        /* \"Bhai_Muzammel.sol\":2906:2926  address public owner */\n    tag_6:\n      tag_19\n      tag_20\n      jump\t// in\n    tag_19:\n      mload(0x40)\n      tag_21\n      swap2\n      swap1\n      tag_22\n      jump\t// in\n    tag_21:\n      mload(0x40)\n      dup1\n      swap2\n      sub\n      swap1\n      return\n        /* \"Bhai_Muzammel.sol\":3158:3452  function buyUSDC(uint256 _usdtAmount) public {... */\n    tag_7:\n      tag_23\n      0x04\n      dup1\n      calldatasize\n      sub\n      dup2\n      add\n      swap1\n      tag_24\n      swap2\n      swap1\n      tag_17\n      jump\t// in\n    tag_24:\n      tag_25\n      jump\t// in\n    tag_23:\n      stop\n        /* \"Bhai_Muzammel.sol\":2856:2874  IERC20 public usdt */\n    tag_9:\n      0x00\n      dup1\n      sload\n      swap1\n      0x0100\n      exp\n      swap1\n      div\n      0xffffffffffffffffffffffffffffffffffffffff\n      and\n      dup2\n      jump\t// out\n        /* \"Bhai_Muzammel.sol\":2881:2899  IERC20 public usdc */\n    tag_13:\n      0x01\n      0x00\n      swap1\n      sload\n      swap1\n      0x0100\n      exp\n      swap1\n      div\n      0xffffffffffffffffffffffffffffffffffffffff\n      and\n      dup2\n      jump\t// out\n        /* \"Bhai_Muzammel.sol\":3466:3791  function sellUSDC(uint256 _usdcAmount) public {... */\n    tag_18:\n        /* \"Bhai_Muzammel.sol\":3545:3546  0 */\n      0x00\n        /* \"Bhai_Muzammel.sol\":3531:3542  _usdcAmount */\n      dup2\n        /* \"Bhai_Muzammel.sol\":3531:3546  _usdcAmount > 0 */\n      gt\n        /* \"Bhai_Muzammel.sol\":3523:3580  require(_usdcAmount > 0, \"Amount must be greater than 0\") */\n      tag_27\n      jumpi\n      mload(0x40)\n      0x08c379a000000000000000000000000000000000000000000000000000000000\n      dup2\n      mstore\n      0x04\n      add\n      tag_28\n      swap1\n      tag_29\n      jump\t// in\n    tag_28:\n      mload(0x40)\n      dup1\n      swap2\n      sub\n      swap1\n      revert\n    tag_27:\n        /* \"Bhai_Muzammel.sol\":3591:3609  uint256 usdtAmount */\n      0x00\n        /* \"Bhai_Muzammel.sol\":3612:3623  _usdcAmount */\n      dup2\n        /* \"Bhai_Muzammel.sol\":3591:3623  uint256 usdtAmount = _usdcAmount */\n      swap1\n      pop\n        /* \"Bhai_Muzammel.sol\":3635:3639  usdc */\n      0x01\n      0x00\n      swap1\n      sload\n      swap1\n      0x0100\n      exp\n      swap1\n      div\n      0xffffffffffffffffffffffffffffffffffffffff\n      and\n        /* \"Bhai_Muzammel.sol\":3635:3652  usdc.transferFrom */\n      0xffffffffffffffffffffffffffffffffffffffff\n      and\n      0x23b872dd\n        /* \"Bhai_Muzammel.sol\":3653:3663  msg.sender */\n      caller\n        /* \"Bhai_Muzammel.sol\":3673:3677  this */\n      address\n        /* \"Bhai_Muzammel.sol\":3680:3691  _usdcAmount */\n      dup6\n        /* \"Bhai_Muzammel.sol\":3635:3692  usdc.transferFrom(msg.sender, address(this), _usdcAmount) */\n      mload(0x40)\n      dup5\n      0xffffffff\n      and\n      0xe0\n      shl\n      dup2\n      mstore\n      0x04\n      add\n      tag_30\n      swap4\n      swap3\n      swap2\n      swap1\n      tag_31\n      jump\t// in\n    tag_30:\n      0x20\n      mload(0x40)\n      dup1\n      dup4\n      sub\n      dup2\n      0x00\n      dup8\n      gas\n      call\n      iszero\n      dup1\n      iszero\n      tag_33\n      jumpi\n      returndatasize\n      0x00\n      dup1\n      returndatacopy\n      revert(0x00, returndatasize)\n    tag_33:\n      pop\n      pop\n      pop\n      pop\n      mload(0x40)\n      returndatasize\n      not(0x1f)\n      0x1f\n      dup3\n      add\n      and\n      dup3\n      add\n      dup1\n      0x40\n      mstore\n      pop\n      dup2\n      add\n      swap1\n      tag_34\n      swap2\n      swap1\n      tag_35\n      jump\t// in\n    tag_34:\n      pop\n        /* \"Bhai_Muzammel.sol\":3703:3707  usdc */\n      0x01\n      0x00\n      swap1\n      sload\n      swap1\n      0x0100\n      exp\n      swap1\n      div\n      0xffffffffffffffffffffffffffffffffffffffff\n      and\n        /* \"Bhai_Muzammel.sol\":3703:3712  usdc.burn */\n      0xffffffffffffffffffffffffffffffffffffffff\n      and\n      0x9dc29fac\n        /* \"Bhai_Muzammel.sol\":3713:3723  msg.sender */\n      caller\n        /* \"Bhai_Muzammel.sol\":3725:3736  _usdcAmount */\n      dup5\n        /* \"Bhai_Muzammel.sol\":3703:3737  usdc.burn(msg.sender, _usdcAmount) */\n      mload(0x40)\n      dup4\n      0xffffffff\n      and\n      0xe0\n      shl\n      dup2\n      mstore\n      0x04\n      add\n      tag_36\n      swap3\n      swap2\n      swap1\n      tag_37\n      jump\t// in\n    tag_36:\n      0x00\n      mload(0x40)\n      dup1\n      dup4\n      sub\n      dup2\n      0x00\n      dup8\n      dup1\n      extcodesize\n      iszero\n      dup1\n      iszero\n      tag_38\n      jumpi\n      0x00\n      dup1\n      revert\n    tag_38:\n      pop\n      gas\n      call\n      iszero\n      dup1\n      iszero\n      tag_40\n      jumpi\n      returndatasize\n      0x00\n      dup1\n      returndatacopy\n      revert(0x00, returndatasize)\n    tag_40:\n      pop\n      pop\n      pop\n      pop\n        /* \"Bhai_Muzammel.sol\":3748:3752  usdt */\n      0x00\n      dup1\n      sload\n      swap1\n      0x0100\n      exp\n      swap1\n      div\n      0xffffffffffffffffffffffffffffffffffffffff\n      and\n        /* \"Bhai_Muzammel.sol\":3748:3757  usdt.mint */\n      0xffffffffffffffffffffffffffffffffffffffff\n      and\n      0x40c10f19\n        /* \"Bhai_Muzammel.sol\":3758:3768  msg.sender */\n      caller\n        /* \"Bhai_Muzammel.sol\":3770:3780  usdtAmount */\n      dup4\n        /* \"Bhai_Muzammel.sol\":3748:3781  usdt.mint(msg.sender, usdtAmount) */\n      mload(0x40)\n      dup4\n      0xffffffff\n      and\n      0xe0\n      shl\n      dup2\n      mstore\n      0x04\n      add\n      tag_41\n      swap3\n      swap2\n      swap1\n      tag_37\n      jump\t// in\n    tag_41:\n      0x00\n      mload(0x40)\n      dup1\n      dup4\n      sub\n      dup2\n      0x00\n      dup8\n      dup1\n      extcodesize\n      iszero\n      dup1\n      iszero\n      tag_42\n      jumpi\n      0x00\n      dup1\n      revert\n    tag_42:\n      pop\n      gas\n      call\n      iszero\n      dup1\n      iszero\n      tag_44\n      jumpi\n      returndatasize\n      0x00\n      dup1\n      returndatacopy\n      revert(0x00, returndatasize)\n    tag_44:\n      pop\n      pop\n      pop\n      pop\n        /* \"Bhai_Muzammel.sol\":3512:3791  {... */\n      pop\n        /* \"Bhai_Muzammel.sol\":3466:3791  function sellUSDC(uint256 _usdcAmount) public {... */\n      pop\n      jump\t// out\n        /* \"Bhai_Muzammel.sol\":2906:2926  address public owner */\n    tag_20:\n      0x02\n      0x00\n      swap1\n      sload\n      swap1\n      0x0100\n      exp\n      swap1\n      div\n      0xffffffffffffffffffffffffffffffffffffffff\n      and\n      dup2\n      jump\t// out\n        /* \"Bhai_Muzammel.sol\":3158:3452  function buyUSDC(uint256 _usdtAmount) public {... */\n    tag_25:\n        /* \"Bhai_Muzammel.sol\":3236:3237  0 */\n      0x00\n        /* \"Bhai_Muzammel.sol\":3222:3233  _usdtAmount */\n      dup2\n        /* \"Bhai_Muzammel.sol\":3222:3237  _usdtAmount > 0 */\n      gt\n        /* \"Bhai_Muzammel.sol\":3214:3271  require(_usdtAmount > 0, \"Amount must be greater than 0\") */\n      tag_46\n      jumpi\n      mload(0x40)\n      0x08c379a000000000000000000000000000000000000000000000000000000000\n      dup2\n      mstore\n      0x04\n      add\n      tag_47\n      swap1\n      tag_29\n      jump\t// in\n    tag_47:\n      mload(0x40)\n      dup1\n      swap2\n      sub\n      swap1\n      revert\n    tag_46:\n        /* \"Bhai_Muzammel.sol\":3292:3296  usdt */\n      0x00\n      dup1\n      sload\n      swap1\n      0x0100\n      exp\n      swap1\n      div\n      0xffffffffffffffffffffffffffffffffffffffff\n      and\n        /* \"Bhai_Muzammel.sol\":3292:3309  usdt.transferFrom */\n      0xffffffffffffffffffffffffffffffffffffffff\n      and\n      0x23b872dd\n        /* \"Bhai_Muzammel.sol\":3310:3320  msg.sender */\n      caller\n        /* \"Bhai_Muzammel.sol\":3330:3334  this */\n      address\n        /* \"Bhai_Muzammel.sol\":3337:3348  _usdtAmount */\n      dup5\n        /* \"Bhai_Muzammel.sol\":3292:3349  usdt.transferFrom(msg.sender, address(this), _usdtAmount) */\n      mload(0x40)\n      dup5\n      0xffffffff\n      and\n      0xe0\n      shl\n      dup2\n      mstore\n      0x04\n      add\n      tag_48\n      swap4\n      swap3\n      swap2\n      swap1\n      tag_31\n      jump\t// in\n    tag_48:\n      0x20\n      mload(0x40)\n      dup1\n      dup4\n      sub\n      dup2\n      0x00\n      dup8\n      gas\n      call\n      iszero\n      dup1\n      iszero\n      tag_50\n      jumpi\n      returndatasize\n      0x00\n      dup1\n      returndatacopy\n      revert(0x00, returndatasize)\n    tag_50:\n      pop\n      pop\n      pop\n      pop\n      mload(0x40)\n      returndatasize\n      not(0x1f)\n      0x1f\n      dup3\n      add\n      and\n      dup3\n      add\n      dup1\n      0x40\n      mstore\n      pop\n      dup2\n      add\n      swap1\n      tag_51\n      swap2\n      swap1\n      tag_35\n      jump\t// in\n    tag_51:\n      pop\n        /* \"Bhai_Muzammel.sol\":3360:3364  usdt */\n      0x00\n      dup1\n      sload\n      swap1\n      0x0100\n      exp\n      swap1\n      div\n      0xffffffffffffffffffffffffffffffffffffffff\n      and\n        /* \"Bhai_Muzammel.sol\":3360:3369  usdt.burn */\n      0xffffffffffffffffffffffffffffffffffffffff\n      and\n      0x9dc29fac\n        /* \"Bhai_Muzammel.sol\":3370:3380  msg.sender */\n      caller\n        /* \"Bhai_Muzammel.sol\":3382:3393  _usdtAmount */\n      dup4\n        /* \"Bhai_Muzammel.sol\":3360:3394  usdt.burn(msg.sender, _usdtAmount) */\n      mload(0x40)\n      dup4\n      0xffffffff\n      and\n      0xe0\n      shl\n      dup2\n      mstore\n      0x04\n      add\n      tag_52\n      swap3\n      swap2\n      swap1\n      tag_37\n      jump\t// in\n    tag_52:\n      0x00\n      mload(0x40)\n      dup1\n      dup4\n      sub\n      dup2\n      0x00\n      dup8\n      dup1\n      extcodesize\n      iszero\n      dup1\n      iszero\n      tag_53\n      jumpi\n      0x00\n      dup1\n      revert\n    tag_53:\n      pop\n      gas\n      call\n      iszero\n      dup1\n      iszero\n      tag_55\n      jumpi\n      returndatasize\n      0x00\n      dup1\n      returndatacopy\n      revert(0x00, returndatasize)\n    tag_55:\n      pop\n      pop\n      pop\n      pop\n        /* \"Bhai_Muzammel.sol\":3405:3409  usdc */\n      0x01\n      0x00\n      swap1\n      sload\n      swap1\n      0x0100\n      exp\n      swap1\n      div\n      0xffffffffffffffffffffffffffffffffffffffff\n      and\n        /* \"Bhai_Muzammel.sol\":3405:3414  usdc.mint */\n      0xffffffffffffffffffffffffffffffffffffffff\n      and\n      0x40c10f19\n        /* \"Bhai_Muzammel.sol\":3415:3425  msg.sender */\n      caller\n        /* \"Bhai_Muzammel.sol\":3427:3438  _usdtAmount */\n      dup4\n        /* \"Bhai_Muzammel.sol\":3405:3439  usdc.mint(msg.sender, _usdtAmount) */\n      mload(0x40)\n      dup4\n      0xffffffff\n      and\n      0xe0\n      shl\n      dup2\n      mstore\n      0x04\n      add\n      tag_56\n      swap3\n      swap2\n      swap1\n      tag_37\n      jump\t// in\n    tag_56:\n      0x00\n      mload(0x40)\n      dup1\n      dup4\n      sub\n      dup2\n      0x00\n      dup8\n      dup1\n      extcodesize\n      iszero\n      dup1\n      iszero\n      tag_57\n      jumpi\n      0x00\n      dup1\n      revert\n    tag_57:\n      pop\n      gas\n      call\n      iszero\n      dup1\n      iszero\n      tag_59\n      jumpi\n      returndatasize\n      0x00\n      dup1\n      returndatacopy\n      revert(0x00, returndatasize)\n    tag_59:\n      pop\n      pop\n      pop\n      pop\n        /* \"Bhai_Muzammel.sol\":3158:3452  function buyUSDC(uint256 _usdtAmount) public {... */\n      pop\n      jump\t// out\n        /* \"#utility.yul\":7:133   */\n    tag_60:\n        /* \"#utility.yul\":44:51   */\n      0x00\n        /* \"#utility.yul\":84:126   */\n      0xffffffffffffffffffffffffffffffffffffffff\n        /* \"#utility.yul\":77:82   */\n      dup3\n        /* \"#utility.yul\":73:127   */\n      and\n        /* \"#utility.yul\":62:127   */\n      swap1\n      pop\n        /* \"#utility.yul\":7:133   */\n      swap2\n      swap1\n      pop\n      jump\t// out\n        /* \"#utility.yul\":139:199   */\n    tag_61:\n        /* \"#utility.yul\":167:170   */\n      0x00\n        /* \"#utility.yul\":188:193   */\n      dup2\n        /* \"#utility.yul\":181:193   */\n      swap1\n      pop\n        /* \"#utility.yul\":139:199   */\n      swap2\n      swap1\n      pop\n      jump\t// out\n        /* \"#utility.yul\":205:347   */\n    tag_62:\n        /* \"#utility.yul\":255:264   */\n      0x00\n        /* \"#utility.yul\":288:341   */\n      tag_85\n        /* \"#utility.yul\":306:340   */\n      tag_86\n        /* \"#utility.yul\":315:339   */\n      tag_87\n        /* \"#utility.yul\":333:338   */\n      dup5\n        /* \"#utility.yul\":315:339   */\n      tag_60\n      jump\t// in\n    tag_87:\n        /* \"#utility.yul\":306:340   */\n      tag_61\n      jump\t// in\n    tag_86:\n        /* \"#utility.yul\":288:341   */\n      tag_60\n      jump\t// in\n    tag_85:\n        /* \"#utility.yul\":275:341   */\n      swap1\n      pop\n        /* \"#utility.yul\":205:347   */\n      swap2\n      swap1\n      pop\n      jump\t// out\n        /* \"#utility.yul\":353:479   */\n    tag_63:\n        /* \"#utility.yul\":403:412   */\n      0x00\n        /* \"#utility.yul\":436:473   */\n      tag_89\n        /* \"#utility.yul\":467:472   */\n      dup3\n        /* \"#utility.yul\":436:473   */\n      tag_62\n      jump\t// in\n    tag_89:\n        /* \"#utility.yul\":423:473   */\n      swap1\n      pop\n        /* \"#utility.yul\":353:479   */\n      swap2\n      swap1\n      pop\n      jump\t// out\n        /* \"#utility.yul\":485:624   */\n    tag_64:\n        /* \"#utility.yul\":548:557   */\n      0x00\n        /* \"#utility.yul\":581:618   */\n      tag_91\n        /* \"#utility.yul\":612:617   */\n      dup3\n        /* \"#utility.yul\":581:618   */\n      tag_63\n      jump\t// in\n    tag_91:\n        /* \"#utility.yul\":568:618   */\n      swap1\n      pop\n        /* \"#utility.yul\":485:624   */\n      swap2\n      swap1\n      pop\n      jump\t// out\n        /* \"#utility.yul\":630:787   */\n    tag_65:\n        /* \"#utility.yul\":730:780   */\n      tag_93\n        /* \"#utility.yul\":774:779   */\n      dup2\n        /* \"#utility.yul\":730:780   */\n      tag_64\n      jump\t// in\n    tag_93:\n        /* \"#utility.yul\":725:728   */\n      dup3\n        /* \"#utility.yul\":718:781   */\n      mstore\n        /* \"#utility.yul\":630:787   */\n      pop\n      pop\n      jump\t// out\n        /* \"#utility.yul\":793:1041   */\n    tag_11:\n        /* \"#utility.yul\":899:903   */\n      0x00\n        /* \"#utility.yul\":937:939   */\n      0x20\n        /* \"#utility.yul\":926:935   */\n      dup3\n        /* \"#utility.yul\":922:940   */\n      add\n        /* \"#utility.yul\":914:940   */\n      swap1\n      pop\n        /* \"#utility.yul\":950:1034   */\n      tag_95\n        /* \"#utility.yul\":1031:1032   */\n      0x00\n        /* \"#utility.yul\":1020:1029   */\n      dup4\n        /* \"#utility.yul\":1016:1033   */\n      add\n        /* \"#utility.yul\":1007:1013   */\n      dup5\n        /* \"#utility.yul\":950:1034   */\n      tag_65\n      jump\t// in\n    tag_95:\n        /* \"#utility.yul\":793:1041   */\n      swap3\n      swap2\n      pop\n      pop\n      jump\t// out\n        /* \"#utility.yul\":1128:1245   */\n    tag_67:\n        /* \"#utility.yul\":1237:1238   */\n      0x00\n        /* \"#utility.yul\":1234:1235   */\n      dup1\n        /* \"#utility.yul\":1227:1239   */\n      revert\n        /* \"#utility.yul\":1374:1451   */\n    tag_69:\n        /* \"#utility.yul\":1411:1418   */\n      0x00\n        /* \"#utility.yul\":1440:1445   */\n      dup2\n        /* \"#utility.yul\":1429:1445   */\n      swap1\n      pop\n        /* \"#utility.yul\":1374:1451   */\n      swap2\n      swap1\n      pop\n      jump\t// out\n        /* \"#utility.yul\":1457:1579   */\n    tag_70:\n        /* \"#utility.yul\":1530:1554   */\n      tag_101\n        /* \"#utility.yul\":1548:1553   */\n      dup2\n        /* \"#utility.yul\":1530:1554   */\n      tag_69\n      jump\t// in\n    tag_101:\n        /* \"#utility.yul\":1523:1528   */\n      dup2\n        /* \"#utility.yul\":1520:1555   */\n      eq\n        /* \"#utility.yul\":1510:1573   */\n      tag_102\n      jumpi\n        /* \"#utility.yul\":1569:1570   */\n      0x00\n        /* \"#utility.yul\":1566:1567   */\n      dup1\n        /* \"#utility.yul\":1559:1571   */\n      revert\n        /* \"#utility.yul\":1510:1573   */\n    tag_102:\n        /* \"#utility.yul\":1457:1579   */\n      pop\n      jump\t// out\n        /* \"#utility.yul\":1585:1724   */\n    tag_71:\n        /* \"#utility.yul\":1631:1636   */\n      0x00\n        /* \"#utility.yul\":1669:1675   */\n      dup2\n        /* \"#utility.yul\":1656:1676   */\n      calldataload\n        /* \"#utility.yul\":1647:1676   */\n      swap1\n      pop\n        /* \"#utility.yul\":1685:1718   */\n      tag_104\n        /* \"#utility.yul\":1712:1717   */\n      dup2\n        /* \"#utility.yul\":1685:1718   */\n      tag_70\n      jump\t// in\n    tag_104:\n        /* \"#utility.yul\":1585:1724   */\n      swap3\n      swap2\n      pop\n      pop\n      jump\t// out\n        /* \"#utility.yul\":1730:2059   */\n    tag_17:\n        /* \"#utility.yul\":1789:1795   */\n      0x00\n        /* \"#utility.yul\":1838:1840   */\n      0x20\n        /* \"#utility.yul\":1826:1835   */\n      dup3\n        /* \"#utility.yul\":1817:1824   */\n      dup5\n        /* \"#utility.yul\":1813:1836   */\n      sub\n        /* \"#utility.yul\":1809:1841   */\n      slt\n        /* \"#utility.yul\":1806:1925   */\n      iszero\n      tag_106\n      jumpi\n        /* \"#utility.yul\":1844:1923   */\n      tag_107\n      tag_67\n      jump\t// in\n    tag_107:\n        /* \"#utility.yul\":1806:1925   */\n    tag_106:\n        /* \"#utility.yul\":1964:1965   */\n      0x00\n        /* \"#utility.yul\":1989:2042   */\n      tag_108\n        /* \"#utility.yul\":2034:2041   */\n      dup5\n        /* \"#utility.yul\":2025:2031   */\n      dup3\n        /* \"#utility.yul\":2014:2023   */\n      dup6\n        /* \"#utility.yul\":2010:2032   */\n      add\n        /* \"#utility.yul\":1989:2042   */\n      tag_71\n      jump\t// in\n    tag_108:\n        /* \"#utility.yul\":1979:2042   */\n      swap2\n      pop\n        /* \"#utility.yul\":1935:2052   */\n      pop\n        /* \"#utility.yul\":1730:2059   */\n      swap3\n      swap2\n      pop\n      pop\n      jump\t// out\n        /* \"#utility.yul\":2065:2161   */\n    tag_72:\n        /* \"#utility.yul\":2102:2109   */\n      0x00\n        /* \"#utility.yul\":2131:2155   */\n      tag_110\n        /* \"#utility.yul\":2149:2154   */\n      dup3\n        /* \"#utility.yul\":2131:2155   */\n      tag_60\n      jump\t// in\n    tag_110:\n        /* \"#utility.yul\":2120:2155   */\n      swap1\n      pop\n        /* \"#utility.yul\":2065:2161   */\n      swap2\n      swap1\n      pop\n      jump\t// out\n        /* \"#utility.yul\":2167:2285   */\n    tag_73:\n        /* \"#utility.yul\":2254:2278   */\n      tag_112\n        /* \"#utility.yul\":2272:2277   */\n      dup2\n        /* \"#utility.yul\":2254:2278   */\n      tag_72\n      jump\t// in\n    tag_112:\n        /* \"#utility.yul\":2249:2252   */\n      dup3\n        /* \"#utility.yul\":2242:2279   */\n      mstore\n        /* \"#utility.yul\":2167:2285   */\n      pop\n      pop\n      jump\t// out\n        /* \"#utility.yul\":2291:2513   */\n    tag_22:\n        /* \"#utility.yul\":2384:2388   */\n      0x00\n        /* \"#utility.yul\":2422:2424   */\n      0x20\n        /* \"#utility.yul\":2411:2420   */\n      dup3\n        /* \"#utility.yul\":2407:2425   */\n      add\n        /* \"#utility.yul\":2399:2425   */\n      swap1\n      pop\n        /* \"#utility.yul\":2435:2506   */\n      tag_114\n        /* \"#utility.yul\":2503:2504   */\n      0x00\n        /* \"#utility.yul\":2492:2501   */\n      dup4\n        /* \"#utility.yul\":2488:2505   */\n      add\n        /* \"#utility.yul\":2479:2485   */\n      dup5\n        /* \"#utility.yul\":2435:2506   */\n      tag_73\n      jump\t// in\n    tag_114:\n        /* \"#utility.yul\":2291:2513   */\n      swap3\n      swap2\n      pop\n      pop\n      jump\t// out\n        /* \"#utility.yul\":2519:2688   */\n    tag_74:\n        /* \"#utility.yul\":2603:2614   */\n      0x00\n        /* \"#utility.yul\":2637:2643   */\n      dup3\n        /* \"#utility.yul\":2632:2635   */\n      dup3\n        /* \"#utility.yul\":2625:2644   */\n      mstore\n        /* \"#utility.yul\":2677:2681   */\n      0x20\n        /* \"#utility.yul\":2672:2675   */\n      dup3\n        /* \"#utility.yul\":2668:2682   */\n      add\n        /* \"#utility.yul\":2653:2682   */\n      swap1\n      pop\n        /* \"#utility.yul\":2519:2688   */\n      swap3\n      swap2\n      pop\n      pop\n      jump\t// out\n        /* \"#utility.yul\":2694:2873   */\n    tag_75:\n        /* \"#utility.yul\":2834:2865   */\n      0x416d6f756e74206d7573742062652067726561746572207468616e2030000000\n        /* \"#utility.yul\":2830:2831   */\n      0x00\n        /* \"#utility.yul\":2822:2828   */\n      dup3\n        /* \"#utility.yul\":2818:2832   */\n      add\n        /* \"#utility.yul\":2811:2866   */\n      mstore\n        /* \"#utility.yul\":2694:2873   */\n      pop\n      jump\t// out\n        /* \"#utility.yul\":2879:3245   */\n    tag_76:\n        /* \"#utility.yul\":3021:3024   */\n      0x00\n        /* \"#utility.yul\":3042:3109   */\n      tag_118\n        /* \"#utility.yul\":3106:3108   */\n      0x1d\n        /* \"#utility.yul\":3101:3104   */\n      dup4\n        /* \"#utility.yul\":3042:3109   */\n      tag_74\n      jump\t// in\n    tag_118:\n        /* \"#utility.yul\":3035:3109   */\n      swap2\n      pop\n        /* \"#utility.yul\":3118:3211   */\n      tag_119\n        /* \"#utility.yul\":3207:3210   */\n      dup3\n        /* \"#utility.yul\":3118:3211   */\n      tag_75\n      jump\t// in\n    tag_119:\n        /* \"#utility.yul\":3236:3238   */\n      0x20\n        /* \"#utility.yul\":3231:3234   */\n      dup3\n        /* \"#utility.yul\":3227:3239   */\n      add\n        /* \"#utility.yul\":3220:3239   */\n      swap1\n      pop\n        /* \"#utility.yul\":2879:3245   */\n      swap2\n      swap1\n      pop\n      jump\t// out\n        /* \"#utility.yul\":3251:3670   */\n    tag_29:\n        /* \"#utility.yul\":3417:3421   */\n      0x00\n        /* \"#utility.yul\":3455:3457   */\n      0x20\n        /* \"#utility.yul\":3444:3453   */\n      dup3\n        /* \"#utility.yul\":3440:3458   */\n      add\n        /* \"#utility.yul\":3432:3458   */\n      swap1\n      pop\n        /* \"#utility.yul\":3504:3513   */\n      dup2\n        /* \"#utility.yul\":3498:3502   */\n      dup2\n        /* \"#utility.yul\":3494:3514   */\n      sub\n        /* \"#utility.yul\":3490:3491   */\n      0x00\n        /* \"#utility.yul\":3479:3488   */\n      dup4\n        /* \"#utility.yul\":3475:3492   */\n      add\n        /* \"#utility.yul\":3468:3515   */\n      mstore\n        /* \"#utility.yul\":3532:3663   */\n      tag_121\n        /* \"#utility.yul\":3658:3662   */\n      dup2\n        /* \"#utility.yul\":3532:3663   */\n      tag_76\n      jump\t// in\n    tag_121:\n        /* \"#utility.yul\":3524:3663   */\n      swap1\n      pop\n        /* \"#utility.yul\":3251:3670   */\n      swap2\n      swap1\n      pop\n      jump\t// out\n        /* \"#utility.yul\":3676:3794   */\n    tag_77:\n        /* \"#utility.yul\":3763:3787   */\n      tag_123\n        /* \"#utility.yul\":3781:3786   */\n      dup2\n        /* \"#utility.yul\":3763:3787   */\n      tag_69\n      jump\t// in\n    tag_123:\n        /* \"#utility.yul\":3758:3761   */\n      dup3\n        /* \"#utility.yul\":3751:3788   */\n      mstore\n        /* \"#utility.yul\":3676:3794   */\n      pop\n      pop\n      jump\t// out\n        /* \"#utility.yul\":3800:4242   */\n    tag_31:\n        /* \"#utility.yul\":3949:3953   */\n      0x00\n        /* \"#utility.yul\":3987:3989   */\n      0x60\n        /* \"#utility.yul\":3976:3985   */\n      dup3\n        /* \"#utility.yul\":3972:3990   */\n      add\n        /* \"#utility.yul\":3964:3990   */\n      swap1\n      pop\n        /* \"#utility.yul\":4000:4071   */\n      tag_125\n        /* \"#utility.yul\":4068:4069   */\n      0x00\n        /* \"#utility.yul\":4057:4066   */\n      dup4\n        /* \"#utility.yul\":4053:4070   */\n      add\n        /* \"#utility.yul\":4044:4050   */\n      dup7\n        /* \"#utility.yul\":4000:4071   */\n      tag_73\n      jump\t// in\n    tag_125:\n        /* \"#utility.yul\":4081:4153   */\n      tag_126\n        /* \"#utility.yul\":4149:4151   */\n      0x20\n        /* \"#utility.yul\":4138:4147   */\n      dup4\n        /* \"#utility.yul\":4134:4152   */\n      add\n        /* \"#utility.yul\":4125:4131   */\n      dup6\n        /* \"#utility.yul\":4081:4153   */\n      tag_73\n      jump\t// in\n    tag_126:\n        /* \"#utility.yul\":4163:4235   */\n      tag_127\n        /* \"#utility.yul\":4231:4233   */\n      0x40\n        /* \"#utility.yul\":4220:4229   */\n      dup4\n        /* \"#utility.yul\":4216:4234   */\n      add\n        /* \"#utility.yul\":4207:4213   */\n      dup5\n        /* \"#utility.yul\":4163:4235   */\n      tag_77\n      jump\t// in\n    tag_127:\n        /* \"#utility.yul\":3800:4242   */\n      swap5\n      swap4\n      pop\n      pop\n      pop\n      pop\n      jump\t// out\n        /* \"#utility.yul\":4248:4338   */\n    tag_78:\n        /* \"#utility.yul\":4282:4289   */\n      0x00\n        /* \"#utility.yul\":4325:4330   */\n      dup2\n        /* \"#utility.yul\":4318:4331   */\n      iszero\n        /* \"#utility.yul\":4311:4332   */\n      iszero\n        /* \"#utility.yul\":4300:4332   */\n      swap1\n      pop\n        /* \"#utility.yul\":4248:4338   */\n      swap2\n      swap1\n      pop\n      jump\t// out\n        /* \"#utility.yul\":4344:4460   */\n    tag_79:\n        /* \"#utility.yul\":4414:4435   */\n      tag_130\n        /* \"#utility.yul\":4429:4434   */\n      dup2\n        /* \"#utility.yul\":4414:4435   */\n      tag_78\n      jump\t// in\n    tag_130:\n        /* \"#utility.yul\":4407:4412   */\n      dup2\n        /* \"#utility.yul\":4404:4436   */\n      eq\n        /* \"#utility.yul\":4394:4454   */\n      tag_131\n      jumpi\n        /* \"#utility.yul\":4450:4451   */\n      0x00\n        /* \"#utility.yul\":4447:4448   */\n      dup1\n        /* \"#utility.yul\":4440:4452   */\n      revert\n        /* \"#utility.yul\":4394:4454   */\n    tag_131:\n        /* \"#utility.yul\":4344:4460   */\n      pop\n      jump\t// out\n        /* \"#utility.yul\":4466:4603   */\n    tag_80:\n        /* \"#utility.yul\":4520:4525   */\n      0x00\n        /* \"#utility.yul\":4551:4557   */\n      dup2\n        /* \"#utility.yul\":4545:4558   */\n      mload\n        /* \"#utility.yul\":4536:4558   */\n      swap1\n      pop\n        /* \"#utility.yul\":4567:4597   */\n      tag_133\n        /* \"#utility.yul\":4591:4596   */\n      dup2\n        /* \"#utility.yul\":4567:4597   */\n      tag_79\n      jump\t// in\n    tag_133:\n        /* \"#utility.yul\":4466:4603   */\n      swap3\n      swap2\n      pop\n      pop\n      jump\t// out\n        /* \"#utility.yul\":4609:4954   */\n    tag_35:\n        /* \"#utility.yul\":4676:4682   */\n      0x00\n        /* \"#utility.yul\":4725:4727   */\n      0x20\n        /* \"#utility.yul\":4713:4722   */\n      dup3\n        /* \"#utility.yul\":4704:4711   */\n      dup5\n        /* \"#utility.yul\":4700:4723   */\n      sub\n        /* \"#utility.yul\":4696:4728   */\n      slt\n        /* \"#utility.yul\":4693:4812   */\n      iszero\n      tag_135\n      jumpi\n        /* \"#utility.yul\":4731:4810   */\n      tag_136\n      tag_67\n      jump\t// in\n    tag_136:\n        /* \"#utility.yul\":4693:4812   */\n    tag_135:\n        /* \"#utility.yul\":4851:4852   */\n      0x00\n        /* \"#utility.yul\":4876:4937   */\n      tag_137\n        /* \"#utility.yul\":4929:4936   */\n      dup5\n        /* \"#utility.yul\":4920:4926   */\n      dup3\n        /* \"#utility.yul\":4909:4918   */\n      dup6\n        /* \"#utility.yul\":4905:4927   */\n      add\n        /* \"#utility.yul\":4876:4937   */\n      tag_80\n      jump\t// in\n    tag_137:\n        /* \"#utility.yul\":4866:4937   */\n      swap2\n      pop\n        /* \"#utility.yul\":4822:4947   */\n      pop\n        /* \"#utility.yul\":4609:4954   */\n      swap3\n      swap2\n      pop\n      pop\n      jump\t// out\n        /* \"#utility.yul\":4960:5292   */\n    tag_37:\n        /* \"#utility.yul\":5081:5085   */\n      0x00\n        /* \"#utility.yul\":5119:5121   */\n      0x40\n        /* \"#utility.yul\":5108:5117   */\n      dup3\n        /* \"#utility.yul\":5104:5122   */\n      add\n        /* \"#utility.yul\":5096:5122   */\n      swap1\n      pop\n        /* \"#utility.yul\":5132:5203   */\n      tag_139\n        /* \"#utility.yul\":5200:5201   */\n      0x00\n        /* \"#utility.yul\":5189:5198   */\n      dup4\n        /* \"#utility.yul\":5185:5202   */\n      add\n        /* \"#utility.yul\":5176:5182   */\n      dup6\n        /* \"#utility.yul\":5132:5203   */\n      tag_73\n      jump\t// in\n    tag_139:\n        /* \"#utility.yul\":5213:5285   */\n      tag_140\n        /* \"#utility.yul\":5281:5283   */\n      0x20\n        /* \"#utility.yul\":5270:5279   */\n      dup4\n        /* \"#utility.yul\":5266:5284   */\n      add\n        /* \"#utility.yul\":5257:5263   */\n      dup5\n        /* \"#utility.yul\":5213:5285   */\n      tag_77\n      jump\t// in\n    tag_140:\n        /* \"#utility.yul\":4960:5292   */\n      swap4\n      swap3\n      pop\n      pop\n      pop\n      jump\t// out\n\n    auxdata: 0xa26469706673582212206be7b3759c302098dc25946b0663b52b89711eb5f570234567a4f7a9eb91ae9664736f6c63430008120033\n}\n",
				"bytecode": {
					"linkReferences": {},
					"object": "608060405234801561001057600080fd5b506040516109de3803806109de8339818101604052810190610032919061015e565b33600260006101000a81548173ffffffffffffffffffffffffffffffffffffffff021916908373ffffffffffffffffffffffffffffffffffffffff160217905550816000806101000a81548173ffffffffffffffffffffffffffffffffffffffff021916908373ffffffffffffffffffffffffffffffffffffffff16021790555080600160006101000a81548173ffffffffffffffffffffffffffffffffffffffff021916908373ffffffffffffffffffffffffffffffffffffffff160217905550505061019e565b600080fd5b600073ffffffffffffffffffffffffffffffffffffffff82169050919050565b600061012b82610100565b9050919050565b61013b81610120565b811461014657600080fd5b50565b60008151905061015881610132565b92915050565b60008060408385031215610175576101746100fb565b5b600061018385828601610149565b925050602061019485828601610149565b9150509250929050565b610831806101ad6000396000f3fe608060405234801561001057600080fd5b50600436106100575760003560e01c80632f48ab7d1461005c5780633e413bee1461007a57806386bd35ce146100985780638da5cb5b146100b4578063fc60273c146100d2575b600080fd5b6100646100ee565b60405161007191906105eb565b60405180910390f35b610082610112565b60405161008f91906105eb565b60405180910390f35b6100b260048036038101906100ad9190610641565b610138565b005b6100bc610343565b6040516100c9919061068f565b60405180910390f35b6100ec60048036038101906100e79190610641565b610369565b005b60008054906101000a900473ffffffffffffffffffffffffffffffffffffffff1681565b600160009054906101000a900473ffffffffffffffffffffffffffffffffffffffff1681565b6000811161017b576040517f08c379a000000000000000000000000000000000000000000000000000000000815260040161017290610707565b60405180910390fd5b6000819050600160009054906101000a900473ffffffffffffffffffffffffffffffffffffffff1673ffffffffffffffffffffffffffffffffffffffff166323b872dd3330856040518463ffffffff1660e01b81526004016101df93929190610736565b6020604051808303816000875af11580156101fe573d6000803e3d6000fd5b505050506040513d601f19601f8201168201806040525081019061022291906107a5565b50600160009054906101000a900473ffffffffffffffffffffffffffffffffffffffff1673ffffffffffffffffffffffffffffffffffffffff16639dc29fac33846040518363ffffffff1660e01b81526004016102809291906107d2565b600060405180830381600087803b15801561029a57600080fd5b505af11580156102ae573d6000803e3d6000fd5b5050505060008054906101000a900473ffffffffffffffffffffffffffffffffffffffff1673ffffffffffffffffffffffffffffffffffffffff166340c10f1933836040518363ffffffff1660e01b815260040161030d9291906107d2565b600060405180830381600087803b15801561032757600080fd5b505af115801561033b573d6000803e3d6000fd5b505050505050565b600260009054906101000a900473ffffffffffffffffffffffffffffffffffffffff1681565b600081116103ac576040517f08c379a00000000000000000000000000000000000000000000000000000000081526004016103a390610707565b60405180910390fd5b60008054906101000a900473ffffffffffffffffffffffffffffffffffffffff1673ffffffffffffffffffffffffffffffffffffffff166323b872dd3330846040518463ffffffff1660e01b815260040161040993929190610736565b6020604051808303816000875af1158015610428573d6000803e3d6000fd5b505050506040513d601f19601f8201168201806040525081019061044c91906107a5565b5060008054906101000a900473ffffffffffffffffffffffffffffffffffffffff1673ffffffffffffffffffffffffffffffffffffffff16639dc29fac33836040518363ffffffff1660e01b81526004016104a89291906107d2565b600060405180830381600087803b1580156104c257600080fd5b505af11580156104d6573d6000803e3d6000fd5b50505050600160009054906101000a900473ffffffffffffffffffffffffffffffffffffffff1673ffffffffffffffffffffffffffffffffffffffff166340c10f1933836040518363ffffffff1660e01b81526004016105379291906107d2565b600060405180830381600087803b15801561055157600080fd5b505af1158015610565573d6000803e3d6000fd5b5050505050565b600073ffffffffffffffffffffffffffffffffffffffff82169050919050565b6000819050919050565b60006105b16105ac6105a78461056c565b61058c565b61056c565b9050919050565b60006105c382610596565b9050919050565b60006105d5826105b8565b9050919050565b6105e5816105ca565b82525050565b600060208201905061060060008301846105dc565b92915050565b600080fd5b6000819050919050565b61061e8161060b565b811461062957600080fd5b50565b60008135905061063b81610615565b92915050565b60006020828403121561065757610656610606565b5b60006106658482850161062c565b91505092915050565b60006106798261056c565b9050919050565b6106898161066e565b82525050565b60006020820190506106a46000830184610680565b92915050565b600082825260208201905092915050565b7f416d6f756e74206d7573742062652067726561746572207468616e2030000000600082015250565b60006106f1601d836106aa565b91506106fc826106bb565b602082019050919050565b60006020820190508181036000830152610720816106e4565b9050919050565b6107308161060b565b82525050565b600060608201905061074b6000830186610680565b6107586020830185610680565b6107656040830184610727565b949350505050565b60008115159050919050565b6107828161076d565b811461078d57600080fd5b50565b60008151905061079f81610779565b92915050565b6000602082840312156107bb576107ba610606565b5b60006107c984828501610790565b91505092915050565b60006040820190506107e76000830185610680565b6107f46020830184610727565b939250505056fea26469706673582212206be7b3759c302098dc25946b0663b52b89711eb5f570234567a4f7a9eb91ae9664736f6c63430008120033",
					"opcodes": "PUSH1 0x80 PUSH1 0x40 MSTORE CALLVALUE DUP1 ISZERO PUSH2 0x10 JUMPI PUSH1 0x0 DUP1 REVERT JUMPDEST POP PUSH1 0x40 MLOAD PUSH2 0x9DE CODESIZE SUB DUP1 PUSH2 0x9DE DUP4 CODECOPY DUP2 DUP2 ADD PUSH1 0x40 MSTORE DUP2 ADD SWAP1 PUSH2 0x32 SWAP2 SWAP1 PUSH2 0x15E JUMP JUMPDEST CALLER PUSH1 0x2 PUSH1 0x0 PUSH2 0x100 EXP DUP2 SLOAD DUP2 PUSH20 0xFFFFFFFFFFFFFFFFFFFFFFFFFFFFFFFFFFFFFFFF MUL NOT AND SWAP1 DUP4 PUSH20 0xFFFFFFFFFFFFFFFFFFFFFFFFFFFFFFFFFFFFFFFF AND MUL OR SWAP1 SSTORE POP DUP2 PUSH1 0x0 DUP1 PUSH2 0x100 EXP DUP2 SLOAD DUP2 PUSH20 0xFFFFFFFFFFFFFFFFFFFFFFFFFFFFFFFFFFFFFFFF MUL NOT AND SWAP1 DUP4 PUSH20 0xFFFFFFFFFFFFFFFFFFFFFFFFFFFFFFFFFFFFFFFF AND MUL OR SWAP1 SSTORE POP DUP1 PUSH1 0x1 PUSH1 0x0 PUSH2 0x100 EXP DUP2 SLOAD DUP2 PUSH20 0xFFFFFFFFFFFFFFFFFFFFFFFFFFFFFFFFFFFFFFFF MUL NOT AND SWAP1 DUP4 PUSH20 0xFFFFFFFFFFFFFFFFFFFFFFFFFFFFFFFFFFFFFFFF AND MUL OR SWAP1 SSTORE POP POP POP PUSH2 0x19E JUMP JUMPDEST PUSH1 0x0 DUP1 REVERT JUMPDEST PUSH1 0x0 PUSH20 0xFFFFFFFFFFFFFFFFFFFFFFFFFFFFFFFFFFFFFFFF DUP3 AND SWAP1 POP SWAP2 SWAP1 POP JUMP JUMPDEST PUSH1 0x0 PUSH2 0x12B DUP3 PUSH2 0x100 JUMP JUMPDEST SWAP1 POP SWAP2 SWAP1 POP JUMP JUMPDEST PUSH2 0x13B DUP2 PUSH2 0x120 JUMP JUMPDEST DUP2 EQ PUSH2 0x146 JUMPI PUSH1 0x0 DUP1 REVERT JUMPDEST POP JUMP JUMPDEST PUSH1 0x0 DUP2 MLOAD SWAP1 POP PUSH2 0x158 DUP2 PUSH2 0x132 JUMP JUMPDEST SWAP3 SWAP2 POP POP JUMP JUMPDEST PUSH1 0x0 DUP1 PUSH1 0x40 DUP4 DUP6 SUB SLT ISZERO PUSH2 0x175 JUMPI PUSH2 0x174 PUSH2 0xFB JUMP JUMPDEST JUMPDEST PUSH1 0x0 PUSH2 0x183 DUP6 DUP3 DUP7 ADD PUSH2 0x149 JUMP JUMPDEST SWAP3 POP POP PUSH1 0x20 PUSH2 0x194 DUP6 DUP3 DUP7 ADD PUSH2 0x149 JUMP JUMPDEST SWAP2 POP POP SWAP3 POP SWAP3 SWAP1 POP JUMP JUMPDEST PUSH2 0x831 DUP1 PUSH2 0x1AD PUSH1 0x0 CODECOPY PUSH1 0x0 RETURN INVALID PUSH1 0x80 PUSH1 0x40 MSTORE CALLVALUE DUP1 ISZERO PUSH2 0x10 JUMPI PUSH1 0x0 DUP1 REVERT JUMPDEST POP PUSH1 0x4 CALLDATASIZE LT PUSH2 0x57 JUMPI PUSH1 0x0 CALLDATALOAD PUSH1 0xE0 SHR DUP1 PUSH4 0x2F48AB7D EQ PUSH2 0x5C JUMPI DUP1 PUSH4 0x3E413BEE EQ PUSH2 0x7A JUMPI DUP1 PUSH4 0x86BD35CE EQ PUSH2 0x98 JUMPI DUP1 PUSH4 0x8DA5CB5B EQ PUSH2 0xB4 JUMPI DUP1 PUSH4 0xFC60273C EQ PUSH2 0xD2 JUMPI JUMPDEST PUSH1 0x0 DUP1 REVERT JUMPDEST PUSH2 0x64 PUSH2 0xEE JUMP JUMPDEST PUSH1 0x40 MLOAD PUSH2 0x71 SWAP2 SWAP1 PUSH2 0x5EB JUMP JUMPDEST PUSH1 0x40 MLOAD DUP1 SWAP2 SUB SWAP1 RETURN JUMPDEST PUSH2 0x82 PUSH2 0x112 JUMP JUMPDEST PUSH1 0x40 MLOAD PUSH2 0x8F SWAP2 SWAP1 PUSH2 0x5EB JUMP JUMPDEST PUSH1 0x40 MLOAD DUP1 SWAP2 SUB SWAP1 RETURN JUMPDEST PUSH2 0xB2 PUSH1 0x4 DUP1 CALLDATASIZE SUB DUP2 ADD SWAP1 PUSH2 0xAD SWAP2 SWAP1 PUSH2 0x641 JUMP JUMPDEST PUSH2 0x138 JUMP JUMPDEST STOP JUMPDEST PUSH2 0xBC PUSH2 0x343 JUMP JUMPDEST PUSH1 0x40 MLOAD PUSH2 0xC9 SWAP2 SWAP1 PUSH2 0x68F JUMP JUMPDEST PUSH1 0x40 MLOAD DUP1 SWAP2 SUB SWAP1 RETURN JUMPDEST PUSH2 0xEC PUSH1 0x4 DUP1 CALLDATASIZE SUB DUP2 ADD SWAP1 PUSH2 0xE7 SWAP2 SWAP1 PUSH2 0x641 JUMP JUMPDEST PUSH2 0x369 JUMP JUMPDEST STOP JUMPDEST PUSH1 0x0 DUP1 SLOAD SWAP1 PUSH2 0x100 EXP SWAP1 DIV PUSH20 0xFFFFFFFFFFFFFFFFFFFFFFFFFFFFFFFFFFFFFFFF AND DUP2 JUMP JUMPDEST PUSH1 0x1 PUSH1 0x0 SWAP1 SLOAD SWAP1 PUSH2 0x100 EXP SWAP1 DIV PUSH20 0xFFFFFFFFFFFFFFFFFFFFFFFFFFFFFFFFFFFFFFFF AND DUP2 JUMP JUMPDEST PUSH1 0x0 DUP2 GT PUSH2 0x17B JUMPI PUSH1 0x40 MLOAD PUSH32 0x8C379A000000000000000000000000000000000000000000000000000000000 DUP2 MSTORE PUSH1 0x4 ADD PUSH2 0x172 SWAP1 PUSH2 0x707 JUMP JUMPDEST PUSH1 0x40 MLOAD DUP1 SWAP2 SUB SWAP1 REVERT JUMPDEST PUSH1 0x0 DUP2 SWAP1 POP PUSH1 0x1 PUSH1 0x0 SWAP1 SLOAD SWAP1 PUSH2 0x100 EXP SWAP1 DIV PUSH20 0xFFFFFFFFFFFFFFFFFFFFFFFFFFFFFFFFFFFFFFFF AND PUSH20 0xFFFFFFFFFFFFFFFFFFFFFFFFFFFFFFFFFFFFFFFF AND PUSH4 0x23B872DD CALLER ADDRESS DUP6 PUSH1 0x40 MLOAD DUP5 PUSH4 0xFFFFFFFF AND PUSH1 0xE0 SHL DUP2 MSTORE PUSH1 0x4 ADD PUSH2 0x1DF SWAP4 SWAP3 SWAP2 SWAP1 PUSH2 0x736 JUMP JUMPDEST PUSH1 0x20 PUSH1 0x40 MLOAD DUP1 DUP4 SUB DUP2 PUSH1 0x0 DUP8 GAS CALL ISZERO DUP1 ISZERO PUSH2 0x1FE JUMPI RETURNDATASIZE PUSH1 0x0 DUP1 RETURNDATACOPY RETURNDATASIZE PUSH1 0x0 REVERT JUMPDEST POP POP POP POP PUSH1 0x40 MLOAD RETURNDATASIZE PUSH1 0x1F NOT PUSH1 0x1F DUP3 ADD AND DUP3 ADD DUP1 PUSH1 0x40 MSTORE POP DUP2 ADD SWAP1 PUSH2 0x222 SWAP2 SWAP1 PUSH2 0x7A5 JUMP JUMPDEST POP PUSH1 0x1 PUSH1 0x0 SWAP1 SLOAD SWAP1 PUSH2 0x100 EXP SWAP1 DIV PUSH20 0xFFFFFFFFFFFFFFFFFFFFFFFFFFFFFFFFFFFFFFFF AND PUSH20 0xFFFFFFFFFFFFFFFFFFFFFFFFFFFFFFFFFFFFFFFF AND PUSH4 0x9DC29FAC CALLER DUP5 PUSH1 0x40 MLOAD DUP4 PUSH4 0xFFFFFFFF AND PUSH1 0xE0 SHL DUP2 MSTORE PUSH1 0x4 ADD PUSH2 0x280 SWAP3 SWAP2 SWAP1 PUSH2 0x7D2 JUMP JUMPDEST PUSH1 0x0 PUSH1 0x40 MLOAD DUP1 DUP4 SUB DUP2 PUSH1 0x0 DUP8 DUP1 EXTCODESIZE ISZERO DUP1 ISZERO PUSH2 0x29A JUMPI PUSH1 0x0 DUP1 REVERT JUMPDEST POP GAS CALL ISZERO DUP1 ISZERO PUSH2 0x2AE JUMPI RETURNDATASIZE PUSH1 0x0 DUP1 RETURNDATACOPY RETURNDATASIZE PUSH1 0x0 REVERT JUMPDEST POP POP POP POP PUSH1 0x0 DUP1 SLOAD SWAP1 PUSH2 0x100 EXP SWAP1 DIV PUSH20 0xFFFFFFFFFFFFFFFFFFFFFFFFFFFFFFFFFFFFFFFF AND PUSH20 0xFFFFFFFFFFFFFFFFFFFFFFFFFFFFFFFFFFFFFFFF AND PUSH4 0x40C10F19 CALLER DUP4 PUSH1 0x40 MLOAD DUP4 PUSH4 0xFFFFFFFF AND PUSH1 0xE0 SHL DUP2 MSTORE PUSH1 0x4 ADD PUSH2 0x30D SWAP3 SWAP2 SWAP1 PUSH2 0x7D2 JUMP JUMPDEST PUSH1 0x0 PUSH1 0x40 MLOAD DUP1 DUP4 SUB DUP2 PUSH1 0x0 DUP8 DUP1 EXTCODESIZE ISZERO DUP1 ISZERO PUSH2 0x327 JUMPI PUSH1 0x0 DUP1 REVERT JUMPDEST POP GAS CALL ISZERO DUP1 ISZERO PUSH2 0x33B JUMPI RETURNDATASIZE PUSH1 0x0 DUP1 RETURNDATACOPY RETURNDATASIZE PUSH1 0x0 REVERT JUMPDEST POP POP POP POP POP POP JUMP JUMPDEST PUSH1 0x2 PUSH1 0x0 SWAP1 SLOAD SWAP1 PUSH2 0x100 EXP SWAP1 DIV PUSH20 0xFFFFFFFFFFFFFFFFFFFFFFFFFFFFFFFFFFFFFFFF AND DUP2 JUMP JUMPDEST PUSH1 0x0 DUP2 GT PUSH2 0x3AC JUMPI PUSH1 0x40 MLOAD PUSH32 0x8C379A000000000000000000000000000000000000000000000000000000000 DUP2 MSTORE PUSH1 0x4 ADD PUSH2 0x3A3 SWAP1 PUSH2 0x707 JUMP JUMPDEST PUSH1 0x40 MLOAD DUP1 SWAP2 SUB SWAP1 REVERT JUMPDEST PUSH1 0x0 DUP1 SLOAD SWAP1 PUSH2 0x100 EXP SWAP1 DIV PUSH20 0xFFFFFFFFFFFFFFFFFFFFFFFFFFFFFFFFFFFFFFFF AND PUSH20 0xFFFFFFFFFFFFFFFFFFFFFFFFFFFFFFFFFFFFFFFF AND PUSH4 0x23B872DD CALLER ADDRESS DUP5 PUSH1 0x40 MLOAD DUP5 PUSH4 0xFFFFFFFF AND PUSH1 0xE0 SHL DUP2 MSTORE PUSH1 0x4 ADD PUSH2 0x409 SWAP4 SWAP3 SWAP2 SWAP1 PUSH2 0x736 JUMP JUMPDEST PUSH1 0x20 PUSH1 0x40 MLOAD DUP1 DUP4 SUB DUP2 PUSH1 0x0 DUP8 GAS CALL ISZERO DUP1 ISZERO PUSH2 0x428 JUMPI RETURNDATASIZE PUSH1 0x0 DUP1 RETURNDATACOPY RETURNDATASIZE PUSH1 0x0 REVERT JUMPDEST POP POP POP POP PUSH1 0x40 MLOAD RETURNDATASIZE PUSH1 0x1F NOT PUSH1 0x1F DUP3 ADD AND DUP3 ADD DUP1 PUSH1 0x40 MSTORE POP DUP2 ADD SWAP1 PUSH2 0x44C SWAP2 SWAP1 PUSH2 0x7A5 JUMP JUMPDEST POP PUSH1 0x0 DUP1 SLOAD SWAP1 PUSH2 0x100 EXP SWAP1 DIV PUSH20 0xFFFFFFFFFFFFFFFFFFFFFFFFFFFFFFFFFFFFFFFF AND PUSH20 0xFFFFFFFFFFFFFFFFFFFFFFFFFFFFFFFFFFFFFFFF AND PUSH4 0x9DC29FAC CALLER DUP4 PUSH1 0x40 MLOAD DUP4 PUSH4 0xFFFFFFFF AND PUSH1 0xE0 SHL DUP2 MSTORE PUSH1 0x4 ADD PUSH2 0x4A8 SWAP3 SWAP2 SWAP1 PUSH2 0x7D2 JUMP JUMPDEST PUSH1 0x0 PUSH1 0x40 MLOAD DUP1 DUP4 SUB DUP2 PUSH1 0x0 DUP8 DUP1 EXTCODESIZE ISZERO DUP1 ISZERO PUSH2 0x4C2 JUMPI PUSH1 0x0 DUP1 REVERT JUMPDEST POP GAS CALL ISZERO DUP1 ISZERO PUSH2 0x4D6 JUMPI RETURNDATASIZE PUSH1 0x0 DUP1 RETURNDATACOPY RETURNDATASIZE PUSH1 0x0 REVERT JUMPDEST POP POP POP POP PUSH1 0x1 PUSH1 0x0 SWAP1 SLOAD SWAP1 PUSH2 0x100 EXP SWAP1 DIV PUSH20 0xFFFFFFFFFFFFFFFFFFFFFFFFFFFFFFFFFFFFFFFF AND PUSH20 0xFFFFFFFFFFFFFFFFFFFFFFFFFFFFFFFFFFFFFFFF AND PUSH4 0x40C10F19 CALLER DUP4 PUSH1 0x40 MLOAD DUP4 PUSH4 0xFFFFFFFF AND PUSH1 0xE0 SHL DUP2 MSTORE PUSH1 0x4 ADD PUSH2 0x537 SWAP3 SWAP2 SWAP1 PUSH2 0x7D2 JUMP JUMPDEST PUSH1 0x0 PUSH1 0x40 MLOAD DUP1 DUP4 SUB DUP2 PUSH1 0x0 DUP8 DUP1 EXTCODESIZE ISZERO DUP1 ISZERO PUSH2 0x551 JUMPI PUSH1 0x0 DUP1 REVERT JUMPDEST POP GAS CALL ISZERO DUP1 ISZERO PUSH2 0x565 JUMPI RETURNDATASIZE PUSH1 0x0 DUP1 RETURNDATACOPY RETURNDATASIZE PUSH1 0x0 REVERT JUMPDEST POP POP POP POP POP JUMP JUMPDEST PUSH1 0x0 PUSH20 0xFFFFFFFFFFFFFFFFFFFFFFFFFFFFFFFFFFFFFFFF DUP3 AND SWAP1 POP SWAP2 SWAP1 POP JUMP JUMPDEST PUSH1 0x0 DUP2 SWAP1 POP SWAP2 SWAP1 POP JUMP JUMPDEST PUSH1 0x0 PUSH2 0x5B1 PUSH2 0x5AC PUSH2 0x5A7 DUP5 PUSH2 0x56C JUMP JUMPDEST PUSH2 0x58C JUMP JUMPDEST PUSH2 0x56C JUMP JUMPDEST SWAP1 POP SWAP2 SWAP1 POP JUMP JUMPDEST PUSH1 0x0 PUSH2 0x5C3 DUP3 PUSH2 0x596 JUMP JUMPDEST SWAP1 POP SWAP2 SWAP1 POP JUMP JUMPDEST PUSH1 0x0 PUSH2 0x5D5 DUP3 PUSH2 0x5B8 JUMP JUMPDEST SWAP1 POP SWAP2 SWAP1 POP JUMP JUMPDEST PUSH2 0x5E5 DUP2 PUSH2 0x5CA JUMP JUMPDEST DUP3 MSTORE POP POP JUMP JUMPDEST PUSH1 0x0 PUSH1 0x20 DUP3 ADD SWAP1 POP PUSH2 0x600 PUSH1 0x0 DUP4 ADD DUP5 PUSH2 0x5DC JUMP JUMPDEST SWAP3 SWAP2 POP POP JUMP JUMPDEST PUSH1 0x0 DUP1 REVERT JUMPDEST PUSH1 0x0 DUP2 SWAP1 POP SWAP2 SWAP1 POP JUMP JUMPDEST PUSH2 0x61E DUP2 PUSH2 0x60B JUMP JUMPDEST DUP2 EQ PUSH2 0x629 JUMPI PUSH1 0x0 DUP1 REVERT JUMPDEST POP JUMP JUMPDEST PUSH1 0x0 DUP2 CALLDATALOAD SWAP1 POP PUSH2 0x63B DUP2 PUSH2 0x615 JUMP JUMPDEST SWAP3 SWAP2 POP POP JUMP JUMPDEST PUSH1 0x0 PUSH1 0x20 DUP3 DUP5 SUB SLT ISZERO PUSH2 0x657 JUMPI PUSH2 0x656 PUSH2 0x606 JUMP JUMPDEST JUMPDEST PUSH1 0x0 PUSH2 0x665 DUP5 DUP3 DUP6 ADD PUSH2 0x62C JUMP JUMPDEST SWAP2 POP POP SWAP3 SWAP2 POP POP JUMP JUMPDEST PUSH1 0x0 PUSH2 0x679 DUP3 PUSH2 0x56C JUMP JUMPDEST SWAP1 POP SWAP2 SWAP1 POP JUMP JUMPDEST PUSH2 0x689 DUP2 PUSH2 0x66E JUMP JUMPDEST DUP3 MSTORE POP POP JUMP JUMPDEST PUSH1 0x0 PUSH1 0x20 DUP3 ADD SWAP1 POP PUSH2 0x6A4 PUSH1 0x0 DUP4 ADD DUP5 PUSH2 0x680 JUMP JUMPDEST SWAP3 SWAP2 POP POP JUMP JUMPDEST PUSH1 0x0 DUP3 DUP3 MSTORE PUSH1 0x20 DUP3 ADD SWAP1 POP SWAP3 SWAP2 POP POP JUMP JUMPDEST PUSH32 0x416D6F756E74206D7573742062652067726561746572207468616E2030000000 PUSH1 0x0 DUP3 ADD MSTORE POP JUMP JUMPDEST PUSH1 0x0 PUSH2 0x6F1 PUSH1 0x1D DUP4 PUSH2 0x6AA JUMP JUMPDEST SWAP2 POP PUSH2 0x6FC DUP3 PUSH2 0x6BB JUMP JUMPDEST PUSH1 0x20 DUP3 ADD SWAP1 POP SWAP2 SWAP1 POP JUMP JUMPDEST PUSH1 0x0 PUSH1 0x20 DUP3 ADD SWAP1 POP DUP2 DUP2 SUB PUSH1 0x0 DUP4 ADD MSTORE PUSH2 0x720 DUP2 PUSH2 0x6E4 JUMP JUMPDEST SWAP1 POP SWAP2 SWAP1 POP JUMP JUMPDEST PUSH2 0x730 DUP2 PUSH2 0x60B JUMP JUMPDEST DUP3 MSTORE POP POP JUMP JUMPDEST PUSH1 0x0 PUSH1 0x60 DUP3 ADD SWAP1 POP PUSH2 0x74B PUSH1 0x0 DUP4 ADD DUP7 PUSH2 0x680 JUMP JUMPDEST PUSH2 0x758 PUSH1 0x20 DUP4 ADD DUP6 PUSH2 0x680 JUMP JUMPDEST PUSH2 0x765 PUSH1 0x40 DUP4 ADD DUP5 PUSH2 0x727 JUMP JUMPDEST SWAP5 SWAP4 POP POP POP POP JUMP JUMPDEST PUSH1 0x0 DUP2 ISZERO ISZERO SWAP1 POP SWAP2 SWAP1 POP JUMP JUMPDEST PUSH2 0x782 DUP2 PUSH2 0x76D JUMP JUMPDEST DUP2 EQ PUSH2 0x78D JUMPI PUSH1 0x0 DUP1 REVERT JUMPDEST POP JUMP JUMPDEST PUSH1 0x0 DUP2 MLOAD SWAP1 POP PUSH2 0x79F DUP2 PUSH2 0x779 JUMP JUMPDEST SWAP3 SWAP2 POP POP JUMP JUMPDEST PUSH1 0x0 PUSH1 0x20 DUP3 DUP5 SUB SLT ISZERO PUSH2 0x7BB JUMPI PUSH2 0x7BA PUSH2 0x606 JUMP JUMPDEST JUMPDEST PUSH1 0x0 PUSH2 0x7C9 DUP5 DUP3 DUP6 ADD PUSH2 0x790 JUMP JUMPDEST SWAP2 POP POP SWAP3 SWAP2 POP POP JUMP JUMPDEST PUSH1 0x0 PUSH1 0x40 DUP3 ADD SWAP1 POP PUSH2 0x7E7 PUSH1 0x0 DUP4 ADD DUP6 PUSH2 0x680 JUMP JUMPDEST PUSH2 0x7F4 PUSH1 0x20 DUP4 ADD DUP5 PUSH2 0x727 JUMP JUMPDEST SWAP4 SWAP3 POP POP POP JUMP INVALID LOG2 PUSH5 0x6970667358 0x22 SLT KECCAK256 PUSH12 0xE7B3759C302098DC25946B06 PUSH4 0xB52B8971 0x1E 0xB5 CREATE2 PUSH17 0x234567A4F7A9EB91AE9664736F6C634300 ADDMOD SLT STOP CALLER "
				},
				"gasEstimates": {
					"creation": {
						"codeDepositCost": "419400",
						"executionCost": "infinite",
						"totalCost": "infinite"
					},
					"external": {
						"buyUSDC(uint256)": "infinite",
						"owner()": "2558",
						"sellUSDC(uint256)": "infinite",
						"usdc()": "infinite",
						"usdt()": "infinite"
					}
				},
				"methodIdentifiers": {
					"buyUSDC(uint256)": "fc60273c",
					"owner()": "8da5cb5b",
					"sellUSDC(uint256)": "86bd35ce",
					"usdc()": "3e413bee",
					"usdt()": "2f48ab7d"
				}
			},
			"storageLayout": {
				"storage": [
					{
						"astId": 93,
						"contract": "Bhai_Muzammel.sol:USDCBuyer",
						"label": "usdt",
						"offset": 0,
						"slot": "0",
						"type": "t_contract(IERC20)90"
					},
					{
						"astId": 96,
						"contract": "Bhai_Muzammel.sol:USDCBuyer",
						"label": "usdc",
						"offset": 0,
						"slot": "1",
						"type": "t_contract(IERC20)90"
					},
					{
						"astId": 98,
						"contract": "Bhai_Muzammel.sol:USDCBuyer",
						"label": "owner",
						"offset": 0,
						"slot": "2",
						"type": "t_address"
					}
				],
				"types": {
					"t_address": {
						"encoding": "inplace",
						"label": "address",
						"numberOfBytes": "20"
					},
					"t_contract(IERC20)90": {
						"encoding": "inplace",
						"label": "contract IERC20",
						"numberOfBytes": "20"
					}
				}
			},
			"userdoc": {
				"kind": "user",
				"methods": {},
				"version": 1
			}
		}
	}
}