{
	"khi.sol": {
		"Election": {
			"abi": [
				{
					"inputs": [],
					"stateMutability": "nonpayable",
					"type": "constructor"
				},
				{
					"inputs": [
						{
							"internalType": "address",
							"name": "_address",
							"type": "address"
						}
					],
					"name": "addAdmin",
					"outputs": [],
					"stateMutability": "nonpayable",
					"type": "function"
				},
				{
					"inputs": [
						{
							"internalType": "string",
							"name": "_candidateName",
							"type": "string"
						},
						{
							"internalType": "string",
							"name": "_info",
							"type": "string"
						}
					],
					"name": "addCandidate",
					"outputs": [],
					"stateMutability": "nonpayable",
					"type": "function"
				},
				{
					"inputs": [
						{
							"internalType": "string",
							"name": "",
							"type": "string"
						}
					],
					"name": "candidates",
					"outputs": [
						{
							"internalType": "string",
							"name": "name",
							"type": "string"
						},
						{
							"internalType": "string",
							"name": "info",
							"type": "string"
						},
						{
							"internalType": "bool",
							"name": "exists",
							"type": "bool"
						}
					],
					"stateMutability": "view",
					"type": "function"
				},
				{
					"inputs": [],
					"name": "endElection",
					"outputs": [],
					"stateMutability": "nonpayable",
					"type": "function"
				},
				{
					"inputs": [],
					"name": "getCandidates",
					"outputs": [
						{
							"internalType": "string[]",
							"name": "",
							"type": "string[]"
						}
					],
					"stateMutability": "view",
					"type": "function"
				},
				{
					"inputs": [],
					"name": "getElectionDescription",
					"outputs": [
						{
							"internalType": "string",
							"name": "",
							"type": "string"
						}
					],
					"stateMutability": "view",
					"type": "function"
				},
				{
					"inputs": [],
					"name": "getElectionName",
					"outputs": [
						{
							"internalType": "string",
							"name": "",
							"type": "string"
						}
					],
					"stateMutability": "view",
					"type": "function"
				},
				{
					"inputs": [],
					"name": "getStatus",
					"outputs": [
						{
							"internalType": "string",
							"name": "",
							"type": "string"
						}
					],
					"stateMutability": "view",
					"type": "function"
				},
				{
					"inputs": [],
					"name": "getTotalCandidates",
					"outputs": [
						{
							"internalType": "uint256",
							"name": "",
							"type": "uint256"
						}
					],
					"stateMutability": "view",
					"type": "function"
				},
				{
					"inputs": [],
					"name": "getTotalVoter",
					"outputs": [
						{
							"internalType": "uint256",
							"name": "",
							"type": "uint256"
						}
					],
					"stateMutability": "view",
					"type": "function"
				},
				{
					"inputs": [],
					"name": "getVoters",
					"outputs": [
						{
							"internalType": "string[]",
							"name": "",
							"type": "string[]"
						}
					],
					"stateMutability": "view",
					"type": "function"
				},
				{
					"inputs": [],
					"name": "getVotes",
					"outputs": [
						{
							"components": [
								{
									"internalType": "address",
									"name": "voterAddress",
									"type": "address"
								},
								{
									"internalType": "string",
									"name": "voterId",
									"type": "string"
								},
								{
									"internalType": "string",
									"name": "voterName",
									"type": "string"
								},
								{
									"internalType": "string",
									"name": "candidate",
									"type": "string"
								}
							],
							"internalType": "struct Election.Vote[]",
							"name": "",
							"type": "tuple[]"
						}
					],
					"stateMutability": "view",
					"type": "function"
				},
				{
					"inputs": [],
					"name": "resetElection",
					"outputs": [],
					"stateMutability": "nonpayable",
					"type": "function"
				},
				{
					"inputs": [
						{
							"internalType": "string",
							"name": "_name",
							"type": "string"
						},
						{
							"internalType": "string",
							"name": "_description",
							"type": "string"
						}
					],
					"name": "setElectionDetails",
					"outputs": [],
					"stateMutability": "nonpayable",
					"type": "function"
				},
				{
					"inputs": [
						{
							"internalType": "string",
							"name": "_voterId",
							"type": "string"
						},
						{
							"internalType": "string",
							"name": "_voterName",
							"type": "string"
						},
						{
							"internalType": "string",
							"name": "_candidateName",
							"type": "string"
						}
					],
					"name": "vote",
					"outputs": [],
					"stateMutability": "nonpayable",
					"type": "function"
				},
				{
					"inputs": [
						{
							"internalType": "string",
							"name": "",
							"type": "string"
						}
					],
					"name": "voterIds",
					"outputs": [
						{
							"internalType": "bool",
							"name": "",
							"type": "bool"
						}
					],
					"stateMutability": "view",
					"type": "function"
				}
			],
			"devdoc": {
				"kind": "dev",
				"methods": {},
				"version": 1
			},
			"evm": {
				"assembly": "    /* \"khi.sol\":75:4549  contract Election {... */\n  mstore(0x40, 0x80)\n    /* \"khi.sol\":298:406  constructor() {... */\n  callvalue\n  dup1\n  iszero\n  tag_1\n  jumpi\n  0x00\n  dup1\n  revert\ntag_1:\n  pop\n    /* \"khi.sol\":344:348  true */\n  0x01\n    /* \"khi.sol\":323:329  admins */\n  0x00\n    /* \"khi.sol\":323:341  admins[msg.sender] */\n  dup1\n    /* \"khi.sol\":330:340  msg.sender */\n  caller\n    /* \"khi.sol\":323:341  admins[msg.sender] */\n  0xffffffffffffffffffffffffffffffffffffffff\n  and\n  0xffffffffffffffffffffffffffffffffffffffff\n  and\n  dup2\n  mstore\n  0x20\n  add\n  swap1\n  dup2\n  mstore\n  0x20\n  add\n  0x00\n  keccak256\n  0x00\n    /* \"khi.sol\":323:348  admins[msg.sender] = true */\n  0x0100\n  exp\n  dup2\n  sload\n  dup2\n  0xff\n  mul\n  not\n  and\n  swap1\n  dup4\n  iszero\n  iszero\n  mul\n  or\n  swap1\n  sstore\n  pop\n    /* \"khi.sol\":369:374  false */\n  0x00\n    /* \"khi.sol\":359:366  started */\n  0x03\n  0x00\n    /* \"khi.sol\":359:374  started = false */\n  0x0100\n  exp\n  dup2\n  sload\n  dup2\n  0xff\n  mul\n  not\n  and\n  swap1\n  dup4\n  iszero\n  iszero\n  mul\n  or\n  swap1\n  sstore\n  pop\n    /* \"khi.sol\":393:398  false */\n  0x00\n    /* \"khi.sol\":385:390  ended */\n  0x03\n  0x01\n    /* \"khi.sol\":385:398  ended = false */\n  0x0100\n  exp\n  dup2\n  sload\n  dup2\n  0xff\n  mul\n  not\n  and\n  swap1\n  dup4\n  iszero\n  iszero\n  mul\n  or\n  swap1\n  sstore\n  pop\n    /* \"khi.sol\":75:4549  contract Election {... */\n  dataSize(sub_0)\n  dup1\n  dataOffset(sub_0)\n  0x00\n  codecopy\n  0x00\n  return\nstop\n\nsub_0: assembly {\n        /* \"khi.sol\":75:4549  contract Election {... */\n      mstore(0x40, 0x80)\n      callvalue\n      dup1\n      iszero\n      tag_1\n      jumpi\n      0x00\n      dup1\n      revert\n    tag_1:\n      pop\n      jumpi(tag_2, lt(calldatasize, 0x04))\n      shr(0xe0, calldataload(0x00))\n      dup1\n      0x70480275\n      gt\n      tag_19\n      jumpi\n      dup1\n      0xaf8c50b6\n      gt\n      tag_20\n      jumpi\n      dup1\n      0xaf8c50b6\n      eq\n      tag_15\n      jumpi\n      dup1\n      0xc5539cc2\n      eq\n      tag_16\n      jumpi\n      dup1\n      0xcdd72253\n      eq\n      tag_17\n      jumpi\n      dup1\n      0xe8f30523\n      eq\n      tag_18\n      jumpi\n      jump(tag_2)\n    tag_20:\n      dup1\n      0x70480275\n      eq\n      tag_11\n      jumpi\n      dup1\n      0x95f59fe1\n      eq\n      tag_12\n      jumpi\n      dup1\n      0x97929c63\n      eq\n      tag_13\n      jumpi\n      dup1\n      0x9ebed03f\n      eq\n      tag_14\n      jumpi\n      jump(tag_2)\n    tag_19:\n      dup1\n      0x26541b56\n      gt\n      tag_21\n      jumpi\n      dup1\n      0x26541b56\n      eq\n      tag_7\n      jumpi\n      dup1\n      0x30e7a79c\n      eq\n      tag_8\n      jumpi\n      dup1\n      0x4e69d560\n      eq\n      tag_9\n      jumpi\n      dup1\n      0x59f78468\n      eq\n      tag_10\n      jumpi\n      jump(tag_2)\n    tag_21:\n      dup1\n      0x06a49fce\n      eq\n      tag_3\n      jumpi\n      dup1\n      0x0b93400e\n      eq\n      tag_4\n      jumpi\n      dup1\n      0x0dc96015\n      eq\n      tag_5\n      jumpi\n      dup1\n      0x0deb56ab\n      eq\n      tag_6\n      jumpi\n    tag_2:\n      0x00\n      dup1\n      revert\n        /* \"khi.sol\":1278:1381  function getCandidates() public view returns (string[] memory) {... */\n    tag_3:\n      tag_22\n      tag_23\n      jump\t// in\n    tag_22:\n      mload(0x40)\n      tag_24\n      swap2\n      swap1\n      tag_25\n      jump\t// in\n    tag_24:\n      mload(0x40)\n      dup1\n      swap2\n      sub\n      swap1\n      return\n        /* \"khi.sol\":3455:3554  function getTotalVoter() public view returns (uint256) {... */\n    tag_4:\n      tag_26\n      tag_27\n      jump\t// in\n    tag_26:\n      mload(0x40)\n      tag_28\n      swap2\n      swap1\n      tag_29\n      jump\t// in\n    tag_28:\n      mload(0x40)\n      dup1\n      swap2\n      sub\n      swap1\n      return\n        /* \"khi.sol\":3350:3447  function getVotes() public view onlyAdmin returns (Vote[] memory) {... */\n    tag_5:\n      tag_30\n      tag_31\n      jump\t// in\n    tag_30:\n      mload(0x40)\n      tag_32\n      swap2\n      swap1\n      tag_33\n      jump\t// in\n    tag_32:\n      mload(0x40)\n      dup1\n      swap2\n      sub\n      swap1\n      return\n        /* \"khi.sol\":2017:2124  function getTotalCandidates() public view returns (uint256) {... */\n    tag_6:\n      tag_34\n      tag_35\n      jump\t// in\n    tag_34:\n      mload(0x40)\n      tag_36\n      swap2\n      swap1\n      tag_29\n      jump\t// in\n    tag_36:\n      mload(0x40)\n      dup1\n      swap2\n      sub\n      swap1\n      return\n        /* \"khi.sol\":896:1270  function addCandidate(string memory _candidateName, string memory _info)... */\n    tag_7:\n      tag_37\n      0x04\n      dup1\n      calldatasize\n      sub\n      dup2\n      add\n      swap1\n      tag_38\n      swap2\n      swap1\n      tag_39\n      jump\t// in\n    tag_38:\n      tag_40\n      jump\t// in\n    tag_37:\n      stop\n        /* \"khi.sol\":1801:1894  function getElectionName() public view returns (string memory) {... */\n    tag_8:\n      tag_41\n      tag_42\n      jump\t// in\n    tag_41:\n      mload(0x40)\n      tag_43\n      swap2\n      swap1\n      tag_44\n      jump\t// in\n    tag_43:\n      mload(0x40)\n      dup1\n      swap2\n      sub\n      swap1\n      return\n        /* \"khi.sol\":4262:4546  function getStatus() public view returns (string memory) {... */\n    tag_9:\n      tag_45\n      tag_46\n      jump\t// in\n    tag_45:\n      mload(0x40)\n      tag_47\n      swap2\n      swap1\n      tag_44\n      jump\t// in\n    tag_47:\n      mload(0x40)\n      dup1\n      swap2\n      sub\n      swap1\n      return\n        /* \"khi.sol\":3562:3713  function endElection() public onlyAdmin {... */\n    tag_10:\n      tag_48\n      tag_49\n      jump\t// in\n    tag_48:\n      stop\n        /* \"khi.sol\":525:620  function addAdmin(address _address) public onlyAdmin {... */\n    tag_11:\n      tag_50\n      0x04\n      dup1\n      calldatasize\n      sub\n      dup2\n      add\n      swap1\n      tag_51\n      swap2\n      swap1\n      tag_52\n      jump\t// in\n    tag_51:\n      tag_53\n      jump\t// in\n    tag_50:\n      stop\n        /* \"khi.sol\":2527:3157  function vote(... */\n    tag_12:\n      tag_54\n      0x04\n      dup1\n      calldatasize\n      sub\n      dup2\n      add\n      swap1\n      tag_55\n      swap2\n      swap1\n      tag_56\n      jump\t// in\n    tag_55:\n      tag_57\n      jump\t// in\n    tag_54:\n      stop\n        /* \"khi.sol\":1559:1793  function setElectionDetails(string memory _name, string memory _description)... */\n    tag_13:\n      tag_58\n      0x04\n      dup1\n      calldatasize\n      sub\n      dup2\n      add\n      swap1\n      tag_59\n      swap2\n      swap1\n      tag_39\n      jump\t// in\n    tag_59:\n      tag_60\n      jump\t// in\n    tag_58:\n      stop\n        /* \"khi.sol\":2452:2491  mapping(string => bool) public voterIds */\n    tag_14:\n      tag_61\n      0x04\n      dup1\n      calldatasize\n      sub\n      dup2\n      add\n      swap1\n      tag_62\n      swap2\n      swap1\n      tag_63\n      jump\t// in\n    tag_62:\n      tag_64\n      jump\t// in\n    tag_61:\n      mload(0x40)\n      tag_65\n      swap2\n      swap1\n      tag_66\n      jump\t// in\n    tag_65:\n      mload(0x40)\n      dup1\n      swap2\n      sub\n      swap1\n      return\n        /* \"khi.sol\":1902:2009  function getElectionDescription() public view returns (string memory) {... */\n    tag_15:\n      tag_67\n      tag_68\n      jump\t// in\n    tag_67:\n      mload(0x40)\n      tag_69\n      swap2\n      swap1\n      tag_44\n      jump\t// in\n    tag_69:\n      mload(0x40)\n      dup1\n      swap2\n      sub\n      swap1\n      return\n        /* \"khi.sol\":811:857  mapping(string => Candidate) public candidates */\n    tag_16:\n      tag_70\n      0x04\n      dup1\n      calldatasize\n      sub\n      dup2\n      add\n      swap1\n      tag_71\n      swap2\n      swap1\n      tag_63\n      jump\t// in\n    tag_71:\n      tag_72\n      jump\t// in\n    tag_70:\n      mload(0x40)\n      tag_73\n      swap4\n      swap3\n      swap2\n      swap1\n      tag_74\n      jump\t// in\n    tag_73:\n      mload(0x40)\n      dup1\n      swap2\n      sub\n      swap1\n      return\n        /* \"khi.sol\":3165:3261  function getVoters() public view returns (string[] memory) {... */\n    tag_17:\n      tag_75\n      tag_76\n      jump\t// in\n    tag_75:\n      mload(0x40)\n      tag_77\n      swap2\n      swap1\n      tag_25\n      jump\t// in\n    tag_77:\n      mload(0x40)\n      dup1\n      swap2\n      sub\n      swap1\n      return\n        /* \"khi.sol\":3721:4254  function resetElection() public onlyAdmin {... */\n    tag_18:\n      tag_78\n      tag_79\n      jump\t// in\n    tag_78:\n      stop\n        /* \"khi.sol\":1278:1381  function getCandidates() public view returns (string[] memory) {... */\n    tag_23:\n        /* \"khi.sol\":1324:1339  string[] memory */\n      0x60\n        /* \"khi.sol\":1359:1373  candidateNames */\n      0x05\n        /* \"khi.sol\":1352:1373  return candidateNames */\n      dup1\n      sload\n      dup1\n      0x20\n      mul\n      0x20\n      add\n      mload(0x40)\n      swap1\n      dup2\n      add\n      0x40\n      mstore\n      dup1\n      swap3\n      swap2\n      swap1\n      dup2\n      dup2\n      mstore\n      0x20\n      add\n      0x00\n      swap1\n    tag_81:\n      dup3\n      dup3\n      lt\n      iszero\n      tag_82\n      jumpi\n      dup4\n      dup3\n      swap1\n      0x00\n      mstore\n      keccak256(0x00, 0x20)\n      add\n      dup1\n      sload\n      tag_84\n      swap1\n      tag_85\n      jump\t// in\n    tag_84:\n      dup1\n      0x1f\n      add\n      0x20\n      dup1\n      swap2\n      div\n      mul\n      0x20\n      add\n      mload(0x40)\n      swap1\n      dup2\n      add\n      0x40\n      mstore\n      dup1\n      swap3\n      swap2\n      swap1\n      dup2\n      dup2\n      mstore\n      0x20\n      add\n      dup3\n      dup1\n      sload\n      tag_86\n      swap1\n      tag_85\n      jump\t// in\n    tag_86:\n      dup1\n      iszero\n      tag_87\n      jumpi\n      dup1\n      0x1f\n      lt\n      tag_88\n      jumpi\n      0x0100\n      dup1\n      dup4\n      sload\n      div\n      mul\n      dup4\n      mstore\n      swap2\n      0x20\n      add\n      swap2\n      jump(tag_87)\n    tag_88:\n      dup3\n      add\n      swap2\n      swap1\n      0x00\n      mstore\n      keccak256(0x00, 0x20)\n      swap1\n    tag_89:\n      dup2\n      sload\n      dup2\n      mstore\n      swap1\n      0x01\n      add\n      swap1\n      0x20\n      add\n      dup1\n      dup4\n      gt\n      tag_89\n      jumpi\n      dup3\n      swap1\n      sub\n      0x1f\n      and\n      dup3\n      add\n      swap2\n    tag_87:\n      pop\n      pop\n      pop\n      pop\n      pop\n      dup2\n      mstore\n      0x20\n      add\n      swap1\n      0x01\n      add\n      swap1\n      jump(tag_81)\n    tag_82:\n      pop\n      pop\n      pop\n      pop\n      swap1\n      pop\n        /* \"khi.sol\":1278:1381  function getCandidates() public view returns (string[] memory) {... */\n      swap1\n      jump\t// out\n        /* \"khi.sol\":3455:3554  function getTotalVoter() public view returns (uint256) {... */\n    tag_27:\n        /* \"khi.sol\":3501:3508  uint256 */\n      0x00\n        /* \"khi.sol\":3528:3539  votersArray */\n      0x08\n        /* \"khi.sol\":3528:3546  votersArray.length */\n      dup1\n      sload\n      swap1\n      pop\n        /* \"khi.sol\":3521:3546  return votersArray.length */\n      swap1\n      pop\n        /* \"khi.sol\":3455:3554  function getTotalVoter() public view returns (uint256) {... */\n      swap1\n      jump\t// out\n        /* \"khi.sol\":3350:3447  function getVotes() public view onlyAdmin returns (Vote[] memory) {... */\n    tag_31:\n        /* \"khi.sol\":3401:3414  Vote[] memory */\n      0x60\n        /* \"khi.sol\":3434:3439  votes */\n      0x06\n        /* \"khi.sol\":3427:3439  return votes */\n      dup1\n      sload\n      dup1\n      0x20\n      mul\n      0x20\n      add\n      mload(0x40)\n      swap1\n      dup2\n      add\n      0x40\n      mstore\n      dup1\n      swap3\n      swap2\n      swap1\n      dup2\n      dup2\n      mstore\n      0x20\n      add\n      0x00\n      swap1\n    tag_93:\n      dup3\n      dup3\n      lt\n      iszero\n      tag_94\n      jumpi\n      dup4\n      dup3\n      swap1\n      0x00\n      mstore\n      keccak256(0x00, 0x20)\n      swap1\n      0x04\n      mul\n      add\n      mload(0x40)\n      dup1\n      0x80\n      add\n      0x40\n      mstore\n      swap1\n      dup2\n      0x00\n      dup3\n      add\n      0x00\n      swap1\n      sload\n      swap1\n      0x0100\n      exp\n      swap1\n      div\n      0xffffffffffffffffffffffffffffffffffffffff\n      and\n      0xffffffffffffffffffffffffffffffffffffffff\n      and\n      0xffffffffffffffffffffffffffffffffffffffff\n      and\n      dup2\n      mstore\n      0x20\n      add\n      0x01\n      dup3\n      add\n      dup1\n      sload\n      tag_96\n      swap1\n      tag_85\n      jump\t// in\n    tag_96:\n      dup1\n      0x1f\n      add\n      0x20\n      dup1\n      swap2\n      div\n      mul\n      0x20\n      add\n      mload(0x40)\n      swap1\n      dup2\n      add\n      0x40\n      mstore\n      dup1\n      swap3\n      swap2\n      swap1\n      dup2\n      dup2\n      mstore\n      0x20\n      add\n      dup3\n      dup1\n      sload\n      tag_97\n      swap1\n      tag_85\n      jump\t// in\n    tag_97:\n      dup1\n      iszero\n      tag_98\n      jumpi\n      dup1\n      0x1f\n      lt\n      tag_99\n      jumpi\n      0x0100\n      dup1\n      dup4\n      sload\n      div\n      mul\n      dup4\n      mstore\n      swap2\n      0x20\n      add\n      swap2\n      jump(tag_98)\n    tag_99:\n      dup3\n      add\n      swap2\n      swap1\n      0x00\n      mstore\n      keccak256(0x00, 0x20)\n      swap1\n    tag_100:\n      dup2\n      sload\n      dup2\n      mstore\n      swap1\n      0x01\n      add\n      swap1\n      0x20\n      add\n      dup1\n      dup4\n      gt\n      tag_100\n      jumpi\n      dup3\n      swap1\n      sub\n      0x1f\n      and\n      dup3\n      add\n      swap2\n    tag_98:\n      pop\n      pop\n      pop\n      pop\n      pop\n      dup2\n      mstore\n      0x20\n      add\n      0x02\n      dup3\n      add\n      dup1\n      sload\n      tag_101\n      swap1\n      tag_85\n      jump\t// in\n    tag_101:\n      dup1\n      0x1f\n      add\n      0x20\n      dup1\n      swap2\n      div\n      mul\n      0x20\n      add\n      mload(0x40)\n      swap1\n      dup2\n      add\n      0x40\n      mstore\n      dup1\n      swap3\n      swap2\n      swap1\n      dup2\n      dup2\n      mstore\n      0x20\n      add\n      dup3\n      dup1\n      sload\n      tag_102\n      swap1\n      tag_85\n      jump\t// in\n    tag_102:\n      dup1\n      iszero\n      tag_103\n      jumpi\n      dup1\n      0x1f\n      lt\n      tag_104\n      jumpi\n      0x0100\n      dup1\n      dup4\n      sload\n      div\n      mul\n      dup4\n      mstore\n      swap2\n      0x20\n      add\n      swap2\n      jump(tag_103)\n    tag_104:\n      dup3\n      add\n      swap2\n      swap1\n      0x00\n      mstore\n      keccak256(0x00, 0x20)\n      swap1\n    tag_105:\n      dup2\n      sload\n      dup2\n      mstore\n      swap1\n      0x01\n      add\n      swap1\n      0x20\n      add\n      dup1\n      dup4\n      gt\n      tag_105\n      jumpi\n      dup3\n      swap1\n      sub\n      0x1f\n      and\n      dup3\n      add\n      swap2\n    tag_103:\n      pop\n      pop\n      pop\n      pop\n      pop\n      dup2\n      mstore\n      0x20\n      add\n      0x03\n      dup3\n      add\n      dup1\n      sload\n      tag_106\n      swap1\n      tag_85\n      jump\t// in\n    tag_106:\n      dup1\n      0x1f\n      add\n      0x20\n      dup1\n      swap2\n      div\n      mul\n      0x20\n      add\n      mload(0x40)\n      swap1\n      dup2\n      add\n      0x40\n      mstore\n      dup1\n      swap3\n      swap2\n      swap1\n      dup2\n      dup2\n      mstore\n      0x20\n      add\n      dup3\n      dup1\n      sload\n      tag_107\n      swap1\n      tag_85\n      jump\t// in\n    tag_107:\n      dup1\n      iszero\n      tag_108\n      jumpi\n      dup1\n      0x1f\n      lt\n      tag_109\n      jumpi\n      0x0100\n      dup1\n      dup4\n      sload\n      div\n      mul\n      dup4\n      mstore\n      swap2\n      0x20\n      add\n      swap2\n      jump(tag_108)\n    tag_109:\n      dup3\n      add\n      swap2\n      swap1\n      0x00\n      mstore\n      keccak256(0x00, 0x20)\n      swap1\n    tag_110:\n      dup2\n      sload\n      dup2\n      mstore\n      swap1\n      0x01\n      add\n      swap1\n      0x20\n      add\n      dup1\n      dup4\n      gt\n      tag_110\n      jumpi\n      dup3\n      swap1\n      sub\n      0x1f\n      and\n      dup3\n      add\n      swap2\n    tag_108:\n      pop\n      pop\n      pop\n      pop\n      pop\n      dup2\n      mstore\n      pop\n      pop\n      dup2\n      mstore\n      0x20\n      add\n      swap1\n      0x01\n      add\n      swap1\n      jump(tag_93)\n    tag_94:\n      pop\n      pop\n      pop\n      pop\n      swap1\n      pop\n        /* \"khi.sol\":3350:3447  function getVotes() public view onlyAdmin returns (Vote[] memory) {... */\n      swap1\n      jump\t// out\n        /* \"khi.sol\":2017:2124  function getTotalCandidates() public view returns (uint256) {... */\n    tag_35:\n        /* \"khi.sol\":2068:2075  uint256 */\n      0x00\n        /* \"khi.sol\":2095:2109  candidateNames */\n      0x05\n        /* \"khi.sol\":2095:2116  candidateNames.length */\n      dup1\n      sload\n      swap1\n      pop\n        /* \"khi.sol\":2088:2116  return candidateNames.length */\n      swap1\n      pop\n        /* \"khi.sol\":2017:2124  function getTotalCandidates() public view returns (uint256) {... */\n      swap1\n      jump\t// out\n        /* \"khi.sol\":896:1270  function addCandidate(string memory _candidateName, string memory _info)... */\n    tag_40:\n        /* \"khi.sol\":1020:1049  Candidate memory newCandidate */\n      0x00\n        /* \"khi.sol\":1052:1162  Candidate({... */\n      mload(0x40)\n      dup1\n      0x60\n      add\n      0x40\n      mstore\n      dup1\n        /* \"khi.sol\":1083:1097  _candidateName */\n      dup5\n        /* \"khi.sol\":1052:1162  Candidate({... */\n      dup2\n      mstore\n      0x20\n      add\n        /* \"khi.sol\":1118:1123  _info */\n      dup4\n        /* \"khi.sol\":1052:1162  Candidate({... */\n      dup2\n      mstore\n      0x20\n      add\n        /* \"khi.sol\":1146:1150  true */\n      0x01\n        /* \"khi.sol\":1052:1162  Candidate({... */\n      iszero\n      iszero\n      dup2\n      mstore\n      pop\n        /* \"khi.sol\":1020:1162  Candidate memory newCandidate = Candidate({... */\n      swap1\n      pop\n        /* \"khi.sol\":1204:1216  newCandidate */\n      dup1\n        /* \"khi.sol\":1175:1185  candidates */\n      0x04\n        /* \"khi.sol\":1186:1200  _candidateName */\n      dup5\n        /* \"khi.sol\":1175:1201  candidates[_candidateName] */\n      mload(0x40)\n      tag_114\n      swap2\n      swap1\n      tag_115\n      jump\t// in\n    tag_114:\n      swap1\n      dup2\n      mstore\n      0x20\n      add\n      mload(0x40)\n      dup1\n      swap2\n      sub\n      swap1\n      keccak256\n        /* \"khi.sol\":1175:1216  candidates[_candidateName] = newCandidate */\n      0x00\n      dup3\n      add\n      mload\n      dup2\n      0x00\n      add\n      swap1\n      dup2\n      tag_116\n      swap2\n      swap1\n      tag_117\n      jump\t// in\n    tag_116:\n      pop\n      0x20\n      dup3\n      add\n      mload\n      dup2\n      0x01\n      add\n      swap1\n      dup2\n      tag_118\n      swap2\n      swap1\n      tag_117\n      jump\t// in\n    tag_118:\n      pop\n      0x40\n      dup3\n      add\n      mload\n      dup2\n      0x02\n      add\n      exp(0x0100, 0x00)\n      dup2\n      sload\n      dup2\n      0xff\n      mul\n      not\n      and\n      swap1\n      dup4\n      iszero\n      iszero\n      mul\n      or\n      swap1\n      sstore\n      pop\n      swap1\n      pop\n      pop\n        /* \"khi.sol\":1227:1241  candidateNames */\n      0x05\n        /* \"khi.sol\":1247:1261  _candidateName */\n      dup4\n        /* \"khi.sol\":1227:1262  candidateNames.push(_candidateName) */\n      swap1\n      dup1\n      0x01\n      dup2\n      sload\n      add\n      dup1\n      dup3\n      sstore\n      dup1\n      swap2\n      pop\n      pop\n      0x01\n      swap1\n      sub\n      swap1\n      0x00\n      mstore\n      keccak256(0x00, 0x20)\n      add\n      0x00\n      swap1\n      swap2\n      swap1\n      swap2\n      swap1\n      swap2\n      pop\n      swap1\n      dup2\n      tag_120\n      swap2\n      swap1\n      tag_117\n      jump\t// in\n    tag_120:\n      pop\n        /* \"khi.sol\":1009:1270  {... */\n      pop\n        /* \"khi.sol\":896:1270  function addCandidate(string memory _candidateName, string memory _info)... */\n      pop\n      pop\n      jump\t// out\n        /* \"khi.sol\":1801:1894  function getElectionName() public view returns (string memory) {... */\n    tag_42:\n        /* \"khi.sol\":1849:1862  string memory */\n      0x60\n        /* \"khi.sol\":1882:1886  name */\n      0x01\n        /* \"khi.sol\":1875:1886  return name */\n      dup1\n      sload\n      tag_122\n      swap1\n      tag_85\n      jump\t// in\n    tag_122:\n      dup1\n      0x1f\n      add\n      0x20\n      dup1\n      swap2\n      div\n      mul\n      0x20\n      add\n      mload(0x40)\n      swap1\n      dup2\n      add\n      0x40\n      mstore\n      dup1\n      swap3\n      swap2\n      swap1\n      dup2\n      dup2\n      mstore\n      0x20\n      add\n      dup3\n      dup1\n      sload\n      tag_123\n      swap1\n      tag_85\n      jump\t// in\n    tag_123:\n      dup1\n      iszero\n      tag_124\n      jumpi\n      dup1\n      0x1f\n      lt\n      tag_125\n      jumpi\n      0x0100\n      dup1\n      dup4\n      sload\n      div\n      mul\n      dup4\n      mstore\n      swap2\n      0x20\n      add\n      swap2\n      jump(tag_124)\n    tag_125:\n      dup3\n      add\n      swap2\n      swap1\n      0x00\n      mstore\n      keccak256(0x00, 0x20)\n      swap1\n    tag_126:\n      dup2\n      sload\n      dup2\n      mstore\n      swap1\n      0x01\n      add\n      swap1\n      0x20\n      add\n      dup1\n      dup4\n      gt\n      tag_126\n      jumpi\n      dup3\n      swap1\n      sub\n      0x1f\n      and\n      dup3\n      add\n      swap2\n    tag_124:\n      pop\n      pop\n      pop\n      pop\n      pop\n      swap1\n      pop\n        /* \"khi.sol\":1801:1894  function getElectionName() public view returns (string memory) {... */\n      swap1\n      jump\t// out\n        /* \"khi.sol\":4262:4546  function getStatus() public view returns (string memory) {... */\n    tag_46:\n        /* \"khi.sol\":4304:4317  string memory */\n      0x60\n        /* \"khi.sol\":4345:4349  true */\n      0x01\n        /* \"khi.sol\":4334:4349  started == true */\n      iszero\n      iszero\n        /* \"khi.sol\":4334:4341  started */\n      0x03\n      0x00\n      swap1\n      sload\n      swap1\n      0x0100\n      exp\n      swap1\n      div\n      0xff\n      and\n        /* \"khi.sol\":4334:4349  started == true */\n      iszero\n      iszero\n      eq\n        /* \"khi.sol\":4334:4366  started == true && ended == true */\n      dup1\n      iszero\n      tag_128\n      jumpi\n      pop\n        /* \"khi.sol\":4362:4366  true */\n      0x01\n        /* \"khi.sol\":4353:4366  ended == true */\n      iszero\n      iszero\n        /* \"khi.sol\":4353:4358  ended */\n      0x03\n      0x01\n      swap1\n      sload\n      swap1\n      0x0100\n      exp\n      swap1\n      div\n      0xff\n      and\n        /* \"khi.sol\":4353:4366  ended == true */\n      iszero\n      iszero\n      eq\n        /* \"khi.sol\":4334:4366  started == true && ended == true */\n    tag_128:\n        /* \"khi.sol\":4330:4412  if (started == true && ended == true) {... */\n      iszero\n      tag_129\n      jumpi\n        /* \"khi.sol\":4383:4400  return \"finished\" */\n      mload(0x40)\n      dup1\n      0x40\n      add\n      0x40\n      mstore\n      dup1\n      0x08\n      dup2\n      mstore\n      0x20\n      add\n      0x66696e6973686564000000000000000000000000000000000000000000000000\n      dup2\n      mstore\n      pop\n      swap1\n      pop\n      jump(tag_127)\n        /* \"khi.sol\":4330:4412  if (started == true && ended == true) {... */\n    tag_129:\n        /* \"khi.sol\":4439:4443  true */\n      0x01\n        /* \"khi.sol\":4428:4443  started == true */\n      iszero\n      iszero\n        /* \"khi.sol\":4428:4435  started */\n      0x03\n      0x00\n      swap1\n      sload\n      swap1\n      0x0100\n      exp\n      swap1\n      div\n      0xff\n      and\n        /* \"khi.sol\":4428:4443  started == true */\n      iszero\n      iszero\n      eq\n        /* \"khi.sol\":4428:4461  started == true && ended == false */\n      dup1\n      iszero\n      tag_130\n      jumpi\n      pop\n        /* \"khi.sol\":4456:4461  false */\n      0x00\n        /* \"khi.sol\":4447:4461  ended == false */\n      iszero\n      iszero\n        /* \"khi.sol\":4447:4452  ended */\n      0x03\n      0x01\n      swap1\n      sload\n      swap1\n      0x0100\n      exp\n      swap1\n      div\n      0xff\n      and\n        /* \"khi.sol\":4447:4461  ended == false */\n      iszero\n      iszero\n      eq\n        /* \"khi.sol\":4428:4461  started == true && ended == false */\n    tag_130:\n        /* \"khi.sol\":4424:4506  if (started == true && ended == false) {... */\n      iszero\n      tag_131\n      jumpi\n        /* \"khi.sol\":4478:4494  return \"running\" */\n      mload(0x40)\n      dup1\n      0x40\n      add\n      0x40\n      mstore\n      dup1\n      0x07\n      dup2\n      mstore\n      0x20\n      add\n      0x72756e6e696e6700000000000000000000000000000000000000000000000000\n      dup2\n      mstore\n      pop\n      swap1\n      pop\n      jump(tag_127)\n        /* \"khi.sol\":4424:4506  if (started == true && ended == false) {... */\n    tag_131:\n        /* \"khi.sol\":4518:4538  return \"not-started\" */\n      mload(0x40)\n      dup1\n      0x40\n      add\n      0x40\n      mstore\n      dup1\n      0x0b\n      dup2\n      mstore\n      0x20\n      add\n      0x6e6f742d73746172746564000000000000000000000000000000000000000000\n      dup2\n      mstore\n      pop\n      swap1\n      pop\n        /* \"khi.sol\":4262:4546  function getStatus() public view returns (string memory) {... */\n    tag_127:\n      swap1\n      jump\t// out\n        /* \"khi.sol\":3562:3713  function endElection() public onlyAdmin {... */\n    tag_49:\n        /* \"khi.sol\":3632:3636  true */\n      0x01\n        /* \"khi.sol\":3621:3636  started == true */\n      iszero\n      iszero\n        /* \"khi.sol\":3621:3628  started */\n      0x03\n      0x00\n      swap1\n      sload\n      swap1\n      0x0100\n      exp\n      swap1\n      div\n      0xff\n      and\n        /* \"khi.sol\":3621:3636  started == true */\n      iszero\n      iszero\n      eq\n        /* \"khi.sol\":3621:3654  started == true && ended == false */\n      dup1\n      iszero\n      tag_134\n      jumpi\n      pop\n        /* \"khi.sol\":3649:3654  false */\n      0x00\n        /* \"khi.sol\":3640:3654  ended == false */\n      iszero\n      iszero\n        /* \"khi.sol\":3640:3645  ended */\n      0x03\n      0x01\n      swap1\n      sload\n      swap1\n      0x0100\n      exp\n      swap1\n      div\n      0xff\n      and\n        /* \"khi.sol\":3640:3654  ended == false */\n      iszero\n      iszero\n      eq\n        /* \"khi.sol\":3621:3654  started == true && ended == false */\n    tag_134:\n        /* \"khi.sol\":3613:3655  require(started == true && ended == false) */\n      tag_135\n      jumpi\n      0x00\n      dup1\n      revert\n    tag_135:\n        /* \"khi.sol\":3678:3682  true */\n      0x01\n        /* \"khi.sol\":3668:3675  started */\n      0x03\n      0x00\n        /* \"khi.sol\":3668:3682  started = true */\n      0x0100\n      exp\n      dup2\n      sload\n      dup2\n      0xff\n      mul\n      not\n      and\n      swap1\n      dup4\n      iszero\n      iszero\n      mul\n      or\n      swap1\n      sstore\n      pop\n        /* \"khi.sol\":3701:3705  true */\n      0x01\n        /* \"khi.sol\":3693:3698  ended */\n      0x03\n      0x01\n        /* \"khi.sol\":3693:3705  ended = true */\n      0x0100\n      exp\n      dup2\n      sload\n      dup2\n      0xff\n      mul\n      not\n      and\n      swap1\n      dup4\n      iszero\n      iszero\n      mul\n      or\n      swap1\n      sstore\n      pop\n        /* \"khi.sol\":3562:3713  function endElection() public onlyAdmin {... */\n      jump\t// out\n        /* \"khi.sol\":525:620  function addAdmin(address _address) public onlyAdmin {... */\n    tag_53:\n        /* \"khi.sol\":608:612  true */\n      0x01\n        /* \"khi.sol\":589:595  admins */\n      0x00\n        /* \"khi.sol\":589:605  admins[_address] */\n      dup1\n        /* \"khi.sol\":596:604  _address */\n      dup4\n        /* \"khi.sol\":589:605  admins[_address] */\n      0xffffffffffffffffffffffffffffffffffffffff\n      and\n      0xffffffffffffffffffffffffffffffffffffffff\n      and\n      dup2\n      mstore\n      0x20\n      add\n      swap1\n      dup2\n      mstore\n      0x20\n      add\n      0x00\n      keccak256\n      0x00\n        /* \"khi.sol\":589:612  admins[_address] = true */\n      0x0100\n      exp\n      dup2\n      sload\n      dup2\n      0xff\n      mul\n      not\n      and\n      swap1\n      dup4\n      iszero\n      iszero\n      mul\n      or\n      swap1\n      sstore\n      pop\n        /* \"khi.sol\":525:620  function addAdmin(address _address) public onlyAdmin {... */\n      pop\n      jump\t// out\n        /* \"khi.sol\":2527:3157  function vote(... */\n    tag_57:\n        /* \"khi.sol\":2692:2696  true */\n      0x01\n        /* \"khi.sol\":2681:2696  started == true */\n      iszero\n      iszero\n        /* \"khi.sol\":2681:2688  started */\n      0x03\n      0x00\n      swap1\n      sload\n      swap1\n      0x0100\n      exp\n      swap1\n      div\n      0xff\n      and\n        /* \"khi.sol\":2681:2696  started == true */\n      iszero\n      iszero\n      eq\n        /* \"khi.sol\":2681:2714  started == true && ended == false */\n      dup1\n      iszero\n      tag_139\n      jumpi\n      pop\n        /* \"khi.sol\":2709:2714  false */\n      0x00\n        /* \"khi.sol\":2700:2714  ended == false */\n      iszero\n      iszero\n        /* \"khi.sol\":2700:2705  ended */\n      0x03\n      0x01\n      swap1\n      sload\n      swap1\n      0x0100\n      exp\n      swap1\n      div\n      0xff\n      and\n        /* \"khi.sol\":2700:2714  ended == false */\n      iszero\n      iszero\n      eq\n        /* \"khi.sol\":2681:2714  started == true && ended == false */\n    tag_139:\n        /* \"khi.sol\":2673:2715  require(started == true && ended == false) */\n      tag_140\n      jumpi\n      0x00\n      dup1\n      revert\n    tag_140:\n        /* \"khi.sol\":2734:2744  candidates */\n      0x04\n        /* \"khi.sol\":2745:2759  _candidateName */\n      dup2\n        /* \"khi.sol\":2734:2760  candidates[_candidateName] */\n      mload(0x40)\n      tag_141\n      swap2\n      swap1\n      tag_115\n      jump\t// in\n    tag_141:\n      swap1\n      dup2\n      mstore\n      0x20\n      add\n      mload(0x40)\n      dup1\n      swap2\n      sub\n      swap1\n      keccak256\n        /* \"khi.sol\":2734:2767  candidates[_candidateName].exists */\n      0x02\n      add\n      0x00\n      swap1\n      sload\n      swap1\n      0x0100\n      exp\n      swap1\n      div\n      0xff\n      and\n        /* \"khi.sol\":2726:2789  require(candidates[_candidateName].exists, \"No such candidate\") */\n      tag_142\n      jumpi\n      mload(0x40)\n      0x08c379a000000000000000000000000000000000000000000000000000000000\n      dup2\n      mstore\n      0x04\n      add\n      tag_143\n      swap1\n      tag_144\n      jump\t// in\n    tag_143:\n      mload(0x40)\n      dup1\n      swap2\n      sub\n      swap1\n      revert\n    tag_142:\n        /* \"khi.sol\":2809:2817  voterIds */\n      0x07\n        /* \"khi.sol\":2818:2826  _voterId */\n      dup4\n        /* \"khi.sol\":2809:2827  voterIds[_voterId] */\n      mload(0x40)\n      tag_145\n      swap2\n      swap1\n      tag_115\n      jump\t// in\n    tag_145:\n      swap1\n      dup2\n      mstore\n      0x20\n      add\n      mload(0x40)\n      dup1\n      swap2\n      sub\n      swap1\n      keccak256\n      0x00\n      swap1\n      sload\n      swap1\n      0x0100\n      exp\n      swap1\n      div\n      0xff\n      and\n        /* \"khi.sol\":2808:2827  !voterIds[_voterId] */\n      iszero\n        /* \"khi.sol\":2800:2845  require(!voterIds[_voterId], \"Already Voted\") */\n      tag_146\n      jumpi\n      mload(0x40)\n      0x08c379a000000000000000000000000000000000000000000000000000000000\n      dup2\n      mstore\n      0x04\n      add\n      tag_147\n      swap1\n      tag_148\n      jump\t// in\n    tag_147:\n      mload(0x40)\n      dup1\n      swap2\n      sub\n      swap1\n      revert\n    tag_146:\n        /* \"khi.sol\":2858:2877  Vote memory newVote */\n      0x00\n        /* \"khi.sol\":2880:3044  Vote({... */\n      mload(0x40)\n      dup1\n      0x80\n      add\n      0x40\n      mstore\n      dup1\n        /* \"khi.sol\":2914:2924  msg.sender */\n      caller\n        /* \"khi.sol\":2880:3044  Vote({... */\n      0xffffffffffffffffffffffffffffffffffffffff\n      and\n      dup2\n      mstore\n      0x20\n      add\n        /* \"khi.sol\":2948:2956  _voterId */\n      dup6\n        /* \"khi.sol\":2880:3044  Vote({... */\n      dup2\n      mstore\n      0x20\n      add\n        /* \"khi.sol\":2982:2992  _voterName */\n      dup5\n        /* \"khi.sol\":2880:3044  Vote({... */\n      dup2\n      mstore\n      0x20\n      add\n        /* \"khi.sol\":3018:3032  _candidateName */\n      dup4\n        /* \"khi.sol\":2880:3044  Vote({... */\n      dup2\n      mstore\n      pop\n        /* \"khi.sol\":2858:3044  Vote memory newVote = Vote({... */\n      swap1\n      pop\n        /* \"khi.sol\":3057:3062  votes */\n      0x06\n        /* \"khi.sol\":3068:3075  newVote */\n      dup2\n        /* \"khi.sol\":3057:3076  votes.push(newVote) */\n      swap1\n      dup1\n      0x01\n      dup2\n      sload\n      add\n      dup1\n      dup3\n      sstore\n      dup1\n      swap2\n      pop\n      pop\n      0x01\n      swap1\n      sub\n      swap1\n      0x00\n      mstore\n      keccak256(0x00, 0x20)\n      swap1\n      0x04\n      mul\n      add\n      0x00\n      swap1\n      swap2\n      swap1\n      swap2\n      swap1\n      swap2\n      pop\n      0x00\n      dup3\n      add\n      mload\n      dup2\n      0x00\n      add\n      exp(0x0100, 0x00)\n      dup2\n      sload\n      dup2\n      0xffffffffffffffffffffffffffffffffffffffff\n      mul\n      not\n      and\n      swap1\n      dup4\n      0xffffffffffffffffffffffffffffffffffffffff\n      and\n      mul\n      or\n      swap1\n      sstore\n      pop\n      0x20\n      dup3\n      add\n      mload\n      dup2\n      0x01\n      add\n      swap1\n      dup2\n      tag_150\n      swap2\n      swap1\n      tag_117\n      jump\t// in\n    tag_150:\n      pop\n      0x40\n      dup3\n      add\n      mload\n      dup2\n      0x02\n      add\n      swap1\n      dup2\n      tag_151\n      swap2\n      swap1\n      tag_117\n      jump\t// in\n    tag_151:\n      pop\n      0x60\n      dup3\n      add\n      mload\n      dup2\n      0x03\n      add\n      swap1\n      dup2\n      tag_152\n      swap2\n      swap1\n      tag_117\n      jump\t// in\n    tag_152:\n      pop\n      pop\n      pop\n        /* \"khi.sol\":3108:3112  true */\n      0x01\n        /* \"khi.sol\":3087:3095  voterIds */\n      0x07\n        /* \"khi.sol\":3096:3104  _voterId */\n      dup6\n        /* \"khi.sol\":3087:3105  voterIds[_voterId] */\n      mload(0x40)\n      tag_153\n      swap2\n      swap1\n      tag_115\n      jump\t// in\n    tag_153:\n      swap1\n      dup2\n      mstore\n      0x20\n      add\n      mload(0x40)\n      dup1\n      swap2\n      sub\n      swap1\n      keccak256\n      0x00\n        /* \"khi.sol\":3087:3112  voterIds[_voterId] = true */\n      0x0100\n      exp\n      dup2\n      sload\n      dup2\n      0xff\n      mul\n      not\n      and\n      swap1\n      dup4\n      iszero\n      iszero\n      mul\n      or\n      swap1\n      sstore\n      pop\n        /* \"khi.sol\":3123:3134  votersArray */\n      0x08\n        /* \"khi.sol\":3140:3148  _voterId */\n      dup5\n        /* \"khi.sol\":3123:3149  votersArray.push(_voterId) */\n      swap1\n      dup1\n      0x01\n      dup2\n      sload\n      add\n      dup1\n      dup3\n      sstore\n      dup1\n      swap2\n      pop\n      pop\n      0x01\n      swap1\n      sub\n      swap1\n      0x00\n      mstore\n      keccak256(0x00, 0x20)\n      add\n      0x00\n      swap1\n      swap2\n      swap1\n      swap2\n      swap1\n      swap2\n      pop\n      swap1\n      dup2\n      tag_155\n      swap2\n      swap1\n      tag_117\n      jump\t// in\n    tag_155:\n      pop\n        /* \"khi.sol\":2662:3157  {... */\n      pop\n        /* \"khi.sol\":2527:3157  function vote(... */\n      pop\n      pop\n      pop\n      jump\t// out\n        /* \"khi.sol\":1559:1793  function setElectionDetails(string memory _name, string memory _description)... */\n    tag_60:\n        /* \"khi.sol\":1694:1699  _name */\n      dup2\n        /* \"khi.sol\":1687:1691  name */\n      0x01\n        /* \"khi.sol\":1687:1699  name = _name */\n      swap1\n      dup2\n      tag_158\n      swap2\n      swap1\n      tag_117\n      jump\t// in\n    tag_158:\n      pop\n        /* \"khi.sol\":1724:1736  _description */\n      dup1\n        /* \"khi.sol\":1710:1721  description */\n      0x02\n        /* \"khi.sol\":1710:1736  description = _description */\n      swap1\n      dup2\n      tag_159\n      swap2\n      swap1\n      tag_117\n      jump\t// in\n    tag_159:\n      pop\n        /* \"khi.sol\":1757:1761  true */\n      0x01\n        /* \"khi.sol\":1747:1754  started */\n      0x03\n      0x00\n        /* \"khi.sol\":1747:1761  started = true */\n      0x0100\n      exp\n      dup2\n      sload\n      dup2\n      0xff\n      mul\n      not\n      and\n      swap1\n      dup4\n      iszero\n      iszero\n      mul\n      or\n      swap1\n      sstore\n      pop\n        /* \"khi.sol\":1780:1785  false */\n      0x00\n        /* \"khi.sol\":1772:1777  ended */\n      0x03\n      0x01\n        /* \"khi.sol\":1772:1785  ended = false */\n      0x0100\n      exp\n      dup2\n      sload\n      dup2\n      0xff\n      mul\n      not\n      and\n      swap1\n      dup4\n      iszero\n      iszero\n      mul\n      or\n      swap1\n      sstore\n      pop\n        /* \"khi.sol\":1559:1793  function setElectionDetails(string memory _name, string memory _description)... */\n      pop\n      pop\n      jump\t// out\n        /* \"khi.sol\":2452:2491  mapping(string => bool) public voterIds */\n    tag_64:\n      0x07\n      dup2\n      dup1\n      mload\n      0x20\n      dup2\n      add\n      dup3\n      add\n      dup1\n      mload\n      dup5\n      dup3\n      mstore\n      0x20\n      dup4\n      add\n      0x20\n      dup6\n      add\n      keccak256\n      dup2\n      dup4\n      mstore\n      dup1\n      swap6\n      pop\n      pop\n      pop\n      pop\n      pop\n      pop\n      0x00\n      swap2\n      pop\n      sload\n      swap1\n      0x0100\n      exp\n      swap1\n      div\n      0xff\n      and\n      dup2\n      jump\t// out\n        /* \"khi.sol\":1902:2009  function getElectionDescription() public view returns (string memory) {... */\n    tag_68:\n        /* \"khi.sol\":1957:1970  string memory */\n      0x60\n        /* \"khi.sol\":1990:2001  description */\n      0x02\n        /* \"khi.sol\":1983:2001  return description */\n      dup1\n      sload\n      tag_161\n      swap1\n      tag_85\n      jump\t// in\n    tag_161:\n      dup1\n      0x1f\n      add\n      0x20\n      dup1\n      swap2\n      div\n      mul\n      0x20\n      add\n      mload(0x40)\n      swap1\n      dup2\n      add\n      0x40\n      mstore\n      dup1\n      swap3\n      swap2\n      swap1\n      dup2\n      dup2\n      mstore\n      0x20\n      add\n      dup3\n      dup1\n      sload\n      tag_162\n      swap1\n      tag_85\n      jump\t// in\n    tag_162:\n      dup1\n      iszero\n      tag_163\n      jumpi\n      dup1\n      0x1f\n      lt\n      tag_164\n      jumpi\n      0x0100\n      dup1\n      dup4\n      sload\n      div\n      mul\n      dup4\n      mstore\n      swap2\n      0x20\n      add\n      swap2\n      jump(tag_163)\n    tag_164:\n      dup3\n      add\n      swap2\n      swap1\n      0x00\n      mstore\n      keccak256(0x00, 0x20)\n      swap1\n    tag_165:\n      dup2\n      sload\n      dup2\n      mstore\n      swap1\n      0x01\n      add\n      swap1\n      0x20\n      add\n      dup1\n      dup4\n      gt\n      tag_165\n      jumpi\n      dup3\n      swap1\n      sub\n      0x1f\n      and\n      dup3\n      add\n      swap2\n    tag_163:\n      pop\n      pop\n      pop\n      pop\n      pop\n      swap1\n      pop\n        /* \"khi.sol\":1902:2009  function getElectionDescription() public view returns (string memory) {... */\n      swap1\n      jump\t// out\n        /* \"khi.sol\":811:857  mapping(string => Candidate) public candidates */\n    tag_72:\n      0x04\n      dup2\n      dup1\n      mload\n      0x20\n      dup2\n      add\n      dup3\n      add\n      dup1\n      mload\n      dup5\n      dup3\n      mstore\n      0x20\n      dup4\n      add\n      0x20\n      dup6\n      add\n      keccak256\n      dup2\n      dup4\n      mstore\n      dup1\n      swap6\n      pop\n      pop\n      pop\n      pop\n      pop\n      pop\n      0x00\n      swap2\n      pop\n      swap1\n      pop\n      dup1\n      0x00\n      add\n      dup1\n      sload\n      tag_166\n      swap1\n      tag_85\n      jump\t// in\n    tag_166:\n      dup1\n      0x1f\n      add\n      0x20\n      dup1\n      swap2\n      div\n      mul\n      0x20\n      add\n      mload(0x40)\n      swap1\n      dup2\n      add\n      0x40\n      mstore\n      dup1\n      swap3\n      swap2\n      swap1\n      dup2\n      dup2\n      mstore\n      0x20\n      add\n      dup3\n      dup1\n      sload\n      tag_167\n      swap1\n      tag_85\n      jump\t// in\n    tag_167:\n      dup1\n      iszero\n      tag_168\n      jumpi\n      dup1\n      0x1f\n      lt\n      tag_169\n      jumpi\n      0x0100\n      dup1\n      dup4\n      sload\n      div\n      mul\n      dup4\n      mstore\n      swap2\n      0x20\n      add\n      swap2\n      jump(tag_168)\n    tag_169:\n      dup3\n      add\n      swap2\n      swap1\n      0x00\n      mstore\n      keccak256(0x00, 0x20)\n      swap1\n    tag_170:\n      dup2\n      sload\n      dup2\n      mstore\n      swap1\n      0x01\n      add\n      swap1\n      0x20\n      add\n      dup1\n      dup4\n      gt\n      tag_170\n      jumpi\n      dup3\n      swap1\n      sub\n      0x1f\n      and\n      dup3\n      add\n      swap2\n    tag_168:\n      pop\n      pop\n      pop\n      pop\n      pop\n      swap1\n      dup1\n      0x01\n      add\n      dup1\n      sload\n      tag_171\n      swap1\n      tag_85\n      jump\t// in\n    tag_171:\n      dup1\n      0x1f\n      add\n      0x20\n      dup1\n      swap2\n      div\n      mul\n      0x20\n      add\n      mload(0x40)\n      swap1\n      dup2\n      add\n      0x40\n      mstore\n      dup1\n      swap3\n      swap2\n      swap1\n      dup2\n      dup2\n      mstore\n      0x20\n      add\n      dup3\n      dup1\n      sload\n      tag_172\n      swap1\n      tag_85\n      jump\t// in\n    tag_172:\n      dup1\n      iszero\n      tag_173\n      jumpi\n      dup1\n      0x1f\n      lt\n      tag_174\n      jumpi\n      0x0100\n      dup1\n      dup4\n      sload\n      div\n      mul\n      dup4\n      mstore\n      swap2\n      0x20\n      add\n      swap2\n      jump(tag_173)\n    tag_174:\n      dup3\n      add\n      swap2\n      swap1\n      0x00\n      mstore\n      keccak256(0x00, 0x20)\n      swap1\n    tag_175:\n      dup2\n      sload\n      dup2\n      mstore\n      swap1\n      0x01\n      add\n      swap1\n      0x20\n      add\n      dup1\n      dup4\n      gt\n      tag_175\n      jumpi\n      dup3\n      swap1\n      sub\n      0x1f\n      and\n      dup3\n      add\n      swap2\n    tag_173:\n      pop\n      pop\n      pop\n      pop\n      pop\n      swap1\n      dup1\n      0x02\n      add\n      0x00\n      swap1\n      sload\n      swap1\n      0x0100\n      exp\n      swap1\n      div\n      0xff\n      and\n      swap1\n      pop\n      dup4\n      jump\t// out\n        /* \"khi.sol\":3165:3261  function getVoters() public view returns (string[] memory) {... */\n    tag_76:\n        /* \"khi.sol\":3207:3222  string[] memory */\n      0x60\n        /* \"khi.sol\":3242:3253  votersArray */\n      0x08\n        /* \"khi.sol\":3235:3253  return votersArray */\n      dup1\n      sload\n      dup1\n      0x20\n      mul\n      0x20\n      add\n      mload(0x40)\n      swap1\n      dup2\n      add\n      0x40\n      mstore\n      dup1\n      swap3\n      swap2\n      swap1\n      dup2\n      dup2\n      mstore\n      0x20\n      add\n      0x00\n      swap1\n    tag_177:\n      dup3\n      dup3\n      lt\n      iszero\n      tag_178\n      jumpi\n      dup4\n      dup3\n      swap1\n      0x00\n      mstore\n      keccak256(0x00, 0x20)\n      add\n      dup1\n      sload\n      tag_180\n      swap1\n      tag_85\n      jump\t// in\n    tag_180:\n      dup1\n      0x1f\n      add\n      0x20\n      dup1\n      swap2\n      div\n      mul\n      0x20\n      add\n      mload(0x40)\n      swap1\n      dup2\n      add\n      0x40\n      mstore\n      dup1\n      swap3\n      swap2\n      swap1\n      dup2\n      dup2\n      mstore\n      0x20\n      add\n      dup3\n      dup1\n      sload\n      tag_181\n      swap1\n      tag_85\n      jump\t// in\n    tag_181:\n      dup1\n      iszero\n      tag_182\n      jumpi\n      dup1\n      0x1f\n      lt\n      tag_183\n      jumpi\n      0x0100\n      dup1\n      dup4\n      sload\n      div\n      mul\n      dup4\n      mstore\n      swap2\n      0x20\n      add\n      swap2\n      jump(tag_182)\n    tag_183:\n      dup3\n      add\n      swap2\n      swap1\n      0x00\n      mstore\n      keccak256(0x00, 0x20)\n      swap1\n    tag_184:\n      dup2\n      sload\n      dup2\n      mstore\n      swap1\n      0x01\n      add\n      swap1\n      0x20\n      add\n      dup1\n      dup4\n      gt\n      tag_184\n      jumpi\n      dup3\n      swap1\n      sub\n      0x1f\n      and\n      dup3\n      add\n      swap2\n    tag_182:\n      pop\n      pop\n      pop\n      pop\n      pop\n      dup2\n      mstore\n      0x20\n      add\n      swap1\n      0x01\n      add\n      swap1\n      jump(tag_177)\n    tag_178:\n      pop\n      pop\n      pop\n      pop\n      swap1\n      pop\n        /* \"khi.sol\":3165:3261  function getVoters() public view returns (string[] memory) {... */\n      swap1\n      jump\t// out\n        /* \"khi.sol\":3721:4254  function resetElection() public onlyAdmin {... */\n    tag_79:\n        /* \"khi.sol\":3793:3797  true */\n      0x01\n        /* \"khi.sol\":3782:3797  started == true */\n      iszero\n      iszero\n        /* \"khi.sol\":3782:3789  started */\n      0x03\n      0x00\n      swap1\n      sload\n      swap1\n      0x0100\n      exp\n      swap1\n      div\n      0xff\n      and\n        /* \"khi.sol\":3782:3797  started == true */\n      iszero\n      iszero\n      eq\n        /* \"khi.sol\":3782:3814  started == true && ended == true */\n      dup1\n      iszero\n      tag_187\n      jumpi\n      pop\n        /* \"khi.sol\":3810:3814  true */\n      0x01\n        /* \"khi.sol\":3801:3814  ended == true */\n      iszero\n      iszero\n        /* \"khi.sol\":3801:3806  ended */\n      0x03\n      0x01\n      swap1\n      sload\n      swap1\n      0x0100\n      exp\n      swap1\n      div\n      0xff\n      and\n        /* \"khi.sol\":3801:3814  ended == true */\n      iszero\n      iszero\n      eq\n        /* \"khi.sol\":3782:3814  started == true && ended == true */\n    tag_187:\n        /* \"khi.sol\":3774:3815  require(started == true && ended == true) */\n      tag_188\n      jumpi\n      0x00\n      dup1\n      revert\n    tag_188:\n        /* \"khi.sol\":3833:3841  uint32 i */\n      0x00\n        /* \"khi.sol\":3828:3942  for (uint32 i = 0; i < candidateNames.length; i++) {... */\n    tag_189:\n        /* \"khi.sol\":3851:3865  candidateNames */\n      0x05\n        /* \"khi.sol\":3851:3872  candidateNames.length */\n      dup1\n      sload\n      swap1\n      pop\n        /* \"khi.sol\":3847:3848  i */\n      dup2\n        /* \"khi.sol\":3847:3872  i < candidateNames.length */\n      0xffffffff\n      and\n      lt\n        /* \"khi.sol\":3828:3942  for (uint32 i = 0; i < candidateNames.length; i++) {... */\n      iszero\n      tag_190\n      jumpi\n        /* \"khi.sol\":3901:3911  candidates */\n      0x04\n        /* \"khi.sol\":3912:3926  candidateNames */\n      0x05\n        /* \"khi.sol\":3927:3928  i */\n      dup3\n        /* \"khi.sol\":3912:3929  candidateNames[i] */\n      0xffffffff\n      and\n      dup2\n      sload\n      dup2\n      lt\n      tag_192\n      jumpi\n      tag_193\n      tag_194\n      jump\t// in\n    tag_193:\n    tag_192:\n      swap1\n      0x00\n      mstore\n      keccak256(0x00, 0x20)\n      add\n        /* \"khi.sol\":3901:3930  candidates[candidateNames[i]] */\n      mload(0x40)\n      tag_196\n      swap2\n      swap1\n      tag_197\n      jump\t// in\n    tag_196:\n      swap1\n      dup2\n      mstore\n      0x20\n      add\n      mload(0x40)\n      dup1\n      swap2\n      sub\n      swap1\n      keccak256\n      0x00\n        /* \"khi.sol\":3894:3930  delete candidates[candidateNames[i]] */\n      dup1\n      dup3\n      add\n      0x00\n      tag_198\n      swap2\n      swap1\n      tag_199\n      jump\t// in\n    tag_198:\n      0x01\n      dup3\n      add\n      0x00\n      tag_200\n      swap2\n      swap1\n      tag_199\n      jump\t// in\n    tag_200:\n      0x02\n      dup3\n      add\n      exp(0x0100, 0x00)\n      dup2\n      sload\n      swap1\n      0xff\n      mul\n      not\n      and\n      swap1\n      sstore\n      pop\n      pop\n        /* \"khi.sol\":3874:3877  i++ */\n      dup1\n      dup1\n      tag_201\n      swap1\n      tag_202\n      jump\t// in\n    tag_201:\n      swap2\n      pop\n      pop\n        /* \"khi.sol\":3828:3942  for (uint32 i = 0; i < candidateNames.length; i++) {... */\n      jump(tag_189)\n    tag_190:\n      pop\n        /* \"khi.sol\":3959:3967  uint32 i */\n      0x00\n        /* \"khi.sol\":3954:4060  for (uint32 i = 0; i < votersArray.length; i++) {... */\n    tag_203:\n        /* \"khi.sol\":3977:3988  votersArray */\n      0x08\n        /* \"khi.sol\":3977:3995  votersArray.length */\n      dup1\n      sload\n      swap1\n      pop\n        /* \"khi.sol\":3973:3974  i */\n      dup2\n        /* \"khi.sol\":3973:3995  i < votersArray.length */\n      0xffffffff\n      and\n      lt\n        /* \"khi.sol\":3954:4060  for (uint32 i = 0; i < votersArray.length; i++) {... */\n      iszero\n      tag_204\n      jumpi\n        /* \"khi.sol\":4024:4032  voterIds */\n      0x07\n        /* \"khi.sol\":4033:4044  votersArray */\n      0x08\n        /* \"khi.sol\":4045:4046  i */\n      dup3\n        /* \"khi.sol\":4033:4047  votersArray[i] */\n      0xffffffff\n      and\n      dup2\n      sload\n      dup2\n      lt\n      tag_206\n      jumpi\n      tag_207\n      tag_194\n      jump\t// in\n    tag_207:\n    tag_206:\n      swap1\n      0x00\n      mstore\n      keccak256(0x00, 0x20)\n      add\n        /* \"khi.sol\":4024:4048  voterIds[votersArray[i]] */\n      mload(0x40)\n      tag_209\n      swap2\n      swap1\n      tag_197\n      jump\t// in\n    tag_209:\n      swap1\n      dup2\n      mstore\n      0x20\n      add\n      mload(0x40)\n      dup1\n      swap2\n      sub\n      swap1\n      keccak256\n      0x00\n        /* \"khi.sol\":4017:4048  delete voterIds[votersArray[i]] */\n      0x0100\n      exp\n      dup2\n      sload\n      swap1\n      0xff\n      mul\n      not\n      and\n      swap1\n      sstore\n        /* \"khi.sol\":3997:4000  i++ */\n      dup1\n      dup1\n      tag_210\n      swap1\n      tag_202\n      jump\t// in\n    tag_210:\n      swap2\n      pop\n      pop\n        /* \"khi.sol\":3954:4060  for (uint32 i = 0; i < votersArray.length; i++) {... */\n      jump(tag_203)\n    tag_204:\n      pop\n        /* \"khi.sol\":4072:4081  name = \"\" */\n      mload(0x40)\n      dup1\n      0x20\n      add\n      0x40\n      mstore\n      dup1\n      0x00\n      dup2\n      mstore\n      pop\n        /* \"khi.sol\":4072:4076  name */\n      0x01\n        /* \"khi.sol\":4072:4081  name = \"\" */\n      swap1\n      dup2\n      tag_211\n      swap2\n      swap1\n      tag_117\n      jump\t// in\n    tag_211:\n      pop\n        /* \"khi.sol\":4092:4108  description = \"\" */\n      mload(0x40)\n      dup1\n      0x20\n      add\n      0x40\n      mstore\n      dup1\n      0x00\n      dup2\n      mstore\n      pop\n        /* \"khi.sol\":4092:4103  description */\n      0x02\n        /* \"khi.sol\":4092:4108  description = \"\" */\n      swap1\n      dup2\n      tag_212\n      swap2\n      swap1\n      tag_117\n      jump\t// in\n    tag_212:\n      pop\n        /* \"khi.sol\":4128:4133  votes */\n      0x06\n      0x00\n        /* \"khi.sol\":4121:4133  delete votes */\n      tag_213\n      swap2\n      swap1\n      tag_214\n      jump\t// in\n    tag_213:\n        /* \"khi.sol\":4151:4165  candidateNames */\n      0x05\n      0x00\n        /* \"khi.sol\":4144:4165  delete candidateNames */\n      tag_215\n      swap2\n      swap1\n      tag_216\n      jump\t// in\n    tag_215:\n        /* \"khi.sol\":4183:4194  votersArray */\n      0x08\n      0x00\n        /* \"khi.sol\":4176:4194  delete votersArray */\n      tag_217\n      swap2\n      swap1\n      tag_216\n      jump\t// in\n    tag_217:\n        /* \"khi.sol\":4217:4222  false */\n      0x00\n        /* \"khi.sol\":4207:4214  started */\n      0x03\n      0x00\n        /* \"khi.sol\":4207:4222  started = false */\n      0x0100\n      exp\n      dup2\n      sload\n      dup2\n      0xff\n      mul\n      not\n      and\n      swap1\n      dup4\n      iszero\n      iszero\n      mul\n      or\n      swap1\n      sstore\n      pop\n        /* \"khi.sol\":4241:4246  false */\n      0x00\n        /* \"khi.sol\":4233:4238  ended */\n      0x03\n      0x01\n        /* \"khi.sol\":4233:4246  ended = false */\n      0x0100\n      exp\n      dup2\n      sload\n      dup2\n      0xff\n      mul\n      not\n      and\n      swap1\n      dup4\n      iszero\n      iszero\n      mul\n      or\n      swap1\n      sstore\n      pop\n        /* \"khi.sol\":3721:4254  function resetElection() public onlyAdmin {... */\n      jump\t// out\n    tag_199:\n      pop\n      dup1\n      sload\n      tag_218\n      swap1\n      tag_85\n      jump\t// in\n    tag_218:\n      0x00\n      dup3\n      sstore\n      dup1\n      0x1f\n      lt\n      tag_220\n      jumpi\n      pop\n      jump(tag_219)\n    tag_220:\n      0x1f\n      add\n      0x20\n      swap1\n      div\n      swap1\n      0x00\n      mstore\n      keccak256(0x00, 0x20)\n      swap1\n      dup2\n      add\n      swap1\n      tag_221\n      swap2\n      swap1\n      tag_222\n      jump\t// in\n    tag_221:\n    tag_219:\n      pop\n      jump\t// out\n    tag_214:\n      pop\n      dup1\n      sload\n      0x00\n      dup3\n      sstore\n      0x04\n      mul\n      swap1\n      0x00\n      mstore\n      keccak256(0x00, 0x20)\n      swap1\n      dup2\n      add\n      swap1\n      tag_224\n      swap2\n      swap1\n      tag_225\n      jump\t// in\n    tag_224:\n      pop\n      jump\t// out\n    tag_216:\n      pop\n      dup1\n      sload\n      0x00\n      dup3\n      sstore\n      swap1\n      0x00\n      mstore\n      keccak256(0x00, 0x20)\n      swap1\n      dup2\n      add\n      swap1\n      tag_227\n      swap2\n      swap1\n      tag_228\n      jump\t// in\n    tag_227:\n      pop\n      jump\t// out\n    tag_222:\n    tag_229:\n      dup1\n      dup3\n      gt\n      iszero\n      tag_230\n      jumpi\n      0x00\n      dup2\n      0x00\n      swap1\n      sstore\n      pop\n      0x01\n      add\n      jump(tag_229)\n    tag_230:\n      pop\n      swap1\n      jump\t// out\n    tag_225:\n    tag_231:\n      dup1\n      dup3\n      gt\n      iszero\n      tag_232\n      jumpi\n      0x00\n      dup1\n      dup3\n      add\n      exp(0x0100, 0x00)\n      dup2\n      sload\n      swap1\n      0xffffffffffffffffffffffffffffffffffffffff\n      mul\n      not\n      and\n      swap1\n      sstore\n      0x01\n      dup3\n      add\n      0x00\n      tag_233\n      swap2\n      swap1\n      tag_199\n      jump\t// in\n    tag_233:\n      0x02\n      dup3\n      add\n      0x00\n      tag_234\n      swap2\n      swap1\n      tag_199\n      jump\t// in\n    tag_234:\n      0x03\n      dup3\n      add\n      0x00\n      tag_235\n      swap2\n      swap1\n      tag_199\n      jump\t// in\n    tag_235:\n      pop\n      0x04\n      add\n      jump(tag_231)\n    tag_232:\n      pop\n      swap1\n      jump\t// out\n    tag_228:\n    tag_236:\n      dup1\n      dup3\n      gt\n      iszero\n      tag_237\n      jumpi\n      0x00\n      dup2\n      dup2\n      tag_238\n      swap2\n      swap1\n      tag_199\n      jump\t// in\n    tag_238:\n      pop\n      0x01\n      add\n      jump(tag_236)\n    tag_237:\n      pop\n      swap1\n      jump\t// out\n        /* \"#utility.yul\":7:131   */\n    tag_239:\n        /* \"#utility.yul\":84:90   */\n      0x00\n        /* \"#utility.yul\":118:123   */\n      dup2\n        /* \"#utility.yul\":112:124   */\n      mload\n        /* \"#utility.yul\":102:124   */\n      swap1\n      pop\n        /* \"#utility.yul\":7:131   */\n      swap2\n      swap1\n      pop\n      jump\t// out\n        /* \"#utility.yul\":137:331   */\n    tag_240:\n        /* \"#utility.yul\":246:257   */\n      0x00\n        /* \"#utility.yul\":280:286   */\n      dup3\n        /* \"#utility.yul\":275:278   */\n      dup3\n        /* \"#utility.yul\":268:287   */\n      mstore\n        /* \"#utility.yul\":320:324   */\n      0x20\n        /* \"#utility.yul\":315:318   */\n      dup3\n        /* \"#utility.yul\":311:325   */\n      add\n        /* \"#utility.yul\":296:325   */\n      swap1\n      pop\n        /* \"#utility.yul\":137:331   */\n      swap3\n      swap2\n      pop\n      pop\n      jump\t// out\n        /* \"#utility.yul\":337:479   */\n    tag_241:\n        /* \"#utility.yul\":414:418   */\n      0x00\n        /* \"#utility.yul\":437:440   */\n      dup2\n        /* \"#utility.yul\":429:440   */\n      swap1\n      pop\n        /* \"#utility.yul\":467:471   */\n      0x20\n        /* \"#utility.yul\":462:465   */\n      dup3\n        /* \"#utility.yul\":458:472   */\n      add\n        /* \"#utility.yul\":450:472   */\n      swap1\n      pop\n        /* \"#utility.yul\":337:479   */\n      swap2\n      swap1\n      pop\n      jump\t// out\n        /* \"#utility.yul\":485:584   */\n    tag_242:\n        /* \"#utility.yul\":537:543   */\n      0x00\n        /* \"#utility.yul\":571:576   */\n      dup2\n        /* \"#utility.yul\":565:577   */\n      mload\n        /* \"#utility.yul\":555:577   */\n      swap1\n      pop\n        /* \"#utility.yul\":485:584   */\n      swap2\n      swap1\n      pop\n      jump\t// out\n        /* \"#utility.yul\":590:749   */\n    tag_243:\n        /* \"#utility.yul\":664:675   */\n      0x00\n        /* \"#utility.yul\":698:704   */\n      dup3\n        /* \"#utility.yul\":693:696   */\n      dup3\n        /* \"#utility.yul\":686:705   */\n      mstore\n        /* \"#utility.yul\":738:742   */\n      0x20\n        /* \"#utility.yul\":733:736   */\n      dup3\n        /* \"#utility.yul\":729:743   */\n      add\n        /* \"#utility.yul\":714:743   */\n      swap1\n      pop\n        /* \"#utility.yul\":590:749   */\n      swap3\n      swap2\n      pop\n      pop\n      jump\t// out\n        /* \"#utility.yul\":755:1001   */\n    tag_244:\n        /* \"#utility.yul\":836:837   */\n      0x00\n        /* \"#utility.yul\":846:959   */\n    tag_312:\n        /* \"#utility.yul\":860:866   */\n      dup4\n        /* \"#utility.yul\":857:858   */\n      dup2\n        /* \"#utility.yul\":854:867   */\n      lt\n        /* \"#utility.yul\":846:959   */\n      iszero\n      tag_314\n      jumpi\n        /* \"#utility.yul\":945:946   */\n      dup1\n        /* \"#utility.yul\":940:943   */\n      dup3\n        /* \"#utility.yul\":936:947   */\n      add\n        /* \"#utility.yul\":930:948   */\n      mload\n        /* \"#utility.yul\":926:927   */\n      dup2\n        /* \"#utility.yul\":921:924   */\n      dup5\n        /* \"#utility.yul\":917:928   */\n      add\n        /* \"#utility.yul\":910:949   */\n      mstore\n        /* \"#utility.yul\":882:884   */\n      0x20\n        /* \"#utility.yul\":879:880   */\n      dup2\n        /* \"#utility.yul\":875:885   */\n      add\n        /* \"#utility.yul\":870:885   */\n      swap1\n      pop\n        /* \"#utility.yul\":846:959   */\n      jump(tag_312)\n    tag_314:\n        /* \"#utility.yul\":993:994   */\n      0x00\n        /* \"#utility.yul\":984:990   */\n      dup5\n        /* \"#utility.yul\":979:982   */\n      dup5\n        /* \"#utility.yul\":975:991   */\n      add\n        /* \"#utility.yul\":968:995   */\n      mstore\n        /* \"#utility.yul\":817:1001   */\n      pop\n        /* \"#utility.yul\":755:1001   */\n      pop\n      pop\n      pop\n      jump\t// out\n        /* \"#utility.yul\":1007:1109   */\n    tag_245:\n        /* \"#utility.yul\":1048:1054   */\n      0x00\n        /* \"#utility.yul\":1099:1101   */\n      0x1f\n        /* \"#utility.yul\":1095:1102   */\n      not\n        /* \"#utility.yul\":1090:1092   */\n      0x1f\n        /* \"#utility.yul\":1083:1088   */\n      dup4\n        /* \"#utility.yul\":1079:1093   */\n      add\n        /* \"#utility.yul\":1075:1103   */\n      and\n        /* \"#utility.yul\":1065:1103   */\n      swap1\n      pop\n        /* \"#utility.yul\":1007:1109   */\n      swap2\n      swap1\n      pop\n      jump\t// out\n        /* \"#utility.yul\":1115:1472   */\n    tag_246:\n        /* \"#utility.yul\":1193:1196   */\n      0x00\n        /* \"#utility.yul\":1221:1260   */\n      tag_317\n        /* \"#utility.yul\":1254:1259   */\n      dup3\n        /* \"#utility.yul\":1221:1260   */\n      tag_242\n      jump\t// in\n    tag_317:\n        /* \"#utility.yul\":1276:1337   */\n      tag_318\n        /* \"#utility.yul\":1330:1336   */\n      dup2\n        /* \"#utility.yul\":1325:1328   */\n      dup6\n        /* \"#utility.yul\":1276:1337   */\n      tag_243\n      jump\t// in\n    tag_318:\n        /* \"#utility.yul\":1269:1337   */\n      swap4\n      pop\n        /* \"#utility.yul\":1346:1411   */\n      tag_319\n        /* \"#utility.yul\":1404:1410   */\n      dup2\n        /* \"#utility.yul\":1399:1402   */\n      dup6\n        /* \"#utility.yul\":1392:1396   */\n      0x20\n        /* \"#utility.yul\":1385:1390   */\n      dup7\n        /* \"#utility.yul\":1381:1397   */\n      add\n        /* \"#utility.yul\":1346:1411   */\n      tag_244\n      jump\t// in\n    tag_319:\n        /* \"#utility.yul\":1436:1465   */\n      tag_320\n        /* \"#utility.yul\":1458:1464   */\n      dup2\n        /* \"#utility.yul\":1436:1465   */\n      tag_245\n      jump\t// in\n    tag_320:\n        /* \"#utility.yul\":1431:1434   */\n      dup5\n        /* \"#utility.yul\":1427:1466   */\n      add\n        /* \"#utility.yul\":1420:1466   */\n      swap2\n      pop\n        /* \"#utility.yul\":1197:1472   */\n      pop\n        /* \"#utility.yul\":1115:1472   */\n      swap3\n      swap2\n      pop\n      pop\n      jump\t// out\n        /* \"#utility.yul\":1478:1674   */\n    tag_247:\n        /* \"#utility.yul\":1567:1577   */\n      0x00\n        /* \"#utility.yul\":1602:1668   */\n      tag_322\n        /* \"#utility.yul\":1664:1667   */\n      dup4\n        /* \"#utility.yul\":1656:1662   */\n      dup4\n        /* \"#utility.yul\":1602:1668   */\n      tag_246\n      jump\t// in\n    tag_322:\n        /* \"#utility.yul\":1588:1668   */\n      swap1\n      pop\n        /* \"#utility.yul\":1478:1674   */\n      swap3\n      swap2\n      pop\n      pop\n      jump\t// out\n        /* \"#utility.yul\":1680:1803   */\n    tag_248:\n        /* \"#utility.yul\":1760:1764   */\n      0x00\n        /* \"#utility.yul\":1792:1796   */\n      0x20\n        /* \"#utility.yul\":1787:1790   */\n      dup3\n        /* \"#utility.yul\":1783:1797   */\n      add\n        /* \"#utility.yul\":1775:1797   */\n      swap1\n      pop\n        /* \"#utility.yul\":1680:1803   */\n      swap2\n      swap1\n      pop\n      jump\t// out\n        /* \"#utility.yul\":1837:2828   */\n    tag_249:\n        /* \"#utility.yul\":1976:1979   */\n      0x00\n        /* \"#utility.yul\":2005:2069   */\n      tag_325\n        /* \"#utility.yul\":2063:2068   */\n      dup3\n        /* \"#utility.yul\":2005:2069   */\n      tag_239\n      jump\t// in\n    tag_325:\n        /* \"#utility.yul\":2085:2181   */\n      tag_326\n        /* \"#utility.yul\":2174:2180   */\n      dup2\n        /* \"#utility.yul\":2169:2172   */\n      dup6\n        /* \"#utility.yul\":2085:2181   */\n      tag_240\n      jump\t// in\n    tag_326:\n        /* \"#utility.yul\":2078:2181   */\n      swap4\n      pop\n        /* \"#utility.yul\":2207:2210   */\n      dup4\n        /* \"#utility.yul\":2252:2256   */\n      0x20\n        /* \"#utility.yul\":2244:2250   */\n      dup3\n        /* \"#utility.yul\":2240:2257   */\n      mul\n        /* \"#utility.yul\":2235:2238   */\n      dup6\n        /* \"#utility.yul\":2231:2258   */\n      add\n        /* \"#utility.yul\":2282:2348   */\n      tag_327\n        /* \"#utility.yul\":2342:2347   */\n      dup6\n        /* \"#utility.yul\":2282:2348   */\n      tag_241\n      jump\t// in\n    tag_327:\n        /* \"#utility.yul\":2371:2378   */\n      dup1\n        /* \"#utility.yul\":2402:2403   */\n      0x00\n        /* \"#utility.yul\":2387:2783   */\n    tag_328:\n        /* \"#utility.yul\":2412:2418   */\n      dup6\n        /* \"#utility.yul\":2409:2410   */\n      dup2\n        /* \"#utility.yul\":2406:2419   */\n      lt\n        /* \"#utility.yul\":2387:2783   */\n      iszero\n      tag_330\n      jumpi\n        /* \"#utility.yul\":2483:2492   */\n      dup5\n        /* \"#utility.yul\":2477:2481   */\n      dup5\n        /* \"#utility.yul\":2473:2493   */\n      sub\n        /* \"#utility.yul\":2468:2471   */\n      dup10\n        /* \"#utility.yul\":2461:2494   */\n      mstore\n        /* \"#utility.yul\":2534:2540   */\n      dup2\n        /* \"#utility.yul\":2528:2541   */\n      mload\n        /* \"#utility.yul\":2562:2646   */\n      tag_331\n        /* \"#utility.yul\":2641:2645   */\n      dup6\n        /* \"#utility.yul\":2626:2639   */\n      dup3\n        /* \"#utility.yul\":2562:2646   */\n      tag_247\n      jump\t// in\n    tag_331:\n        /* \"#utility.yul\":2554:2646   */\n      swap5\n      pop\n        /* \"#utility.yul\":2669:2739   */\n      tag_332\n        /* \"#utility.yul\":2732:2738   */\n      dup4\n        /* \"#utility.yul\":2669:2739   */\n      tag_248\n      jump\t// in\n    tag_332:\n        /* \"#utility.yul\":2659:2739   */\n      swap3\n      pop\n        /* \"#utility.yul\":2768:2772   */\n      0x20\n        /* \"#utility.yul\":2763:2766   */\n      dup11\n        /* \"#utility.yul\":2759:2773   */\n      add\n        /* \"#utility.yul\":2752:2773   */\n      swap10\n      pop\n        /* \"#utility.yul\":2447:2783   */\n      pop\n        /* \"#utility.yul\":2434:2435   */\n      0x01\n        /* \"#utility.yul\":2431:2432   */\n      dup2\n        /* \"#utility.yul\":2427:2436   */\n      add\n        /* \"#utility.yul\":2422:2436   */\n      swap1\n      pop\n        /* \"#utility.yul\":2387:2783   */\n      jump(tag_328)\n    tag_330:\n        /* \"#utility.yul\":2391:2405   */\n      pop\n        /* \"#utility.yul\":2799:2803   */\n      dup3\n        /* \"#utility.yul\":2792:2803   */\n      swap8\n      pop\n        /* \"#utility.yul\":2819:2822   */\n      dup8\n        /* \"#utility.yul\":2812:2822   */\n      swap6\n      pop\n        /* \"#utility.yul\":1981:2828   */\n      pop\n      pop\n      pop\n      pop\n      pop\n        /* \"#utility.yul\":1837:2828   */\n      swap3\n      swap2\n      pop\n      pop\n      jump\t// out\n        /* \"#utility.yul\":2834:3247   */\n    tag_25:\n        /* \"#utility.yul\":2997:3001   */\n      0x00\n        /* \"#utility.yul\":3035:3037   */\n      0x20\n        /* \"#utility.yul\":3024:3033   */\n      dup3\n        /* \"#utility.yul\":3020:3038   */\n      add\n        /* \"#utility.yul\":3012:3038   */\n      swap1\n      pop\n        /* \"#utility.yul\":3084:3093   */\n      dup2\n        /* \"#utility.yul\":3078:3082   */\n      dup2\n        /* \"#utility.yul\":3074:3094   */\n      sub\n        /* \"#utility.yul\":3070:3071   */\n      0x00\n        /* \"#utility.yul\":3059:3068   */\n      dup4\n        /* \"#utility.yul\":3055:3072   */\n      add\n        /* \"#utility.yul\":3048:3095   */\n      mstore\n        /* \"#utility.yul\":3112:3240   */\n      tag_334\n        /* \"#utility.yul\":3235:3239   */\n      dup2\n        /* \"#utility.yul\":3226:3232   */\n      dup5\n        /* \"#utility.yul\":3112:3240   */\n      tag_249\n      jump\t// in\n    tag_334:\n        /* \"#utility.yul\":3104:3240   */\n      swap1\n      pop\n        /* \"#utility.yul\":2834:3247   */\n      swap3\n      swap2\n      pop\n      pop\n      jump\t// out\n        /* \"#utility.yul\":3253:3330   */\n    tag_250:\n        /* \"#utility.yul\":3290:3297   */\n      0x00\n        /* \"#utility.yul\":3319:3324   */\n      dup2\n        /* \"#utility.yul\":3308:3324   */\n      swap1\n      pop\n        /* \"#utility.yul\":3253:3330   */\n      swap2\n      swap1\n      pop\n      jump\t// out\n        /* \"#utility.yul\":3336:3454   */\n    tag_251:\n        /* \"#utility.yul\":3423:3447   */\n      tag_337\n        /* \"#utility.yul\":3441:3446   */\n      dup2\n        /* \"#utility.yul\":3423:3447   */\n      tag_250\n      jump\t// in\n    tag_337:\n        /* \"#utility.yul\":3418:3421   */\n      dup3\n        /* \"#utility.yul\":3411:3448   */\n      mstore\n        /* \"#utility.yul\":3336:3454   */\n      pop\n      pop\n      jump\t// out\n        /* \"#utility.yul\":3460:3682   */\n    tag_29:\n        /* \"#utility.yul\":3553:3557   */\n      0x00\n        /* \"#utility.yul\":3591:3593   */\n      0x20\n        /* \"#utility.yul\":3580:3589   */\n      dup3\n        /* \"#utility.yul\":3576:3594   */\n      add\n        /* \"#utility.yul\":3568:3594   */\n      swap1\n      pop\n        /* \"#utility.yul\":3604:3675   */\n      tag_339\n        /* \"#utility.yul\":3672:3673   */\n      0x00\n        /* \"#utility.yul\":3661:3670   */\n      dup4\n        /* \"#utility.yul\":3657:3674   */\n      add\n        /* \"#utility.yul\":3648:3654   */\n      dup5\n        /* \"#utility.yul\":3604:3675   */\n      tag_251\n      jump\t// in\n    tag_339:\n        /* \"#utility.yul\":3460:3682   */\n      swap3\n      swap2\n      pop\n      pop\n      jump\t// out\n        /* \"#utility.yul\":3688:3823   */\n    tag_252:\n        /* \"#utility.yul\":3776:3782   */\n      0x00\n        /* \"#utility.yul\":3810:3815   */\n      dup2\n        /* \"#utility.yul\":3804:3816   */\n      mload\n        /* \"#utility.yul\":3794:3816   */\n      swap1\n      pop\n        /* \"#utility.yul\":3688:3823   */\n      swap2\n      swap1\n      pop\n      jump\t// out\n        /* \"#utility.yul\":3829:4034   */\n    tag_253:\n        /* \"#utility.yul\":3949:3960   */\n      0x00\n        /* \"#utility.yul\":3983:3989   */\n      dup3\n        /* \"#utility.yul\":3978:3981   */\n      dup3\n        /* \"#utility.yul\":3971:3990   */\n      mstore\n        /* \"#utility.yul\":4023:4027   */\n      0x20\n        /* \"#utility.yul\":4018:4021   */\n      dup3\n        /* \"#utility.yul\":4014:4028   */\n      add\n        /* \"#utility.yul\":3999:4028   */\n      swap1\n      pop\n        /* \"#utility.yul\":3829:4034   */\n      swap3\n      swap2\n      pop\n      pop\n      jump\t// out\n        /* \"#utility.yul\":4040:4193   */\n    tag_254:\n        /* \"#utility.yul\":4128:4132   */\n      0x00\n        /* \"#utility.yul\":4151:4154   */\n      dup2\n        /* \"#utility.yul\":4143:4154   */\n      swap1\n      pop\n        /* \"#utility.yul\":4181:4185   */\n      0x20\n        /* \"#utility.yul\":4176:4179   */\n      dup3\n        /* \"#utility.yul\":4172:4186   */\n      add\n        /* \"#utility.yul\":4164:4186   */\n      swap1\n      pop\n        /* \"#utility.yul\":4040:4193   */\n      swap2\n      swap1\n      pop\n      jump\t// out\n        /* \"#utility.yul\":4199:4325   */\n    tag_255:\n        /* \"#utility.yul\":4236:4243   */\n      0x00\n        /* \"#utility.yul\":4276:4318   */\n      0xffffffffffffffffffffffffffffffffffffffff\n        /* \"#utility.yul\":4269:4274   */\n      dup3\n        /* \"#utility.yul\":4265:4319   */\n      and\n        /* \"#utility.yul\":4254:4319   */\n      swap1\n      pop\n        /* \"#utility.yul\":4199:4325   */\n      swap2\n      swap1\n      pop\n      jump\t// out\n        /* \"#utility.yul\":4331:4427   */\n    tag_256:\n        /* \"#utility.yul\":4368:4375   */\n      0x00\n        /* \"#utility.yul\":4397:4421   */\n      tag_345\n        /* \"#utility.yul\":4415:4420   */\n      dup3\n        /* \"#utility.yul\":4397:4421   */\n      tag_255\n      jump\t// in\n    tag_345:\n        /* \"#utility.yul\":4386:4421   */\n      swap1\n      pop\n        /* \"#utility.yul\":4331:4427   */\n      swap2\n      swap1\n      pop\n      jump\t// out\n        /* \"#utility.yul\":4433:4541   */\n    tag_257:\n        /* \"#utility.yul\":4510:4534   */\n      tag_347\n        /* \"#utility.yul\":4528:4533   */\n      dup2\n        /* \"#utility.yul\":4510:4534   */\n      tag_256\n      jump\t// in\n    tag_347:\n        /* \"#utility.yul\":4505:4508   */\n      dup3\n        /* \"#utility.yul\":4498:4535   */\n      mstore\n        /* \"#utility.yul\":4433:4541   */\n      pop\n      pop\n      jump\t// out\n        /* \"#utility.yul\":4599:5698   */\n    tag_258:\n        /* \"#utility.yul\":4700:4703   */\n      0x00\n        /* \"#utility.yul\":4736:4740   */\n      0x80\n        /* \"#utility.yul\":4731:4734   */\n      dup4\n        /* \"#utility.yul\":4727:4741   */\n      add\n        /* \"#utility.yul\":4831:4835   */\n      0x00\n        /* \"#utility.yul\":4824:4829   */\n      dup4\n        /* \"#utility.yul\":4820:4836   */\n      add\n        /* \"#utility.yul\":4814:4837   */\n      mload\n        /* \"#utility.yul\":4850:4913   */\n      tag_349\n        /* \"#utility.yul\":4907:4911   */\n      0x00\n        /* \"#utility.yul\":4902:4905   */\n      dup7\n        /* \"#utility.yul\":4898:4912   */\n      add\n        /* \"#utility.yul\":4884:4896   */\n      dup3\n        /* \"#utility.yul\":4850:4913   */\n      tag_257\n      jump\t// in\n    tag_349:\n        /* \"#utility.yul\":4751:4923   */\n      pop\n        /* \"#utility.yul\":5008:5012   */\n      0x20\n        /* \"#utility.yul\":5001:5006   */\n      dup4\n        /* \"#utility.yul\":4997:5013   */\n      add\n        /* \"#utility.yul\":4991:5014   */\n      mload\n        /* \"#utility.yul\":5061:5064   */\n      dup5\n        /* \"#utility.yul\":5055:5059   */\n      dup3\n        /* \"#utility.yul\":5051:5065   */\n      sub\n        /* \"#utility.yul\":5044:5048   */\n      0x20\n        /* \"#utility.yul\":5039:5042   */\n      dup7\n        /* \"#utility.yul\":5035:5049   */\n      add\n        /* \"#utility.yul\":5028:5066   */\n      mstore\n        /* \"#utility.yul\":5087:5160   */\n      tag_350\n        /* \"#utility.yul\":5155:5159   */\n      dup3\n        /* \"#utility.yul\":5141:5153   */\n      dup3\n        /* \"#utility.yul\":5087:5160   */\n      tag_246\n      jump\t// in\n    tag_350:\n        /* \"#utility.yul\":5079:5160   */\n      swap2\n      pop\n        /* \"#utility.yul\":4933:5171   */\n      pop\n        /* \"#utility.yul\":5258:5262   */\n      0x40\n        /* \"#utility.yul\":5251:5256   */\n      dup4\n        /* \"#utility.yul\":5247:5263   */\n      add\n        /* \"#utility.yul\":5241:5264   */\n      mload\n        /* \"#utility.yul\":5311:5314   */\n      dup5\n        /* \"#utility.yul\":5305:5309   */\n      dup3\n        /* \"#utility.yul\":5301:5315   */\n      sub\n        /* \"#utility.yul\":5294:5298   */\n      0x40\n        /* \"#utility.yul\":5289:5292   */\n      dup7\n        /* \"#utility.yul\":5285:5299   */\n      add\n        /* \"#utility.yul\":5278:5316   */\n      mstore\n        /* \"#utility.yul\":5337:5410   */\n      tag_351\n        /* \"#utility.yul\":5405:5409   */\n      dup3\n        /* \"#utility.yul\":5391:5403   */\n      dup3\n        /* \"#utility.yul\":5337:5410   */\n      tag_246\n      jump\t// in\n    tag_351:\n        /* \"#utility.yul\":5329:5410   */\n      swap2\n      pop\n        /* \"#utility.yul\":5181:5421   */\n      pop\n        /* \"#utility.yul\":5508:5512   */\n      0x60\n        /* \"#utility.yul\":5501:5506   */\n      dup4\n        /* \"#utility.yul\":5497:5513   */\n      add\n        /* \"#utility.yul\":5491:5514   */\n      mload\n        /* \"#utility.yul\":5561:5564   */\n      dup5\n        /* \"#utility.yul\":5555:5559   */\n      dup3\n        /* \"#utility.yul\":5551:5565   */\n      sub\n        /* \"#utility.yul\":5544:5548   */\n      0x60\n        /* \"#utility.yul\":5539:5542   */\n      dup7\n        /* \"#utility.yul\":5535:5549   */\n      add\n        /* \"#utility.yul\":5528:5566   */\n      mstore\n        /* \"#utility.yul\":5587:5660   */\n      tag_352\n        /* \"#utility.yul\":5655:5659   */\n      dup3\n        /* \"#utility.yul\":5641:5653   */\n      dup3\n        /* \"#utility.yul\":5587:5660   */\n      tag_246\n      jump\t// in\n    tag_352:\n        /* \"#utility.yul\":5579:5660   */\n      swap2\n      pop\n        /* \"#utility.yul\":5431:5671   */\n      pop\n        /* \"#utility.yul\":5688:5692   */\n      dup1\n        /* \"#utility.yul\":5681:5692   */\n      swap2\n      pop\n        /* \"#utility.yul\":4705:5698   */\n      pop\n        /* \"#utility.yul\":4599:5698   */\n      swap3\n      swap2\n      pop\n      pop\n      jump\t// out\n        /* \"#utility.yul\":5704:5944   */\n    tag_259:\n        /* \"#utility.yul\":5815:5825   */\n      0x00\n        /* \"#utility.yul\":5850:5938   */\n      tag_354\n        /* \"#utility.yul\":5934:5937   */\n      dup4\n        /* \"#utility.yul\":5926:5932   */\n      dup4\n        /* \"#utility.yul\":5850:5938   */\n      tag_258\n      jump\t// in\n    tag_354:\n        /* \"#utility.yul\":5836:5938   */\n      swap1\n      pop\n        /* \"#utility.yul\":5704:5944   */\n      swap3\n      swap2\n      pop\n      pop\n      jump\t// out\n        /* \"#utility.yul\":5950:6084   */\n    tag_260:\n        /* \"#utility.yul\":6041:6045   */\n      0x00\n        /* \"#utility.yul\":6073:6077   */\n      0x20\n        /* \"#utility.yul\":6068:6071   */\n      dup3\n        /* \"#utility.yul\":6064:6078   */\n      add\n        /* \"#utility.yul\":6056:6078   */\n      swap1\n      pop\n        /* \"#utility.yul\":5950:6084   */\n      swap2\n      swap1\n      pop\n      jump\t// out\n        /* \"#utility.yul\":6146:7225   */\n    tag_261:\n        /* \"#utility.yul\":6307:6310   */\n      0x00\n        /* \"#utility.yul\":6336:6411   */\n      tag_357\n        /* \"#utility.yul\":6405:6410   */\n      dup3\n        /* \"#utility.yul\":6336:6411   */\n      tag_252\n      jump\t// in\n    tag_357:\n        /* \"#utility.yul\":6427:6534   */\n      tag_358\n        /* \"#utility.yul\":6527:6533   */\n      dup2\n        /* \"#utility.yul\":6522:6525   */\n      dup6\n        /* \"#utility.yul\":6427:6534   */\n      tag_253\n      jump\t// in\n    tag_358:\n        /* \"#utility.yul\":6420:6534   */\n      swap4\n      pop\n        /* \"#utility.yul\":6560:6563   */\n      dup4\n        /* \"#utility.yul\":6605:6609   */\n      0x20\n        /* \"#utility.yul\":6597:6603   */\n      dup3\n        /* \"#utility.yul\":6593:6610   */\n      mul\n        /* \"#utility.yul\":6588:6591   */\n      dup6\n        /* \"#utility.yul\":6584:6611   */\n      add\n        /* \"#utility.yul\":6635:6712   */\n      tag_359\n        /* \"#utility.yul\":6706:6711   */\n      dup6\n        /* \"#utility.yul\":6635:6712   */\n      tag_254\n      jump\t// in\n    tag_359:\n        /* \"#utility.yul\":6735:6742   */\n      dup1\n        /* \"#utility.yul\":6766:6767   */\n      0x00\n        /* \"#utility.yul\":6751:7180   */\n    tag_360:\n        /* \"#utility.yul\":6776:6782   */\n      dup6\n        /* \"#utility.yul\":6773:6774   */\n      dup2\n        /* \"#utility.yul\":6770:6783   */\n      lt\n        /* \"#utility.yul\":6751:7180   */\n      iszero\n      tag_362\n      jumpi\n        /* \"#utility.yul\":6847:6856   */\n      dup5\n        /* \"#utility.yul\":6841:6845   */\n      dup5\n        /* \"#utility.yul\":6837:6857   */\n      sub\n        /* \"#utility.yul\":6832:6835   */\n      dup10\n        /* \"#utility.yul\":6825:6858   */\n      mstore\n        /* \"#utility.yul\":6898:6904   */\n      dup2\n        /* \"#utility.yul\":6892:6905   */\n      mload\n        /* \"#utility.yul\":6926:7032   */\n      tag_363\n        /* \"#utility.yul\":7027:7031   */\n      dup6\n        /* \"#utility.yul\":7012:7025   */\n      dup3\n        /* \"#utility.yul\":6926:7032   */\n      tag_259\n      jump\t// in\n    tag_363:\n        /* \"#utility.yul\":6918:7032   */\n      swap5\n      pop\n        /* \"#utility.yul\":7055:7136   */\n      tag_364\n        /* \"#utility.yul\":7129:7135   */\n      dup4\n        /* \"#utility.yul\":7055:7136   */\n      tag_260\n      jump\t// in\n    tag_364:\n        /* \"#utility.yul\":7045:7136   */\n      swap3\n      pop\n        /* \"#utility.yul\":7165:7169   */\n      0x20\n        /* \"#utility.yul\":7160:7163   */\n      dup11\n        /* \"#utility.yul\":7156:7170   */\n      add\n        /* \"#utility.yul\":7149:7170   */\n      swap10\n      pop\n        /* \"#utility.yul\":6811:7180   */\n      pop\n        /* \"#utility.yul\":6798:6799   */\n      0x01\n        /* \"#utility.yul\":6795:6796   */\n      dup2\n        /* \"#utility.yul\":6791:6800   */\n      add\n        /* \"#utility.yul\":6786:6800   */\n      swap1\n      pop\n        /* \"#utility.yul\":6751:7180   */\n      jump(tag_360)\n    tag_362:\n        /* \"#utility.yul\":6755:6769   */\n      pop\n        /* \"#utility.yul\":7196:7200   */\n      dup3\n        /* \"#utility.yul\":7189:7200   */\n      swap8\n      pop\n        /* \"#utility.yul\":7216:7219   */\n      dup8\n        /* \"#utility.yul\":7209:7219   */\n      swap6\n      pop\n        /* \"#utility.yul\":6312:7225   */\n      pop\n      pop\n      pop\n      pop\n      pop\n        /* \"#utility.yul\":6146:7225   */\n      swap3\n      swap2\n      pop\n      pop\n      jump\t// out\n        /* \"#utility.yul\":7231:7688   */\n    tag_33:\n        /* \"#utility.yul\":7416:7420   */\n      0x00\n        /* \"#utility.yul\":7454:7456   */\n      0x20\n        /* \"#utility.yul\":7443:7452   */\n      dup3\n        /* \"#utility.yul\":7439:7457   */\n      add\n        /* \"#utility.yul\":7431:7457   */\n      swap1\n      pop\n        /* \"#utility.yul\":7503:7512   */\n      dup2\n        /* \"#utility.yul\":7497:7501   */\n      dup2\n        /* \"#utility.yul\":7493:7513   */\n      sub\n        /* \"#utility.yul\":7489:7490   */\n      0x00\n        /* \"#utility.yul\":7478:7487   */\n      dup4\n        /* \"#utility.yul\":7474:7491   */\n      add\n        /* \"#utility.yul\":7467:7514   */\n      mstore\n        /* \"#utility.yul\":7531:7681   */\n      tag_366\n        /* \"#utility.yul\":7676:7680   */\n      dup2\n        /* \"#utility.yul\":7667:7673   */\n      dup5\n        /* \"#utility.yul\":7531:7681   */\n      tag_261\n      jump\t// in\n    tag_366:\n        /* \"#utility.yul\":7523:7681   */\n      swap1\n      pop\n        /* \"#utility.yul\":7231:7688   */\n      swap3\n      swap2\n      pop\n      pop\n      jump\t// out\n        /* \"#utility.yul\":7694:7769   */\n    tag_262:\n        /* \"#utility.yul\":7727:7733   */\n      0x00\n        /* \"#utility.yul\":7760:7762   */\n      0x40\n        /* \"#utility.yul\":7754:7763   */\n      mload\n        /* \"#utility.yul\":7744:7763   */\n      swap1\n      pop\n        /* \"#utility.yul\":7694:7769   */\n      swap1\n      jump\t// out\n        /* \"#utility.yul\":7775:7892   */\n    tag_263:\n        /* \"#utility.yul\":7884:7885   */\n      0x00\n        /* \"#utility.yul\":7881:7882   */\n      dup1\n        /* \"#utility.yul\":7874:7886   */\n      revert\n        /* \"#utility.yul\":7898:8015   */\n    tag_264:\n        /* \"#utility.yul\":8007:8008   */\n      0x00\n        /* \"#utility.yul\":8004:8005   */\n      dup1\n        /* \"#utility.yul\":7997:8009   */\n      revert\n        /* \"#utility.yul\":8021:8138   */\n    tag_265:\n        /* \"#utility.yul\":8130:8131   */\n      0x00\n        /* \"#utility.yul\":8127:8128   */\n      dup1\n        /* \"#utility.yul\":8120:8132   */\n      revert\n        /* \"#utility.yul\":8144:8261   */\n    tag_266:\n        /* \"#utility.yul\":8253:8254   */\n      0x00\n        /* \"#utility.yul\":8250:8251   */\n      dup1\n        /* \"#utility.yul\":8243:8255   */\n      revert\n        /* \"#utility.yul\":8267:8447   */\n    tag_267:\n        /* \"#utility.yul\":8315:8392   */\n      0x4e487b7100000000000000000000000000000000000000000000000000000000\n        /* \"#utility.yul\":8312:8313   */\n      0x00\n        /* \"#utility.yul\":8305:8393   */\n      mstore\n        /* \"#utility.yul\":8412:8416   */\n      0x41\n        /* \"#utility.yul\":8409:8410   */\n      0x04\n        /* \"#utility.yul\":8402:8417   */\n      mstore\n        /* \"#utility.yul\":8436:8440   */\n      0x24\n        /* \"#utility.yul\":8433:8434   */\n      0x00\n        /* \"#utility.yul\":8426:8441   */\n      revert\n        /* \"#utility.yul\":8453:8734   */\n    tag_268:\n        /* \"#utility.yul\":8536:8563   */\n      tag_374\n        /* \"#utility.yul\":8558:8562   */\n      dup3\n        /* \"#utility.yul\":8536:8563   */\n      tag_245\n      jump\t// in\n    tag_374:\n        /* \"#utility.yul\":8528:8534   */\n      dup2\n        /* \"#utility.yul\":8524:8564   */\n      add\n        /* \"#utility.yul\":8666:8672   */\n      dup2\n        /* \"#utility.yul\":8654:8664   */\n      dup2\n        /* \"#utility.yul\":8651:8673   */\n      lt\n        /* \"#utility.yul\":8630:8648   */\n      0xffffffffffffffff\n        /* \"#utility.yul\":8618:8628   */\n      dup3\n        /* \"#utility.yul\":8615:8649   */\n      gt\n        /* \"#utility.yul\":8612:8674   */\n      or\n        /* \"#utility.yul\":8609:8697   */\n      iszero\n      tag_375\n      jumpi\n        /* \"#utility.yul\":8677:8695   */\n      tag_376\n      tag_267\n      jump\t// in\n    tag_376:\n        /* \"#utility.yul\":8609:8697   */\n    tag_375:\n        /* \"#utility.yul\":8717:8727   */\n      dup1\n        /* \"#utility.yul\":8713:8715   */\n      0x40\n        /* \"#utility.yul\":8706:8728   */\n      mstore\n        /* \"#utility.yul\":8496:8734   */\n      pop\n        /* \"#utility.yul\":8453:8734   */\n      pop\n      pop\n      jump\t// out\n        /* \"#utility.yul\":8740:8869   */\n    tag_269:\n        /* \"#utility.yul\":8774:8780   */\n      0x00\n        /* \"#utility.yul\":8801:8821   */\n      tag_378\n      tag_262\n      jump\t// in\n    tag_378:\n        /* \"#utility.yul\":8791:8821   */\n      swap1\n      pop\n        /* \"#utility.yul\":8830:8863   */\n      tag_379\n        /* \"#utility.yul\":8858:8862   */\n      dup3\n        /* \"#utility.yul\":8850:8856   */\n      dup3\n        /* \"#utility.yul\":8830:8863   */\n      tag_268\n      jump\t// in\n    tag_379:\n        /* \"#utility.yul\":8740:8869   */\n      swap2\n      swap1\n      pop\n      jump\t// out\n        /* \"#utility.yul\":8875:9183   */\n    tag_270:\n        /* \"#utility.yul\":8937:8941   */\n      0x00\n        /* \"#utility.yul\":9027:9045   */\n      0xffffffffffffffff\n        /* \"#utility.yul\":9019:9025   */\n      dup3\n        /* \"#utility.yul\":9016:9046   */\n      gt\n        /* \"#utility.yul\":9013:9069   */\n      iszero\n      tag_381\n      jumpi\n        /* \"#utility.yul\":9049:9067   */\n      tag_382\n      tag_267\n      jump\t// in\n    tag_382:\n        /* \"#utility.yul\":9013:9069   */\n    tag_381:\n        /* \"#utility.yul\":9087:9116   */\n      tag_383\n        /* \"#utility.yul\":9109:9115   */\n      dup3\n        /* \"#utility.yul\":9087:9116   */\n      tag_245\n      jump\t// in\n    tag_383:\n        /* \"#utility.yul\":9079:9116   */\n      swap1\n      pop\n        /* \"#utility.yul\":9171:9175   */\n      0x20\n        /* \"#utility.yul\":9165:9169   */\n      dup2\n        /* \"#utility.yul\":9161:9176   */\n      add\n        /* \"#utility.yul\":9153:9176   */\n      swap1\n      pop\n        /* \"#utility.yul\":8875:9183   */\n      swap2\n      swap1\n      pop\n      jump\t// out\n        /* \"#utility.yul\":9189:9335   */\n    tag_271:\n        /* \"#utility.yul\":9286:9292   */\n      dup3\n        /* \"#utility.yul\":9281:9284   */\n      dup2\n        /* \"#utility.yul\":9276:9279   */\n      dup4\n        /* \"#utility.yul\":9263:9293   */\n      calldatacopy\n        /* \"#utility.yul\":9327:9328   */\n      0x00\n        /* \"#utility.yul\":9318:9324   */\n      dup4\n        /* \"#utility.yul\":9313:9316   */\n      dup4\n        /* \"#utility.yul\":9309:9325   */\n      add\n        /* \"#utility.yul\":9302:9329   */\n      mstore\n        /* \"#utility.yul\":9189:9335   */\n      pop\n      pop\n      pop\n      jump\t// out\n        /* \"#utility.yul\":9341:9766   */\n    tag_272:\n        /* \"#utility.yul\":9419:9424   */\n      0x00\n        /* \"#utility.yul\":9444:9510   */\n      tag_386\n        /* \"#utility.yul\":9460:9509   */\n      tag_387\n        /* \"#utility.yul\":9502:9508   */\n      dup5\n        /* \"#utility.yul\":9460:9509   */\n      tag_270\n      jump\t// in\n    tag_387:\n        /* \"#utility.yul\":9444:9510   */\n      tag_269\n      jump\t// in\n    tag_386:\n        /* \"#utility.yul\":9435:9510   */\n      swap1\n      pop\n        /* \"#utility.yul\":9533:9539   */\n      dup3\n        /* \"#utility.yul\":9526:9531   */\n      dup2\n        /* \"#utility.yul\":9519:9540   */\n      mstore\n        /* \"#utility.yul\":9571:9575   */\n      0x20\n        /* \"#utility.yul\":9564:9569   */\n      dup2\n        /* \"#utility.yul\":9560:9576   */\n      add\n        /* \"#utility.yul\":9609:9612   */\n      dup5\n        /* \"#utility.yul\":9600:9606   */\n      dup5\n        /* \"#utility.yul\":9595:9598   */\n      dup5\n        /* \"#utility.yul\":9591:9607   */\n      add\n        /* \"#utility.yul\":9588:9613   */\n      gt\n        /* \"#utility.yul\":9585:9697   */\n      iszero\n      tag_388\n      jumpi\n        /* \"#utility.yul\":9616:9695   */\n      tag_389\n      tag_266\n      jump\t// in\n    tag_389:\n        /* \"#utility.yul\":9585:9697   */\n    tag_388:\n        /* \"#utility.yul\":9706:9760   */\n      tag_390\n        /* \"#utility.yul\":9753:9759   */\n      dup5\n        /* \"#utility.yul\":9748:9751   */\n      dup3\n        /* \"#utility.yul\":9743:9746   */\n      dup6\n        /* \"#utility.yul\":9706:9760   */\n      tag_271\n      jump\t// in\n    tag_390:\n        /* \"#utility.yul\":9425:9766   */\n      pop\n        /* \"#utility.yul\":9341:9766   */\n      swap4\n      swap3\n      pop\n      pop\n      pop\n      jump\t// out\n        /* \"#utility.yul\":9786:10126   */\n    tag_273:\n        /* \"#utility.yul\":9842:9847   */\n      0x00\n        /* \"#utility.yul\":9891:9894   */\n      dup3\n        /* \"#utility.yul\":9884:9888   */\n      0x1f\n        /* \"#utility.yul\":9876:9882   */\n      dup4\n        /* \"#utility.yul\":9872:9889   */\n      add\n        /* \"#utility.yul\":9868:9895   */\n      slt\n        /* \"#utility.yul\":9858:9980   */\n      tag_392\n      jumpi\n        /* \"#utility.yul\":9899:9978   */\n      tag_393\n      tag_265\n      jump\t// in\n    tag_393:\n        /* \"#utility.yul\":9858:9980   */\n    tag_392:\n        /* \"#utility.yul\":10016:10022   */\n      dup2\n        /* \"#utility.yul\":10003:10023   */\n      calldataload\n        /* \"#utility.yul\":10041:10120   */\n      tag_394\n        /* \"#utility.yul\":10116:10119   */\n      dup5\n        /* \"#utility.yul\":10108:10114   */\n      dup3\n        /* \"#utility.yul\":10101:10105   */\n      0x20\n        /* \"#utility.yul\":10093:10099   */\n      dup7\n        /* \"#utility.yul\":10089:10106   */\n      add\n        /* \"#utility.yul\":10041:10120   */\n      tag_272\n      jump\t// in\n    tag_394:\n        /* \"#utility.yul\":10032:10120   */\n      swap2\n      pop\n        /* \"#utility.yul\":9848:10126   */\n      pop\n        /* \"#utility.yul\":9786:10126   */\n      swap3\n      swap2\n      pop\n      pop\n      jump\t// out\n        /* \"#utility.yul\":10132:10966   */\n    tag_39:\n        /* \"#utility.yul\":10220:10226   */\n      0x00\n        /* \"#utility.yul\":10228:10234   */\n      dup1\n        /* \"#utility.yul\":10277:10279   */\n      0x40\n        /* \"#utility.yul\":10265:10274   */\n      dup4\n        /* \"#utility.yul\":10256:10263   */\n      dup6\n        /* \"#utility.yul\":10252:10275   */\n      sub\n        /* \"#utility.yul\":10248:10280   */\n      slt\n        /* \"#utility.yul\":10245:10364   */\n      iszero\n      tag_396\n      jumpi\n        /* \"#utility.yul\":10283:10362   */\n      tag_397\n      tag_263\n      jump\t// in\n    tag_397:\n        /* \"#utility.yul\":10245:10364   */\n    tag_396:\n        /* \"#utility.yul\":10431:10432   */\n      0x00\n        /* \"#utility.yul\":10420:10429   */\n      dup4\n        /* \"#utility.yul\":10416:10433   */\n      add\n        /* \"#utility.yul\":10403:10434   */\n      calldataload\n        /* \"#utility.yul\":10461:10479   */\n      0xffffffffffffffff\n        /* \"#utility.yul\":10453:10459   */\n      dup2\n        /* \"#utility.yul\":10450:10480   */\n      gt\n        /* \"#utility.yul\":10447:10564   */\n      iszero\n      tag_398\n      jumpi\n        /* \"#utility.yul\":10483:10562   */\n      tag_399\n      tag_264\n      jump\t// in\n    tag_399:\n        /* \"#utility.yul\":10447:10564   */\n    tag_398:\n        /* \"#utility.yul\":10588:10651   */\n      tag_400\n        /* \"#utility.yul\":10643:10650   */\n      dup6\n        /* \"#utility.yul\":10634:10640   */\n      dup3\n        /* \"#utility.yul\":10623:10632   */\n      dup7\n        /* \"#utility.yul\":10619:10641   */\n      add\n        /* \"#utility.yul\":10588:10651   */\n      tag_273\n      jump\t// in\n    tag_400:\n        /* \"#utility.yul\":10578:10651   */\n      swap3\n      pop\n        /* \"#utility.yul\":10374:10661   */\n      pop\n        /* \"#utility.yul\":10728:10730   */\n      0x20\n        /* \"#utility.yul\":10717:10726   */\n      dup4\n        /* \"#utility.yul\":10713:10731   */\n      add\n        /* \"#utility.yul\":10700:10732   */\n      calldataload\n        /* \"#utility.yul\":10759:10777   */\n      0xffffffffffffffff\n        /* \"#utility.yul\":10751:10757   */\n      dup2\n        /* \"#utility.yul\":10748:10778   */\n      gt\n        /* \"#utility.yul\":10745:10862   */\n      iszero\n      tag_401\n      jumpi\n        /* \"#utility.yul\":10781:10860   */\n      tag_402\n      tag_264\n      jump\t// in\n    tag_402:\n        /* \"#utility.yul\":10745:10862   */\n    tag_401:\n        /* \"#utility.yul\":10886:10949   */\n      tag_403\n        /* \"#utility.yul\":10941:10948   */\n      dup6\n        /* \"#utility.yul\":10932:10938   */\n      dup3\n        /* \"#utility.yul\":10921:10930   */\n      dup7\n        /* \"#utility.yul\":10917:10939   */\n      add\n        /* \"#utility.yul\":10886:10949   */\n      tag_273\n      jump\t// in\n    tag_403:\n        /* \"#utility.yul\":10876:10949   */\n      swap2\n      pop\n        /* \"#utility.yul\":10671:10959   */\n      pop\n        /* \"#utility.yul\":10132:10966   */\n      swap3\n      pop\n      swap3\n      swap1\n      pop\n      jump\t// out\n        /* \"#utility.yul\":10972:11141   */\n    tag_274:\n        /* \"#utility.yul\":11056:11067   */\n      0x00\n        /* \"#utility.yul\":11090:11096   */\n      dup3\n        /* \"#utility.yul\":11085:11088   */\n      dup3\n        /* \"#utility.yul\":11078:11097   */\n      mstore\n        /* \"#utility.yul\":11130:11134   */\n      0x20\n        /* \"#utility.yul\":11125:11128   */\n      dup3\n        /* \"#utility.yul\":11121:11135   */\n      add\n        /* \"#utility.yul\":11106:11135   */\n      swap1\n      pop\n        /* \"#utility.yul\":10972:11141   */\n      swap3\n      swap2\n      pop\n      pop\n      jump\t// out\n        /* \"#utility.yul\":11147:11524   */\n    tag_275:\n        /* \"#utility.yul\":11235:11238   */\n      0x00\n        /* \"#utility.yul\":11263:11302   */\n      tag_406\n        /* \"#utility.yul\":11296:11301   */\n      dup3\n        /* \"#utility.yul\":11263:11302   */\n      tag_242\n      jump\t// in\n    tag_406:\n        /* \"#utility.yul\":11318:11389   */\n      tag_407\n        /* \"#utility.yul\":11382:11388   */\n      dup2\n        /* \"#utility.yul\":11377:11380   */\n      dup6\n        /* \"#utility.yul\":11318:11389   */\n      tag_274\n      jump\t// in\n    tag_407:\n        /* \"#utility.yul\":11311:11389   */\n      swap4\n      pop\n        /* \"#utility.yul\":11398:11463   */\n      tag_408\n        /* \"#utility.yul\":11456:11462   */\n      dup2\n        /* \"#utility.yul\":11451:11454   */\n      dup6\n        /* \"#utility.yul\":11444:11448   */\n      0x20\n        /* \"#utility.yul\":11437:11442   */\n      dup7\n        /* \"#utility.yul\":11433:11449   */\n      add\n        /* \"#utility.yul\":11398:11463   */\n      tag_244\n      jump\t// in\n    tag_408:\n        /* \"#utility.yul\":11488:11517   */\n      tag_409\n        /* \"#utility.yul\":11510:11516   */\n      dup2\n        /* \"#utility.yul\":11488:11517   */\n      tag_245\n      jump\t// in\n    tag_409:\n        /* \"#utility.yul\":11483:11486   */\n      dup5\n        /* \"#utility.yul\":11479:11518   */\n      add\n        /* \"#utility.yul\":11472:11518   */\n      swap2\n      pop\n        /* \"#utility.yul\":11239:11524   */\n      pop\n        /* \"#utility.yul\":11147:11524   */\n      swap3\n      swap2\n      pop\n      pop\n      jump\t// out\n        /* \"#utility.yul\":11530:11843   */\n    tag_44:\n        /* \"#utility.yul\":11643:11647   */\n      0x00\n        /* \"#utility.yul\":11681:11683   */\n      0x20\n        /* \"#utility.yul\":11670:11679   */\n      dup3\n        /* \"#utility.yul\":11666:11684   */\n      add\n        /* \"#utility.yul\":11658:11684   */\n      swap1\n      pop\n        /* \"#utility.yul\":11730:11739   */\n      dup2\n        /* \"#utility.yul\":11724:11728   */\n      dup2\n        /* \"#utility.yul\":11720:11740   */\n      sub\n        /* \"#utility.yul\":11716:11717   */\n      0x00\n        /* \"#utility.yul\":11705:11714   */\n      dup4\n        /* \"#utility.yul\":11701:11718   */\n      add\n        /* \"#utility.yul\":11694:11741   */\n      mstore\n        /* \"#utility.yul\":11758:11836   */\n      tag_411\n        /* \"#utility.yul\":11831:11835   */\n      dup2\n        /* \"#utility.yul\":11822:11828   */\n      dup5\n        /* \"#utility.yul\":11758:11836   */\n      tag_275\n      jump\t// in\n    tag_411:\n        /* \"#utility.yul\":11750:11836   */\n      swap1\n      pop\n        /* \"#utility.yul\":11530:11843   */\n      swap3\n      swap2\n      pop\n      pop\n      jump\t// out\n        /* \"#utility.yul\":11849:11971   */\n    tag_276:\n        /* \"#utility.yul\":11922:11946   */\n      tag_413\n        /* \"#utility.yul\":11940:11945   */\n      dup2\n        /* \"#utility.yul\":11922:11946   */\n      tag_256\n      jump\t// in\n    tag_413:\n        /* \"#utility.yul\":11915:11920   */\n      dup2\n        /* \"#utility.yul\":11912:11947   */\n      eq\n        /* \"#utility.yul\":11902:11965   */\n      tag_414\n      jumpi\n        /* \"#utility.yul\":11961:11962   */\n      0x00\n        /* \"#utility.yul\":11958:11959   */\n      dup1\n        /* \"#utility.yul\":11951:11963   */\n      revert\n        /* \"#utility.yul\":11902:11965   */\n    tag_414:\n        /* \"#utility.yul\":11849:11971   */\n      pop\n      jump\t// out\n        /* \"#utility.yul\":11977:12116   */\n    tag_277:\n        /* \"#utility.yul\":12023:12028   */\n      0x00\n        /* \"#utility.yul\":12061:12067   */\n      dup2\n        /* \"#utility.yul\":12048:12068   */\n      calldataload\n        /* \"#utility.yul\":12039:12068   */\n      swap1\n      pop\n        /* \"#utility.yul\":12077:12110   */\n      tag_416\n        /* \"#utility.yul\":12104:12109   */\n      dup2\n        /* \"#utility.yul\":12077:12110   */\n      tag_276\n      jump\t// in\n    tag_416:\n        /* \"#utility.yul\":11977:12116   */\n      swap3\n      swap2\n      pop\n      pop\n      jump\t// out\n        /* \"#utility.yul\":12122:12451   */\n    tag_52:\n        /* \"#utility.yul\":12181:12187   */\n      0x00\n        /* \"#utility.yul\":12230:12232   */\n      0x20\n        /* \"#utility.yul\":12218:12227   */\n      dup3\n        /* \"#utility.yul\":12209:12216   */\n      dup5\n        /* \"#utility.yul\":12205:12228   */\n      sub\n        /* \"#utility.yul\":12201:12233   */\n      slt\n        /* \"#utility.yul\":12198:12317   */\n      iszero\n      tag_418\n      jumpi\n        /* \"#utility.yul\":12236:12315   */\n      tag_419\n      tag_263\n      jump\t// in\n    tag_419:\n        /* \"#utility.yul\":12198:12317   */\n    tag_418:\n        /* \"#utility.yul\":12356:12357   */\n      0x00\n        /* \"#utility.yul\":12381:12434   */\n      tag_420\n        /* \"#utility.yul\":12426:12433   */\n      dup5\n        /* \"#utility.yul\":12417:12423   */\n      dup3\n        /* \"#utility.yul\":12406:12415   */\n      dup6\n        /* \"#utility.yul\":12402:12424   */\n      add\n        /* \"#utility.yul\":12381:12434   */\n      tag_277\n      jump\t// in\n    tag_420:\n        /* \"#utility.yul\":12371:12434   */\n      swap2\n      pop\n        /* \"#utility.yul\":12327:12444   */\n      pop\n        /* \"#utility.yul\":12122:12451   */\n      swap3\n      swap2\n      pop\n      pop\n      jump\t// out\n        /* \"#utility.yul\":12457:13616   */\n    tag_56:\n        /* \"#utility.yul\":12564:12570   */\n      0x00\n        /* \"#utility.yul\":12572:12578   */\n      dup1\n        /* \"#utility.yul\":12580:12586   */\n      0x00\n        /* \"#utility.yul\":12629:12631   */\n      0x60\n        /* \"#utility.yul\":12617:12626   */\n      dup5\n        /* \"#utility.yul\":12608:12615   */\n      dup7\n        /* \"#utility.yul\":12604:12627   */\n      sub\n        /* \"#utility.yul\":12600:12632   */\n      slt\n        /* \"#utility.yul\":12597:12716   */\n      iszero\n      tag_422\n      jumpi\n        /* \"#utility.yul\":12635:12714   */\n      tag_423\n      tag_263\n      jump\t// in\n    tag_423:\n        /* \"#utility.yul\":12597:12716   */\n    tag_422:\n        /* \"#utility.yul\":12783:12784   */\n      0x00\n        /* \"#utility.yul\":12772:12781   */\n      dup5\n        /* \"#utility.yul\":12768:12785   */\n      add\n        /* \"#utility.yul\":12755:12786   */\n      calldataload\n        /* \"#utility.yul\":12813:12831   */\n      0xffffffffffffffff\n        /* \"#utility.yul\":12805:12811   */\n      dup2\n        /* \"#utility.yul\":12802:12832   */\n      gt\n        /* \"#utility.yul\":12799:12916   */\n      iszero\n      tag_424\n      jumpi\n        /* \"#utility.yul\":12835:12914   */\n      tag_425\n      tag_264\n      jump\t// in\n    tag_425:\n        /* \"#utility.yul\":12799:12916   */\n    tag_424:\n        /* \"#utility.yul\":12940:13003   */\n      tag_426\n        /* \"#utility.yul\":12995:13002   */\n      dup7\n        /* \"#utility.yul\":12986:12992   */\n      dup3\n        /* \"#utility.yul\":12975:12984   */\n      dup8\n        /* \"#utility.yul\":12971:12993   */\n      add\n        /* \"#utility.yul\":12940:13003   */\n      tag_273\n      jump\t// in\n    tag_426:\n        /* \"#utility.yul\":12930:13003   */\n      swap4\n      pop\n        /* \"#utility.yul\":12726:13013   */\n      pop\n        /* \"#utility.yul\":13080:13082   */\n      0x20\n        /* \"#utility.yul\":13069:13078   */\n      dup5\n        /* \"#utility.yul\":13065:13083   */\n      add\n        /* \"#utility.yul\":13052:13084   */\n      calldataload\n        /* \"#utility.yul\":13111:13129   */\n      0xffffffffffffffff\n        /* \"#utility.yul\":13103:13109   */\n      dup2\n        /* \"#utility.yul\":13100:13130   */\n      gt\n        /* \"#utility.yul\":13097:13214   */\n      iszero\n      tag_427\n      jumpi\n        /* \"#utility.yul\":13133:13212   */\n      tag_428\n      tag_264\n      jump\t// in\n    tag_428:\n        /* \"#utility.yul\":13097:13214   */\n    tag_427:\n        /* \"#utility.yul\":13238:13301   */\n      tag_429\n        /* \"#utility.yul\":13293:13300   */\n      dup7\n        /* \"#utility.yul\":13284:13290   */\n      dup3\n        /* \"#utility.yul\":13273:13282   */\n      dup8\n        /* \"#utility.yul\":13269:13291   */\n      add\n        /* \"#utility.yul\":13238:13301   */\n      tag_273\n      jump\t// in\n    tag_429:\n        /* \"#utility.yul\":13228:13301   */\n      swap3\n      pop\n        /* \"#utility.yul\":13023:13311   */\n      pop\n        /* \"#utility.yul\":13378:13380   */\n      0x40\n        /* \"#utility.yul\":13367:13376   */\n      dup5\n        /* \"#utility.yul\":13363:13381   */\n      add\n        /* \"#utility.yul\":13350:13382   */\n      calldataload\n        /* \"#utility.yul\":13409:13427   */\n      0xffffffffffffffff\n        /* \"#utility.yul\":13401:13407   */\n      dup2\n        /* \"#utility.yul\":13398:13428   */\n      gt\n        /* \"#utility.yul\":13395:13512   */\n      iszero\n      tag_430\n      jumpi\n        /* \"#utility.yul\":13431:13510   */\n      tag_431\n      tag_264\n      jump\t// in\n    tag_431:\n        /* \"#utility.yul\":13395:13512   */\n    tag_430:\n        /* \"#utility.yul\":13536:13599   */\n      tag_432\n        /* \"#utility.yul\":13591:13598   */\n      dup7\n        /* \"#utility.yul\":13582:13588   */\n      dup3\n        /* \"#utility.yul\":13571:13580   */\n      dup8\n        /* \"#utility.yul\":13567:13589   */\n      add\n        /* \"#utility.yul\":13536:13599   */\n      tag_273\n      jump\t// in\n    tag_432:\n        /* \"#utility.yul\":13526:13599   */\n      swap2\n      pop\n        /* \"#utility.yul\":13321:13609   */\n      pop\n        /* \"#utility.yul\":12457:13616   */\n      swap3\n      pop\n      swap3\n      pop\n      swap3\n      jump\t// out\n        /* \"#utility.yul\":13622:14131   */\n    tag_63:\n        /* \"#utility.yul\":13691:13697   */\n      0x00\n        /* \"#utility.yul\":13740:13742   */\n      0x20\n        /* \"#utility.yul\":13728:13737   */\n      dup3\n        /* \"#utility.yul\":13719:13726   */\n      dup5\n        /* \"#utility.yul\":13715:13738   */\n      sub\n        /* \"#utility.yul\":13711:13743   */\n      slt\n        /* \"#utility.yul\":13708:13827   */\n      iszero\n      tag_434\n      jumpi\n        /* \"#utility.yul\":13746:13825   */\n      tag_435\n      tag_263\n      jump\t// in\n    tag_435:\n        /* \"#utility.yul\":13708:13827   */\n    tag_434:\n        /* \"#utility.yul\":13894:13895   */\n      0x00\n        /* \"#utility.yul\":13883:13892   */\n      dup3\n        /* \"#utility.yul\":13879:13896   */\n      add\n        /* \"#utility.yul\":13866:13897   */\n      calldataload\n        /* \"#utility.yul\":13924:13942   */\n      0xffffffffffffffff\n        /* \"#utility.yul\":13916:13922   */\n      dup2\n        /* \"#utility.yul\":13913:13943   */\n      gt\n        /* \"#utility.yul\":13910:14027   */\n      iszero\n      tag_436\n      jumpi\n        /* \"#utility.yul\":13946:14025   */\n      tag_437\n      tag_264\n      jump\t// in\n    tag_437:\n        /* \"#utility.yul\":13910:14027   */\n    tag_436:\n        /* \"#utility.yul\":14051:14114   */\n      tag_438\n        /* \"#utility.yul\":14106:14113   */\n      dup5\n        /* \"#utility.yul\":14097:14103   */\n      dup3\n        /* \"#utility.yul\":14086:14095   */\n      dup6\n        /* \"#utility.yul\":14082:14104   */\n      add\n        /* \"#utility.yul\":14051:14114   */\n      tag_273\n      jump\t// in\n    tag_438:\n        /* \"#utility.yul\":14041:14114   */\n      swap2\n      pop\n        /* \"#utility.yul\":13837:14124   */\n      pop\n        /* \"#utility.yul\":13622:14131   */\n      swap3\n      swap2\n      pop\n      pop\n      jump\t// out\n        /* \"#utility.yul\":14137:14227   */\n    tag_278:\n        /* \"#utility.yul\":14171:14178   */\n      0x00\n        /* \"#utility.yul\":14214:14219   */\n      dup2\n        /* \"#utility.yul\":14207:14220   */\n      iszero\n        /* \"#utility.yul\":14200:14221   */\n      iszero\n        /* \"#utility.yul\":14189:14221   */\n      swap1\n      pop\n        /* \"#utility.yul\":14137:14227   */\n      swap2\n      swap1\n      pop\n      jump\t// out\n        /* \"#utility.yul\":14233:14342   */\n    tag_279:\n        /* \"#utility.yul\":14314:14335   */\n      tag_441\n        /* \"#utility.yul\":14329:14334   */\n      dup2\n        /* \"#utility.yul\":14314:14335   */\n      tag_278\n      jump\t// in\n    tag_441:\n        /* \"#utility.yul\":14309:14312   */\n      dup3\n        /* \"#utility.yul\":14302:14336   */\n      mstore\n        /* \"#utility.yul\":14233:14342   */\n      pop\n      pop\n      jump\t// out\n        /* \"#utility.yul\":14348:14558   */\n    tag_66:\n        /* \"#utility.yul\":14435:14439   */\n      0x00\n        /* \"#utility.yul\":14473:14475   */\n      0x20\n        /* \"#utility.yul\":14462:14471   */\n      dup3\n        /* \"#utility.yul\":14458:14476   */\n      add\n        /* \"#utility.yul\":14450:14476   */\n      swap1\n      pop\n        /* \"#utility.yul\":14486:14551   */\n      tag_443\n        /* \"#utility.yul\":14548:14549   */\n      0x00\n        /* \"#utility.yul\":14537:14546   */\n      dup4\n        /* \"#utility.yul\":14533:14550   */\n      add\n        /* \"#utility.yul\":14524:14530   */\n      dup5\n        /* \"#utility.yul\":14486:14551   */\n      tag_279\n      jump\t// in\n    tag_443:\n        /* \"#utility.yul\":14348:14558   */\n      swap3\n      swap2\n      pop\n      pop\n      jump\t// out\n        /* \"#utility.yul\":14564:15176   */\n    tag_74:\n        /* \"#utility.yul\":14747:14751   */\n      0x00\n        /* \"#utility.yul\":14785:14787   */\n      0x60\n        /* \"#utility.yul\":14774:14783   */\n      dup3\n        /* \"#utility.yul\":14770:14788   */\n      add\n        /* \"#utility.yul\":14762:14788   */\n      swap1\n      pop\n        /* \"#utility.yul\":14834:14843   */\n      dup2\n        /* \"#utility.yul\":14828:14832   */\n      dup2\n        /* \"#utility.yul\":14824:14844   */\n      sub\n        /* \"#utility.yul\":14820:14821   */\n      0x00\n        /* \"#utility.yul\":14809:14818   */\n      dup4\n        /* \"#utility.yul\":14805:14822   */\n      add\n        /* \"#utility.yul\":14798:14845   */\n      mstore\n        /* \"#utility.yul\":14862:14940   */\n      tag_445\n        /* \"#utility.yul\":14935:14939   */\n      dup2\n        /* \"#utility.yul\":14926:14932   */\n      dup7\n        /* \"#utility.yul\":14862:14940   */\n      tag_275\n      jump\t// in\n    tag_445:\n        /* \"#utility.yul\":14854:14940   */\n      swap1\n      pop\n        /* \"#utility.yul\":14987:14996   */\n      dup2\n        /* \"#utility.yul\":14981:14985   */\n      dup2\n        /* \"#utility.yul\":14977:14997   */\n      sub\n        /* \"#utility.yul\":14972:14974   */\n      0x20\n        /* \"#utility.yul\":14961:14970   */\n      dup4\n        /* \"#utility.yul\":14957:14975   */\n      add\n        /* \"#utility.yul\":14950:14998   */\n      mstore\n        /* \"#utility.yul\":15015:15093   */\n      tag_446\n        /* \"#utility.yul\":15088:15092   */\n      dup2\n        /* \"#utility.yul\":15079:15085   */\n      dup6\n        /* \"#utility.yul\":15015:15093   */\n      tag_275\n      jump\t// in\n    tag_446:\n        /* \"#utility.yul\":15007:15093   */\n      swap1\n      pop\n        /* \"#utility.yul\":15103:15169   */\n      tag_447\n        /* \"#utility.yul\":15165:15167   */\n      0x40\n        /* \"#utility.yul\":15154:15163   */\n      dup4\n        /* \"#utility.yul\":15150:15168   */\n      add\n        /* \"#utility.yul\":15141:15147   */\n      dup5\n        /* \"#utility.yul\":15103:15169   */\n      tag_279\n      jump\t// in\n    tag_447:\n        /* \"#utility.yul\":14564:15176   */\n      swap5\n      swap4\n      pop\n      pop\n      pop\n      pop\n      jump\t// out\n        /* \"#utility.yul\":15182:15362   */\n    tag_280:\n        /* \"#utility.yul\":15230:15307   */\n      0x4e487b7100000000000000000000000000000000000000000000000000000000\n        /* \"#utility.yul\":15227:15228   */\n      0x00\n        /* \"#utility.yul\":15220:15308   */\n      mstore\n        /* \"#utility.yul\":15327:15331   */\n      0x22\n        /* \"#utility.yul\":15324:15325   */\n      0x04\n        /* \"#utility.yul\":15317:15332   */\n      mstore\n        /* \"#utility.yul\":15351:15355   */\n      0x24\n        /* \"#utility.yul\":15348:15349   */\n      0x00\n        /* \"#utility.yul\":15341:15356   */\n      revert\n        /* \"#utility.yul\":15368:15688   */\n    tag_85:\n        /* \"#utility.yul\":15412:15418   */\n      0x00\n        /* \"#utility.yul\":15449:15450   */\n      0x02\n        /* \"#utility.yul\":15443:15447   */\n      dup3\n        /* \"#utility.yul\":15439:15451   */\n      div\n        /* \"#utility.yul\":15429:15451   */\n      swap1\n      pop\n        /* \"#utility.yul\":15496:15497   */\n      0x01\n        /* \"#utility.yul\":15490:15494   */\n      dup3\n        /* \"#utility.yul\":15486:15498   */\n      and\n        /* \"#utility.yul\":15517:15535   */\n      dup1\n        /* \"#utility.yul\":15507:15588   */\n      tag_450\n      jumpi\n        /* \"#utility.yul\":15573:15577   */\n      0x7f\n        /* \"#utility.yul\":15565:15571   */\n      dup3\n        /* \"#utility.yul\":15561:15578   */\n      and\n        /* \"#utility.yul\":15551:15578   */\n      swap2\n      pop\n        /* \"#utility.yul\":15507:15588   */\n    tag_450:\n        /* \"#utility.yul\":15635:15637   */\n      0x20\n        /* \"#utility.yul\":15627:15633   */\n      dup3\n        /* \"#utility.yul\":15624:15638   */\n      lt\n        /* \"#utility.yul\":15604:15622   */\n      dup2\n        /* \"#utility.yul\":15601:15639   */\n      sub\n        /* \"#utility.yul\":15598:15682   */\n      tag_451\n      jumpi\n        /* \"#utility.yul\":15654:15672   */\n      tag_452\n      tag_280\n      jump\t// in\n    tag_452:\n        /* \"#utility.yul\":15598:15682   */\n    tag_451:\n        /* \"#utility.yul\":15419:15688   */\n      pop\n        /* \"#utility.yul\":15368:15688   */\n      swap2\n      swap1\n      pop\n      jump\t// out\n        /* \"#utility.yul\":15694:15842   */\n    tag_281:\n        /* \"#utility.yul\":15796:15807   */\n      0x00\n        /* \"#utility.yul\":15833:15836   */\n      dup2\n        /* \"#utility.yul\":15818:15836   */\n      swap1\n      pop\n        /* \"#utility.yul\":15694:15842   */\n      swap3\n      swap2\n      pop\n      pop\n      jump\t// out\n        /* \"#utility.yul\":15848:16238   */\n    tag_282:\n        /* \"#utility.yul\":15954:15957   */\n      0x00\n        /* \"#utility.yul\":15982:16021   */\n      tag_455\n        /* \"#utility.yul\":16015:16020   */\n      dup3\n        /* \"#utility.yul\":15982:16021   */\n      tag_242\n      jump\t// in\n    tag_455:\n        /* \"#utility.yul\":16037:16126   */\n      tag_456\n        /* \"#utility.yul\":16119:16125   */\n      dup2\n        /* \"#utility.yul\":16114:16117   */\n      dup6\n        /* \"#utility.yul\":16037:16126   */\n      tag_281\n      jump\t// in\n    tag_456:\n        /* \"#utility.yul\":16030:16126   */\n      swap4\n      pop\n        /* \"#utility.yul\":16135:16200   */\n      tag_457\n        /* \"#utility.yul\":16193:16199   */\n      dup2\n        /* \"#utility.yul\":16188:16191   */\n      dup6\n        /* \"#utility.yul\":16181:16185   */\n      0x20\n        /* \"#utility.yul\":16174:16179   */\n      dup7\n        /* \"#utility.yul\":16170:16186   */\n      add\n        /* \"#utility.yul\":16135:16200   */\n      tag_244\n      jump\t// in\n    tag_457:\n        /* \"#utility.yul\":16225:16231   */\n      dup1\n        /* \"#utility.yul\":16220:16223   */\n      dup5\n        /* \"#utility.yul\":16216:16232   */\n      add\n        /* \"#utility.yul\":16209:16232   */\n      swap2\n      pop\n        /* \"#utility.yul\":15958:16238   */\n      pop\n        /* \"#utility.yul\":15848:16238   */\n      swap3\n      swap2\n      pop\n      pop\n      jump\t// out\n        /* \"#utility.yul\":16244:16519   */\n    tag_115:\n        /* \"#utility.yul\":16376:16379   */\n      0x00\n        /* \"#utility.yul\":16398:16493   */\n      tag_459\n        /* \"#utility.yul\":16489:16492   */\n      dup3\n        /* \"#utility.yul\":16480:16486   */\n      dup5\n        /* \"#utility.yul\":16398:16493   */\n      tag_282\n      jump\t// in\n    tag_459:\n        /* \"#utility.yul\":16391:16493   */\n      swap2\n      pop\n        /* \"#utility.yul\":16510:16513   */\n      dup2\n        /* \"#utility.yul\":16503:16513   */\n      swap1\n      pop\n        /* \"#utility.yul\":16244:16519   */\n      swap3\n      swap2\n      pop\n      pop\n      jump\t// out\n        /* \"#utility.yul\":16525:16666   */\n    tag_283:\n        /* \"#utility.yul\":16574:16578   */\n      0x00\n        /* \"#utility.yul\":16597:16600   */\n      dup2\n        /* \"#utility.yul\":16589:16600   */\n      swap1\n      pop\n        /* \"#utility.yul\":16620:16623   */\n      dup2\n        /* \"#utility.yul\":16617:16618   */\n      0x00\n        /* \"#utility.yul\":16610:16624   */\n      mstore\n        /* \"#utility.yul\":16654:16658   */\n      0x20\n        /* \"#utility.yul\":16651:16652   */\n      0x00\n        /* \"#utility.yul\":16641:16659   */\n      keccak256\n        /* \"#utility.yul\":16633:16659   */\n      swap1\n      pop\n        /* \"#utility.yul\":16525:16666   */\n      swap2\n      swap1\n      pop\n      jump\t// out\n        /* \"#utility.yul\":16672:16765   */\n    tag_284:\n        /* \"#utility.yul\":16709:16715   */\n      0x00\n        /* \"#utility.yul\":16756:16758   */\n      0x20\n        /* \"#utility.yul\":16751:16753   */\n      0x1f\n        /* \"#utility.yul\":16744:16749   */\n      dup4\n        /* \"#utility.yul\":16740:16754   */\n      add\n        /* \"#utility.yul\":16736:16759   */\n      div\n        /* \"#utility.yul\":16726:16759   */\n      swap1\n      pop\n        /* \"#utility.yul\":16672:16765   */\n      swap2\n      swap1\n      pop\n      jump\t// out\n        /* \"#utility.yul\":16771:16878   */\n    tag_285:\n        /* \"#utility.yul\":16815:16823   */\n      0x00\n        /* \"#utility.yul\":16865:16870   */\n      dup3\n        /* \"#utility.yul\":16859:16863   */\n      dup3\n        /* \"#utility.yul\":16855:16871   */\n      shl\n        /* \"#utility.yul\":16834:16871   */\n      swap1\n      pop\n        /* \"#utility.yul\":16771:16878   */\n      swap3\n      swap2\n      pop\n      pop\n      jump\t// out\n        /* \"#utility.yul\":16884:17277   */\n    tag_286:\n        /* \"#utility.yul\":16953:16959   */\n      0x00\n        /* \"#utility.yul\":17003:17004   */\n      0x08\n        /* \"#utility.yul\":16991:17001   */\n      dup4\n        /* \"#utility.yul\":16987:17005   */\n      mul\n        /* \"#utility.yul\":17026:17123   */\n      tag_464\n        /* \"#utility.yul\":17056:17122   */\n      0xffffffffffffffffffffffffffffffffffffffffffffffffffffffffffffffff\n        /* \"#utility.yul\":17045:17054   */\n      dup3\n        /* \"#utility.yul\":17026:17123   */\n      tag_285\n      jump\t// in\n    tag_464:\n        /* \"#utility.yul\":17144:17183   */\n      tag_465\n        /* \"#utility.yul\":17174:17182   */\n      dup7\n        /* \"#utility.yul\":17163:17172   */\n      dup4\n        /* \"#utility.yul\":17144:17183   */\n      tag_285\n      jump\t// in\n    tag_465:\n        /* \"#utility.yul\":17132:17183   */\n      swap6\n      pop\n        /* \"#utility.yul\":17216:17220   */\n      dup1\n        /* \"#utility.yul\":17212:17221   */\n      not\n        /* \"#utility.yul\":17205:17210   */\n      dup5\n        /* \"#utility.yul\":17201:17222   */\n      and\n        /* \"#utility.yul\":17192:17222   */\n      swap4\n      pop\n        /* \"#utility.yul\":17265:17269   */\n      dup1\n        /* \"#utility.yul\":17255:17263   */\n      dup7\n        /* \"#utility.yul\":17251:17270   */\n      and\n        /* \"#utility.yul\":17244:17249   */\n      dup5\n        /* \"#utility.yul\":17241:17271   */\n      or\n        /* \"#utility.yul\":17231:17271   */\n      swap3\n      pop\n        /* \"#utility.yul\":16960:17277   */\n      pop\n      pop\n        /* \"#utility.yul\":16884:17277   */\n      swap4\n      swap3\n      pop\n      pop\n      pop\n      jump\t// out\n        /* \"#utility.yul\":17283:17343   */\n    tag_287:\n        /* \"#utility.yul\":17311:17314   */\n      0x00\n        /* \"#utility.yul\":17332:17337   */\n      dup2\n        /* \"#utility.yul\":17325:17337   */\n      swap1\n      pop\n        /* \"#utility.yul\":17283:17343   */\n      swap2\n      swap1\n      pop\n      jump\t// out\n        /* \"#utility.yul\":17349:17491   */\n    tag_288:\n        /* \"#utility.yul\":17399:17408   */\n      0x00\n        /* \"#utility.yul\":17432:17485   */\n      tag_468\n        /* \"#utility.yul\":17450:17484   */\n      tag_469\n        /* \"#utility.yul\":17459:17483   */\n      tag_470\n        /* \"#utility.yul\":17477:17482   */\n      dup5\n        /* \"#utility.yul\":17459:17483   */\n      tag_250\n      jump\t// in\n    tag_470:\n        /* \"#utility.yul\":17450:17484   */\n      tag_287\n      jump\t// in\n    tag_469:\n        /* \"#utility.yul\":17432:17485   */\n      tag_250\n      jump\t// in\n    tag_468:\n        /* \"#utility.yul\":17419:17485   */\n      swap1\n      pop\n        /* \"#utility.yul\":17349:17491   */\n      swap2\n      swap1\n      pop\n      jump\t// out\n        /* \"#utility.yul\":17497:17572   */\n    tag_289:\n        /* \"#utility.yul\":17540:17543   */\n      0x00\n        /* \"#utility.yul\":17561:17566   */\n      dup2\n        /* \"#utility.yul\":17554:17566   */\n      swap1\n      pop\n        /* \"#utility.yul\":17497:17572   */\n      swap2\n      swap1\n      pop\n      jump\t// out\n        /* \"#utility.yul\":17578:17847   */\n    tag_290:\n        /* \"#utility.yul\":17688:17727   */\n      tag_473\n        /* \"#utility.yul\":17719:17726   */\n      dup4\n        /* \"#utility.yul\":17688:17727   */\n      tag_288\n      jump\t// in\n    tag_473:\n        /* \"#utility.yul\":17749:17840   */\n      tag_474\n        /* \"#utility.yul\":17798:17839   */\n      tag_475\n        /* \"#utility.yul\":17822:17838   */\n      dup3\n        /* \"#utility.yul\":17798:17839   */\n      tag_289\n      jump\t// in\n    tag_475:\n        /* \"#utility.yul\":17790:17796   */\n      dup5\n        /* \"#utility.yul\":17783:17787   */\n      dup5\n        /* \"#utility.yul\":17777:17788   */\n      sload\n        /* \"#utility.yul\":17749:17840   */\n      tag_286\n      jump\t// in\n    tag_474:\n        /* \"#utility.yul\":17743:17747   */\n      dup3\n        /* \"#utility.yul\":17736:17841   */\n      sstore\n        /* \"#utility.yul\":17654:17847   */\n      pop\n        /* \"#utility.yul\":17578:17847   */\n      pop\n      pop\n      pop\n      jump\t// out\n        /* \"#utility.yul\":17853:17926   */\n    tag_291:\n        /* \"#utility.yul\":17898:17901   */\n      0x00\n        /* \"#utility.yul\":17853:17926   */\n      swap1\n      jump\t// out\n        /* \"#utility.yul\":17932:18121   */\n    tag_292:\n        /* \"#utility.yul\":18009:18041   */\n      tag_478\n      tag_291\n      jump\t// in\n    tag_478:\n        /* \"#utility.yul\":18050:18115   */\n      tag_479\n        /* \"#utility.yul\":18108:18114   */\n      dup2\n        /* \"#utility.yul\":18100:18106   */\n      dup5\n        /* \"#utility.yul\":18094:18098   */\n      dup5\n        /* \"#utility.yul\":18050:18115   */\n      tag_290\n      jump\t// in\n    tag_479:\n        /* \"#utility.yul\":17985:18121   */\n      pop\n        /* \"#utility.yul\":17932:18121   */\n      pop\n      pop\n      jump\t// out\n        /* \"#utility.yul\":18127:18313   */\n    tag_293:\n        /* \"#utility.yul\":18187:18307   */\n    tag_481:\n        /* \"#utility.yul\":18204:18207   */\n      dup2\n        /* \"#utility.yul\":18197:18202   */\n      dup2\n        /* \"#utility.yul\":18194:18208   */\n      lt\n        /* \"#utility.yul\":18187:18307   */\n      iszero\n      tag_483\n      jumpi\n        /* \"#utility.yul\":18258:18297   */\n      tag_484\n        /* \"#utility.yul\":18295:18296   */\n      0x00\n        /* \"#utility.yul\":18288:18293   */\n      dup3\n        /* \"#utility.yul\":18258:18297   */\n      tag_292\n      jump\t// in\n    tag_484:\n        /* \"#utility.yul\":18231:18232   */\n      0x01\n        /* \"#utility.yul\":18224:18229   */\n      dup2\n        /* \"#utility.yul\":18220:18233   */\n      add\n        /* \"#utility.yul\":18211:18233   */\n      swap1\n      pop\n        /* \"#utility.yul\":18187:18307   */\n      jump(tag_481)\n    tag_483:\n        /* \"#utility.yul\":18127:18313   */\n      pop\n      pop\n      jump\t// out\n        /* \"#utility.yul\":18319:18862   */\n    tag_294:\n        /* \"#utility.yul\":18420:18422   */\n      0x1f\n        /* \"#utility.yul\":18415:18418   */\n      dup3\n        /* \"#utility.yul\":18412:18423   */\n      gt\n        /* \"#utility.yul\":18409:18855   */\n      iszero\n      tag_486\n      jumpi\n        /* \"#utility.yul\":18454:18492   */\n      tag_487\n        /* \"#utility.yul\":18486:18491   */\n      dup2\n        /* \"#utility.yul\":18454:18492   */\n      tag_283\n      jump\t// in\n    tag_487:\n        /* \"#utility.yul\":18538:18567   */\n      tag_488\n        /* \"#utility.yul\":18556:18566   */\n      dup5\n        /* \"#utility.yul\":18538:18567   */\n      tag_284\n      jump\t// in\n    tag_488:\n        /* \"#utility.yul\":18528:18536   */\n      dup2\n        /* \"#utility.yul\":18524:18568   */\n      add\n        /* \"#utility.yul\":18721:18723   */\n      0x20\n        /* \"#utility.yul\":18709:18719   */\n      dup6\n        /* \"#utility.yul\":18706:18724   */\n      lt\n        /* \"#utility.yul\":18703:18752   */\n      iszero\n      tag_489\n      jumpi\n        /* \"#utility.yul\":18742:18750   */\n      dup2\n        /* \"#utility.yul\":18727:18750   */\n      swap1\n      pop\n        /* \"#utility.yul\":18703:18752   */\n    tag_489:\n        /* \"#utility.yul\":18765:18845   */\n      tag_490\n        /* \"#utility.yul\":18821:18843   */\n      tag_491\n        /* \"#utility.yul\":18839:18842   */\n      dup6\n        /* \"#utility.yul\":18821:18843   */\n      tag_284\n      jump\t// in\n    tag_491:\n        /* \"#utility.yul\":18811:18819   */\n      dup4\n        /* \"#utility.yul\":18807:18844   */\n      add\n        /* \"#utility.yul\":18794:18805   */\n      dup3\n        /* \"#utility.yul\":18765:18845   */\n      tag_293\n      jump\t// in\n    tag_490:\n        /* \"#utility.yul\":18424:18855   */\n      pop\n      pop\n        /* \"#utility.yul\":18409:18855   */\n    tag_486:\n        /* \"#utility.yul\":18319:18862   */\n      pop\n      pop\n      pop\n      jump\t// out\n        /* \"#utility.yul\":18868:18985   */\n    tag_295:\n        /* \"#utility.yul\":18922:18930   */\n      0x00\n        /* \"#utility.yul\":18972:18977   */\n      dup3\n        /* \"#utility.yul\":18966:18970   */\n      dup3\n        /* \"#utility.yul\":18962:18978   */\n      shr\n        /* \"#utility.yul\":18941:18978   */\n      swap1\n      pop\n        /* \"#utility.yul\":18868:18985   */\n      swap3\n      swap2\n      pop\n      pop\n      jump\t// out\n        /* \"#utility.yul\":18991:19160   */\n    tag_296:\n        /* \"#utility.yul\":19035:19041   */\n      0x00\n        /* \"#utility.yul\":19068:19119   */\n      tag_494\n        /* \"#utility.yul\":19116:19117   */\n      0x00\n        /* \"#utility.yul\":19112:19118   */\n      not\n        /* \"#utility.yul\":19104:19109   */\n      dup5\n        /* \"#utility.yul\":19101:19102   */\n      0x08\n        /* \"#utility.yul\":19097:19110   */\n      mul\n        /* \"#utility.yul\":19068:19119   */\n      tag_295\n      jump\t// in\n    tag_494:\n        /* \"#utility.yul\":19064:19120   */\n      not\n        /* \"#utility.yul\":19149:19153   */\n      dup1\n        /* \"#utility.yul\":19143:19147   */\n      dup4\n        /* \"#utility.yul\":19139:19154   */\n      and\n        /* \"#utility.yul\":19129:19154   */\n      swap2\n      pop\n        /* \"#utility.yul\":19042:19160   */\n      pop\n        /* \"#utility.yul\":18991:19160   */\n      swap3\n      swap2\n      pop\n      pop\n      jump\t// out\n        /* \"#utility.yul\":19165:19460   */\n    tag_297:\n        /* \"#utility.yul\":19241:19245   */\n      0x00\n        /* \"#utility.yul\":19387:19416   */\n      tag_496\n        /* \"#utility.yul\":19412:19415   */\n      dup4\n        /* \"#utility.yul\":19406:19410   */\n      dup4\n        /* \"#utility.yul\":19387:19416   */\n      tag_296\n      jump\t// in\n    tag_496:\n        /* \"#utility.yul\":19379:19416   */\n      swap2\n      pop\n        /* \"#utility.yul\":19449:19452   */\n      dup3\n        /* \"#utility.yul\":19446:19447   */\n      0x02\n        /* \"#utility.yul\":19442:19453   */\n      mul\n        /* \"#utility.yul\":19436:19440   */\n      dup3\n        /* \"#utility.yul\":19433:19454   */\n      or\n        /* \"#utility.yul\":19425:19454   */\n      swap1\n      pop\n        /* \"#utility.yul\":19165:19460   */\n      swap3\n      swap2\n      pop\n      pop\n      jump\t// out\n        /* \"#utility.yul\":19465:20860   */\n    tag_117:\n        /* \"#utility.yul\":19582:19619   */\n      tag_498\n        /* \"#utility.yul\":19615:19618   */\n      dup3\n        /* \"#utility.yul\":19582:19619   */\n      tag_242\n      jump\t// in\n    tag_498:\n        /* \"#utility.yul\":19684:19702   */\n      0xffffffffffffffff\n        /* \"#utility.yul\":19676:19682   */\n      dup2\n        /* \"#utility.yul\":19673:19703   */\n      gt\n        /* \"#utility.yul\":19670:19726   */\n      iszero\n      tag_499\n      jumpi\n        /* \"#utility.yul\":19706:19724   */\n      tag_500\n      tag_267\n      jump\t// in\n    tag_500:\n        /* \"#utility.yul\":19670:19726   */\n    tag_499:\n        /* \"#utility.yul\":19750:19788   */\n      tag_501\n        /* \"#utility.yul\":19782:19786   */\n      dup3\n        /* \"#utility.yul\":19776:19787   */\n      sload\n        /* \"#utility.yul\":19750:19788   */\n      tag_85\n      jump\t// in\n    tag_501:\n        /* \"#utility.yul\":19835:19902   */\n      tag_502\n        /* \"#utility.yul\":19895:19901   */\n      dup3\n        /* \"#utility.yul\":19887:19893   */\n      dup3\n        /* \"#utility.yul\":19881:19885   */\n      dup6\n        /* \"#utility.yul\":19835:19902   */\n      tag_294\n      jump\t// in\n    tag_502:\n        /* \"#utility.yul\":19929:19930   */\n      0x00\n        /* \"#utility.yul\":19953:19957   */\n      0x20\n        /* \"#utility.yul\":19940:19957   */\n      swap1\n      pop\n        /* \"#utility.yul\":19985:19987   */\n      0x1f\n        /* \"#utility.yul\":19977:19983   */\n      dup4\n        /* \"#utility.yul\":19974:19988   */\n      gt\n        /* \"#utility.yul\":20002:20003   */\n      0x01\n        /* \"#utility.yul\":19997:20615   */\n      dup2\n      eq\n      tag_504\n      jumpi\n        /* \"#utility.yul\":20659:20660   */\n      0x00\n        /* \"#utility.yul\":20676:20682   */\n      dup5\n        /* \"#utility.yul\":20673:20750   */\n      iszero\n      tag_505\n      jumpi\n        /* \"#utility.yul\":20725:20734   */\n      dup3\n        /* \"#utility.yul\":20720:20723   */\n      dup8\n        /* \"#utility.yul\":20716:20735   */\n      add\n        /* \"#utility.yul\":20710:20736   */\n      mload\n        /* \"#utility.yul\":20701:20736   */\n      swap1\n      pop\n        /* \"#utility.yul\":20673:20750   */\n    tag_505:\n        /* \"#utility.yul\":20776:20843   */\n      tag_506\n        /* \"#utility.yul\":20836:20842   */\n      dup6\n        /* \"#utility.yul\":20829:20834   */\n      dup3\n        /* \"#utility.yul\":20776:20843   */\n      tag_297\n      jump\t// in\n    tag_506:\n        /* \"#utility.yul\":20770:20774   */\n      dup7\n        /* \"#utility.yul\":20763:20844   */\n      sstore\n        /* \"#utility.yul\":20632:20854   */\n      pop\n        /* \"#utility.yul\":19967:20854   */\n      jump(tag_503)\n        /* \"#utility.yul\":19997:20615   */\n    tag_504:\n        /* \"#utility.yul\":20049:20053   */\n      0x1f\n        /* \"#utility.yul\":20045:20054   */\n      not\n        /* \"#utility.yul\":20037:20043   */\n      dup5\n        /* \"#utility.yul\":20033:20055   */\n      and\n        /* \"#utility.yul\":20083:20120   */\n      tag_507\n        /* \"#utility.yul\":20115:20119   */\n      dup7\n        /* \"#utility.yul\":20083:20120   */\n      tag_283\n      jump\t// in\n    tag_507:\n        /* \"#utility.yul\":20142:20143   */\n      0x00\n        /* \"#utility.yul\":20156:20364   */\n    tag_508:\n        /* \"#utility.yul\":20170:20177   */\n      dup3\n        /* \"#utility.yul\":20167:20168   */\n      dup2\n        /* \"#utility.yul\":20164:20178   */\n      lt\n        /* \"#utility.yul\":20156:20364   */\n      iszero\n      tag_510\n      jumpi\n        /* \"#utility.yul\":20249:20258   */\n      dup5\n        /* \"#utility.yul\":20244:20247   */\n      dup10\n        /* \"#utility.yul\":20240:20259   */\n      add\n        /* \"#utility.yul\":20234:20260   */\n      mload\n        /* \"#utility.yul\":20226:20232   */\n      dup3\n        /* \"#utility.yul\":20219:20261   */\n      sstore\n        /* \"#utility.yul\":20300:20301   */\n      0x01\n        /* \"#utility.yul\":20292:20298   */\n      dup3\n        /* \"#utility.yul\":20288:20302   */\n      add\n        /* \"#utility.yul\":20278:20302   */\n      swap2\n      pop\n        /* \"#utility.yul\":20347:20349   */\n      0x20\n        /* \"#utility.yul\":20336:20345   */\n      dup6\n        /* \"#utility.yul\":20332:20350   */\n      add\n        /* \"#utility.yul\":20319:20350   */\n      swap5\n      pop\n        /* \"#utility.yul\":20193:20197   */\n      0x20\n        /* \"#utility.yul\":20190:20191   */\n      dup2\n        /* \"#utility.yul\":20186:20198   */\n      add\n        /* \"#utility.yul\":20181:20198   */\n      swap1\n      pop\n        /* \"#utility.yul\":20156:20364   */\n      jump(tag_508)\n    tag_510:\n        /* \"#utility.yul\":20392:20398   */\n      dup7\n        /* \"#utility.yul\":20383:20390   */\n      dup4\n        /* \"#utility.yul\":20380:20399   */\n      lt\n        /* \"#utility.yul\":20377:20556   */\n      iszero\n      tag_511\n      jumpi\n        /* \"#utility.yul\":20450:20459   */\n      dup5\n        /* \"#utility.yul\":20445:20448   */\n      dup10\n        /* \"#utility.yul\":20441:20460   */\n      add\n        /* \"#utility.yul\":20435:20461   */\n      mload\n        /* \"#utility.yul\":20493:20541   */\n      tag_512\n        /* \"#utility.yul\":20535:20539   */\n      0x1f\n        /* \"#utility.yul\":20527:20533   */\n      dup10\n        /* \"#utility.yul\":20523:20540   */\n      and\n        /* \"#utility.yul\":20512:20521   */\n      dup3\n        /* \"#utility.yul\":20493:20541   */\n      tag_296\n      jump\t// in\n    tag_512:\n        /* \"#utility.yul\":20485:20491   */\n      dup4\n        /* \"#utility.yul\":20478:20542   */\n      sstore\n        /* \"#utility.yul\":20400:20556   */\n      pop\n        /* \"#utility.yul\":20377:20556   */\n    tag_511:\n        /* \"#utility.yul\":20602:20603   */\n      0x01\n        /* \"#utility.yul\":20598:20599   */\n      0x02\n        /* \"#utility.yul\":20590:20596   */\n      dup9\n        /* \"#utility.yul\":20586:20600   */\n      mul\n        /* \"#utility.yul\":20582:20604   */\n      add\n        /* \"#utility.yul\":20576:20580   */\n      dup9\n        /* \"#utility.yul\":20569:20605   */\n      sstore\n        /* \"#utility.yul\":20004:20615   */\n      pop\n      pop\n      pop\n        /* \"#utility.yul\":19967:20854   */\n    tag_503:\n      pop\n        /* \"#utility.yul\":19557:20860   */\n      pop\n      pop\n      pop\n        /* \"#utility.yul\":19465:20860   */\n      pop\n      pop\n      jump\t// out\n        /* \"#utility.yul\":20866:21033   */\n    tag_298:\n        /* \"#utility.yul\":21006:21025   */\n      0x4e6f20737563682063616e646964617465000000000000000000000000000000\n        /* \"#utility.yul\":21002:21003   */\n      0x00\n        /* \"#utility.yul\":20994:21000   */\n      dup3\n        /* \"#utility.yul\":20990:21004   */\n      add\n        /* \"#utility.yul\":20983:21026   */\n      mstore\n        /* \"#utility.yul\":20866:21033   */\n      pop\n      jump\t// out\n        /* \"#utility.yul\":21039:21405   */\n    tag_299:\n        /* \"#utility.yul\":21181:21184   */\n      0x00\n        /* \"#utility.yul\":21202:21269   */\n      tag_515\n        /* \"#utility.yul\":21266:21268   */\n      0x11\n        /* \"#utility.yul\":21261:21264   */\n      dup4\n        /* \"#utility.yul\":21202:21269   */\n      tag_274\n      jump\t// in\n    tag_515:\n        /* \"#utility.yul\":21195:21269   */\n      swap2\n      pop\n        /* \"#utility.yul\":21278:21371   */\n      tag_516\n        /* \"#utility.yul\":21367:21370   */\n      dup3\n        /* \"#utility.yul\":21278:21371   */\n      tag_298\n      jump\t// in\n    tag_516:\n        /* \"#utility.yul\":21396:21398   */\n      0x20\n        /* \"#utility.yul\":21391:21394   */\n      dup3\n        /* \"#utility.yul\":21387:21399   */\n      add\n        /* \"#utility.yul\":21380:21399   */\n      swap1\n      pop\n        /* \"#utility.yul\":21039:21405   */\n      swap2\n      swap1\n      pop\n      jump\t// out\n        /* \"#utility.yul\":21411:21830   */\n    tag_144:\n        /* \"#utility.yul\":21577:21581   */\n      0x00\n        /* \"#utility.yul\":21615:21617   */\n      0x20\n        /* \"#utility.yul\":21604:21613   */\n      dup3\n        /* \"#utility.yul\":21600:21618   */\n      add\n        /* \"#utility.yul\":21592:21618   */\n      swap1\n      pop\n        /* \"#utility.yul\":21664:21673   */\n      dup2\n        /* \"#utility.yul\":21658:21662   */\n      dup2\n        /* \"#utility.yul\":21654:21674   */\n      sub\n        /* \"#utility.yul\":21650:21651   */\n      0x00\n        /* \"#utility.yul\":21639:21648   */\n      dup4\n        /* \"#utility.yul\":21635:21652   */\n      add\n        /* \"#utility.yul\":21628:21675   */\n      mstore\n        /* \"#utility.yul\":21692:21823   */\n      tag_518\n        /* \"#utility.yul\":21818:21822   */\n      dup2\n        /* \"#utility.yul\":21692:21823   */\n      tag_299\n      jump\t// in\n    tag_518:\n        /* \"#utility.yul\":21684:21823   */\n      swap1\n      pop\n        /* \"#utility.yul\":21411:21830   */\n      swap2\n      swap1\n      pop\n      jump\t// out\n        /* \"#utility.yul\":21836:21999   */\n    tag_300:\n        /* \"#utility.yul\":21976:21991   */\n      0x416c726561647920566f74656400000000000000000000000000000000000000\n        /* \"#utility.yul\":21972:21973   */\n      0x00\n        /* \"#utility.yul\":21964:21970   */\n      dup3\n        /* \"#utility.yul\":21960:21974   */\n      add\n        /* \"#utility.yul\":21953:21992   */\n      mstore\n        /* \"#utility.yul\":21836:21999   */\n      pop\n      jump\t// out\n        /* \"#utility.yul\":22005:22371   */\n    tag_301:\n        /* \"#utility.yul\":22147:22150   */\n      0x00\n        /* \"#utility.yul\":22168:22235   */\n      tag_521\n        /* \"#utility.yul\":22232:22234   */\n      0x0d\n        /* \"#utility.yul\":22227:22230   */\n      dup4\n        /* \"#utility.yul\":22168:22235   */\n      tag_274\n      jump\t// in\n    tag_521:\n        /* \"#utility.yul\":22161:22235   */\n      swap2\n      pop\n        /* \"#utility.yul\":22244:22337   */\n      tag_522\n        /* \"#utility.yul\":22333:22336   */\n      dup3\n        /* \"#utility.yul\":22244:22337   */\n      tag_300\n      jump\t// in\n    tag_522:\n        /* \"#utility.yul\":22362:22364   */\n      0x20\n        /* \"#utility.yul\":22357:22360   */\n      dup3\n        /* \"#utility.yul\":22353:22365   */\n      add\n        /* \"#utility.yul\":22346:22365   */\n      swap1\n      pop\n        /* \"#utility.yul\":22005:22371   */\n      swap2\n      swap1\n      pop\n      jump\t// out\n        /* \"#utility.yul\":22377:22796   */\n    tag_148:\n        /* \"#utility.yul\":22543:22547   */\n      0x00\n        /* \"#utility.yul\":22581:22583   */\n      0x20\n        /* \"#utility.yul\":22570:22579   */\n      dup3\n        /* \"#utility.yul\":22566:22584   */\n      add\n        /* \"#utility.yul\":22558:22584   */\n      swap1\n      pop\n        /* \"#utility.yul\":22630:22639   */\n      dup2\n        /* \"#utility.yul\":22624:22628   */\n      dup2\n        /* \"#utility.yul\":22620:22640   */\n      sub\n        /* \"#utility.yul\":22616:22617   */\n      0x00\n        /* \"#utility.yul\":22605:22614   */\n      dup4\n        /* \"#utility.yul\":22601:22618   */\n      add\n        /* \"#utility.yul\":22594:22641   */\n      mstore\n        /* \"#utility.yul\":22658:22789   */\n      tag_524\n        /* \"#utility.yul\":22784:22788   */\n      dup2\n        /* \"#utility.yul\":22658:22789   */\n      tag_301\n      jump\t// in\n    tag_524:\n        /* \"#utility.yul\":22650:22789   */\n      swap1\n      pop\n        /* \"#utility.yul\":22377:22796   */\n      swap2\n      swap1\n      pop\n      jump\t// out\n        /* \"#utility.yul\":22802:22982   */\n    tag_194:\n        /* \"#utility.yul\":22850:22927   */\n      0x4e487b7100000000000000000000000000000000000000000000000000000000\n        /* \"#utility.yul\":22847:22848   */\n      0x00\n        /* \"#utility.yul\":22840:22928   */\n      mstore\n        /* \"#utility.yul\":22947:22951   */\n      0x32\n        /* \"#utility.yul\":22944:22945   */\n      0x04\n        /* \"#utility.yul\":22937:22952   */\n      mstore\n        /* \"#utility.yul\":22971:22975   */\n      0x24\n        /* \"#utility.yul\":22968:22969   */\n      0x00\n        /* \"#utility.yul\":22961:22976   */\n      revert\n        /* \"#utility.yul\":23012:23886   */\n    tag_302:\n        /* \"#utility.yul\":23115:23118   */\n      0x00\n        /* \"#utility.yul\":23152:23157   */\n      dup2\n        /* \"#utility.yul\":23146:23158   */\n      sload\n        /* \"#utility.yul\":23181:23217   */\n      tag_527\n        /* \"#utility.yul\":23207:23216   */\n      dup2\n        /* \"#utility.yul\":23181:23217   */\n      tag_85\n      jump\t// in\n    tag_527:\n        /* \"#utility.yul\":23233:23322   */\n      tag_528\n        /* \"#utility.yul\":23315:23321   */\n      dup2\n        /* \"#utility.yul\":23310:23313   */\n      dup7\n        /* \"#utility.yul\":23233:23322   */\n      tag_281\n      jump\t// in\n    tag_528:\n        /* \"#utility.yul\":23226:23322   */\n      swap5\n      pop\n        /* \"#utility.yul\":23353:23354   */\n      0x01\n        /* \"#utility.yul\":23342:23351   */\n      dup3\n        /* \"#utility.yul\":23338:23355   */\n      and\n        /* \"#utility.yul\":23369:23370   */\n      0x00\n        /* \"#utility.yul\":23364:23530   */\n      dup2\n      eq\n      tag_530\n      jumpi\n        /* \"#utility.yul\":23544:23545   */\n      0x01\n        /* \"#utility.yul\":23539:23880   */\n      dup2\n      eq\n      tag_531\n      jumpi\n        /* \"#utility.yul\":23331:23880   */\n      jump(tag_529)\n        /* \"#utility.yul\":23364:23530   */\n    tag_530:\n        /* \"#utility.yul\":23448:23452   */\n      0xff\n        /* \"#utility.yul\":23444:23453   */\n      not\n        /* \"#utility.yul\":23433:23442   */\n      dup4\n        /* \"#utility.yul\":23429:23454   */\n      and\n        /* \"#utility.yul\":23424:23427   */\n      dup7\n        /* \"#utility.yul\":23417:23455   */\n      mstore\n        /* \"#utility.yul\":23510:23516   */\n      dup2\n        /* \"#utility.yul\":23503:23517   */\n      iszero\n        /* \"#utility.yul\":23496:23518   */\n      iszero\n        /* \"#utility.yul\":23488:23494   */\n      dup3\n        /* \"#utility.yul\":23484:23519   */\n      mul\n        /* \"#utility.yul\":23479:23482   */\n      dup7\n        /* \"#utility.yul\":23475:23520   */\n      add\n        /* \"#utility.yul\":23468:23520   */\n      swap4\n      pop\n        /* \"#utility.yul\":23364:23530   */\n      jump(tag_529)\n        /* \"#utility.yul\":23539:23880   */\n    tag_531:\n        /* \"#utility.yul\":23606:23644   */\n      tag_532\n        /* \"#utility.yul\":23638:23643   */\n      dup6\n        /* \"#utility.yul\":23606:23644   */\n      tag_283\n      jump\t// in\n    tag_532:\n        /* \"#utility.yul\":23666:23667   */\n      0x00\n        /* \"#utility.yul\":23680:23834   */\n    tag_533:\n        /* \"#utility.yul\":23694:23700   */\n      dup4\n        /* \"#utility.yul\":23691:23692   */\n      dup2\n        /* \"#utility.yul\":23688:23701   */\n      lt\n        /* \"#utility.yul\":23680:23834   */\n      iszero\n      tag_535\n      jumpi\n        /* \"#utility.yul\":23768:23775   */\n      dup2\n        /* \"#utility.yul\":23762:23776   */\n      sload\n        /* \"#utility.yul\":23758:23759   */\n      dup2\n        /* \"#utility.yul\":23753:23756   */\n      dup10\n        /* \"#utility.yul\":23749:23760   */\n      add\n        /* \"#utility.yul\":23742:23777   */\n      mstore\n        /* \"#utility.yul\":23818:23819   */\n      0x01\n        /* \"#utility.yul\":23809:23816   */\n      dup3\n        /* \"#utility.yul\":23805:23820   */\n      add\n        /* \"#utility.yul\":23794:23820   */\n      swap2\n      pop\n        /* \"#utility.yul\":23716:23720   */\n      0x20\n        /* \"#utility.yul\":23713:23714   */\n      dup2\n        /* \"#utility.yul\":23709:23721   */\n      add\n        /* \"#utility.yul\":23704:23721   */\n      swap1\n      pop\n        /* \"#utility.yul\":23680:23834   */\n      jump(tag_533)\n    tag_535:\n        /* \"#utility.yul\":23863:23869   */\n      dup4\n        /* \"#utility.yul\":23858:23861   */\n      dup9\n        /* \"#utility.yul\":23854:23870   */\n      add\n        /* \"#utility.yul\":23847:23870   */\n      swap6\n      pop\n        /* \"#utility.yul\":23546:23880   */\n      pop\n      pop\n        /* \"#utility.yul\":23331:23880   */\n    tag_529:\n      pop\n        /* \"#utility.yul\":23119:23886   */\n      pop\n      pop\n        /* \"#utility.yul\":23012:23886   */\n      swap3\n      swap2\n      pop\n      pop\n      jump\t// out\n        /* \"#utility.yul\":23892:24161   */\n    tag_197:\n        /* \"#utility.yul\":24021:24024   */\n      0x00\n        /* \"#utility.yul\":24043:24135   */\n      tag_537\n        /* \"#utility.yul\":24131:24134   */\n      dup3\n        /* \"#utility.yul\":24122:24128   */\n      dup5\n        /* \"#utility.yul\":24043:24135   */\n      tag_302\n      jump\t// in\n    tag_537:\n        /* \"#utility.yul\":24036:24135   */\n      swap2\n      pop\n        /* \"#utility.yul\":24152:24155   */\n      dup2\n        /* \"#utility.yul\":24145:24155   */\n      swap1\n      pop\n        /* \"#utility.yul\":23892:24161   */\n      swap3\n      swap2\n      pop\n      pop\n      jump\t// out\n        /* \"#utility.yul\":24167:24347   */\n    tag_303:\n        /* \"#utility.yul\":24215:24292   */\n      0x4e487b7100000000000000000000000000000000000000000000000000000000\n        /* \"#utility.yul\":24212:24213   */\n      0x00\n        /* \"#utility.yul\":24205:24293   */\n      mstore\n        /* \"#utility.yul\":24312:24316   */\n      0x11\n        /* \"#utility.yul\":24309:24310   */\n      0x04\n        /* \"#utility.yul\":24302:24317   */\n      mstore\n        /* \"#utility.yul\":24336:24340   */\n      0x24\n        /* \"#utility.yul\":24333:24334   */\n      0x00\n        /* \"#utility.yul\":24326:24341   */\n      revert\n        /* \"#utility.yul\":24353:24446   */\n    tag_304:\n        /* \"#utility.yul\":24389:24396   */\n      0x00\n        /* \"#utility.yul\":24429:24439   */\n      0xffffffff\n        /* \"#utility.yul\":24422:24427   */\n      dup3\n        /* \"#utility.yul\":24418:24440   */\n      and\n        /* \"#utility.yul\":24407:24440   */\n      swap1\n      pop\n        /* \"#utility.yul\":24353:24446   */\n      swap2\n      swap1\n      pop\n      jump\t// out\n        /* \"#utility.yul\":24452:24627   */\n    tag_202:\n        /* \"#utility.yul\":24490:24493   */\n      0x00\n        /* \"#utility.yul\":24513:24536   */\n      tag_541\n        /* \"#utility.yul\":24530:24535   */\n      dup3\n        /* \"#utility.yul\":24513:24536   */\n      tag_304\n      jump\t// in\n    tag_541:\n        /* \"#utility.yul\":24504:24536   */\n      swap2\n      pop\n        /* \"#utility.yul\":24558:24568   */\n      0xffffffff\n        /* \"#utility.yul\":24551:24556   */\n      dup3\n        /* \"#utility.yul\":24548:24569   */\n      sub\n        /* \"#utility.yul\":24545:24592   */\n      tag_542\n      jumpi\n        /* \"#utility.yul\":24572:24590   */\n      tag_543\n      tag_303\n      jump\t// in\n    tag_543:\n        /* \"#utility.yul\":24545:24592   */\n    tag_542:\n        /* \"#utility.yul\":24619:24620   */\n      0x01\n        /* \"#utility.yul\":24612:24617   */\n      dup3\n        /* \"#utility.yul\":24608:24621   */\n      add\n        /* \"#utility.yul\":24601:24621   */\n      swap1\n      pop\n        /* \"#utility.yul\":24452:24627   */\n      swap2\n      swap1\n      pop\n      jump\t// out\n\n    auxdata: 0xa264697066735822122069dba459ec79b66bdc45abdcc4d7858830d9ab2af9481251fd1825fe551d27db64736f6c63430008110033\n}\n",
				"bytecode": {
					"linkReferences": {},
					"object": "608060405234801561001057600080fd5b5060016000803373ffffffffffffffffffffffffffffffffffffffff1673ffffffffffffffffffffffffffffffffffffffff16815260200190815260200160002060006101000a81548160ff0219169083151502179055506000600360006101000a81548160ff0219169083151502179055506000600360016101000a81548160ff021916908315150217905550611f3b806100ad6000396000f3fe608060405234801561001057600080fd5b50600436106101005760003560e01c80637048027511610097578063af8c50b611610066578063af8c50b614610263578063c5539cc214610281578063cdd72253146102b3578063e8f30523146102d157610100565b806370480275146101df57806395f59fe1146101fb57806397929c63146102175780639ebed03f1461023357610100565b806326541b56116100d357806326541b561461017d57806330e7a79c146101995780634e69d560146101b757806359f78468146101d557610100565b806306a49fce146101055780630b93400e146101235780630dc96015146101415780630deb56ab1461015f575b600080fd5b61010d6102db565b60405161011a91906113eb565b60405180910390f35b61012b6103b4565b6040516101389190611426565b60405180910390f35b6101496103c1565b60405161015691906115b5565b60405180910390f35b61016761062c565b6040516101749190611426565b60405180910390f35b61019760048036038101906101929190611720565b610639565b005b6101a1610703565b6040516101ae91906117e2565b60405180910390f35b6101bf610795565b6040516101cc91906117e2565b60405180910390f35b6101dd6108c3565b005b6101f960048036038101906101f49190611830565b61093a565b005b6102156004803603810190610210919061185d565b610994565b005b610231600480360381019061022c9190611720565b610c11565b005b61024d60048036038101906102489190611904565b610c6b565b60405161025a9190611968565b60405180910390f35b61026b610ca1565b60405161027891906117e2565b60405180910390f35b61029b60048036038101906102969190611904565b610d33565b6040516102aa93929190611983565b60405180910390f35b6102bb610e90565b6040516102c891906113eb565b60405180910390f35b6102d9610f69565b005b60606005805480602002602001604051908101604052809291908181526020016000905b828210156103ab57838290600052602060002001805461031e906119f7565b80601f016020809104026020016040519081016040528092919081815260200182805461034a906119f7565b80156103975780601f1061036c57610100808354040283529160200191610397565b820191906000526020600020905b81548152906001019060200180831161037a57829003601f168201915b5050505050815260200190600101906102ff565b50505050905090565b6000600880549050905090565b60606006805480602002602001604051908101604052809291908181526020016000905b8282101561062357838290600052602060002090600402016040518060800160405290816000820160009054906101000a900473ffffffffffffffffffffffffffffffffffffffff1673ffffffffffffffffffffffffffffffffffffffff1673ffffffffffffffffffffffffffffffffffffffff16815260200160018201805461046e906119f7565b80601f016020809104026020016040519081016040528092919081815260200182805461049a906119f7565b80156104e75780601f106104bc576101008083540402835291602001916104e7565b820191906000526020600020905b8154815290600101906020018083116104ca57829003601f168201915b50505050508152602001600282018054610500906119f7565b80601f016020809104026020016040519081016040528092919081815260200182805461052c906119f7565b80156105795780601f1061054e57610100808354040283529160200191610579565b820191906000526020600020905b81548152906001019060200180831161055c57829003601f168201915b50505050508152602001600382018054610592906119f7565b80601f01602080910402602001604051908101604052809291908181526020018280546105be906119f7565b801561060b5780601f106105e05761010080835404028352916020019161060b565b820191906000526020600020905b8154815290600101906020018083116105ee57829003601f168201915b505050505081525050815260200190600101906103e5565b50505050905090565b6000600580549050905090565b600060405180606001604052808481526020018381526020016001151581525090508060048460405161066c9190611a64565b9081526020016040518091039020600082015181600001908161068f9190611c27565b5060208201518160010190816106a59190611c27565b5060408201518160020160006101000a81548160ff0219169083151502179055509050506005839080600181540180825580915050600190039060005260206000200160009091909190915090816106fd9190611c27565b50505050565b606060018054610712906119f7565b80601f016020809104026020016040519081016040528092919081815260200182805461073e906119f7565b801561078b5780601f106107605761010080835404028352916020019161078b565b820191906000526020600020905b81548152906001019060200180831161076e57829003601f168201915b5050505050905090565b606060011515600360009054906101000a900460ff1615151480156107cd575060011515600360019054906101000a900460ff161515145b1561080f576040518060400160405280600881526020017f66696e697368656400000000000000000000000000000000000000000000000081525090506108c0565b60011515600360009054906101000a900460ff161515148015610845575060001515600360019054906101000a900460ff161515145b15610887576040518060400160405280600781526020017f72756e6e696e670000000000000000000000000000000000000000000000000081525090506108c0565b6040518060400160405280600b81526020017f6e6f742d7374617274656400000000000000000000000000000000000000000081525090505b90565b60011515600360009054906101000a900460ff1615151480156108f9575060001515600360019054906101000a900460ff161515145b61090257600080fd5b6001600360006101000a81548160ff0219169083151502179055506001600360016101000a81548160ff021916908315150217905550565b60016000808373ffffffffffffffffffffffffffffffffffffffff1673ffffffffffffffffffffffffffffffffffffffff16815260200190815260200160002060006101000a81548160ff02191690831515021790555050565b60011515600360009054906101000a900460ff1615151480156109ca575060001515600360019054906101000a900460ff161515145b6109d357600080fd5b6004816040516109e39190611a64565b908152602001604051809103902060020160009054906101000a900460ff16610a41576040517f08c379a0000000000000000000000000000000000000000000000000000000008152600401610a3890611d45565b60405180910390fd5b600783604051610a519190611a64565b908152602001604051809103902060009054906101000a900460ff1615610aad576040517f08c379a0000000000000000000000000000000000000000000000000000000008152600401610aa490611db1565b60405180910390fd5b600060405180608001604052803373ffffffffffffffffffffffffffffffffffffffff168152602001858152602001848152602001838152509050600681908060018154018082558091505060019003906000526020600020906004020160009091909190915060008201518160000160006101000a81548173ffffffffffffffffffffffffffffffffffffffff021916908373ffffffffffffffffffffffffffffffffffffffff1602179055506020820151816001019081610b709190611c27565b506040820151816002019081610b869190611c27565b506060820151816003019081610b9c9190611c27565b5050506001600785604051610bb19190611a64565b908152602001604051809103902060006101000a81548160ff021916908315150217905550600884908060018154018082558091505060019003906000526020600020016000909190919091509081610c0a9190611c27565b5050505050565b8160019081610c209190611c27565b508060029081610c309190611c27565b506001600360006101000a81548160ff0219169083151502179055506000600360016101000a81548160ff0219169083151502179055505050565b6007818051602081018201805184825260208301602085012081835280955050505050506000915054906101000a900460ff1681565b606060028054610cb0906119f7565b80601f0160208091040260200160405190810160405280929190818152602001828054610cdc906119f7565b8015610d295780601f10610cfe57610100808354040283529160200191610d29565b820191906000526020600020905b815481529060010190602001808311610d0c57829003601f168201915b5050505050905090565b600481805160208101820180518482526020830160208501208183528095505050505050600091509050806000018054610d6c906119f7565b80601f0160208091040260200160405190810160405280929190818152602001828054610d98906119f7565b8015610de55780601f10610dba57610100808354040283529160200191610de5565b820191906000526020600020905b815481529060010190602001808311610dc857829003601f168201915b505050505090806001018054610dfa906119f7565b80601f0160208091040260200160405190810160405280929190818152602001828054610e26906119f7565b8015610e735780601f10610e4857610100808354040283529160200191610e73565b820191906000526020600020905b815481529060010190602001808311610e5657829003601f168201915b5050505050908060020160009054906101000a900460ff16905083565b60606008805480602002602001604051908101604052809291908181526020016000905b82821015610f60578382906000526020600020018054610ed3906119f7565b80601f0160208091040260200160405190810160405280929190818152602001828054610eff906119f7565b8015610f4c5780601f10610f2157610100808354040283529160200191610f4c565b820191906000526020600020905b815481529060010190602001808311610f2f57829003601f168201915b505050505081526020019060010190610eb4565b50505050905090565b60011515600360009054906101000a900460ff161515148015610f9f575060011515600360019054906101000a900460ff161515145b610fa857600080fd5b60005b6005805490508163ffffffff16101561104957600460058263ffffffff1681548110610fda57610fd9611dd1565b5b90600052602060002001604051610ff19190611e83565b9081526020016040518091039020600080820160006110109190611165565b6001820160006110209190611165565b6002820160006101000a81549060ff02191690555050808061104190611ed9565b915050610fab565b5060005b6008805490508163ffffffff1610156110c457600760088263ffffffff168154811061107c5761107b611dd1565b5b906000526020600020016040516110939190611e83565b908152602001604051809103902060006101000a81549060ff021916905580806110bc90611ed9565b91505061104d565b5060405180602001604052806000815250600190816110e39190611c27565b5060405180602001604052806000815250600290816111029190611c27565b506006600061111191906111a5565b6005600061111f91906111c9565b6008600061112d91906111c9565b6000600360006101000a81548160ff0219169083151502179055506000600360016101000a81548160ff021916908315150217905550565b508054611171906119f7565b6000825580601f1061118357506111a2565b601f0160209004906000526020600020908101906111a191906111ea565b5b50565b50805460008255600402906000526020600020908101906111c69190611207565b50565b50805460008255906000526020600020908101906111e79190611275565b50565b5b808211156112035760008160009055506001016111eb565b5090565b5b8082111561127157600080820160006101000a81549073ffffffffffffffffffffffffffffffffffffffff02191690556001820160006112489190611165565b6002820160006112589190611165565b6003820160006112689190611165565b50600401611208565b5090565b5b80821115611295576000818161128c9190611165565b50600101611276565b5090565b600081519050919050565b600082825260208201905092915050565b6000819050602082019050919050565b600081519050919050565b600082825260208201905092915050565b60005b838110156112ff5780820151818401526020810190506112e4565b60008484015250505050565b6000601f19601f8301169050919050565b6000611327826112c5565b61133181856112d0565b93506113418185602086016112e1565b61134a8161130b565b840191505092915050565b6000611361838361131c565b905092915050565b6000602082019050919050565b600061138182611299565b61138b81856112a4565b93508360208202850161139d856112b5565b8060005b858110156113d957848403895281516113ba8582611355565b94506113c583611369565b925060208a019950506001810190506113a1565b50829750879550505050505092915050565b600060208201905081810360008301526114058184611376565b905092915050565b6000819050919050565b6114208161140d565b82525050565b600060208201905061143b6000830184611417565b92915050565b600081519050919050565b600082825260208201905092915050565b6000819050602082019050919050565b600073ffffffffffffffffffffffffffffffffffffffff82169050919050565b60006114988261146d565b9050919050565b6114a88161148d565b82525050565b60006080830160008301516114c6600086018261149f565b50602083015184820360208601526114de828261131c565b915050604083015184820360408601526114f8828261131c565b91505060608301518482036060860152611512828261131c565b9150508091505092915050565b600061152b83836114ae565b905092915050565b6000602082019050919050565b600061154b82611441565b611555818561144c565b9350836020820285016115678561145d565b8060005b858110156115a35784840389528151611584858261151f565b945061158f83611533565b925060208a0199505060018101905061156b565b50829750879550505050505092915050565b600060208201905081810360008301526115cf8184611540565b905092915050565b6000604051905090565b600080fd5b600080fd5b600080fd5b600080fd5b7f4e487b7100000000000000000000000000000000000000000000000000000000600052604160045260246000fd5b61162d8261130b565b810181811067ffffffffffffffff8211171561164c5761164b6115f5565b5b80604052505050565b600061165f6115d7565b905061166b8282611624565b919050565b600067ffffffffffffffff82111561168b5761168a6115f5565b5b6116948261130b565b9050602081019050919050565b82818337600083830152505050565b60006116c36116be84611670565b611655565b9050828152602081018484840111156116df576116de6115f0565b5b6116ea8482856116a1565b509392505050565b600082601f830112611707576117066115eb565b5b81356117178482602086016116b0565b91505092915050565b60008060408385031215611737576117366115e1565b5b600083013567ffffffffffffffff811115611755576117546115e6565b5b611761858286016116f2565b925050602083013567ffffffffffffffff811115611782576117816115e6565b5b61178e858286016116f2565b9150509250929050565b600082825260208201905092915050565b60006117b4826112c5565b6117be8185611798565b93506117ce8185602086016112e1565b6117d78161130b565b840191505092915050565b600060208201905081810360008301526117fc81846117a9565b905092915050565b61180d8161148d565b811461181857600080fd5b50565b60008135905061182a81611804565b92915050565b600060208284031215611846576118456115e1565b5b60006118548482850161181b565b91505092915050565b600080600060608486031215611876576118756115e1565b5b600084013567ffffffffffffffff811115611894576118936115e6565b5b6118a0868287016116f2565b935050602084013567ffffffffffffffff8111156118c1576118c06115e6565b5b6118cd868287016116f2565b925050604084013567ffffffffffffffff8111156118ee576118ed6115e6565b5b6118fa868287016116f2565b9150509250925092565b60006020828403121561191a576119196115e1565b5b600082013567ffffffffffffffff811115611938576119376115e6565b5b611944848285016116f2565b91505092915050565b60008115159050919050565b6119628161194d565b82525050565b600060208201905061197d6000830184611959565b92915050565b6000606082019050818103600083015261199d81866117a9565b905081810360208301526119b181856117a9565b90506119c06040830184611959565b949350505050565b7f4e487b7100000000000000000000000000000000000000000000000000000000600052602260045260246000fd5b60006002820490506001821680611a0f57607f821691505b602082108103611a2257611a216119c8565b5b50919050565b600081905092915050565b6000611a3e826112c5565b611a488185611a28565b9350611a588185602086016112e1565b80840191505092915050565b6000611a708284611a33565b915081905092915050565b60008190508160005260206000209050919050565b60006020601f8301049050919050565b600082821b905092915050565b600060088302611add7fffffffffffffffffffffffffffffffffffffffffffffffffffffffffffffffff82611aa0565b611ae78683611aa0565b95508019841693508086168417925050509392505050565b6000819050919050565b6000611b24611b1f611b1a8461140d565b611aff565b61140d565b9050919050565b6000819050919050565b611b3e83611b09565b611b52611b4a82611b2b565b848454611aad565b825550505050565b600090565b611b67611b5a565b611b72818484611b35565b505050565b5b81811015611b9657611b8b600082611b5f565b600181019050611b78565b5050565b601f821115611bdb57611bac81611a7b565b611bb584611a90565b81016020851015611bc4578190505b611bd8611bd085611a90565b830182611b77565b50505b505050565b600082821c905092915050565b6000611bfe60001984600802611be0565b1980831691505092915050565b6000611c178383611bed565b9150826002028217905092915050565b611c30826112c5565b67ffffffffffffffff811115611c4957611c486115f5565b5b611c5382546119f7565b611c5e828285611b9a565b600060209050601f831160018114611c915760008415611c7f578287015190505b611c898582611c0b565b865550611cf1565b601f198416611c9f86611a7b565b60005b82811015611cc757848901518255600182019150602085019450602081019050611ca2565b86831015611ce45784890151611ce0601f891682611bed565b8355505b6001600288020188555050505b505050505050565b7f4e6f20737563682063616e646964617465000000000000000000000000000000600082015250565b6000611d2f601183611798565b9150611d3a82611cf9565b602082019050919050565b60006020820190508181036000830152611d5e81611d22565b9050919050565b7f416c726561647920566f74656400000000000000000000000000000000000000600082015250565b6000611d9b600d83611798565b9150611da682611d65565b602082019050919050565b60006020820190508181036000830152611dca81611d8e565b9050919050565b7f4e487b7100000000000000000000000000000000000000000000000000000000600052603260045260246000fd5b60008154611e0d816119f7565b611e178186611a28565b94506001821660008114611e325760018114611e4757611e7a565b60ff1983168652811515820286019350611e7a565b611e5085611a7b565b60005b83811015611e7257815481890152600182019150602081019050611e53565b838801955050505b50505092915050565b6000611e8f8284611e00565b915081905092915050565b7f4e487b7100000000000000000000000000000000000000000000000000000000600052601160045260246000fd5b600063ffffffff82169050919050565b6000611ee482611ec9565b915063ffffffff8203611efa57611ef9611e9a565b5b60018201905091905056fea264697066735822122069dba459ec79b66bdc45abdcc4d7858830d9ab2af9481251fd1825fe551d27db64736f6c63430008110033",
					"opcodes": "PUSH1 0x80 PUSH1 0x40 MSTORE CALLVALUE DUP1 ISZERO PUSH2 0x10 JUMPI PUSH1 0x0 DUP1 REVERT JUMPDEST POP PUSH1 0x1 PUSH1 0x0 DUP1 CALLER PUSH20 0xFFFFFFFFFFFFFFFFFFFFFFFFFFFFFFFFFFFFFFFF AND PUSH20 0xFFFFFFFFFFFFFFFFFFFFFFFFFFFFFFFFFFFFFFFF AND DUP2 MSTORE PUSH1 0x20 ADD SWAP1 DUP2 MSTORE PUSH1 0x20 ADD PUSH1 0x0 KECCAK256 PUSH1 0x0 PUSH2 0x100 EXP DUP2 SLOAD DUP2 PUSH1 0xFF MUL NOT AND SWAP1 DUP4 ISZERO ISZERO MUL OR SWAP1 SSTORE POP PUSH1 0x0 PUSH1 0x3 PUSH1 0x0 PUSH2 0x100 EXP DUP2 SLOAD DUP2 PUSH1 0xFF MUL NOT AND SWAP1 DUP4 ISZERO ISZERO MUL OR SWAP1 SSTORE POP PUSH1 0x0 PUSH1 0x3 PUSH1 0x1 PUSH2 0x100 EXP DUP2 SLOAD DUP2 PUSH1 0xFF MUL NOT AND SWAP1 DUP4 ISZERO ISZERO MUL OR SWAP1 SSTORE POP PUSH2 0x1F3B DUP1 PUSH2 0xAD PUSH1 0x0 CODECOPY PUSH1 0x0 RETURN INVALID PUSH1 0x80 PUSH1 0x40 MSTORE CALLVALUE DUP1 ISZERO PUSH2 0x10 JUMPI PUSH1 0x0 DUP1 REVERT JUMPDEST POP PUSH1 0x4 CALLDATASIZE LT PUSH2 0x100 JUMPI PUSH1 0x0 CALLDATALOAD PUSH1 0xE0 SHR DUP1 PUSH4 0x70480275 GT PUSH2 0x97 JUMPI DUP1 PUSH4 0xAF8C50B6 GT PUSH2 0x66 JUMPI DUP1 PUSH4 0xAF8C50B6 EQ PUSH2 0x263 JUMPI DUP1 PUSH4 0xC5539CC2 EQ PUSH2 0x281 JUMPI DUP1 PUSH4 0xCDD72253 EQ PUSH2 0x2B3 JUMPI DUP1 PUSH4 0xE8F30523 EQ PUSH2 0x2D1 JUMPI PUSH2 0x100 JUMP JUMPDEST DUP1 PUSH4 0x70480275 EQ PUSH2 0x1DF JUMPI DUP1 PUSH4 0x95F59FE1 EQ PUSH2 0x1FB JUMPI DUP1 PUSH4 0x97929C63 EQ PUSH2 0x217 JUMPI DUP1 PUSH4 0x9EBED03F EQ PUSH2 0x233 JUMPI PUSH2 0x100 JUMP JUMPDEST DUP1 PUSH4 0x26541B56 GT PUSH2 0xD3 JUMPI DUP1 PUSH4 0x26541B56 EQ PUSH2 0x17D JUMPI DUP1 PUSH4 0x30E7A79C EQ PUSH2 0x199 JUMPI DUP1 PUSH4 0x4E69D560 EQ PUSH2 0x1B7 JUMPI DUP1 PUSH4 0x59F78468 EQ PUSH2 0x1D5 JUMPI PUSH2 0x100 JUMP JUMPDEST DUP1 PUSH4 0x6A49FCE EQ PUSH2 0x105 JUMPI DUP1 PUSH4 0xB93400E EQ PUSH2 0x123 JUMPI DUP1 PUSH4 0xDC96015 EQ PUSH2 0x141 JUMPI DUP1 PUSH4 0xDEB56AB EQ PUSH2 0x15F JUMPI JUMPDEST PUSH1 0x0 DUP1 REVERT JUMPDEST PUSH2 0x10D PUSH2 0x2DB JUMP JUMPDEST PUSH1 0x40 MLOAD PUSH2 0x11A SWAP2 SWAP1 PUSH2 0x13EB JUMP JUMPDEST PUSH1 0x40 MLOAD DUP1 SWAP2 SUB SWAP1 RETURN JUMPDEST PUSH2 0x12B PUSH2 0x3B4 JUMP JUMPDEST PUSH1 0x40 MLOAD PUSH2 0x138 SWAP2 SWAP1 PUSH2 0x1426 JUMP JUMPDEST PUSH1 0x40 MLOAD DUP1 SWAP2 SUB SWAP1 RETURN JUMPDEST PUSH2 0x149 PUSH2 0x3C1 JUMP JUMPDEST PUSH1 0x40 MLOAD PUSH2 0x156 SWAP2 SWAP1 PUSH2 0x15B5 JUMP JUMPDEST PUSH1 0x40 MLOAD DUP1 SWAP2 SUB SWAP1 RETURN JUMPDEST PUSH2 0x167 PUSH2 0x62C JUMP JUMPDEST PUSH1 0x40 MLOAD PUSH2 0x174 SWAP2 SWAP1 PUSH2 0x1426 JUMP JUMPDEST PUSH1 0x40 MLOAD DUP1 SWAP2 SUB SWAP1 RETURN JUMPDEST PUSH2 0x197 PUSH1 0x4 DUP1 CALLDATASIZE SUB DUP2 ADD SWAP1 PUSH2 0x192 SWAP2 SWAP1 PUSH2 0x1720 JUMP JUMPDEST PUSH2 0x639 JUMP JUMPDEST STOP JUMPDEST PUSH2 0x1A1 PUSH2 0x703 JUMP JUMPDEST PUSH1 0x40 MLOAD PUSH2 0x1AE SWAP2 SWAP1 PUSH2 0x17E2 JUMP JUMPDEST PUSH1 0x40 MLOAD DUP1 SWAP2 SUB SWAP1 RETURN JUMPDEST PUSH2 0x1BF PUSH2 0x795 JUMP JUMPDEST PUSH1 0x40 MLOAD PUSH2 0x1CC SWAP2 SWAP1 PUSH2 0x17E2 JUMP JUMPDEST PUSH1 0x40 MLOAD DUP1 SWAP2 SUB SWAP1 RETURN JUMPDEST PUSH2 0x1DD PUSH2 0x8C3 JUMP JUMPDEST STOP JUMPDEST PUSH2 0x1F9 PUSH1 0x4 DUP1 CALLDATASIZE SUB DUP2 ADD SWAP1 PUSH2 0x1F4 SWAP2 SWAP1 PUSH2 0x1830 JUMP JUMPDEST PUSH2 0x93A JUMP JUMPDEST STOP JUMPDEST PUSH2 0x215 PUSH1 0x4 DUP1 CALLDATASIZE SUB DUP2 ADD SWAP1 PUSH2 0x210 SWAP2 SWAP1 PUSH2 0x185D JUMP JUMPDEST PUSH2 0x994 JUMP JUMPDEST STOP JUMPDEST PUSH2 0x231 PUSH1 0x4 DUP1 CALLDATASIZE SUB DUP2 ADD SWAP1 PUSH2 0x22C SWAP2 SWAP1 PUSH2 0x1720 JUMP JUMPDEST PUSH2 0xC11 JUMP JUMPDEST STOP JUMPDEST PUSH2 0x24D PUSH1 0x4 DUP1 CALLDATASIZE SUB DUP2 ADD SWAP1 PUSH2 0x248 SWAP2 SWAP1 PUSH2 0x1904 JUMP JUMPDEST PUSH2 0xC6B JUMP JUMPDEST PUSH1 0x40 MLOAD PUSH2 0x25A SWAP2 SWAP1 PUSH2 0x1968 JUMP JUMPDEST PUSH1 0x40 MLOAD DUP1 SWAP2 SUB SWAP1 RETURN JUMPDEST PUSH2 0x26B PUSH2 0xCA1 JUMP JUMPDEST PUSH1 0x40 MLOAD PUSH2 0x278 SWAP2 SWAP1 PUSH2 0x17E2 JUMP JUMPDEST PUSH1 0x40 MLOAD DUP1 SWAP2 SUB SWAP1 RETURN JUMPDEST PUSH2 0x29B PUSH1 0x4 DUP1 CALLDATASIZE SUB DUP2 ADD SWAP1 PUSH2 0x296 SWAP2 SWAP1 PUSH2 0x1904 JUMP JUMPDEST PUSH2 0xD33 JUMP JUMPDEST PUSH1 0x40 MLOAD PUSH2 0x2AA SWAP4 SWAP3 SWAP2 SWAP1 PUSH2 0x1983 JUMP JUMPDEST PUSH1 0x40 MLOAD DUP1 SWAP2 SUB SWAP1 RETURN JUMPDEST PUSH2 0x2BB PUSH2 0xE90 JUMP JUMPDEST PUSH1 0x40 MLOAD PUSH2 0x2C8 SWAP2 SWAP1 PUSH2 0x13EB JUMP JUMPDEST PUSH1 0x40 MLOAD DUP1 SWAP2 SUB SWAP1 RETURN JUMPDEST PUSH2 0x2D9 PUSH2 0xF69 JUMP JUMPDEST STOP JUMPDEST PUSH1 0x60 PUSH1 0x5 DUP1 SLOAD DUP1 PUSH1 0x20 MUL PUSH1 0x20 ADD PUSH1 0x40 MLOAD SWAP1 DUP2 ADD PUSH1 0x40 MSTORE DUP1 SWAP3 SWAP2 SWAP1 DUP2 DUP2 MSTORE PUSH1 0x20 ADD PUSH1 0x0 SWAP1 JUMPDEST DUP3 DUP3 LT ISZERO PUSH2 0x3AB JUMPI DUP4 DUP3 SWAP1 PUSH1 0x0 MSTORE PUSH1 0x20 PUSH1 0x0 KECCAK256 ADD DUP1 SLOAD PUSH2 0x31E SWAP1 PUSH2 0x19F7 JUMP JUMPDEST DUP1 PUSH1 0x1F ADD PUSH1 0x20 DUP1 SWAP2 DIV MUL PUSH1 0x20 ADD PUSH1 0x40 MLOAD SWAP1 DUP2 ADD PUSH1 0x40 MSTORE DUP1 SWAP3 SWAP2 SWAP1 DUP2 DUP2 MSTORE PUSH1 0x20 ADD DUP3 DUP1 SLOAD PUSH2 0x34A SWAP1 PUSH2 0x19F7 JUMP JUMPDEST DUP1 ISZERO PUSH2 0x397 JUMPI DUP1 PUSH1 0x1F LT PUSH2 0x36C JUMPI PUSH2 0x100 DUP1 DUP4 SLOAD DIV MUL DUP4 MSTORE SWAP2 PUSH1 0x20 ADD SWAP2 PUSH2 0x397 JUMP JUMPDEST DUP3 ADD SWAP2 SWAP1 PUSH1 0x0 MSTORE PUSH1 0x20 PUSH1 0x0 KECCAK256 SWAP1 JUMPDEST DUP2 SLOAD DUP2 MSTORE SWAP1 PUSH1 0x1 ADD SWAP1 PUSH1 0x20 ADD DUP1 DUP4 GT PUSH2 0x37A JUMPI DUP3 SWAP1 SUB PUSH1 0x1F AND DUP3 ADD SWAP2 JUMPDEST POP POP POP POP POP DUP2 MSTORE PUSH1 0x20 ADD SWAP1 PUSH1 0x1 ADD SWAP1 PUSH2 0x2FF JUMP JUMPDEST POP POP POP POP SWAP1 POP SWAP1 JUMP JUMPDEST PUSH1 0x0 PUSH1 0x8 DUP1 SLOAD SWAP1 POP SWAP1 POP SWAP1 JUMP JUMPDEST PUSH1 0x60 PUSH1 0x6 DUP1 SLOAD DUP1 PUSH1 0x20 MUL PUSH1 0x20 ADD PUSH1 0x40 MLOAD SWAP1 DUP2 ADD PUSH1 0x40 MSTORE DUP1 SWAP3 SWAP2 SWAP1 DUP2 DUP2 MSTORE PUSH1 0x20 ADD PUSH1 0x0 SWAP1 JUMPDEST DUP3 DUP3 LT ISZERO PUSH2 0x623 JUMPI DUP4 DUP3 SWAP1 PUSH1 0x0 MSTORE PUSH1 0x20 PUSH1 0x0 KECCAK256 SWAP1 PUSH1 0x4 MUL ADD PUSH1 0x40 MLOAD DUP1 PUSH1 0x80 ADD PUSH1 0x40 MSTORE SWAP1 DUP2 PUSH1 0x0 DUP3 ADD PUSH1 0x0 SWAP1 SLOAD SWAP1 PUSH2 0x100 EXP SWAP1 DIV PUSH20 0xFFFFFFFFFFFFFFFFFFFFFFFFFFFFFFFFFFFFFFFF AND PUSH20 0xFFFFFFFFFFFFFFFFFFFFFFFFFFFFFFFFFFFFFFFF AND PUSH20 0xFFFFFFFFFFFFFFFFFFFFFFFFFFFFFFFFFFFFFFFF AND DUP2 MSTORE PUSH1 0x20 ADD PUSH1 0x1 DUP3 ADD DUP1 SLOAD PUSH2 0x46E SWAP1 PUSH2 0x19F7 JUMP JUMPDEST DUP1 PUSH1 0x1F ADD PUSH1 0x20 DUP1 SWAP2 DIV MUL PUSH1 0x20 ADD PUSH1 0x40 MLOAD SWAP1 DUP2 ADD PUSH1 0x40 MSTORE DUP1 SWAP3 SWAP2 SWAP1 DUP2 DUP2 MSTORE PUSH1 0x20 ADD DUP3 DUP1 SLOAD PUSH2 0x49A SWAP1 PUSH2 0x19F7 JUMP JUMPDEST DUP1 ISZERO PUSH2 0x4E7 JUMPI DUP1 PUSH1 0x1F LT PUSH2 0x4BC JUMPI PUSH2 0x100 DUP1 DUP4 SLOAD DIV MUL DUP4 MSTORE SWAP2 PUSH1 0x20 ADD SWAP2 PUSH2 0x4E7 JUMP JUMPDEST DUP3 ADD SWAP2 SWAP1 PUSH1 0x0 MSTORE PUSH1 0x20 PUSH1 0x0 KECCAK256 SWAP1 JUMPDEST DUP2 SLOAD DUP2 MSTORE SWAP1 PUSH1 0x1 ADD SWAP1 PUSH1 0x20 ADD DUP1 DUP4 GT PUSH2 0x4CA JUMPI DUP3 SWAP1 SUB PUSH1 0x1F AND DUP3 ADD SWAP2 JUMPDEST POP POP POP POP POP DUP2 MSTORE PUSH1 0x20 ADD PUSH1 0x2 DUP3 ADD DUP1 SLOAD PUSH2 0x500 SWAP1 PUSH2 0x19F7 JUMP JUMPDEST DUP1 PUSH1 0x1F ADD PUSH1 0x20 DUP1 SWAP2 DIV MUL PUSH1 0x20 ADD PUSH1 0x40 MLOAD SWAP1 DUP2 ADD PUSH1 0x40 MSTORE DUP1 SWAP3 SWAP2 SWAP1 DUP2 DUP2 MSTORE PUSH1 0x20 ADD DUP3 DUP1 SLOAD PUSH2 0x52C SWAP1 PUSH2 0x19F7 JUMP JUMPDEST DUP1 ISZERO PUSH2 0x579 JUMPI DUP1 PUSH1 0x1F LT PUSH2 0x54E JUMPI PUSH2 0x100 DUP1 DUP4 SLOAD DIV MUL DUP4 MSTORE SWAP2 PUSH1 0x20 ADD SWAP2 PUSH2 0x579 JUMP JUMPDEST DUP3 ADD SWAP2 SWAP1 PUSH1 0x0 MSTORE PUSH1 0x20 PUSH1 0x0 KECCAK256 SWAP1 JUMPDEST DUP2 SLOAD DUP2 MSTORE SWAP1 PUSH1 0x1 ADD SWAP1 PUSH1 0x20 ADD DUP1 DUP4 GT PUSH2 0x55C JUMPI DUP3 SWAP1 SUB PUSH1 0x1F AND DUP3 ADD SWAP2 JUMPDEST POP POP POP POP POP DUP2 MSTORE PUSH1 0x20 ADD PUSH1 0x3 DUP3 ADD DUP1 SLOAD PUSH2 0x592 SWAP1 PUSH2 0x19F7 JUMP JUMPDEST DUP1 PUSH1 0x1F ADD PUSH1 0x20 DUP1 SWAP2 DIV MUL PUSH1 0x20 ADD PUSH1 0x40 MLOAD SWAP1 DUP2 ADD PUSH1 0x40 MSTORE DUP1 SWAP3 SWAP2 SWAP1 DUP2 DUP2 MSTORE PUSH1 0x20 ADD DUP3 DUP1 SLOAD PUSH2 0x5BE SWAP1 PUSH2 0x19F7 JUMP JUMPDEST DUP1 ISZERO PUSH2 0x60B JUMPI DUP1 PUSH1 0x1F LT PUSH2 0x5E0 JUMPI PUSH2 0x100 DUP1 DUP4 SLOAD DIV MUL DUP4 MSTORE SWAP2 PUSH1 0x20 ADD SWAP2 PUSH2 0x60B JUMP JUMPDEST DUP3 ADD SWAP2 SWAP1 PUSH1 0x0 MSTORE PUSH1 0x20 PUSH1 0x0 KECCAK256 SWAP1 JUMPDEST DUP2 SLOAD DUP2 MSTORE SWAP1 PUSH1 0x1 ADD SWAP1 PUSH1 0x20 ADD DUP1 DUP4 GT PUSH2 0x5EE JUMPI DUP3 SWAP1 SUB PUSH1 0x1F AND DUP3 ADD SWAP2 JUMPDEST POP POP POP POP POP DUP2 MSTORE POP POP DUP2 MSTORE PUSH1 0x20 ADD SWAP1 PUSH1 0x1 ADD SWAP1 PUSH2 0x3E5 JUMP JUMPDEST POP POP POP POP SWAP1 POP SWAP1 JUMP JUMPDEST PUSH1 0x0 PUSH1 0x5 DUP1 SLOAD SWAP1 POP SWAP1 POP SWAP1 JUMP JUMPDEST PUSH1 0x0 PUSH1 0x40 MLOAD DUP1 PUSH1 0x60 ADD PUSH1 0x40 MSTORE DUP1 DUP5 DUP2 MSTORE PUSH1 0x20 ADD DUP4 DUP2 MSTORE PUSH1 0x20 ADD PUSH1 0x1 ISZERO ISZERO DUP2 MSTORE POP SWAP1 POP DUP1 PUSH1 0x4 DUP5 PUSH1 0x40 MLOAD PUSH2 0x66C SWAP2 SWAP1 PUSH2 0x1A64 JUMP JUMPDEST SWAP1 DUP2 MSTORE PUSH1 0x20 ADD PUSH1 0x40 MLOAD DUP1 SWAP2 SUB SWAP1 KECCAK256 PUSH1 0x0 DUP3 ADD MLOAD DUP2 PUSH1 0x0 ADD SWAP1 DUP2 PUSH2 0x68F SWAP2 SWAP1 PUSH2 0x1C27 JUMP JUMPDEST POP PUSH1 0x20 DUP3 ADD MLOAD DUP2 PUSH1 0x1 ADD SWAP1 DUP2 PUSH2 0x6A5 SWAP2 SWAP1 PUSH2 0x1C27 JUMP JUMPDEST POP PUSH1 0x40 DUP3 ADD MLOAD DUP2 PUSH1 0x2 ADD PUSH1 0x0 PUSH2 0x100 EXP DUP2 SLOAD DUP2 PUSH1 0xFF MUL NOT AND SWAP1 DUP4 ISZERO ISZERO MUL OR SWAP1 SSTORE POP SWAP1 POP POP PUSH1 0x5 DUP4 SWAP1 DUP1 PUSH1 0x1 DUP2 SLOAD ADD DUP1 DUP3 SSTORE DUP1 SWAP2 POP POP PUSH1 0x1 SWAP1 SUB SWAP1 PUSH1 0x0 MSTORE PUSH1 0x20 PUSH1 0x0 KECCAK256 ADD PUSH1 0x0 SWAP1 SWAP2 SWAP1 SWAP2 SWAP1 SWAP2 POP SWAP1 DUP2 PUSH2 0x6FD SWAP2 SWAP1 PUSH2 0x1C27 JUMP JUMPDEST POP POP POP POP JUMP JUMPDEST PUSH1 0x60 PUSH1 0x1 DUP1 SLOAD PUSH2 0x712 SWAP1 PUSH2 0x19F7 JUMP JUMPDEST DUP1 PUSH1 0x1F ADD PUSH1 0x20 DUP1 SWAP2 DIV MUL PUSH1 0x20 ADD PUSH1 0x40 MLOAD SWAP1 DUP2 ADD PUSH1 0x40 MSTORE DUP1 SWAP3 SWAP2 SWAP1 DUP2 DUP2 MSTORE PUSH1 0x20 ADD DUP3 DUP1 SLOAD PUSH2 0x73E SWAP1 PUSH2 0x19F7 JUMP JUMPDEST DUP1 ISZERO PUSH2 0x78B JUMPI DUP1 PUSH1 0x1F LT PUSH2 0x760 JUMPI PUSH2 0x100 DUP1 DUP4 SLOAD DIV MUL DUP4 MSTORE SWAP2 PUSH1 0x20 ADD SWAP2 PUSH2 0x78B JUMP JUMPDEST DUP3 ADD SWAP2 SWAP1 PUSH1 0x0 MSTORE PUSH1 0x20 PUSH1 0x0 KECCAK256 SWAP1 JUMPDEST DUP2 SLOAD DUP2 MSTORE SWAP1 PUSH1 0x1 ADD SWAP1 PUSH1 0x20 ADD DUP1 DUP4 GT PUSH2 0x76E JUMPI DUP3 SWAP1 SUB PUSH1 0x1F AND DUP3 ADD SWAP2 JUMPDEST POP POP POP POP POP SWAP1 POP SWAP1 JUMP JUMPDEST PUSH1 0x60 PUSH1 0x1 ISZERO ISZERO PUSH1 0x3 PUSH1 0x0 SWAP1 SLOAD SWAP1 PUSH2 0x100 EXP SWAP1 DIV PUSH1 0xFF AND ISZERO ISZERO EQ DUP1 ISZERO PUSH2 0x7CD JUMPI POP PUSH1 0x1 ISZERO ISZERO PUSH1 0x3 PUSH1 0x1 SWAP1 SLOAD SWAP1 PUSH2 0x100 EXP SWAP1 DIV PUSH1 0xFF AND ISZERO ISZERO EQ JUMPDEST ISZERO PUSH2 0x80F JUMPI PUSH1 0x40 MLOAD DUP1 PUSH1 0x40 ADD PUSH1 0x40 MSTORE DUP1 PUSH1 0x8 DUP2 MSTORE PUSH1 0x20 ADD PUSH32 0x66696E6973686564000000000000000000000000000000000000000000000000 DUP2 MSTORE POP SWAP1 POP PUSH2 0x8C0 JUMP JUMPDEST PUSH1 0x1 ISZERO ISZERO PUSH1 0x3 PUSH1 0x0 SWAP1 SLOAD SWAP1 PUSH2 0x100 EXP SWAP1 DIV PUSH1 0xFF AND ISZERO ISZERO EQ DUP1 ISZERO PUSH2 0x845 JUMPI POP PUSH1 0x0 ISZERO ISZERO PUSH1 0x3 PUSH1 0x1 SWAP1 SLOAD SWAP1 PUSH2 0x100 EXP SWAP1 DIV PUSH1 0xFF AND ISZERO ISZERO EQ JUMPDEST ISZERO PUSH2 0x887 JUMPI PUSH1 0x40 MLOAD DUP1 PUSH1 0x40 ADD PUSH1 0x40 MSTORE DUP1 PUSH1 0x7 DUP2 MSTORE PUSH1 0x20 ADD PUSH32 0x72756E6E696E6700000000000000000000000000000000000000000000000000 DUP2 MSTORE POP SWAP1 POP PUSH2 0x8C0 JUMP JUMPDEST PUSH1 0x40 MLOAD DUP1 PUSH1 0x40 ADD PUSH1 0x40 MSTORE DUP1 PUSH1 0xB DUP2 MSTORE PUSH1 0x20 ADD PUSH32 0x6E6F742D73746172746564000000000000000000000000000000000000000000 DUP2 MSTORE POP SWAP1 POP JUMPDEST SWAP1 JUMP JUMPDEST PUSH1 0x1 ISZERO ISZERO PUSH1 0x3 PUSH1 0x0 SWAP1 SLOAD SWAP1 PUSH2 0x100 EXP SWAP1 DIV PUSH1 0xFF AND ISZERO ISZERO EQ DUP1 ISZERO PUSH2 0x8F9 JUMPI POP PUSH1 0x0 ISZERO ISZERO PUSH1 0x3 PUSH1 0x1 SWAP1 SLOAD SWAP1 PUSH2 0x100 EXP SWAP1 DIV PUSH1 0xFF AND ISZERO ISZERO EQ JUMPDEST PUSH2 0x902 JUMPI PUSH1 0x0 DUP1 REVERT JUMPDEST PUSH1 0x1 PUSH1 0x3 PUSH1 0x0 PUSH2 0x100 EXP DUP2 SLOAD DUP2 PUSH1 0xFF MUL NOT AND SWAP1 DUP4 ISZERO ISZERO MUL OR SWAP1 SSTORE POP PUSH1 0x1 PUSH1 0x3 PUSH1 0x1 PUSH2 0x100 EXP DUP2 SLOAD DUP2 PUSH1 0xFF MUL NOT AND SWAP1 DUP4 ISZERO ISZERO MUL OR SWAP1 SSTORE POP JUMP JUMPDEST PUSH1 0x1 PUSH1 0x0 DUP1 DUP4 PUSH20 0xFFFFFFFFFFFFFFFFFFFFFFFFFFFFFFFFFFFFFFFF AND PUSH20 0xFFFFFFFFFFFFFFFFFFFFFFFFFFFFFFFFFFFFFFFF AND DUP2 MSTORE PUSH1 0x20 ADD SWAP1 DUP2 MSTORE PUSH1 0x20 ADD PUSH1 0x0 KECCAK256 PUSH1 0x0 PUSH2 0x100 EXP DUP2 SLOAD DUP2 PUSH1 0xFF MUL NOT AND SWAP1 DUP4 ISZERO ISZERO MUL OR SWAP1 SSTORE POP POP JUMP JUMPDEST PUSH1 0x1 ISZERO ISZERO PUSH1 0x3 PUSH1 0x0 SWAP1 SLOAD SWAP1 PUSH2 0x100 EXP SWAP1 DIV PUSH1 0xFF AND ISZERO ISZERO EQ DUP1 ISZERO PUSH2 0x9CA JUMPI POP PUSH1 0x0 ISZERO ISZERO PUSH1 0x3 PUSH1 0x1 SWAP1 SLOAD SWAP1 PUSH2 0x100 EXP SWAP1 DIV PUSH1 0xFF AND ISZERO ISZERO EQ JUMPDEST PUSH2 0x9D3 JUMPI PUSH1 0x0 DUP1 REVERT JUMPDEST PUSH1 0x4 DUP2 PUSH1 0x40 MLOAD PUSH2 0x9E3 SWAP2 SWAP1 PUSH2 0x1A64 JUMP JUMPDEST SWAP1 DUP2 MSTORE PUSH1 0x20 ADD PUSH1 0x40 MLOAD DUP1 SWAP2 SUB SWAP1 KECCAK256 PUSH1 0x2 ADD PUSH1 0x0 SWAP1 SLOAD SWAP1 PUSH2 0x100 EXP SWAP1 DIV PUSH1 0xFF AND PUSH2 0xA41 JUMPI PUSH1 0x40 MLOAD PUSH32 0x8C379A000000000000000000000000000000000000000000000000000000000 DUP2 MSTORE PUSH1 0x4 ADD PUSH2 0xA38 SWAP1 PUSH2 0x1D45 JUMP JUMPDEST PUSH1 0x40 MLOAD DUP1 SWAP2 SUB SWAP1 REVERT JUMPDEST PUSH1 0x7 DUP4 PUSH1 0x40 MLOAD PUSH2 0xA51 SWAP2 SWAP1 PUSH2 0x1A64 JUMP JUMPDEST SWAP1 DUP2 MSTORE PUSH1 0x20 ADD PUSH1 0x40 MLOAD DUP1 SWAP2 SUB SWAP1 KECCAK256 PUSH1 0x0 SWAP1 SLOAD SWAP1 PUSH2 0x100 EXP SWAP1 DIV PUSH1 0xFF AND ISZERO PUSH2 0xAAD JUMPI PUSH1 0x40 MLOAD PUSH32 0x8C379A000000000000000000000000000000000000000000000000000000000 DUP2 MSTORE PUSH1 0x4 ADD PUSH2 0xAA4 SWAP1 PUSH2 0x1DB1 JUMP JUMPDEST PUSH1 0x40 MLOAD DUP1 SWAP2 SUB SWAP1 REVERT JUMPDEST PUSH1 0x0 PUSH1 0x40 MLOAD DUP1 PUSH1 0x80 ADD PUSH1 0x40 MSTORE DUP1 CALLER PUSH20 0xFFFFFFFFFFFFFFFFFFFFFFFFFFFFFFFFFFFFFFFF AND DUP2 MSTORE PUSH1 0x20 ADD DUP6 DUP2 MSTORE PUSH1 0x20 ADD DUP5 DUP2 MSTORE PUSH1 0x20 ADD DUP4 DUP2 MSTORE POP SWAP1 POP PUSH1 0x6 DUP2 SWAP1 DUP1 PUSH1 0x1 DUP2 SLOAD ADD DUP1 DUP3 SSTORE DUP1 SWAP2 POP POP PUSH1 0x1 SWAP1 SUB SWAP1 PUSH1 0x0 MSTORE PUSH1 0x20 PUSH1 0x0 KECCAK256 SWAP1 PUSH1 0x4 MUL ADD PUSH1 0x0 SWAP1 SWAP2 SWAP1 SWAP2 SWAP1 SWAP2 POP PUSH1 0x0 DUP3 ADD MLOAD DUP2 PUSH1 0x0 ADD PUSH1 0x0 PUSH2 0x100 EXP DUP2 SLOAD DUP2 PUSH20 0xFFFFFFFFFFFFFFFFFFFFFFFFFFFFFFFFFFFFFFFF MUL NOT AND SWAP1 DUP4 PUSH20 0xFFFFFFFFFFFFFFFFFFFFFFFFFFFFFFFFFFFFFFFF AND MUL OR SWAP1 SSTORE POP PUSH1 0x20 DUP3 ADD MLOAD DUP2 PUSH1 0x1 ADD SWAP1 DUP2 PUSH2 0xB70 SWAP2 SWAP1 PUSH2 0x1C27 JUMP JUMPDEST POP PUSH1 0x40 DUP3 ADD MLOAD DUP2 PUSH1 0x2 ADD SWAP1 DUP2 PUSH2 0xB86 SWAP2 SWAP1 PUSH2 0x1C27 JUMP JUMPDEST POP PUSH1 0x60 DUP3 ADD MLOAD DUP2 PUSH1 0x3 ADD SWAP1 DUP2 PUSH2 0xB9C SWAP2 SWAP1 PUSH2 0x1C27 JUMP JUMPDEST POP POP POP PUSH1 0x1 PUSH1 0x7 DUP6 PUSH1 0x40 MLOAD PUSH2 0xBB1 SWAP2 SWAP1 PUSH2 0x1A64 JUMP JUMPDEST SWAP1 DUP2 MSTORE PUSH1 0x20 ADD PUSH1 0x40 MLOAD DUP1 SWAP2 SUB SWAP1 KECCAK256 PUSH1 0x0 PUSH2 0x100 EXP DUP2 SLOAD DUP2 PUSH1 0xFF MUL NOT AND SWAP1 DUP4 ISZERO ISZERO MUL OR SWAP1 SSTORE POP PUSH1 0x8 DUP5 SWAP1 DUP1 PUSH1 0x1 DUP2 SLOAD ADD DUP1 DUP3 SSTORE DUP1 SWAP2 POP POP PUSH1 0x1 SWAP1 SUB SWAP1 PUSH1 0x0 MSTORE PUSH1 0x20 PUSH1 0x0 KECCAK256 ADD PUSH1 0x0 SWAP1 SWAP2 SWAP1 SWAP2 SWAP1 SWAP2 POP SWAP1 DUP2 PUSH2 0xC0A SWAP2 SWAP1 PUSH2 0x1C27 JUMP JUMPDEST POP POP POP POP POP JUMP JUMPDEST DUP2 PUSH1 0x1 SWAP1 DUP2 PUSH2 0xC20 SWAP2 SWAP1 PUSH2 0x1C27 JUMP JUMPDEST POP DUP1 PUSH1 0x2 SWAP1 DUP2 PUSH2 0xC30 SWAP2 SWAP1 PUSH2 0x1C27 JUMP JUMPDEST POP PUSH1 0x1 PUSH1 0x3 PUSH1 0x0 PUSH2 0x100 EXP DUP2 SLOAD DUP2 PUSH1 0xFF MUL NOT AND SWAP1 DUP4 ISZERO ISZERO MUL OR SWAP1 SSTORE POP PUSH1 0x0 PUSH1 0x3 PUSH1 0x1 PUSH2 0x100 EXP DUP2 SLOAD DUP2 PUSH1 0xFF MUL NOT AND SWAP1 DUP4 ISZERO ISZERO MUL OR SWAP1 SSTORE POP POP POP JUMP JUMPDEST PUSH1 0x7 DUP2 DUP1 MLOAD PUSH1 0x20 DUP2 ADD DUP3 ADD DUP1 MLOAD DUP5 DUP3 MSTORE PUSH1 0x20 DUP4 ADD PUSH1 0x20 DUP6 ADD KECCAK256 DUP2 DUP4 MSTORE DUP1 SWAP6 POP POP POP POP POP POP PUSH1 0x0 SWAP2 POP SLOAD SWAP1 PUSH2 0x100 EXP SWAP1 DIV PUSH1 0xFF AND DUP2 JUMP JUMPDEST PUSH1 0x60 PUSH1 0x2 DUP1 SLOAD PUSH2 0xCB0 SWAP1 PUSH2 0x19F7 JUMP JUMPDEST DUP1 PUSH1 0x1F ADD PUSH1 0x20 DUP1 SWAP2 DIV MUL PUSH1 0x20 ADD PUSH1 0x40 MLOAD SWAP1 DUP2 ADD PUSH1 0x40 MSTORE DUP1 SWAP3 SWAP2 SWAP1 DUP2 DUP2 MSTORE PUSH1 0x20 ADD DUP3 DUP1 SLOAD PUSH2 0xCDC SWAP1 PUSH2 0x19F7 JUMP JUMPDEST DUP1 ISZERO PUSH2 0xD29 JUMPI DUP1 PUSH1 0x1F LT PUSH2 0xCFE JUMPI PUSH2 0x100 DUP1 DUP4 SLOAD DIV MUL DUP4 MSTORE SWAP2 PUSH1 0x20 ADD SWAP2 PUSH2 0xD29 JUMP JUMPDEST DUP3 ADD SWAP2 SWAP1 PUSH1 0x0 MSTORE PUSH1 0x20 PUSH1 0x0 KECCAK256 SWAP1 JUMPDEST DUP2 SLOAD DUP2 MSTORE SWAP1 PUSH1 0x1 ADD SWAP1 PUSH1 0x20 ADD DUP1 DUP4 GT PUSH2 0xD0C JUMPI DUP3 SWAP1 SUB PUSH1 0x1F AND DUP3 ADD SWAP2 JUMPDEST POP POP POP POP POP SWAP1 POP SWAP1 JUMP JUMPDEST PUSH1 0x4 DUP2 DUP1 MLOAD PUSH1 0x20 DUP2 ADD DUP3 ADD DUP1 MLOAD DUP5 DUP3 MSTORE PUSH1 0x20 DUP4 ADD PUSH1 0x20 DUP6 ADD KECCAK256 DUP2 DUP4 MSTORE DUP1 SWAP6 POP POP POP POP POP POP PUSH1 0x0 SWAP2 POP SWAP1 POP DUP1 PUSH1 0x0 ADD DUP1 SLOAD PUSH2 0xD6C SWAP1 PUSH2 0x19F7 JUMP JUMPDEST DUP1 PUSH1 0x1F ADD PUSH1 0x20 DUP1 SWAP2 DIV MUL PUSH1 0x20 ADD PUSH1 0x40 MLOAD SWAP1 DUP2 ADD PUSH1 0x40 MSTORE DUP1 SWAP3 SWAP2 SWAP1 DUP2 DUP2 MSTORE PUSH1 0x20 ADD DUP3 DUP1 SLOAD PUSH2 0xD98 SWAP1 PUSH2 0x19F7 JUMP JUMPDEST DUP1 ISZERO PUSH2 0xDE5 JUMPI DUP1 PUSH1 0x1F LT PUSH2 0xDBA JUMPI PUSH2 0x100 DUP1 DUP4 SLOAD DIV MUL DUP4 MSTORE SWAP2 PUSH1 0x20 ADD SWAP2 PUSH2 0xDE5 JUMP JUMPDEST DUP3 ADD SWAP2 SWAP1 PUSH1 0x0 MSTORE PUSH1 0x20 PUSH1 0x0 KECCAK256 SWAP1 JUMPDEST DUP2 SLOAD DUP2 MSTORE SWAP1 PUSH1 0x1 ADD SWAP1 PUSH1 0x20 ADD DUP1 DUP4 GT PUSH2 0xDC8 JUMPI DUP3 SWAP1 SUB PUSH1 0x1F AND DUP3 ADD SWAP2 JUMPDEST POP POP POP POP POP SWAP1 DUP1 PUSH1 0x1 ADD DUP1 SLOAD PUSH2 0xDFA SWAP1 PUSH2 0x19F7 JUMP JUMPDEST DUP1 PUSH1 0x1F ADD PUSH1 0x20 DUP1 SWAP2 DIV MUL PUSH1 0x20 ADD PUSH1 0x40 MLOAD SWAP1 DUP2 ADD PUSH1 0x40 MSTORE DUP1 SWAP3 SWAP2 SWAP1 DUP2 DUP2 MSTORE PUSH1 0x20 ADD DUP3 DUP1 SLOAD PUSH2 0xE26 SWAP1 PUSH2 0x19F7 JUMP JUMPDEST DUP1 ISZERO PUSH2 0xE73 JUMPI DUP1 PUSH1 0x1F LT PUSH2 0xE48 JUMPI PUSH2 0x100 DUP1 DUP4 SLOAD DIV MUL DUP4 MSTORE SWAP2 PUSH1 0x20 ADD SWAP2 PUSH2 0xE73 JUMP JUMPDEST DUP3 ADD SWAP2 SWAP1 PUSH1 0x0 MSTORE PUSH1 0x20 PUSH1 0x0 KECCAK256 SWAP1 JUMPDEST DUP2 SLOAD DUP2 MSTORE SWAP1 PUSH1 0x1 ADD SWAP1 PUSH1 0x20 ADD DUP1 DUP4 GT PUSH2 0xE56 JUMPI DUP3 SWAP1 SUB PUSH1 0x1F AND DUP3 ADD SWAP2 JUMPDEST POP POP POP POP POP SWAP1 DUP1 PUSH1 0x2 ADD PUSH1 0x0 SWAP1 SLOAD SWAP1 PUSH2 0x100 EXP SWAP1 DIV PUSH1 0xFF AND SWAP1 POP DUP4 JUMP JUMPDEST PUSH1 0x60 PUSH1 0x8 DUP1 SLOAD DUP1 PUSH1 0x20 MUL PUSH1 0x20 ADD PUSH1 0x40 MLOAD SWAP1 DUP2 ADD PUSH1 0x40 MSTORE DUP1 SWAP3 SWAP2 SWAP1 DUP2 DUP2 MSTORE PUSH1 0x20 ADD PUSH1 0x0 SWAP1 JUMPDEST DUP3 DUP3 LT ISZERO PUSH2 0xF60 JUMPI DUP4 DUP3 SWAP1 PUSH1 0x0 MSTORE PUSH1 0x20 PUSH1 0x0 KECCAK256 ADD DUP1 SLOAD PUSH2 0xED3 SWAP1 PUSH2 0x19F7 JUMP JUMPDEST DUP1 PUSH1 0x1F ADD PUSH1 0x20 DUP1 SWAP2 DIV MUL PUSH1 0x20 ADD PUSH1 0x40 MLOAD SWAP1 DUP2 ADD PUSH1 0x40 MSTORE DUP1 SWAP3 SWAP2 SWAP1 DUP2 DUP2 MSTORE PUSH1 0x20 ADD DUP3 DUP1 SLOAD PUSH2 0xEFF SWAP1 PUSH2 0x19F7 JUMP JUMPDEST DUP1 ISZERO PUSH2 0xF4C JUMPI DUP1 PUSH1 0x1F LT PUSH2 0xF21 JUMPI PUSH2 0x100 DUP1 DUP4 SLOAD DIV MUL DUP4 MSTORE SWAP2 PUSH1 0x20 ADD SWAP2 PUSH2 0xF4C JUMP JUMPDEST DUP3 ADD SWAP2 SWAP1 PUSH1 0x0 MSTORE PUSH1 0x20 PUSH1 0x0 KECCAK256 SWAP1 JUMPDEST DUP2 SLOAD DUP2 MSTORE SWAP1 PUSH1 0x1 ADD SWAP1 PUSH1 0x20 ADD DUP1 DUP4 GT PUSH2 0xF2F JUMPI DUP3 SWAP1 SUB PUSH1 0x1F AND DUP3 ADD SWAP2 JUMPDEST POP POP POP POP POP DUP2 MSTORE PUSH1 0x20 ADD SWAP1 PUSH1 0x1 ADD SWAP1 PUSH2 0xEB4 JUMP JUMPDEST POP POP POP POP SWAP1 POP SWAP1 JUMP JUMPDEST PUSH1 0x1 ISZERO ISZERO PUSH1 0x3 PUSH1 0x0 SWAP1 SLOAD SWAP1 PUSH2 0x100 EXP SWAP1 DIV PUSH1 0xFF AND ISZERO ISZERO EQ DUP1 ISZERO PUSH2 0xF9F JUMPI POP PUSH1 0x1 ISZERO ISZERO PUSH1 0x3 PUSH1 0x1 SWAP1 SLOAD SWAP1 PUSH2 0x100 EXP SWAP1 DIV PUSH1 0xFF AND ISZERO ISZERO EQ JUMPDEST PUSH2 0xFA8 JUMPI PUSH1 0x0 DUP1 REVERT JUMPDEST PUSH1 0x0 JUMPDEST PUSH1 0x5 DUP1 SLOAD SWAP1 POP DUP2 PUSH4 0xFFFFFFFF AND LT ISZERO PUSH2 0x1049 JUMPI PUSH1 0x4 PUSH1 0x5 DUP3 PUSH4 0xFFFFFFFF AND DUP2 SLOAD DUP2 LT PUSH2 0xFDA JUMPI PUSH2 0xFD9 PUSH2 0x1DD1 JUMP JUMPDEST JUMPDEST SWAP1 PUSH1 0x0 MSTORE PUSH1 0x20 PUSH1 0x0 KECCAK256 ADD PUSH1 0x40 MLOAD PUSH2 0xFF1 SWAP2 SWAP1 PUSH2 0x1E83 JUMP JUMPDEST SWAP1 DUP2 MSTORE PUSH1 0x20 ADD PUSH1 0x40 MLOAD DUP1 SWAP2 SUB SWAP1 KECCAK256 PUSH1 0x0 DUP1 DUP3 ADD PUSH1 0x0 PUSH2 0x1010 SWAP2 SWAP1 PUSH2 0x1165 JUMP JUMPDEST PUSH1 0x1 DUP3 ADD PUSH1 0x0 PUSH2 0x1020 SWAP2 SWAP1 PUSH2 0x1165 JUMP JUMPDEST PUSH1 0x2 DUP3 ADD PUSH1 0x0 PUSH2 0x100 EXP DUP2 SLOAD SWAP1 PUSH1 0xFF MUL NOT AND SWAP1 SSTORE POP POP DUP1 DUP1 PUSH2 0x1041 SWAP1 PUSH2 0x1ED9 JUMP JUMPDEST SWAP2 POP POP PUSH2 0xFAB JUMP JUMPDEST POP PUSH1 0x0 JUMPDEST PUSH1 0x8 DUP1 SLOAD SWAP1 POP DUP2 PUSH4 0xFFFFFFFF AND LT ISZERO PUSH2 0x10C4 JUMPI PUSH1 0x7 PUSH1 0x8 DUP3 PUSH4 0xFFFFFFFF AND DUP2 SLOAD DUP2 LT PUSH2 0x107C JUMPI PUSH2 0x107B PUSH2 0x1DD1 JUMP JUMPDEST JUMPDEST SWAP1 PUSH1 0x0 MSTORE PUSH1 0x20 PUSH1 0x0 KECCAK256 ADD PUSH1 0x40 MLOAD PUSH2 0x1093 SWAP2 SWAP1 PUSH2 0x1E83 JUMP JUMPDEST SWAP1 DUP2 MSTORE PUSH1 0x20 ADD PUSH1 0x40 MLOAD DUP1 SWAP2 SUB SWAP1 KECCAK256 PUSH1 0x0 PUSH2 0x100 EXP DUP2 SLOAD SWAP1 PUSH1 0xFF MUL NOT AND SWAP1 SSTORE DUP1 DUP1 PUSH2 0x10BC SWAP1 PUSH2 0x1ED9 JUMP JUMPDEST SWAP2 POP POP PUSH2 0x104D JUMP JUMPDEST POP PUSH1 0x40 MLOAD DUP1 PUSH1 0x20 ADD PUSH1 0x40 MSTORE DUP1 PUSH1 0x0 DUP2 MSTORE POP PUSH1 0x1 SWAP1 DUP2 PUSH2 0x10E3 SWAP2 SWAP1 PUSH2 0x1C27 JUMP JUMPDEST POP PUSH1 0x40 MLOAD DUP1 PUSH1 0x20 ADD PUSH1 0x40 MSTORE DUP1 PUSH1 0x0 DUP2 MSTORE POP PUSH1 0x2 SWAP1 DUP2 PUSH2 0x1102 SWAP2 SWAP1 PUSH2 0x1C27 JUMP JUMPDEST POP PUSH1 0x6 PUSH1 0x0 PUSH2 0x1111 SWAP2 SWAP1 PUSH2 0x11A5 JUMP JUMPDEST PUSH1 0x5 PUSH1 0x0 PUSH2 0x111F SWAP2 SWAP1 PUSH2 0x11C9 JUMP JUMPDEST PUSH1 0x8 PUSH1 0x0 PUSH2 0x112D SWAP2 SWAP1 PUSH2 0x11C9 JUMP JUMPDEST PUSH1 0x0 PUSH1 0x3 PUSH1 0x0 PUSH2 0x100 EXP DUP2 SLOAD DUP2 PUSH1 0xFF MUL NOT AND SWAP1 DUP4 ISZERO ISZERO MUL OR SWAP1 SSTORE POP PUSH1 0x0 PUSH1 0x3 PUSH1 0x1 PUSH2 0x100 EXP DUP2 SLOAD DUP2 PUSH1 0xFF MUL NOT AND SWAP1 DUP4 ISZERO ISZERO MUL OR SWAP1 SSTORE POP JUMP JUMPDEST POP DUP1 SLOAD PUSH2 0x1171 SWAP1 PUSH2 0x19F7 JUMP JUMPDEST PUSH1 0x0 DUP3 SSTORE DUP1 PUSH1 0x1F LT PUSH2 0x1183 JUMPI POP PUSH2 0x11A2 JUMP JUMPDEST PUSH1 0x1F ADD PUSH1 0x20 SWAP1 DIV SWAP1 PUSH1 0x0 MSTORE PUSH1 0x20 PUSH1 0x0 KECCAK256 SWAP1 DUP2 ADD SWAP1 PUSH2 0x11A1 SWAP2 SWAP1 PUSH2 0x11EA JUMP JUMPDEST JUMPDEST POP JUMP JUMPDEST POP DUP1 SLOAD PUSH1 0x0 DUP3 SSTORE PUSH1 0x4 MUL SWAP1 PUSH1 0x0 MSTORE PUSH1 0x20 PUSH1 0x0 KECCAK256 SWAP1 DUP2 ADD SWAP1 PUSH2 0x11C6 SWAP2 SWAP1 PUSH2 0x1207 JUMP JUMPDEST POP JUMP JUMPDEST POP DUP1 SLOAD PUSH1 0x0 DUP3 SSTORE SWAP1 PUSH1 0x0 MSTORE PUSH1 0x20 PUSH1 0x0 KECCAK256 SWAP1 DUP2 ADD SWAP1 PUSH2 0x11E7 SWAP2 SWAP1 PUSH2 0x1275 JUMP JUMPDEST POP JUMP JUMPDEST JUMPDEST DUP1 DUP3 GT ISZERO PUSH2 0x1203 JUMPI PUSH1 0x0 DUP2 PUSH1 0x0 SWAP1 SSTORE POP PUSH1 0x1 ADD PUSH2 0x11EB JUMP JUMPDEST POP SWAP1 JUMP JUMPDEST JUMPDEST DUP1 DUP3 GT ISZERO PUSH2 0x1271 JUMPI PUSH1 0x0 DUP1 DUP3 ADD PUSH1 0x0 PUSH2 0x100 EXP DUP2 SLOAD SWAP1 PUSH20 0xFFFFFFFFFFFFFFFFFFFFFFFFFFFFFFFFFFFFFFFF MUL NOT AND SWAP1 SSTORE PUSH1 0x1 DUP3 ADD PUSH1 0x0 PUSH2 0x1248 SWAP2 SWAP1 PUSH2 0x1165 JUMP JUMPDEST PUSH1 0x2 DUP3 ADD PUSH1 0x0 PUSH2 0x1258 SWAP2 SWAP1 PUSH2 0x1165 JUMP JUMPDEST PUSH1 0x3 DUP3 ADD PUSH1 0x0 PUSH2 0x1268 SWAP2 SWAP1 PUSH2 0x1165 JUMP JUMPDEST POP PUSH1 0x4 ADD PUSH2 0x1208 JUMP JUMPDEST POP SWAP1 JUMP JUMPDEST JUMPDEST DUP1 DUP3 GT ISZERO PUSH2 0x1295 JUMPI PUSH1 0x0 DUP2 DUP2 PUSH2 0x128C SWAP2 SWAP1 PUSH2 0x1165 JUMP JUMPDEST POP PUSH1 0x1 ADD PUSH2 0x1276 JUMP JUMPDEST POP SWAP1 JUMP JUMPDEST PUSH1 0x0 DUP2 MLOAD SWAP1 POP SWAP2 SWAP1 POP JUMP JUMPDEST PUSH1 0x0 DUP3 DUP3 MSTORE PUSH1 0x20 DUP3 ADD SWAP1 POP SWAP3 SWAP2 POP POP JUMP JUMPDEST PUSH1 0x0 DUP2 SWAP1 POP PUSH1 0x20 DUP3 ADD SWAP1 POP SWAP2 SWAP1 POP JUMP JUMPDEST PUSH1 0x0 DUP2 MLOAD SWAP1 POP SWAP2 SWAP1 POP JUMP JUMPDEST PUSH1 0x0 DUP3 DUP3 MSTORE PUSH1 0x20 DUP3 ADD SWAP1 POP SWAP3 SWAP2 POP POP JUMP JUMPDEST PUSH1 0x0 JUMPDEST DUP4 DUP2 LT ISZERO PUSH2 0x12FF JUMPI DUP1 DUP3 ADD MLOAD DUP2 DUP5 ADD MSTORE PUSH1 0x20 DUP2 ADD SWAP1 POP PUSH2 0x12E4 JUMP JUMPDEST PUSH1 0x0 DUP5 DUP5 ADD MSTORE POP POP POP POP JUMP JUMPDEST PUSH1 0x0 PUSH1 0x1F NOT PUSH1 0x1F DUP4 ADD AND SWAP1 POP SWAP2 SWAP1 POP JUMP JUMPDEST PUSH1 0x0 PUSH2 0x1327 DUP3 PUSH2 0x12C5 JUMP JUMPDEST PUSH2 0x1331 DUP2 DUP6 PUSH2 0x12D0 JUMP JUMPDEST SWAP4 POP PUSH2 0x1341 DUP2 DUP6 PUSH1 0x20 DUP7 ADD PUSH2 0x12E1 JUMP JUMPDEST PUSH2 0x134A DUP2 PUSH2 0x130B JUMP JUMPDEST DUP5 ADD SWAP2 POP POP SWAP3 SWAP2 POP POP JUMP JUMPDEST PUSH1 0x0 PUSH2 0x1361 DUP4 DUP4 PUSH2 0x131C JUMP JUMPDEST SWAP1 POP SWAP3 SWAP2 POP POP JUMP JUMPDEST PUSH1 0x0 PUSH1 0x20 DUP3 ADD SWAP1 POP SWAP2 SWAP1 POP JUMP JUMPDEST PUSH1 0x0 PUSH2 0x1381 DUP3 PUSH2 0x1299 JUMP JUMPDEST PUSH2 0x138B DUP2 DUP6 PUSH2 0x12A4 JUMP JUMPDEST SWAP4 POP DUP4 PUSH1 0x20 DUP3 MUL DUP6 ADD PUSH2 0x139D DUP6 PUSH2 0x12B5 JUMP JUMPDEST DUP1 PUSH1 0x0 JUMPDEST DUP6 DUP2 LT ISZERO PUSH2 0x13D9 JUMPI DUP5 DUP5 SUB DUP10 MSTORE DUP2 MLOAD PUSH2 0x13BA DUP6 DUP3 PUSH2 0x1355 JUMP JUMPDEST SWAP5 POP PUSH2 0x13C5 DUP4 PUSH2 0x1369 JUMP JUMPDEST SWAP3 POP PUSH1 0x20 DUP11 ADD SWAP10 POP POP PUSH1 0x1 DUP2 ADD SWAP1 POP PUSH2 0x13A1 JUMP JUMPDEST POP DUP3 SWAP8 POP DUP8 SWAP6 POP POP POP POP POP POP SWAP3 SWAP2 POP POP JUMP JUMPDEST PUSH1 0x0 PUSH1 0x20 DUP3 ADD SWAP1 POP DUP2 DUP2 SUB PUSH1 0x0 DUP4 ADD MSTORE PUSH2 0x1405 DUP2 DUP5 PUSH2 0x1376 JUMP JUMPDEST SWAP1 POP SWAP3 SWAP2 POP POP JUMP JUMPDEST PUSH1 0x0 DUP2 SWAP1 POP SWAP2 SWAP1 POP JUMP JUMPDEST PUSH2 0x1420 DUP2 PUSH2 0x140D JUMP JUMPDEST DUP3 MSTORE POP POP JUMP JUMPDEST PUSH1 0x0 PUSH1 0x20 DUP3 ADD SWAP1 POP PUSH2 0x143B PUSH1 0x0 DUP4 ADD DUP5 PUSH2 0x1417 JUMP JUMPDEST SWAP3 SWAP2 POP POP JUMP JUMPDEST PUSH1 0x0 DUP2 MLOAD SWAP1 POP SWAP2 SWAP1 POP JUMP JUMPDEST PUSH1 0x0 DUP3 DUP3 MSTORE PUSH1 0x20 DUP3 ADD SWAP1 POP SWAP3 SWAP2 POP POP JUMP JUMPDEST PUSH1 0x0 DUP2 SWAP1 POP PUSH1 0x20 DUP3 ADD SWAP1 POP SWAP2 SWAP1 POP JUMP JUMPDEST PUSH1 0x0 PUSH20 0xFFFFFFFFFFFFFFFFFFFFFFFFFFFFFFFFFFFFFFFF DUP3 AND SWAP1 POP SWAP2 SWAP1 POP JUMP JUMPDEST PUSH1 0x0 PUSH2 0x1498 DUP3 PUSH2 0x146D JUMP JUMPDEST SWAP1 POP SWAP2 SWAP1 POP JUMP JUMPDEST PUSH2 0x14A8 DUP2 PUSH2 0x148D JUMP JUMPDEST DUP3 MSTORE POP POP JUMP JUMPDEST PUSH1 0x0 PUSH1 0x80 DUP4 ADD PUSH1 0x0 DUP4 ADD MLOAD PUSH2 0x14C6 PUSH1 0x0 DUP7 ADD DUP3 PUSH2 0x149F JUMP JUMPDEST POP PUSH1 0x20 DUP4 ADD MLOAD DUP5 DUP3 SUB PUSH1 0x20 DUP7 ADD MSTORE PUSH2 0x14DE DUP3 DUP3 PUSH2 0x131C JUMP JUMPDEST SWAP2 POP POP PUSH1 0x40 DUP4 ADD MLOAD DUP5 DUP3 SUB PUSH1 0x40 DUP7 ADD MSTORE PUSH2 0x14F8 DUP3 DUP3 PUSH2 0x131C JUMP JUMPDEST SWAP2 POP POP PUSH1 0x60 DUP4 ADD MLOAD DUP5 DUP3 SUB PUSH1 0x60 DUP7 ADD MSTORE PUSH2 0x1512 DUP3 DUP3 PUSH2 0x131C JUMP JUMPDEST SWAP2 POP POP DUP1 SWAP2 POP POP SWAP3 SWAP2 POP POP JUMP JUMPDEST PUSH1 0x0 PUSH2 0x152B DUP4 DUP4 PUSH2 0x14AE JUMP JUMPDEST SWAP1 POP SWAP3 SWAP2 POP POP JUMP JUMPDEST PUSH1 0x0 PUSH1 0x20 DUP3 ADD SWAP1 POP SWAP2 SWAP1 POP JUMP JUMPDEST PUSH1 0x0 PUSH2 0x154B DUP3 PUSH2 0x1441 JUMP JUMPDEST PUSH2 0x1555 DUP2 DUP6 PUSH2 0x144C JUMP JUMPDEST SWAP4 POP DUP4 PUSH1 0x20 DUP3 MUL DUP6 ADD PUSH2 0x1567 DUP6 PUSH2 0x145D JUMP JUMPDEST DUP1 PUSH1 0x0 JUMPDEST DUP6 DUP2 LT ISZERO PUSH2 0x15A3 JUMPI DUP5 DUP5 SUB DUP10 MSTORE DUP2 MLOAD PUSH2 0x1584 DUP6 DUP3 PUSH2 0x151F JUMP JUMPDEST SWAP5 POP PUSH2 0x158F DUP4 PUSH2 0x1533 JUMP JUMPDEST SWAP3 POP PUSH1 0x20 DUP11 ADD SWAP10 POP POP PUSH1 0x1 DUP2 ADD SWAP1 POP PUSH2 0x156B JUMP JUMPDEST POP DUP3 SWAP8 POP DUP8 SWAP6 POP POP POP POP POP POP SWAP3 SWAP2 POP POP JUMP JUMPDEST PUSH1 0x0 PUSH1 0x20 DUP3 ADD SWAP1 POP DUP2 DUP2 SUB PUSH1 0x0 DUP4 ADD MSTORE PUSH2 0x15CF DUP2 DUP5 PUSH2 0x1540 JUMP JUMPDEST SWAP1 POP SWAP3 SWAP2 POP POP JUMP JUMPDEST PUSH1 0x0 PUSH1 0x40 MLOAD SWAP1 POP SWAP1 JUMP JUMPDEST PUSH1 0x0 DUP1 REVERT JUMPDEST PUSH1 0x0 DUP1 REVERT JUMPDEST PUSH1 0x0 DUP1 REVERT JUMPDEST PUSH1 0x0 DUP1 REVERT JUMPDEST PUSH32 0x4E487B7100000000000000000000000000000000000000000000000000000000 PUSH1 0x0 MSTORE PUSH1 0x41 PUSH1 0x4 MSTORE PUSH1 0x24 PUSH1 0x0 REVERT JUMPDEST PUSH2 0x162D DUP3 PUSH2 0x130B JUMP JUMPDEST DUP2 ADD DUP2 DUP2 LT PUSH8 0xFFFFFFFFFFFFFFFF DUP3 GT OR ISZERO PUSH2 0x164C JUMPI PUSH2 0x164B PUSH2 0x15F5 JUMP JUMPDEST JUMPDEST DUP1 PUSH1 0x40 MSTORE POP POP POP JUMP JUMPDEST PUSH1 0x0 PUSH2 0x165F PUSH2 0x15D7 JUMP JUMPDEST SWAP1 POP PUSH2 0x166B DUP3 DUP3 PUSH2 0x1624 JUMP JUMPDEST SWAP2 SWAP1 POP JUMP JUMPDEST PUSH1 0x0 PUSH8 0xFFFFFFFFFFFFFFFF DUP3 GT ISZERO PUSH2 0x168B JUMPI PUSH2 0x168A PUSH2 0x15F5 JUMP JUMPDEST JUMPDEST PUSH2 0x1694 DUP3 PUSH2 0x130B JUMP JUMPDEST SWAP1 POP PUSH1 0x20 DUP2 ADD SWAP1 POP SWAP2 SWAP1 POP JUMP JUMPDEST DUP3 DUP2 DUP4 CALLDATACOPY PUSH1 0x0 DUP4 DUP4 ADD MSTORE POP POP POP JUMP JUMPDEST PUSH1 0x0 PUSH2 0x16C3 PUSH2 0x16BE DUP5 PUSH2 0x1670 JUMP JUMPDEST PUSH2 0x1655 JUMP JUMPDEST SWAP1 POP DUP3 DUP2 MSTORE PUSH1 0x20 DUP2 ADD DUP5 DUP5 DUP5 ADD GT ISZERO PUSH2 0x16DF JUMPI PUSH2 0x16DE PUSH2 0x15F0 JUMP JUMPDEST JUMPDEST PUSH2 0x16EA DUP5 DUP3 DUP6 PUSH2 0x16A1 JUMP JUMPDEST POP SWAP4 SWAP3 POP POP POP JUMP JUMPDEST PUSH1 0x0 DUP3 PUSH1 0x1F DUP4 ADD SLT PUSH2 0x1707 JUMPI PUSH2 0x1706 PUSH2 0x15EB JUMP JUMPDEST JUMPDEST DUP2 CALLDATALOAD PUSH2 0x1717 DUP5 DUP3 PUSH1 0x20 DUP7 ADD PUSH2 0x16B0 JUMP JUMPDEST SWAP2 POP POP SWAP3 SWAP2 POP POP JUMP JUMPDEST PUSH1 0x0 DUP1 PUSH1 0x40 DUP4 DUP6 SUB SLT ISZERO PUSH2 0x1737 JUMPI PUSH2 0x1736 PUSH2 0x15E1 JUMP JUMPDEST JUMPDEST PUSH1 0x0 DUP4 ADD CALLDATALOAD PUSH8 0xFFFFFFFFFFFFFFFF DUP2 GT ISZERO PUSH2 0x1755 JUMPI PUSH2 0x1754 PUSH2 0x15E6 JUMP JUMPDEST JUMPDEST PUSH2 0x1761 DUP6 DUP3 DUP7 ADD PUSH2 0x16F2 JUMP JUMPDEST SWAP3 POP POP PUSH1 0x20 DUP4 ADD CALLDATALOAD PUSH8 0xFFFFFFFFFFFFFFFF DUP2 GT ISZERO PUSH2 0x1782 JUMPI PUSH2 0x1781 PUSH2 0x15E6 JUMP JUMPDEST JUMPDEST PUSH2 0x178E DUP6 DUP3 DUP7 ADD PUSH2 0x16F2 JUMP JUMPDEST SWAP2 POP POP SWAP3 POP SWAP3 SWAP1 POP JUMP JUMPDEST PUSH1 0x0 DUP3 DUP3 MSTORE PUSH1 0x20 DUP3 ADD SWAP1 POP SWAP3 SWAP2 POP POP JUMP JUMPDEST PUSH1 0x0 PUSH2 0x17B4 DUP3 PUSH2 0x12C5 JUMP JUMPDEST PUSH2 0x17BE DUP2 DUP6 PUSH2 0x1798 JUMP JUMPDEST SWAP4 POP PUSH2 0x17CE DUP2 DUP6 PUSH1 0x20 DUP7 ADD PUSH2 0x12E1 JUMP JUMPDEST PUSH2 0x17D7 DUP2 PUSH2 0x130B JUMP JUMPDEST DUP5 ADD SWAP2 POP POP SWAP3 SWAP2 POP POP JUMP JUMPDEST PUSH1 0x0 PUSH1 0x20 DUP3 ADD SWAP1 POP DUP2 DUP2 SUB PUSH1 0x0 DUP4 ADD MSTORE PUSH2 0x17FC DUP2 DUP5 PUSH2 0x17A9 JUMP JUMPDEST SWAP1 POP SWAP3 SWAP2 POP POP JUMP JUMPDEST PUSH2 0x180D DUP2 PUSH2 0x148D JUMP JUMPDEST DUP2 EQ PUSH2 0x1818 JUMPI PUSH1 0x0 DUP1 REVERT JUMPDEST POP JUMP JUMPDEST PUSH1 0x0 DUP2 CALLDATALOAD SWAP1 POP PUSH2 0x182A DUP2 PUSH2 0x1804 JUMP JUMPDEST SWAP3 SWAP2 POP POP JUMP JUMPDEST PUSH1 0x0 PUSH1 0x20 DUP3 DUP5 SUB SLT ISZERO PUSH2 0x1846 JUMPI PUSH2 0x1845 PUSH2 0x15E1 JUMP JUMPDEST JUMPDEST PUSH1 0x0 PUSH2 0x1854 DUP5 DUP3 DUP6 ADD PUSH2 0x181B JUMP JUMPDEST SWAP2 POP POP SWAP3 SWAP2 POP POP JUMP JUMPDEST PUSH1 0x0 DUP1 PUSH1 0x0 PUSH1 0x60 DUP5 DUP7 SUB SLT ISZERO PUSH2 0x1876 JUMPI PUSH2 0x1875 PUSH2 0x15E1 JUMP JUMPDEST JUMPDEST PUSH1 0x0 DUP5 ADD CALLDATALOAD PUSH8 0xFFFFFFFFFFFFFFFF DUP2 GT ISZERO PUSH2 0x1894 JUMPI PUSH2 0x1893 PUSH2 0x15E6 JUMP JUMPDEST JUMPDEST PUSH2 0x18A0 DUP7 DUP3 DUP8 ADD PUSH2 0x16F2 JUMP JUMPDEST SWAP4 POP POP PUSH1 0x20 DUP5 ADD CALLDATALOAD PUSH8 0xFFFFFFFFFFFFFFFF DUP2 GT ISZERO PUSH2 0x18C1 JUMPI PUSH2 0x18C0 PUSH2 0x15E6 JUMP JUMPDEST JUMPDEST PUSH2 0x18CD DUP7 DUP3 DUP8 ADD PUSH2 0x16F2 JUMP JUMPDEST SWAP3 POP POP PUSH1 0x40 DUP5 ADD CALLDATALOAD PUSH8 0xFFFFFFFFFFFFFFFF DUP2 GT ISZERO PUSH2 0x18EE JUMPI PUSH2 0x18ED PUSH2 0x15E6 JUMP JUMPDEST JUMPDEST PUSH2 0x18FA DUP7 DUP3 DUP8 ADD PUSH2 0x16F2 JUMP JUMPDEST SWAP2 POP POP SWAP3 POP SWAP3 POP SWAP3 JUMP JUMPDEST PUSH1 0x0 PUSH1 0x20 DUP3 DUP5 SUB SLT ISZERO PUSH2 0x191A JUMPI PUSH2 0x1919 PUSH2 0x15E1 JUMP JUMPDEST JUMPDEST PUSH1 0x0 DUP3 ADD CALLDATALOAD PUSH8 0xFFFFFFFFFFFFFFFF DUP2 GT ISZERO PUSH2 0x1938 JUMPI PUSH2 0x1937 PUSH2 0x15E6 JUMP JUMPDEST JUMPDEST PUSH2 0x1944 DUP5 DUP3 DUP6 ADD PUSH2 0x16F2 JUMP JUMPDEST SWAP2 POP POP SWAP3 SWAP2 POP POP JUMP JUMPDEST PUSH1 0x0 DUP2 ISZERO ISZERO SWAP1 POP SWAP2 SWAP1 POP JUMP JUMPDEST PUSH2 0x1962 DUP2 PUSH2 0x194D JUMP JUMPDEST DUP3 MSTORE POP POP JUMP JUMPDEST PUSH1 0x0 PUSH1 0x20 DUP3 ADD SWAP1 POP PUSH2 0x197D PUSH1 0x0 DUP4 ADD DUP5 PUSH2 0x1959 JUMP JUMPDEST SWAP3 SWAP2 POP POP JUMP JUMPDEST PUSH1 0x0 PUSH1 0x60 DUP3 ADD SWAP1 POP DUP2 DUP2 SUB PUSH1 0x0 DUP4 ADD MSTORE PUSH2 0x199D DUP2 DUP7 PUSH2 0x17A9 JUMP JUMPDEST SWAP1 POP DUP2 DUP2 SUB PUSH1 0x20 DUP4 ADD MSTORE PUSH2 0x19B1 DUP2 DUP6 PUSH2 0x17A9 JUMP JUMPDEST SWAP1 POP PUSH2 0x19C0 PUSH1 0x40 DUP4 ADD DUP5 PUSH2 0x1959 JUMP JUMPDEST SWAP5 SWAP4 POP POP POP POP JUMP JUMPDEST PUSH32 0x4E487B7100000000000000000000000000000000000000000000000000000000 PUSH1 0x0 MSTORE PUSH1 0x22 PUSH1 0x4 MSTORE PUSH1 0x24 PUSH1 0x0 REVERT JUMPDEST PUSH1 0x0 PUSH1 0x2 DUP3 DIV SWAP1 POP PUSH1 0x1 DUP3 AND DUP1 PUSH2 0x1A0F JUMPI PUSH1 0x7F DUP3 AND SWAP2 POP JUMPDEST PUSH1 0x20 DUP3 LT DUP2 SUB PUSH2 0x1A22 JUMPI PUSH2 0x1A21 PUSH2 0x19C8 JUMP JUMPDEST JUMPDEST POP SWAP2 SWAP1 POP JUMP JUMPDEST PUSH1 0x0 DUP2 SWAP1 POP SWAP3 SWAP2 POP POP JUMP JUMPDEST PUSH1 0x0 PUSH2 0x1A3E DUP3 PUSH2 0x12C5 JUMP JUMPDEST PUSH2 0x1A48 DUP2 DUP6 PUSH2 0x1A28 JUMP JUMPDEST SWAP4 POP PUSH2 0x1A58 DUP2 DUP6 PUSH1 0x20 DUP7 ADD PUSH2 0x12E1 JUMP JUMPDEST DUP1 DUP5 ADD SWAP2 POP POP SWAP3 SWAP2 POP POP JUMP JUMPDEST PUSH1 0x0 PUSH2 0x1A70 DUP3 DUP5 PUSH2 0x1A33 JUMP JUMPDEST SWAP2 POP DUP2 SWAP1 POP SWAP3 SWAP2 POP POP JUMP JUMPDEST PUSH1 0x0 DUP2 SWAP1 POP DUP2 PUSH1 0x0 MSTORE PUSH1 0x20 PUSH1 0x0 KECCAK256 SWAP1 POP SWAP2 SWAP1 POP JUMP JUMPDEST PUSH1 0x0 PUSH1 0x20 PUSH1 0x1F DUP4 ADD DIV SWAP1 POP SWAP2 SWAP1 POP JUMP JUMPDEST PUSH1 0x0 DUP3 DUP3 SHL SWAP1 POP SWAP3 SWAP2 POP POP JUMP JUMPDEST PUSH1 0x0 PUSH1 0x8 DUP4 MUL PUSH2 0x1ADD PUSH32 0xFFFFFFFFFFFFFFFFFFFFFFFFFFFFFFFFFFFFFFFFFFFFFFFFFFFFFFFFFFFFFFFF DUP3 PUSH2 0x1AA0 JUMP JUMPDEST PUSH2 0x1AE7 DUP7 DUP4 PUSH2 0x1AA0 JUMP JUMPDEST SWAP6 POP DUP1 NOT DUP5 AND SWAP4 POP DUP1 DUP7 AND DUP5 OR SWAP3 POP POP POP SWAP4 SWAP3 POP POP POP JUMP JUMPDEST PUSH1 0x0 DUP2 SWAP1 POP SWAP2 SWAP1 POP JUMP JUMPDEST PUSH1 0x0 PUSH2 0x1B24 PUSH2 0x1B1F PUSH2 0x1B1A DUP5 PUSH2 0x140D JUMP JUMPDEST PUSH2 0x1AFF JUMP JUMPDEST PUSH2 0x140D JUMP JUMPDEST SWAP1 POP SWAP2 SWAP1 POP JUMP JUMPDEST PUSH1 0x0 DUP2 SWAP1 POP SWAP2 SWAP1 POP JUMP JUMPDEST PUSH2 0x1B3E DUP4 PUSH2 0x1B09 JUMP JUMPDEST PUSH2 0x1B52 PUSH2 0x1B4A DUP3 PUSH2 0x1B2B JUMP JUMPDEST DUP5 DUP5 SLOAD PUSH2 0x1AAD JUMP JUMPDEST DUP3 SSTORE POP POP POP POP JUMP JUMPDEST PUSH1 0x0 SWAP1 JUMP JUMPDEST PUSH2 0x1B67 PUSH2 0x1B5A JUMP JUMPDEST PUSH2 0x1B72 DUP2 DUP5 DUP5 PUSH2 0x1B35 JUMP JUMPDEST POP POP POP JUMP JUMPDEST JUMPDEST DUP2 DUP2 LT ISZERO PUSH2 0x1B96 JUMPI PUSH2 0x1B8B PUSH1 0x0 DUP3 PUSH2 0x1B5F JUMP JUMPDEST PUSH1 0x1 DUP2 ADD SWAP1 POP PUSH2 0x1B78 JUMP JUMPDEST POP POP JUMP JUMPDEST PUSH1 0x1F DUP3 GT ISZERO PUSH2 0x1BDB JUMPI PUSH2 0x1BAC DUP2 PUSH2 0x1A7B JUMP JUMPDEST PUSH2 0x1BB5 DUP5 PUSH2 0x1A90 JUMP JUMPDEST DUP2 ADD PUSH1 0x20 DUP6 LT ISZERO PUSH2 0x1BC4 JUMPI DUP2 SWAP1 POP JUMPDEST PUSH2 0x1BD8 PUSH2 0x1BD0 DUP6 PUSH2 0x1A90 JUMP JUMPDEST DUP4 ADD DUP3 PUSH2 0x1B77 JUMP JUMPDEST POP POP JUMPDEST POP POP POP JUMP JUMPDEST PUSH1 0x0 DUP3 DUP3 SHR SWAP1 POP SWAP3 SWAP2 POP POP JUMP JUMPDEST PUSH1 0x0 PUSH2 0x1BFE PUSH1 0x0 NOT DUP5 PUSH1 0x8 MUL PUSH2 0x1BE0 JUMP JUMPDEST NOT DUP1 DUP4 AND SWAP2 POP POP SWAP3 SWAP2 POP POP JUMP JUMPDEST PUSH1 0x0 PUSH2 0x1C17 DUP4 DUP4 PUSH2 0x1BED JUMP JUMPDEST SWAP2 POP DUP3 PUSH1 0x2 MUL DUP3 OR SWAP1 POP SWAP3 SWAP2 POP POP JUMP JUMPDEST PUSH2 0x1C30 DUP3 PUSH2 0x12C5 JUMP JUMPDEST PUSH8 0xFFFFFFFFFFFFFFFF DUP2 GT ISZERO PUSH2 0x1C49 JUMPI PUSH2 0x1C48 PUSH2 0x15F5 JUMP JUMPDEST JUMPDEST PUSH2 0x1C53 DUP3 SLOAD PUSH2 0x19F7 JUMP JUMPDEST PUSH2 0x1C5E DUP3 DUP3 DUP6 PUSH2 0x1B9A JUMP JUMPDEST PUSH1 0x0 PUSH1 0x20 SWAP1 POP PUSH1 0x1F DUP4 GT PUSH1 0x1 DUP2 EQ PUSH2 0x1C91 JUMPI PUSH1 0x0 DUP5 ISZERO PUSH2 0x1C7F JUMPI DUP3 DUP8 ADD MLOAD SWAP1 POP JUMPDEST PUSH2 0x1C89 DUP6 DUP3 PUSH2 0x1C0B JUMP JUMPDEST DUP7 SSTORE POP PUSH2 0x1CF1 JUMP JUMPDEST PUSH1 0x1F NOT DUP5 AND PUSH2 0x1C9F DUP7 PUSH2 0x1A7B JUMP JUMPDEST PUSH1 0x0 JUMPDEST DUP3 DUP2 LT ISZERO PUSH2 0x1CC7 JUMPI DUP5 DUP10 ADD MLOAD DUP3 SSTORE PUSH1 0x1 DUP3 ADD SWAP2 POP PUSH1 0x20 DUP6 ADD SWAP5 POP PUSH1 0x20 DUP2 ADD SWAP1 POP PUSH2 0x1CA2 JUMP JUMPDEST DUP7 DUP4 LT ISZERO PUSH2 0x1CE4 JUMPI DUP5 DUP10 ADD MLOAD PUSH2 0x1CE0 PUSH1 0x1F DUP10 AND DUP3 PUSH2 0x1BED JUMP JUMPDEST DUP4 SSTORE POP JUMPDEST PUSH1 0x1 PUSH1 0x2 DUP9 MUL ADD DUP9 SSTORE POP POP POP JUMPDEST POP POP POP POP POP POP JUMP JUMPDEST PUSH32 0x4E6F20737563682063616E646964617465000000000000000000000000000000 PUSH1 0x0 DUP3 ADD MSTORE POP JUMP JUMPDEST PUSH1 0x0 PUSH2 0x1D2F PUSH1 0x11 DUP4 PUSH2 0x1798 JUMP JUMPDEST SWAP2 POP PUSH2 0x1D3A DUP3 PUSH2 0x1CF9 JUMP JUMPDEST PUSH1 0x20 DUP3 ADD SWAP1 POP SWAP2 SWAP1 POP JUMP JUMPDEST PUSH1 0x0 PUSH1 0x20 DUP3 ADD SWAP1 POP DUP2 DUP2 SUB PUSH1 0x0 DUP4 ADD MSTORE PUSH2 0x1D5E DUP2 PUSH2 0x1D22 JUMP JUMPDEST SWAP1 POP SWAP2 SWAP1 POP JUMP JUMPDEST PUSH32 0x416C726561647920566F74656400000000000000000000000000000000000000 PUSH1 0x0 DUP3 ADD MSTORE POP JUMP JUMPDEST PUSH1 0x0 PUSH2 0x1D9B PUSH1 0xD DUP4 PUSH2 0x1798 JUMP JUMPDEST SWAP2 POP PUSH2 0x1DA6 DUP3 PUSH2 0x1D65 JUMP JUMPDEST PUSH1 0x20 DUP3 ADD SWAP1 POP SWAP2 SWAP1 POP JUMP JUMPDEST PUSH1 0x0 PUSH1 0x20 DUP3 ADD SWAP1 POP DUP2 DUP2 SUB PUSH1 0x0 DUP4 ADD MSTORE PUSH2 0x1DCA DUP2 PUSH2 0x1D8E JUMP JUMPDEST SWAP1 POP SWAP2 SWAP1 POP JUMP JUMPDEST PUSH32 0x4E487B7100000000000000000000000000000000000000000000000000000000 PUSH1 0x0 MSTORE PUSH1 0x32 PUSH1 0x4 MSTORE PUSH1 0x24 PUSH1 0x0 REVERT JUMPDEST PUSH1 0x0 DUP2 SLOAD PUSH2 0x1E0D DUP2 PUSH2 0x19F7 JUMP JUMPDEST PUSH2 0x1E17 DUP2 DUP7 PUSH2 0x1A28 JUMP JUMPDEST SWAP5 POP PUSH1 0x1 DUP3 AND PUSH1 0x0 DUP2 EQ PUSH2 0x1E32 JUMPI PUSH1 0x1 DUP2 EQ PUSH2 0x1E47 JUMPI PUSH2 0x1E7A JUMP JUMPDEST PUSH1 0xFF NOT DUP4 AND DUP7 MSTORE DUP2 ISZERO ISZERO DUP3 MUL DUP7 ADD SWAP4 POP PUSH2 0x1E7A JUMP JUMPDEST PUSH2 0x1E50 DUP6 PUSH2 0x1A7B JUMP JUMPDEST PUSH1 0x0 JUMPDEST DUP4 DUP2 LT ISZERO PUSH2 0x1E72 JUMPI DUP2 SLOAD DUP2 DUP10 ADD MSTORE PUSH1 0x1 DUP3 ADD SWAP2 POP PUSH1 0x20 DUP2 ADD SWAP1 POP PUSH2 0x1E53 JUMP JUMPDEST DUP4 DUP9 ADD SWAP6 POP POP POP JUMPDEST POP POP POP SWAP3 SWAP2 POP POP JUMP JUMPDEST PUSH1 0x0 PUSH2 0x1E8F DUP3 DUP5 PUSH2 0x1E00 JUMP JUMPDEST SWAP2 POP DUP2 SWAP1 POP SWAP3 SWAP2 POP POP JUMP JUMPDEST PUSH32 0x4E487B7100000000000000000000000000000000000000000000000000000000 PUSH1 0x0 MSTORE PUSH1 0x11 PUSH1 0x4 MSTORE PUSH1 0x24 PUSH1 0x0 REVERT JUMPDEST PUSH1 0x0 PUSH4 0xFFFFFFFF DUP3 AND SWAP1 POP SWAP2 SWAP1 POP JUMP JUMPDEST PUSH1 0x0 PUSH2 0x1EE4 DUP3 PUSH2 0x1EC9 JUMP JUMPDEST SWAP2 POP PUSH4 0xFFFFFFFF DUP3 SUB PUSH2 0x1EFA JUMPI PUSH2 0x1EF9 PUSH2 0x1E9A JUMP JUMPDEST JUMPDEST PUSH1 0x1 DUP3 ADD SWAP1 POP SWAP2 SWAP1 POP JUMP INVALID LOG2 PUSH5 0x6970667358 0x22 SLT KECCAK256 PUSH10 0xDBA459EC79B66BDC45AB 0xDC 0xC4 0xD7 DUP6 DUP9 ADDRESS 0xD9 0xAB 0x2A 0xF9 BASEFEE SLT MLOAD REVERT XOR 0x25 INVALID SSTORE SAR 0x27 0xDB PUSH5 0x736F6C6343 STOP ADDMOD GT STOP CALLER "
				},
				"gasEstimates": {
					"creation": {
						"codeDepositCost": "1599000",
						"executionCost": "74613",
						"totalCost": "1673613"
					},
					"external": {
						"addAdmin(address)": "24835",
						"addCandidate(string,string)": "infinite",
						"candidates(string)": "infinite",
						"endElection()": "53217",
						"getCandidates()": "infinite",
						"getElectionDescription()": "infinite",
						"getElectionName()": "infinite",
						"getStatus()": "infinite",
						"getTotalCandidates()": "2535",
						"getTotalVoter()": "2491",
						"getVoters()": "infinite",
						"getVotes()": "infinite",
						"resetElection()": "infinite",
						"setElectionDetails(string,string)": "infinite",
						"vote(string,string,string)": "infinite",
						"voterIds(string)": "infinite"
					}
				},
				"methodIdentifiers": {
					"addAdmin(address)": "70480275",
					"addCandidate(string,string)": "26541b56",
					"candidates(string)": "c5539cc2",
					"endElection()": "59f78468",
					"getCandidates()": "06a49fce",
					"getElectionDescription()": "af8c50b6",
					"getElectionName()": "30e7a79c",
					"getStatus()": "4e69d560",
					"getTotalCandidates()": "0deb56ab",
					"getTotalVoter()": "0b93400e",
					"getVoters()": "cdd72253",
					"getVotes()": "0dc96015",
					"resetElection()": "e8f30523",
					"setElectionDetails(string,string)": "97929c63",
					"vote(string,string,string)": "95f59fe1",
					"voterIds(string)": "9ebed03f"
				}
			},
			"storageLayout": {
				"storage": [
					{
						"astId": 5,
						"contract": "khi.sol:Election",
						"label": "admins",
						"offset": 0,
						"slot": "0",
						"type": "t_mapping(t_address,t_bool)"
					},
					{
						"astId": 7,
						"contract": "khi.sol:Election",
						"label": "name",
						"offset": 0,
						"slot": "1",
						"type": "t_string_storage"
					},
					{
						"astId": 9,
						"contract": "khi.sol:Election",
						"label": "description",
						"offset": 0,
						"slot": "2",
						"type": "t_string_storage"
					},
					{
						"astId": 11,
						"contract": "khi.sol:Election",
						"label": "started",
						"offset": 0,
						"slot": "3",
						"type": "t_bool"
					},
					{
						"astId": 13,
						"contract": "khi.sol:Election",
						"label": "ended",
						"offset": 1,
						"slot": "3",
						"type": "t_bool"
					},
					{
						"astId": 62,
						"contract": "khi.sol:Election",
						"label": "candidates",
						"offset": 0,
						"slot": "4",
						"type": "t_mapping(t_string_memory_ptr,t_struct(Candidate)57_storage)"
					},
					{
						"astId": 65,
						"contract": "khi.sol:Election",
						"label": "candidateNames",
						"offset": 0,
						"slot": "5",
						"type": "t_array(t_string_storage)dyn_storage"
					},
					{
						"astId": 169,
						"contract": "khi.sol:Election",
						"label": "votes",
						"offset": 0,
						"slot": "6",
						"type": "t_array(t_struct(Vote)165_storage)dyn_storage"
					},
					{
						"astId": 173,
						"contract": "khi.sol:Election",
						"label": "voterIds",
						"offset": 0,
						"slot": "7",
						"type": "t_mapping(t_string_memory_ptr,t_bool)"
					},
					{
						"astId": 176,
						"contract": "khi.sol:Election",
						"label": "votersArray",
						"offset": 0,
						"slot": "8",
						"type": "t_array(t_string_storage)dyn_storage"
					}
				],
				"types": {
					"t_address": {
						"encoding": "inplace",
						"label": "address",
						"numberOfBytes": "20"
					},
					"t_array(t_string_storage)dyn_storage": {
						"base": "t_string_storage",
						"encoding": "dynamic_array",
						"label": "string[]",
						"numberOfBytes": "32"
					},
					"t_array(t_struct(Vote)165_storage)dyn_storage": {
						"base": "t_struct(Vote)165_storage",
						"encoding": "dynamic_array",
						"label": "struct Election.Vote[]",
						"numberOfBytes": "32"
					},
					"t_bool": {
						"encoding": "inplace",
						"label": "bool",
						"numberOfBytes": "1"
					},
					"t_mapping(t_address,t_bool)": {
						"encoding": "mapping",
						"key": "t_address",
						"label": "mapping(address => bool)",
						"numberOfBytes": "32",
						"value": "t_bool"
					},
					"t_mapping(t_string_memory_ptr,t_bool)": {
						"encoding": "mapping",
						"key": "t_string_memory_ptr",
						"label": "mapping(string => bool)",
						"numberOfBytes": "32",
						"value": "t_bool"
					},
					"t_mapping(t_string_memory_ptr,t_struct(Candidate)57_storage)": {
						"encoding": "mapping",
						"key": "t_string_memory_ptr",
						"label": "mapping(string => struct Election.Candidate)",
						"numberOfBytes": "32",
						"value": "t_struct(Candidate)57_storage"
					},
					"t_string_memory_ptr": {
						"encoding": "bytes",
						"label": "string",
						"numberOfBytes": "32"
					},
					"t_string_storage": {
						"encoding": "bytes",
						"label": "string",
						"numberOfBytes": "32"
					},
					"t_struct(Candidate)57_storage": {
						"encoding": "inplace",
						"label": "struct Election.Candidate",
						"members": [
							{
								"astId": 52,
								"contract": "khi.sol:Election",
								"label": "name",
								"offset": 0,
								"slot": "0",
								"type": "t_string_storage"
							},
							{
								"astId": 54,
								"contract": "khi.sol:Election",
								"label": "info",
								"offset": 0,
								"slot": "1",
								"type": "t_string_storage"
							},
							{
								"astId": 56,
								"contract": "khi.sol:Election",
								"label": "exists",
								"offset": 0,
								"slot": "2",
								"type": "t_bool"
							}
						],
						"numberOfBytes": "96"
					},
					"t_struct(Vote)165_storage": {
						"encoding": "inplace",
						"label": "struct Election.Vote",
						"members": [
							{
								"astId": 158,
								"contract": "khi.sol:Election",
								"label": "voterAddress",
								"offset": 0,
								"slot": "0",
								"type": "t_address"
							},
							{
								"astId": 160,
								"contract": "khi.sol:Election",
								"label": "voterId",
								"offset": 0,
								"slot": "1",
								"type": "t_string_storage"
							},
							{
								"astId": 162,
								"contract": "khi.sol:Election",
								"label": "voterName",
								"offset": 0,
								"slot": "2",
								"type": "t_string_storage"
							},
							{
								"astId": 164,
								"contract": "khi.sol:Election",
								"label": "candidate",
								"offset": 0,
								"slot": "3",
								"type": "t_string_storage"
							}
						],
						"numberOfBytes": "128"
					}
				}
			},
			"userdoc": {
				"kind": "user",
				"methods": {},
				"version": 1
			}
		}
	}
}